{
  "_format": "hh-sol-artifact-1",
  "contractName": "BetZilla",
  "sourceName": "contracts/BetZilla.sol",
  "abi": [
    {
      "inputs": [],
      "stateMutability": "nonpayable",
      "type": "constructor"
    },
    {
      "anonymous": false,
      "inputs": [
        {
          "indexed": false,
          "internalType": "uint256",
          "name": "marketId",
          "type": "uint256"
        },
        {
          "indexed": true,
          "internalType": "address",
          "name": "user",
          "type": "address"
        },
        {
          "indexed": false,
          "internalType": "enum BetZilla.Outcome",
          "name": "outcome",
          "type": "uint8"
        },
        {
          "indexed": false,
          "internalType": "uint256",
          "name": "amount",
          "type": "uint256"
        }
      ],
      "name": "BetPlaced",
      "type": "event"
    },
    {
      "anonymous": false,
      "inputs": [
        {
          "indexed": false,
          "internalType": "uint256",
          "name": "marketId",
          "type": "uint256"
        },
        {
          "indexed": false,
          "internalType": "uint256[3]",
          "name": "finalOdds",
          "type": "uint256[3]"
        }
      ],
      "name": "BettingClosed",
      "type": "event"
    },
    {
      "anonymous": false,
      "inputs": [
        {
          "indexed": false,
          "internalType": "uint256",
          "name": "marketId",
          "type": "uint256"
        },
        {
          "indexed": false,
          "internalType": "string",
          "name": "reason",
          "type": "string"
        }
      ],
      "name": "MarketAutoRefunded",
      "type": "event"
    },
    {
      "anonymous": false,
      "inputs": [
        {
          "indexed": false,
          "internalType": "uint256",
          "name": "marketId",
          "type": "uint256"
        }
      ],
      "name": "MarketCancelled",
      "type": "event"
    },
    {
      "anonymous": false,
      "inputs": [
        {
          "indexed": false,
          "internalType": "uint256",
          "name": "marketId",
          "type": "uint256"
        },
        {
          "indexed": false,
          "internalType": "string",
          "name": "description",
          "type": "string"
        },
        {
          "indexed": false,
          "internalType": "uint256",
          "name": "startTime",
          "type": "uint256"
        }
      ],
      "name": "MarketCreated",
      "type": "event"
    },
    {
      "anonymous": false,
      "inputs": [
        {
          "indexed": false,
          "internalType": "uint256",
          "name": "marketId",
          "type": "uint256"
        },
        {
          "indexed": false,
          "internalType": "enum BetZilla.Outcome",
          "name": "winningOutcome",
          "type": "uint8"
        }
      ],
      "name": "MarketResolved",
      "type": "event"
    },
    {
      "anonymous": false,
      "inputs": [
        {
          "indexed": false,
          "internalType": "uint256",
          "name": "marketId",
          "type": "uint256"
        },
        {
          "indexed": false,
          "internalType": "address",
          "name": "user",
          "type": "address"
        },
        {
          "indexed": false,
          "internalType": "uint256",
          "name": "amount",
          "type": "uint256"
        }
      ],
      "name": "RefundClaimed",
      "type": "event"
    },
    {
      "anonymous": false,
      "inputs": [
        {
          "indexed": false,
          "internalType": "uint256",
          "name": "marketId",
          "type": "uint256"
        },
        {
          "indexed": false,
          "internalType": "address",
          "name": "user",
          "type": "address"
        },
        {
          "indexed": false,
          "internalType": "uint256",
          "name": "netPayout",
          "type": "uint256"
        },
        {
          "indexed": false,
          "internalType": "uint256",
          "name": "feeAmount",
          "type": "uint256"
        }
      ],
      "name": "WinningsClaimed",
      "type": "event"
    },
    {
      "stateMutability": "payable",
      "type": "fallback"
    },
    {
      "inputs": [],
      "name": "EARLY_FEE_PERCENT",
      "outputs": [
        {
          "internalType": "uint256",
          "name": "",
          "type": "uint256"
        }
      ],
      "stateMutability": "view",
      "type": "function"
    },
    {
      "inputs": [],
      "name": "LATE_FEE_PERCENT",
      "outputs": [
        {
          "internalType": "uint256",
          "name": "",
          "type": "uint256"
        }
      ],
      "stateMutability": "view",
      "type": "function"
    },
    {
      "inputs": [],
      "name": "MIN_BET_AMOUNT",
      "outputs": [
        {
          "internalType": "uint256",
          "name": "",
          "type": "uint256"
        }
      ],
      "stateMutability": "view",
      "type": "function"
    },
    {
      "inputs": [],
      "name": "MIN_ODDS",
      "outputs": [
        {
          "internalType": "uint256",
          "name": "",
          "type": "uint256"
        }
      ],
      "stateMutability": "view",
      "type": "function"
    },
    {
      "inputs": [],
      "name": "MIN_POOL_SIZE",
      "outputs": [
        {
          "internalType": "uint256",
          "name": "",
          "type": "uint256"
        }
      ],
      "stateMutability": "view",
      "type": "function"
    },
    {
      "inputs": [],
      "name": "accumulatedFees",
      "outputs": [
        {
          "internalType": "uint256",
          "name": "",
          "type": "uint256"
        }
      ],
      "stateMutability": "view",
      "type": "function"
    },
    {
      "inputs": [
        {
          "internalType": "uint256",
          "name": "",
          "type": "uint256"
        },
        {
          "internalType": "address",
          "name": "",
          "type": "address"
        }
      ],
      "name": "bets",
      "outputs": [
        {
          "internalType": "enum BetZilla.Outcome",
          "name": "outcome",
          "type": "uint8"
        },
        {
          "internalType": "uint256",
          "name": "amount",
          "type": "uint256"
        },
        {
          "internalType": "bool",
          "name": "claimed",
          "type": "bool"
        },
        {
          "internalType": "bool",
          "name": "refunded",
          "type": "bool"
        },
        {
          "internalType": "uint256",
          "name": "placedAt",
          "type": "uint256"
        }
      ],
      "stateMutability": "view",
      "type": "function"
    },
    {
      "inputs": [
        {
          "internalType": "uint256",
          "name": "marketId",
          "type": "uint256"
        }
      ],
      "name": "cancelMarket",
      "outputs": [],
      "stateMutability": "nonpayable",
      "type": "function"
    },
    {
      "inputs": [
        {
          "internalType": "uint256",
          "name": "marketId",
          "type": "uint256"
        }
      ],
      "name": "claimRefund",
      "outputs": [],
      "stateMutability": "nonpayable",
      "type": "function"
    },
    {
      "inputs": [
        {
          "internalType": "uint256",
          "name": "marketId",
          "type": "uint256"
        }
      ],
      "name": "claimWinnings",
      "outputs": [],
      "stateMutability": "nonpayable",
      "type": "function"
    },
    {
      "inputs": [
        {
          "internalType": "uint256",
          "name": "marketId",
          "type": "uint256"
        }
      ],
      "name": "closeBetting",
      "outputs": [],
      "stateMutability": "nonpayable",
      "type": "function"
    },
    {
      "inputs": [
        {
          "internalType": "string",
          "name": "description",
          "type": "string"
        },
        {
          "internalType": "uint256",
          "name": "startTime",
          "type": "uint256"
        }
      ],
      "name": "createMarket",
      "outputs": [],
      "stateMutability": "nonpayable",
      "type": "function"
    },
    {
      "inputs": [],
      "name": "emergencyWithdraw",
      "outputs": [],
      "stateMutability": "nonpayable",
      "type": "function"
    },
    {
      "inputs": [
        {
          "internalType": "uint256",
          "name": "marketId",
          "type": "uint256"
        }
      ],
      "name": "getBettingPhase",
      "outputs": [
        {
          "internalType": "bool",
          "name": "isEarlyPhase",
          "type": "bool"
        },
        {
          "internalType": "bool",
          "name": "isLatePhase",
          "type": "bool"
        },
        {
          "internalType": "uint256",
          "name": "currentFeePercent",
          "type": "uint256"
        },
        {
          "internalType": "uint256",
          "name": "hoursUntilMatch",
          "type": "uint256"
        }
      ],
      "stateMutability": "view",
      "type": "function"
    },
    {
      "inputs": [
        {
          "internalType": "uint256",
          "name": "marketId",
          "type": "uint256"
        }
      ],
      "name": "getCurrentFee",
      "outputs": [
        {
          "internalType": "uint256",
          "name": "",
          "type": "uint256"
        }
      ],
      "stateMutability": "view",
      "type": "function"
    },
    {
      "inputs": [
        {
          "internalType": "uint256",
          "name": "marketId",
          "type": "uint256"
        }
      ],
      "name": "getEstimatedOdds",
      "outputs": [
        {
          "internalType": "uint256[3]",
          "name": "",
          "type": "uint256[3]"
        }
      ],
      "stateMutability": "view",
      "type": "function"
    },
    {
      "inputs": [
        {
          "internalType": "uint256",
          "name": "marketId",
          "type": "uint256"
        }
      ],
      "name": "getMarket",
      "outputs": [
        {
          "internalType": "string",
          "name": "description",
          "type": "string"
        },
        {
          "internalType": "uint256",
          "name": "totalAmount",
          "type": "uint256"
        },
        {
          "internalType": "uint256[3]",
          "name": "outcomeAmounts",
          "type": "uint256[3]"
        },
        {
          "internalType": "bool",
          "name": "isClosed",
          "type": "bool"
        },
        {
          "internalType": "bool",
          "name": "isResolved",
          "type": "bool"
        },
        {
          "internalType": "bool",
          "name": "isCancelled",
          "type": "bool"
        },
        {
          "internalType": "enum BetZilla.Outcome",
          "name": "winningOutcome",
          "type": "uint8"
        },
        {
          "internalType": "uint256[3]",
          "name": "finalOdds",
          "type": "uint256[3]"
        }
      ],
      "stateMutability": "view",
      "type": "function"
    },
    {
      "inputs": [
        {
          "internalType": "uint256",
          "name": "marketId",
          "type": "uint256"
        }
      ],
      "name": "getMarketStatus",
      "outputs": [
        {
          "internalType": "bool",
          "name": "isActive",
          "type": "bool"
        },
        {
          "internalType": "bool",
          "name": "hasValidActivity",
          "type": "bool"
        },
        {
          "internalType": "string",
          "name": "statusMessage",
          "type": "string"
        },
        {
          "internalType": "uint256",
          "name": "totalPool",
          "type": "uint256"
        },
        {
          "internalType": "uint8",
          "name": "activeOutcomes",
          "type": "uint8"
        }
      ],
      "stateMutability": "view",
      "type": "function"
    },
    {
      "inputs": [
        {
          "internalType": "uint256",
          "name": "marketId",
          "type": "uint256"
        },
        {
          "internalType": "address",
          "name": "user",
          "type": "address"
        }
      ],
      "name": "getUserBet",
      "outputs": [
        {
          "internalType": "enum BetZilla.Outcome",
          "name": "outcome",
          "type": "uint8"
        },
        {
          "internalType": "uint256",
          "name": "amount",
          "type": "uint256"
        },
        {
          "internalType": "bool",
          "name": "claimed",
          "type": "bool"
        }
      ],
      "stateMutability": "view",
      "type": "function"
    },
    {
      "inputs": [
        {
          "internalType": "uint256",
          "name": "marketId",
          "type": "uint256"
        },
        {
          "internalType": "address",
          "name": "user",
          "type": "address"
        }
      ],
      "name": "getUserFee",
      "outputs": [
        {
          "internalType": "uint256",
          "name": "",
          "type": "uint256"
        }
      ],
      "stateMutability": "view",
      "type": "function"
    },
    {
      "inputs": [
        {
          "internalType": "address",
          "name": "user",
          "type": "address"
        }
      ],
      "name": "getUserMarkets",
      "outputs": [
        {
          "internalType": "uint256[]",
          "name": "",
          "type": "uint256[]"
        }
      ],
      "stateMutability": "view",
      "type": "function"
    },
    {
      "inputs": [],
      "name": "marketCount",
      "outputs": [
        {
          "internalType": "uint256",
          "name": "",
          "type": "uint256"
        }
      ],
      "stateMutability": "view",
      "type": "function"
    },
    {
      "inputs": [
        {
          "internalType": "uint256",
          "name": "",
          "type": "uint256"
        }
      ],
      "name": "markets",
      "outputs": [
        {
          "internalType": "string",
          "name": "description",
          "type": "string"
        },
        {
          "internalType": "uint256",
          "name": "totalAmount",
          "type": "uint256"
        },
        {
          "internalType": "bool",
          "name": "isClosed",
          "type": "bool"
        },
        {
          "internalType": "bool",
          "name": "isResolved",
          "type": "bool"
        },
        {
          "internalType": "bool",
          "name": "isCancelled",
          "type": "bool"
        },
        {
          "internalType": "enum BetZilla.Outcome",
          "name": "winningOutcome",
          "type": "uint8"
        },
        {
          "internalType": "uint256",
          "name": "startTime",
          "type": "uint256"
        }
      ],
      "stateMutability": "view",
      "type": "function"
    },
    {
      "inputs": [],
      "name": "owner",
      "outputs": [
        {
          "internalType": "address",
          "name": "",
          "type": "address"
        }
      ],
      "stateMutability": "view",
      "type": "function"
    },
    {
      "inputs": [
        {
          "internalType": "uint256",
          "name": "marketId",
          "type": "uint256"
        },
        {
          "internalType": "enum BetZilla.Outcome",
          "name": "outcome",
          "type": "uint8"
        }
      ],
      "name": "placeBet",
      "outputs": [],
      "stateMutability": "payable",
      "type": "function"
    },
    {
      "inputs": [
        {
          "internalType": "uint256",
          "name": "marketId",
          "type": "uint256"
        },
        {
          "internalType": "address",
          "name": "user",
          "type": "address"
        }
      ],
      "name": "previewWinnings",
      "outputs": [
        {
          "internalType": "uint256",
          "name": "grossPayout",
          "type": "uint256"
        },
        {
          "internalType": "uint256",
          "name": "feeAmount",
          "type": "uint256"
        },
        {
          "internalType": "uint256",
          "name": "netPayout",
          "type": "uint256"
        },
        {
          "internalType": "uint256",
          "name": "feePercent",
          "type": "uint256"
        }
      ],
      "stateMutability": "view",
      "type": "function"
    },
    {
      "inputs": [
        {
          "internalType": "uint256",
          "name": "marketId",
          "type": "uint256"
        },
        {
          "internalType": "enum BetZilla.Outcome",
          "name": "outcome",
          "type": "uint8"
        }
      ],
      "name": "setResult",
      "outputs": [],
      "stateMutability": "nonpayable",
      "type": "function"
    },
    {
      "inputs": [
        {
          "internalType": "address",
          "name": "",
          "type": "address"
        },
        {
          "internalType": "uint256",
          "name": "",
          "type": "uint256"
        }
      ],
      "name": "userMarketIds",
      "outputs": [
        {
          "internalType": "uint256",
          "name": "",
          "type": "uint256"
        }
      ],
      "stateMutability": "view",
      "type": "function"
    },
    {
      "inputs": [],
      "name": "withdrawFees",
      "outputs": [],
      "stateMutability": "nonpayable",
      "type": "function"
    },
    {
      "stateMutability": "payable",
      "type": "receive"
    }
  ],
  "bytecode": "0x608060405234801561001057600080fd5b50336000806101000a81548173ffffffffffffffffffffffffffffffffffffffff021916908373ffffffffffffffffffffffffffffffffffffffff1602179055506158b880620000616000396000f3fe6080604052600436106101c65760003560e01c8063b1283e77116100f7578063e275913211610095578063ec97908211610064578063ec979082146106fb578063f0add5b714610726578063f24cd6a014610763578063f644b3bb146107a357610218565b8063e27591321461060e578063e469e1c214610639578063eb44fdd314610676578063ec5a711a146106ba57610218565b8063bf1b87f4116100d1578063bf1b87f414610550578063c03fb87c1461057b578063da4473d8146105ba578063db2e21bc146105f757610218565b8063b1283e77146104b9578063b4ad06a1146104fc578063bdffaf7b1461052557610218565b8063677bd9ff116101645780637c16cd9e1161013e5780637c16cd9e14610411578063883c84c11461043a5780638da5cb5b14610463578063ae07d0511461048e57610218565b8063677bd9ff1461036b5780636c28568114610394578063726c1ffb146103d157610218565b806356150a36116101a057806356150a36146102c3578063587f5ed7146102ec5780635b7baf64146103175780636475e3d31461034057610218565b806303edf914146102535780633d7957751461026f578063476343ee146102ac57610218565b3661021857678ac7230489e80000341115610216576040517f08c379a000000000000000000000000000000000000000000000000000000000815260040161020d90613446565b60405180910390fd5b005b6040517f08c379a000000000000000000000000000000000000000000000000000000000815260040161024a906134fe565b60405180910390fd5b61026d6004803603810190610268919061358d565b6107e4565b005b34801561027b57600080fd5b50610296600480360381019061029191906135cd565b610d04565b6040516102a391906136a5565b60405180910390f35b3480156102b857600080fd5b506102c1610ee4565b005b3480156102cf57600080fd5b506102ea60048036038101906102e5919061358d565b611097565b005b3480156102f857600080fd5b506103016113a3565b60405161030e91906136cf565b60405180910390f35b34801561032357600080fd5b5061033e600480360381019061033991906135cd565b6113a9565b005b34801561034c57600080fd5b50610355611665565b60405161036291906136cf565b60405180910390f35b34801561037757600080fd5b50610392600480360381019061038d91906135cd565b611670565b005b3480156103a057600080fd5b506103bb60048036038101906103b691906135cd565b611b75565b6040516103c891906136cf565b60405180910390f35b3480156103dd57600080fd5b506103f860048036038101906103f39190613748565b611c25565b6040516104089493929190613788565b60405180910390f35b34801561041d57600080fd5b50610438600480360381019061043391906135cd565b611e5d565b005b34801561044657600080fd5b50610461600480360381019061045c9190613913565b61201c565b005b34801561046f57600080fd5b50610478612323565b604051610485919061397e565b60405180910390f35b34801561049a57600080fd5b506104a3612347565b6040516104b091906136cf565b60405180910390f35b3480156104c557600080fd5b506104e060048036038101906104db91906135cd565b61234c565b6040516104f39796959493929190613a99565b60405180910390f35b34801561050857600080fd5b50610523600480360381019061051e91906135cd565b61244a565b005b34801561053157600080fd5b5061053a61282b565b60405161054791906136cf565b60405180910390f35b34801561055c57600080fd5b50610565612836565b60405161057291906136cf565b60405180910390f35b34801561058757600080fd5b506105a2600480360381019061059d9190613748565b61283b565b6040516105b193929190613b0f565b60405180910390f35b3480156105c657600080fd5b506105e160048036038101906105dc9190613b46565b61291e565b6040516105ee9190613c0a565b60405180910390f35b34801561060357600080fd5b5061060c6129b5565b005b34801561061a57600080fd5b50610623612b6a565b60405161063091906136cf565b60405180910390f35b34801561064557600080fd5b50610660600480360381019061065b9190613c2c565b612b6f565b60405161066d91906136cf565b60405180910390f35b34801561068257600080fd5b5061069d600480360381019061069891906135cd565b612ba0565b6040516106b1989796959493929190613c6c565b60405180910390f35b3480156106c657600080fd5b506106e160048036038101906106dc91906135cd565b612da3565b6040516106f2959493929190613d0f565b60405180910390f35b34801561070757600080fd5b50610710612fa7565b60405161071d91906136cf565b60405180910390f35b34801561073257600080fd5b5061074d60048036038101906107489190613748565b612fad565b60405161075a91906136cf565b60405180910390f35b34801561076f57600080fd5b5061078a600480360381019061078591906135cd565b6130d2565b60405161079a9493929190613d69565b60405180910390f35b3480156107af57600080fd5b506107ca60048036038101906107c59190613748565b6131c1565b6040516107db959493929190613dae565b60405180910390f35b816000811180156107f757506001548111155b610836576040517f08c379a000000000000000000000000000000000000000000000000000000000815260040161082d90613e4d565b60405180910390fd5b60006003600085815260200190815260200160002090508060050160009054906101000a900460ff161561089f576040517f08c379a000000000000000000000000000000000000000000000000000000000815260040161089690613edf565b60405180910390fd5b8060050160029054906101000a900460ff16156108f1576040517f08c379a00000000000000000000000000000000000000000000000000000000081526004016108e890613f71565b60405180910390fd5b603c81600601546109029190613fc0565b4210610943576040517f08c379a000000000000000000000000000000000000000000000000000000000815260040161093a90614066565b60405180910390fd5b6001600381111561095757610956613a22565b5b83600381111561096a57610969613a22565b5b1015801561099c575060038081111561098657610985613a22565b5b83600381111561099957610998613a22565b5b11155b6109db576040517f08c379a00000000000000000000000000000000000000000000000000000000081526004016109d2906140f8565b60405180910390fd5b66038d7ea4c68000341015610a25576040517f08c379a0000000000000000000000000000000000000000000000000000000008152600401610a1c9061418a565b60405180910390fd5b34816001016000828254610a3991906141aa565b9250508190555034816002016001856003811115610a5a57610a59613a22565b5b610a6491906141de565b60ff1660038110610a7857610a77614213565b5b016000828254610a8891906141aa565b925050819055506000806004600087815260200190815260200160002060003373ffffffffffffffffffffffffffffffffffffffff1673ffffffffffffffffffffffffffffffffffffffff168152602001908152602001600020600101541490508015610c70576040518060a00160405280856003811115610b0d57610b0c613a22565b5b8152602001348152602001600015158152602001600015158152602001428152506004600087815260200190815260200160002060003373ffffffffffffffffffffffffffffffffffffffff1673ffffffffffffffffffffffffffffffffffffffff16815260200190815260200160002060008201518160000160006101000a81548160ff02191690836003811115610ba957610ba8613a22565b5b02179055506020820151816001015560408201518160020160006101000a81548160ff02191690831515021790555060608201518160020160016101000a81548160ff02191690831515021790555060808201518160030155905050600560003373ffffffffffffffffffffffffffffffffffffffff1673ffffffffffffffffffffffffffffffffffffffff168152602001908152602001600020859080600181540180825580915050600190039060005260206000200160009091909190915055610cab565b6040517f08c379a0000000000000000000000000000000000000000000000000000000008152600401610ca2906142b4565b60405180910390fd5b3373ffffffffffffffffffffffffffffffffffffffff167f4f1eed5e863a822b0f9eb960dfdab2cc5a99beec4b191f2a7a9c7e28e5a15524868634604051610cf5939291906142d4565b60405180910390a25050505050565b610d0c613344565b81600081118015610d1f57506001548111155b610d5e576040517f08c379a0000000000000000000000000000000000000000000000000000000008152600401610d5590613e4d565b60405180910390fd5b60006003600085815260200190815260200160002090508060050160009054906101000a900460ff1615610dd45780600701600380602002604051908101604052809291908260038015610dc7576020028201915b815481526020019060010190808311610db3575b5050505050925050610ede565b6000816001015403610e0657604051806060016040528060c8815260200160c8815260200160c8815250925050610ede565b610e0e613344565b60005b6003811015610ed7576000836002018260038110610e3257610e31614213565b5b01541115610ea5576000836002018260038110610e5257610e51614213565b5b015460648560010154610e65919061430b565b610e6f919061437c565b90506065811015610e81576065610e83565b805b838360038110610e9657610e95614213565b5b60200201818152505050610ec4565b6000828260038110610eba57610eb9614213565b5b6020020181815250505b8080610ecf906143ad565b915050610e11565b5080935050505b50919050565b60008054906101000a900473ffffffffffffffffffffffffffffffffffffffff1673ffffffffffffffffffffffffffffffffffffffff163373ffffffffffffffffffffffffffffffffffffffff1614610f72576040517f08c379a0000000000000000000000000000000000000000000000000000000008152600401610f6990614467565b60405180910390fd5b600060025411610fb7576040517f08c379a0000000000000000000000000000000000000000000000000000000008152600401610fae906144f9565b60405180910390fd5b60006002549050600060028190555060008060009054906101000a900473ffffffffffffffffffffffffffffffffffffffff1673ffffffffffffffffffffffffffffffffffffffff168260405161100d9061454a565b60006040518083038185875af1925050503d806000811461104a576040519150601f19603f3d011682016040523d82523d6000602084013e61104f565b606091505b5050905080611093576040517f08c379a000000000000000000000000000000000000000000000000000000000815260040161108a906145d1565b60405180910390fd5b5050565b60008054906101000a900473ffffffffffffffffffffffffffffffffffffffff1673ffffffffffffffffffffffffffffffffffffffff163373ffffffffffffffffffffffffffffffffffffffff1614611125576040517f08c379a000000000000000000000000000000000000000000000000000000000815260040161111c90614467565b60405180910390fd5b8160008111801561113857506001548111155b611177576040517f08c379a000000000000000000000000000000000000000000000000000000000815260040161116e90613e4d565b60405180910390fd5b6001600381111561118b5761118a613a22565b5b82600381111561119e5761119d613a22565b5b101580156111d057506003808111156111ba576111b9613a22565b5b8260038111156111cd576111cc613a22565b5b11155b61120f576040517f08c379a000000000000000000000000000000000000000000000000000000000815260040161120690614663565b60405180910390fd5b60006003600085815260200190815260200160002090508060050160009054906101000a900460ff16611277576040517f08c379a000000000000000000000000000000000000000000000000000000000815260040161126e906146f5565b60405180910390fd5b8060050160019054906101000a900460ff16156112c9576040517f08c379a00000000000000000000000000000000000000000000000000000000081526004016112c090614787565b60405180910390fd5b8060050160029054906101000a900460ff161561131b576040517f08c379a000000000000000000000000000000000000000000000000000000000815260040161131290614819565b60405180910390fd5b828160050160036101000a81548160ff0219169083600381111561134257611341613a22565b5b021790555060018160050160016101000a81548160ff0219169083151502179055507f739f283563fb51ab6b89ee95d937b2e63a6cfcb83c385dbebb629f9d97bd43e68484604051611395929190614839565b60405180910390a150505050565b60025481565b806000811180156113bc57506001548111155b6113fb576040517f08c379a00000000000000000000000000000000000000000000000000000000081526004016113f290613e4d565b60405180910390fd5b600060036000848152602001908152602001600020905060006004600085815260200190815260200160002060003373ffffffffffffffffffffffffffffffffffffffff1673ffffffffffffffffffffffffffffffffffffffff16815260200190815260200160002090508160050160029054906101000a900460ff166114b7576040517f08c379a00000000000000000000000000000000000000000000000000000000081526004016114ae906148d4565b60405180910390fd5b8060020160019054906101000a900460ff1615611509576040517f08c379a000000000000000000000000000000000000000000000000000000000815260040161150090614966565b60405180910390fd5b6000816001015411611550576040517f08c379a0000000000000000000000000000000000000000000000000000000008152600401611547906149f8565b60405180910390fd5b60008160010154905060018260020160016101000a81548160ff02191690831515021790555060003373ffffffffffffffffffffffffffffffffffffffff168260405161159c9061454a565b60006040518083038185875af1925050503d80600081146115d9576040519150601f19603f3d011682016040523d82523d6000602084013e6115de565b606091505b5050905080611622576040517f08c379a000000000000000000000000000000000000000000000000000000000815260040161161990614a64565b60405180910390fd5b7ff3f402280ef0a7905e124aa621b65eaeb2725c343e8b36d398ed78c29daf285c86338460405161165593929190614a84565b60405180910390a1505050505050565b66038d7ea4c6800081565b8060008111801561168357506001548111155b6116c2576040517f08c379a00000000000000000000000000000000000000000000000000000000081526004016116b990613e4d565b60405180910390fd5b600060036000848152602001908152602001600020905060006004600085815260200190815260200160002060003373ffffffffffffffffffffffffffffffffffffffff1673ffffffffffffffffffffffffffffffffffffffff16815260200190815260200160002090508160050160019054906101000a900460ff1661177e576040517f08c379a000000000000000000000000000000000000000000000000000000000815260040161177590614b2d565b60405180910390fd5b8060020160009054906101000a900460ff16156117d0576040517f08c379a00000000000000000000000000000000000000000000000000000000081526004016117c790614bbf565b60405180910390fd5b8160050160039054906101000a900460ff1660038111156117f4576117f3613a22565b5b8160000160009054906101000a900460ff16600381111561181857611817613a22565b5b14611858576040517f08c379a000000000000000000000000000000000000000000000000000000000815260040161184f90614c51565b60405180910390fd5b600081600101541161189f576040517f08c379a000000000000000000000000000000000000000000000000000000000815260040161189690614ce3565b60405180910390fd5b60008260070160018360000160009054906101000a900460ff1660038111156118cb576118ca613a22565b5b6118d591906141de565b60ff16600381106118e9576118e8614213565b5b0154905060008111611930576040517f08c379a000000000000000000000000000000000000000000000000000000000815260040161192790614d75565b60405180910390fd5b60006064828460010154611944919061430b565b61194e919061437c565b90506000836003015485600601541161196857600061197d565b8360030154856006015461197c9190613fc0565b5b90506000620151808211611992576003611995565b60025b90506000606482856119a7919061430b565b6119b1919061437c565b9050600081856119c19190613fc0565b905080471015611a06576040517f08c379a00000000000000000000000000000000000000000000000000000000081526004016119fd90614e07565b60405180910390fd5b60008111611a49576040517f08c379a0000000000000000000000000000000000000000000000000000000008152600401611a4090614e99565b60405180910390fd5b60018760020160006101000a81548160ff0219169083151502179055508160026000828254611a7891906141aa565b9250508190555060003373ffffffffffffffffffffffffffffffffffffffff1682604051611aa59061454a565b60006040518083038185875af1925050503d8060008114611ae2576040519150601f19603f3d011682016040523d82523d6000602084013e611ae7565b606091505b5050905080611b2b576040517f08c379a0000000000000000000000000000000000000000000000000000000008152600401611b2290614f2b565b60405180910390fd5b7f6256309dc4c6375473b26b31fc0e88b0ca9ebca0e558d39fec5aa96863ad40cb8b338486604051611b609493929190614f4b565b60405180910390a15050505050505050505050565b600081600081118015611b8a57506001548111155b611bc9576040517f08c379a0000000000000000000000000000000000000000000000000000000008152600401611bc090613e4d565b60405180910390fd5b6000600360008581526020019081526020016000209050600042826006015411611bf4576000611c05565b428260060154611c049190613fc0565b5b9050620151808111611c18576003611c1b565b60025b9350505050919050565b60008060008085600081118015611c3e57506001548111155b611c7d576040517f08c379a0000000000000000000000000000000000000000000000000000000008152600401611c7490613e4d565b60405180910390fd5b60006003600089815260200190815260200160002090506000600460008a815260200190815260200160002060008973ffffffffffffffffffffffffffffffffffffffff1673ffffffffffffffffffffffffffffffffffffffff1681526020019081526020016000209050600081600101541480611d0a57508160050160019054906101000a900460ff16155b80611d5b57508160050160039054906101000a900460ff166003811115611d3457611d33613a22565b5b8160000160009054906101000a900460ff166003811115611d5857611d57613a22565b5b14155b15611d755760008060008096509650965096505050611e53565b60008260070160018360000160009054906101000a900460ff166003811115611da157611da0613a22565b5b611dab91906141de565b60ff1660038110611dbf57611dbe614213565b5b015490506064818360010154611dd5919061430b565b611ddf919061437c565b975060008260030154846006015411611df9576000611e0e565b82600301548460060154611e0d9190613fc0565b5b9050620151808111611e21576003611e24565b60025b95506064868a611e34919061430b565b611e3e919061437c565b97508789611e4c9190613fc0565b9650505050505b5092959194509250565b60008054906101000a900473ffffffffffffffffffffffffffffffffffffffff1673ffffffffffffffffffffffffffffffffffffffff163373ffffffffffffffffffffffffffffffffffffffff1614611eeb576040517f08c379a0000000000000000000000000000000000000000000000000000000008152600401611ee290614467565b60405180910390fd5b80600081118015611efe57506001548111155b611f3d576040517f08c379a0000000000000000000000000000000000000000000000000000000008152600401611f3490613e4d565b60405180910390fd5b60006003600084815260200190815260200160002090508060050160019054906101000a900460ff1615611fa6576040517f08c379a0000000000000000000000000000000000000000000000000000000008152600401611f9d90615002565b60405180910390fd5b60018160050160026101000a81548160ff02191690831515021790555060018160050160006101000a81548160ff0219169083151502179055507f2ca440fb7fca85d7f55d395a4abd94817330b83a62f3502efbb4770144e4ca978360405161200f91906136cf565b60405180910390a1505050565b60008054906101000a900473ffffffffffffffffffffffffffffffffffffffff1673ffffffffffffffffffffffffffffffffffffffff163373ffffffffffffffffffffffffffffffffffffffff16146120aa576040517f08c379a00000000000000000000000000000000000000000000000000000000081526004016120a190614467565b60405180910390fd5b4281116120ec576040517f08c379a00000000000000000000000000000000000000000000000000000000081526004016120e390615094565b60405180910390fd5b6000825111612130576040517f08c379a000000000000000000000000000000000000000000000000000000000815260040161212790615126565b60405180910390fd5b60016000815480929190612143906143ad565b9190505550604051806101200160405280838152602001600081526020016040518060600160405280600081526020016000815260200160008152508152602001600015158152602001600015158152602001600015158152602001600060038111156121b3576121b2613a22565b5b815260200182815260200160405180606001604052806000815260200160008152602001600081525081525060036000600154815260200190815260200160002060008201518160000190816122099190615352565b506020820151816001015560408201518160020190600361222b929190613366565b5060608201518160050160006101000a81548160ff02191690831515021790555060808201518160050160016101000a81548160ff02191690831515021790555060a08201518160050160026101000a81548160ff02191690831515021790555060c08201518160050160036101000a81548160ff021916908360038111156122b7576122b6613a22565b5b021790555060e08201518160060155610100820151816007019060036122de929190613366565b509050507f2d1e9ad45dbe8e898e0374deebf2a661b2ae7c1855d2a29507d584c35d287c75600154838360405161231793929190615424565b60405180910390a15050565b60008054906101000a900473ffffffffffffffffffffffffffffffffffffffff1681565b606581565b600360205280600052604060002060009150905080600001805461236f90615175565b80601f016020809104026020016040519081016040528092919081815260200182805461239b90615175565b80156123e85780601f106123bd576101008083540402835291602001916123e8565b820191906000526020600020905b8154815290600101906020018083116123cb57829003601f168201915b5050505050908060010154908060050160009054906101000a900460ff16908060050160019054906101000a900460ff16908060050160029054906101000a900460ff16908060050160039054906101000a900460ff16908060060154905087565b60008054906101000a900473ffffffffffffffffffffffffffffffffffffffff1673ffffffffffffffffffffffffffffffffffffffff163373ffffffffffffffffffffffffffffffffffffffff16146124d8576040517f08c379a00000000000000000000000000000000000000000000000000000000081526004016124cf90614467565b60405180910390fd5b806000811180156124eb57506001548111155b61252a576040517f08c379a000000000000000000000000000000000000000000000000000000000815260040161252190613e4d565b60405180910390fd5b60006003600084815260200190815260200160002090508060060154421015612588576040517f08c379a000000000000000000000000000000000000000000000000000000000815260040161257f906154d4565b60405180910390fd5b8060050160009054906101000a900460ff16156125da576040517f08c379a00000000000000000000000000000000000000000000000000000000081526004016125d190615566565b60405180910390fd5b8060050160029054906101000a900460ff161561262c576040517f08c379a0000000000000000000000000000000000000000000000000000000008152600401612623906155f8565b60405180910390fd5b6000806126388361322b565b91509150816126f35760018360050160026101000a81548160ff02191690831515021790555060018360050160006101000a81548160ff0219169083151502179055507f03ee8ab1026be234e69b64de1ccd2a6cecde214bd1424ebbdf9a40784230f85b85826040516126ac929190615618565b60405180910390a17f2ca440fb7fca85d7f55d395a4abd94817330b83a62f3502efbb4770144e4ca97856040516126e391906136cf565b60405180910390a1505050612827565b60018360050160006101000a81548160ff02191690831515021790555060005b60038160ff1610156127e6576000846002018260ff166003811061273a57612739614213565b5b015411156127b2576000846002018260ff166003811061275d5761275c614213565b5b015460648660010154612770919061430b565b61277a919061437c565b9050606581101561278c57606561278e565b805b856007018360ff16600381106127a7576127a6614213565b5b0181905550506127d3565b6000846007018260ff16600381106127cd576127cc614213565b5b01819055505b80806127de90615648565b915050612713565b507f739dc946f0a35d22d4e2d61e0f800b8606d67f74513e3097bc4aee150feab4a5858460070160405161281b929190615735565b60405180910390a15050505b5050565b66071afd498d000081565b600281565b60008060008460008111801561285357506001548111155b612892576040517f08c379a000000000000000000000000000000000000000000000000000000000815260040161288990613e4d565b60405180910390fd5b60006004600088815260200190815260200160002060008773ffffffffffffffffffffffffffffffffffffffff1673ffffffffffffffffffffffffffffffffffffffff16815260200190815260200160002090508060000160009054906101000a900460ff1681600101548260020160009054906101000a900460ff1694509450945050509250925092565b6060600560008373ffffffffffffffffffffffffffffffffffffffff1673ffffffffffffffffffffffffffffffffffffffff1681526020019081526020016000208054806020026020016040519081016040528092919081815260200182805480156129a957602002820191906000526020600020905b815481526020019060010190808311612995575b50505050509050919050565b60008054906101000a900473ffffffffffffffffffffffffffffffffffffffff1673ffffffffffffffffffffffffffffffffffffffff163373ffffffffffffffffffffffffffffffffffffffff1614612a43576040517f08c379a0000000000000000000000000000000000000000000000000000000008152600401612a3a90614467565b60405180910390fd5b6002544711612a87576040517f08c379a0000000000000000000000000000000000000000000000000000000008152600401612a7e906157d0565b60405180910390fd5b600060025447612a979190613fc0565b905060008060009054906101000a900473ffffffffffffffffffffffffffffffffffffffff1673ffffffffffffffffffffffffffffffffffffffff1682604051612ae09061454a565b60006040518083038185875af1925050503d8060008114612b1d576040519150601f19603f3d011682016040523d82523d6000602084013e612b22565b606091505b5050905080612b66576040517f08c379a0000000000000000000000000000000000000000000000000000000008152600401612b5d90615862565b60405180910390fd5b5050565b600381565b60056020528160005260406000208181548110612b8b57600080fd5b90600052602060002001600091509150505481565b60606000612bac613344565b600080600080612bba613344565b88600081118015612bcd57506001548111155b612c0c576040517f08c379a0000000000000000000000000000000000000000000000000000000008152600401612c0390613e4d565b60405180910390fd5b6000600360008c81526020019081526020016000209050806000018160010154826002018360050160009054906101000a900460ff168460050160019054906101000a900460ff168560050160029054906101000a900460ff168660050160039054906101000a900460ff1687600701878054612c8890615175565b80601f0160208091040260200160405190810160405280929190818152602001828054612cb490615175565b8015612d015780601f10612cd657610100808354040283529160200191612d01565b820191906000526020600020905b815481529060010190602001808311612ce457829003601f168201915b5050505050975085600380602002604051908101604052809291908260038015612d40576020028201915b815481526020019060010190808311612d2c575b5050505050955080600380602002604051908101604052809291908260038015612d7f576020028201915b815481526020019060010190808311612d6b575b50505050509050995099509950995099509950995099505050919395975091939597565b600080606060008085600081118015612dbe57506001548111155b612dfd576040517f08c379a0000000000000000000000000000000000000000000000000000000008152600401612df490613e4d565b60405180910390fd5b60006003600089815260200190815260200160002090508060050160009054906101000a900460ff16158015612e4257508060050160029054906101000a900460ff16155b8015612e515750806006015442105b96506000805b60038160ff161015612ea8576000836002018260ff1660038110612e7e57612e7d614213565b5b01541115612e95578180612e9190615648565b9250505b8080612ea090615648565b915050612e57565b5066071afd498d000082600101541015612efd57600096506040518060400160405280601981526020017f4e65656473206d6f72652062657474696e6720766f6c756d65000000000000008152509550612f88565b60028160ff161015612f4a57600096506040518060400160405280601f81526020017f4e656564732062657473206f6e206d756c7469706c65206f7574636f6d6573008152509550612f87565b600196506040518060400160405280601181526020017f526561647920666f7220636c6f7375726500000000000000000000000000000081525095505b5b8787878460010154849750975097509750975050505091939590929450565b60015481565b600082600081118015612fc257506001548111155b613001576040517f08c379a0000000000000000000000000000000000000000000000000000000008152600401612ff890613e4d565b60405180910390fd5b60006004600086815260200190815260200160002060008573ffffffffffffffffffffffffffffffffffffffff1673ffffffffffffffffffffffffffffffffffffffff1681526020019081526020016000209050600081600101540361306b5760009250506130cb565b60006003600087815260200190815260200160002090506000826003015482600601541161309a5760006130af565b826003015482600601546130ae9190613fc0565b5b90506201518081116130c25760036130c5565b60025b94505050505b5092915050565b600080600080846000811180156130eb57506001548111155b61312a576040517f08c379a000000000000000000000000000000000000000000000000000000000815260040161312190613e4d565b60405180910390fd5b6000600360008881526020019081526020016000209050600042826006015411613155576000613166565b4282600601546131659190613fc0565b5b90506000610e1082613178919061437c565b9050600062015180831161318d576003613190565b60025b90506201518083116201518084111580156131ab5750600084115b8284985098509850985050505050509193509193565b6004602052816000526040600020602052806000526040600020600091509150508060000160009054906101000a900460ff16908060010154908060020160009054906101000a900460ff16908060020160019054906101000a900460ff16908060030154905085565b6000606066071afd498d0000836001015410156132835760006040518060400160405280601b81526020017f496e73756666696369656e742062657474696e6720766f6c756d6500000000008152509150915061333f565b6000805b60038160ff1610156132d8576000856002018260ff16600381106132ae576132ad614213565b5b015411156132c55781806132c190615648565b9250505b80806132d090615648565b915050613287565b5060028160ff1610156133275760006040518060400160405280602081526020017f4e6565642062657473206f6e206174206c656173742032206f7574636f6d6573815250925092505061333f565b60016040518060200160405280600081525092509250505b915091565b6040518060600160405280600390602082028036833780820191505090505090565b8260038101928215613395579160200282015b82811115613394578251825591602001919060010190613379565b5b5090506133a291906133a6565b5090565b5b808211156133bf5760008160009055506001016133a7565b5090565b600082825260208201905092915050565b7f4265745a696c6c613a2044697265637420455448206465706f73697420746f6f60008201527f206c61726765202d2075736520706c616365426574282920696e737465616400602082015250565b6000613430603f836133c3565b915061343b826133d4565b604082019050919050565b6000602082019050818103600083015261345f81613423565b9050919050565b7f4265745a696c6c613a2046756e6374696f6e206e6f7420666f756e64202d206360008201527f6865636b2066756e6374696f6e206e616d6520616e6420706172616d6574657260208201527f7300000000000000000000000000000000000000000000000000000000000000604082015250565b60006134e86041836133c3565b91506134f382613466565b606082019050919050565b60006020820190508181036000830152613517816134db565b9050919050565b6000604051905090565b600080fd5b600080fd5b6000819050919050565b61354581613532565b811461355057600080fd5b50565b6000813590506135628161353c565b92915050565b6004811061357557600080fd5b50565b60008135905061358781613568565b92915050565b600080604083850312156135a4576135a3613528565b5b60006135b285828601613553565b92505060206135c385828601613578565b9150509250929050565b6000602082840312156135e3576135e2613528565b5b60006135f184828501613553565b91505092915050565b600060039050919050565b600081905092915050565b6000819050919050565b61362381613532565b82525050565b6000613635838361361a565b60208301905092915050565b6000602082019050919050565b613657816135fa565b6136618184613605565b925061366c82613610565b8060005b8381101561369d5781516136848782613629565b965061368f83613641565b925050600181019050613670565b505050505050565b60006060820190506136ba600083018461364e565b92915050565b6136c981613532565b82525050565b60006020820190506136e460008301846136c0565b92915050565b600073ffffffffffffffffffffffffffffffffffffffff82169050919050565b6000613715826136ea565b9050919050565b6137258161370a565b811461373057600080fd5b50565b6000813590506137428161371c565b92915050565b6000806040838503121561375f5761375e613528565b5b600061376d85828601613553565b925050602061377e85828601613733565b9150509250929050565b600060808201905061379d60008301876136c0565b6137aa60208301866136c0565b6137b760408301856136c0565b6137c460608301846136c0565b95945050505050565b600080fd5b600080fd5b6000601f19601f8301169050919050565b7f4e487b7100000000000000000000000000000000000000000000000000000000600052604160045260246000fd5b613820826137d7565b810181811067ffffffffffffffff8211171561383f5761383e6137e8565b5b80604052505050565b600061385261351e565b905061385e8282613817565b919050565b600067ffffffffffffffff82111561387e5761387d6137e8565b5b613887826137d7565b9050602081019050919050565b82818337600083830152505050565b60006138b66138b184613863565b613848565b9050828152602081018484840111156138d2576138d16137d2565b5b6138dd848285613894565b509392505050565b600082601f8301126138fa576138f96137cd565b5b813561390a8482602086016138a3565b91505092915050565b6000806040838503121561392a57613929613528565b5b600083013567ffffffffffffffff8111156139485761394761352d565b5b613954858286016138e5565b925050602061396585828601613553565b9150509250929050565b6139788161370a565b82525050565b6000602082019050613993600083018461396f565b92915050565b600081519050919050565b60005b838110156139c25780820151818401526020810190506139a7565b60008484015250505050565b60006139d982613999565b6139e381856133c3565b93506139f38185602086016139a4565b6139fc816137d7565b840191505092915050565b60008115159050919050565b613a1c81613a07565b82525050565b7f4e487b7100000000000000000000000000000000000000000000000000000000600052602160045260246000fd5b60048110613a6257613a61613a22565b5b50565b6000819050613a7382613a51565b919050565b6000613a8382613a65565b9050919050565b613a9381613a78565b82525050565b600060e0820190508181036000830152613ab3818a6139ce565b9050613ac260208301896136c0565b613acf6040830188613a13565b613adc6060830187613a13565b613ae96080830186613a13565b613af660a0830185613a8a565b613b0360c08301846136c0565b98975050505050505050565b6000606082019050613b246000830186613a8a565b613b3160208301856136c0565b613b3e6040830184613a13565b949350505050565b600060208284031215613b5c57613b5b613528565b5b6000613b6a84828501613733565b91505092915050565b600081519050919050565b600082825260208201905092915050565b6000819050602082019050919050565b6000602082019050919050565b6000613bb782613b73565b613bc18185613b7e565b9350613bcc83613b8f565b8060005b83811015613bfd578151613be48882613629565b9750613bef83613b9f565b925050600181019050613bd0565b5085935050505092915050565b60006020820190508181036000830152613c248184613bac565b905092915050565b60008060408385031215613c4357613c42613528565b5b6000613c5185828601613733565b9250506020613c6285828601613553565b9150509250929050565b6000610180820190508181036000830152613c87818b6139ce565b9050613c96602083018a6136c0565b613ca3604083018961364e565b613cb060a0830188613a13565b613cbd60c0830187613a13565b613cca60e0830186613a13565b613cd8610100830185613a8a565b613ce661012083018461364e565b9998505050505050505050565b600060ff82169050919050565b613d0981613cf3565b82525050565b600060a082019050613d246000830188613a13565b613d316020830187613a13565b8181036040830152613d4381866139ce565b9050613d5260608301856136c0565b613d5f6080830184613d00565b9695505050505050565b6000608082019050613d7e6000830187613a13565b613d8b6020830186613a13565b613d9860408301856136c0565b613da560608301846136c0565b95945050505050565b600060a082019050613dc36000830188613a8a565b613dd060208301876136c0565b613ddd6040830186613a13565b613dea6060830185613a13565b613df760808301846136c0565b9695505050505050565b7f4265745a696c6c613a204d61726b657420646f6573206e6f7420657869737400600082015250565b6000613e37601f836133c3565b9150613e4282613e01565b602082019050919050565b60006020820190508181036000830152613e6681613e2a565b9050919050565b7f4265745a696c6c613a2042657474696e6720697320636c6f73656420666f722060008201527f74686973206d61726b6574000000000000000000000000000000000000000000602082015250565b6000613ec9602b836133c3565b9150613ed482613e6d565b604082019050919050565b60006020820190508181036000830152613ef881613ebc565b9050919050565b7f4265745a696c6c613a2043616e6e6f7420626574206f6e2063616e63656c6c6560008201527f64206d61726b6574000000000000000000000000000000000000000000000000602082015250565b6000613f5b6028836133c3565b9150613f6682613eff565b604082019050919050565b60006020820190508181036000830152613f8a81613f4e565b9050919050565b7f4e487b7100000000000000000000000000000000000000000000000000000000600052601160045260246000fd5b6000613fcb82613532565b9150613fd683613532565b9250828203905081811115613fee57613fed613f91565b5b92915050565b7f4265745a696c6c613a20546f6f20636c6f736520746f206d617463682073746160008201527f7274202d2062657474696e6720636c6f73656400000000000000000000000000602082015250565b60006140506033836133c3565b915061405b82613ff4565b604082019050919050565b6000602082019050818103600083015261407f81614043565b9050919050565b7f4265745a696c6c613a20496e76616c696420626574206f7574636f6d65202d2060008201527f6d75737420626520486f6d652c20447261772c206f7220417761790000000000602082015250565b60006140e2603b836133c3565b91506140ed82614086565b604082019050919050565b60006020820190508181036000830152614111816140d5565b9050919050565b7f4265745a696c6c613a2042657420616d6f756e7420746f6f206c6f77202d206d60008201527f696e696d756d20302e3030312045544820726571756972656400000000000000602082015250565b60006141746039836133c3565b915061417f82614118565b604082019050919050565b600060208201905081810360008301526141a381614167565b9050919050565b60006141b582613532565b91506141c083613532565b92508282019050808211156141d8576141d7613f91565b5b92915050565b60006141e982613cf3565b91506141f483613cf3565b9250828203905060ff81111561420d5761420c613f91565b5b92915050565b7f4e487b7100000000000000000000000000000000000000000000000000000000600052603260045260246000fd5b7f4265745a696c6c613a20596f752063616e206f6e6c7920706c616365206f6e6560008201527f2062657420706572206d61726b65740000000000000000000000000000000000602082015250565b600061429e602f836133c3565b91506142a982614242565b604082019050919050565b600060208201905081810360008301526142cd81614291565b9050919050565b60006060820190506142e960008301866136c0565b6142f66020830185613a8a565b61430360408301846136c0565b949350505050565b600061431682613532565b915061432183613532565b925082820261432f81613532565b9150828204841483151761434657614345613f91565b5b5092915050565b7f4e487b7100000000000000000000000000000000000000000000000000000000600052601260045260246000fd5b600061438782613532565b915061439283613532565b9250826143a2576143a161434d565b5b828204905092915050565b60006143b882613532565b91507fffffffffffffffffffffffffffffffffffffffffffffffffffffffffffffffff82036143ea576143e9613f91565b5b600182019050919050565b7f4265745a696c6c613a204f6e6c7920636f6e7472616374206f776e657220636160008201527f6e20706572666f726d207468697320616374696f6e0000000000000000000000602082015250565b60006144516035836133c3565b915061445c826143f5565b604082019050919050565b6000602082019050818103600083015261448081614444565b9050919050565b7f4265745a696c6c613a204e6f20706c6174666f726d206665657320617661696c60008201527f61626c6520666f72207769746864726177616c00000000000000000000000000602082015250565b60006144e36033836133c3565b91506144ee82614487565b604082019050919050565b60006020820190508181036000830152614512816144d6565b9050919050565b600081905092915050565b50565b6000614534600083614519565b915061453f82614524565b600082019050919050565b600061455582614527565b9150819050919050565b7f4265745a696c6c613a20466565207769746864726177616c207472616e73666560008201527f72206661696c6564000000000000000000000000000000000000000000000000602082015250565b60006145bb6028836133c3565b91506145c68261455f565b604082019050919050565b600060208201905081810360008301526145ea816145ae565b9050919050565b7f4265745a696c6c613a20496e76616c6964206d6174636820726573756c74202d60008201527f206d75737420626520486f6d652c20447261772c206f72204177617900000000602082015250565b600061464d603c836133c3565b9150614658826145f1565b604082019050919050565b6000602082019050818103600083015261467c81614640565b9050919050565b7f4265745a696c6c613a2043616e6e6f742073657420726573756c74207768696c60008201527f652062657474696e67206973207374696c6c206f70656e000000000000000000602082015250565b60006146df6037836133c3565b91506146ea82614683565b604082019050919050565b6000602082019050818103600083015261470e816146d2565b9050919050565b7f4265745a696c6c613a204d61726b657420726573756c7420616c72656164792060008201527f7365740000000000000000000000000000000000000000000000000000000000602082015250565b60006147716023836133c3565b915061477c82614715565b604082019050919050565b600060208201905081810360008301526147a081614764565b9050919050565b7f4265745a696c6c613a2043616e6e6f742073657420726573756c7420666f722060008201527f63616e63656c6c6564206d61726b657400000000000000000000000000000000602082015250565b60006148036030836133c3565b915061480e826147a7565b604082019050919050565b60006020820190508181036000830152614832816147f6565b9050919050565b600060408201905061484e60008301856136c0565b61485b6020830184613a8a565b9392505050565b7f4265745a696c6c613a204d61726b657420776173206e6f742063616e63656c6c60008201527f6564202d206e6f20726566756e6420617661696c61626c650000000000000000602082015250565b60006148be6038836133c3565b91506148c982614862565b604082019050919050565b600060208201905081810360008301526148ed816148b1565b9050919050565b7f4265745a696c6c613a20526566756e6420616c726561647920636c61696d656460008201527f20666f722074686973206d61726b657400000000000000000000000000000000602082015250565b60006149506030836133c3565b915061495b826148f4565b604082019050919050565b6000602082019050818103600083015261497f81614943565b9050919050565b7f4265745a696c6c613a204e6f2062657420666f756e6420746f20726566756e6460008201527f20666f722074686973206d61726b657400000000000000000000000000000000602082015250565b60006149e26030836133c3565b91506149ed82614986565b604082019050919050565b60006020820190508181036000830152614a11816149d5565b9050919050565b7f4265745a696c6c613a20526566756e64207472616e73666572206661696c6564600082015250565b6000614a4e6020836133c3565b9150614a5982614a18565b602082019050919050565b60006020820190508181036000830152614a7d81614a41565b9050919050565b6000606082019050614a9960008301866136c0565b614aa6602083018561396f565b614ab360408301846136c0565b949350505050565b7f4265745a696c6c613a204d6174636820726573756c74206e6f7420796574206160008201527f7661696c61626c65000000000000000000000000000000000000000000000000602082015250565b6000614b176028836133c3565b9150614b2282614abb565b604082019050919050565b60006020820190508181036000830152614b4681614b0a565b9050919050565b7f4265745a696c6c613a2057696e6e696e677320616c726561647920636c61696d60008201527f656420666f722074686973206d61726b65740000000000000000000000000000602082015250565b6000614ba96032836133c3565b9150614bb482614b4d565b604082019050919050565b60006020820190508181036000830152614bd881614b9c565b9050919050565b7f4265745a696c6c613a20596f75722062657420646964206e6f742077696e207460008201527f686973206d61726b657400000000000000000000000000000000000000000000602082015250565b6000614c3b602a836133c3565b9150614c4682614bdf565b604082019050919050565b60006020820190508181036000830152614c6a81614c2e565b9050919050565b7f4265745a696c6c613a204e6f2062657420666f756e6420666f7220746869732060008201527f6d61726b65740000000000000000000000000000000000000000000000000000602082015250565b6000614ccd6026836133c3565b9150614cd882614c71565b604082019050919050565b60006020820190508181036000830152614cfc81614cc0565b9050919050565b7f4265745a696c6c613a20496e76616c6964206f6464732063616c63756c61746960008201527f6f6e000000000000000000000000000000000000000000000000000000000000602082015250565b6000614d5f6022836133c3565b9150614d6a82614d03565b604082019050919050565b60006020820190508181036000830152614d8e81614d52565b9050919050565b7f4265745a696c6c613a20496e73756666696369656e7420636f6e74726163742060008201527f62616c616e636520666f72207061796f75740000000000000000000000000000602082015250565b6000614df16032836133c3565b9150614dfc82614d95565b604082019050919050565b60006020820190508181036000830152614e2081614de4565b9050919050565b7f4265745a696c6c613a204e6574207061796f75742063616c63756c6174696f6e60008201527f206572726f720000000000000000000000000000000000000000000000000000602082015250565b6000614e836026836133c3565b9150614e8e82614e27565b604082019050919050565b60006020820190508181036000830152614eb281614e76565b9050919050565b7f4265745a696c6c613a2057696e6e696e6773207472616e73666572206661696c60008201527f6564000000000000000000000000000000000000000000000000000000000000602082015250565b6000614f156022836133c3565b9150614f2082614eb9565b604082019050919050565b60006020820190508181036000830152614f4481614f08565b9050919050565b6000608082019050614f6060008301876136c0565b614f6d602083018661396f565b614f7a60408301856136c0565b614f8760608301846136c0565b95945050505050565b7f4265745a696c6c613a2043616e6e6f742063616e63656c206d61726b6574207460008201527f68617420616c726561647920686173206120726573756c740000000000000000602082015250565b6000614fec6038836133c3565b9150614ff782614f90565b604082019050919050565b6000602082019050818103600083015261501b81614fdf565b9050919050565b7f4265745a696c6c613a204d617463682073746172742074696d65206d7573742060008201527f626520696e207468652066757475726500000000000000000000000000000000602082015250565b600061507e6030836133c3565b915061508982615022565b604082019050919050565b600060208201905081810360008301526150ad81615071565b9050919050565b7f4265745a696c6c613a204d61726b6574206465736372697074696f6e2063616e60008201527f6e6f7420626520656d7074790000000000000000000000000000000000000000602082015250565b6000615110602c836133c3565b915061511b826150b4565b604082019050919050565b6000602082019050818103600083015261513f81615103565b9050919050565b7f4e487b7100000000000000000000000000000000000000000000000000000000600052602260045260246000fd5b6000600282049050600182168061518d57607f821691505b6020821081036151a05761519f615146565b5b50919050565b60008190508160005260206000209050919050565b60006020601f8301049050919050565b600082821b905092915050565b6000600883026152087fffffffffffffffffffffffffffffffffffffffffffffffffffffffffffffffff826151cb565b61521286836151cb565b95508019841693508086168417925050509392505050565b6000819050919050565b600061524f61524a61524584613532565b61522a565b613532565b9050919050565b6000819050919050565b61526983615234565b61527d61527582615256565b8484546151d8565b825550505050565b600090565b615292615285565b61529d818484615260565b505050565b5b818110156152c1576152b660008261528a565b6001810190506152a3565b5050565b601f821115615306576152d7816151a6565b6152e0846151bb565b810160208510156152ef578190505b6153036152fb856151bb565b8301826152a2565b50505b505050565b600082821c905092915050565b60006153296000198460080261530b565b1980831691505092915050565b60006153428383615318565b9150826002028217905092915050565b61535b82613999565b67ffffffffffffffff811115615374576153736137e8565b5b61537e8254615175565b6153898282856152c5565b600060209050601f8311600181146153bc57600084156153aa578287015190505b6153b48582615336565b86555061541c565b601f1984166153ca866151a6565b60005b828110156153f2578489015182556001820191506020850194506020810190506153cd565b8683101561540f578489015161540b601f891682615318565b8355505b6001600288020188555050505b505050505050565b600060608201905061543960008301866136c0565b818103602083015261544b81856139ce565b905061545a60408301846136c0565b949350505050565b7f4265745a696c6c613a2043616e6e6f7420636c6f73652062657474696e67206260008201527f65666f7265206d61746368207374617274730000000000000000000000000000602082015250565b60006154be6032836133c3565b91506154c982615462565b604082019050919050565b600060208201905081810360008301526154ed816154b1565b9050919050565b7f4265745a696c6c613a2042657474696e6720616c726561647920636c6f73656460008201527f20666f722074686973206d61726b657400000000000000000000000000000000602082015250565b60006155506030836133c3565b915061555b826154f4565b604082019050919050565b6000602082019050818103600083015261557f81615543565b9050919050565b7f4265745a696c6c613a2043616e6e6f7420636c6f73652062657474696e67206f60008201527f6e2063616e63656c6c6564206d61726b65740000000000000000000000000000602082015250565b60006155e26032836133c3565b91506155ed82615586565b604082019050919050565b60006020820190508181036000830152615611816155d5565b9050919050565b600060408201905061562d60008301856136c0565b818103602083015261563f81846139ce565b90509392505050565b600061565382613cf3565b915060ff820361566657615665613f91565b5b600182019050919050565b600060039050919050565b6000819050919050565b60008160001c9050919050565b6000819050919050565b60006156b06156ab83615686565b615693565b9050919050565b60006156c3825461569d565b9050919050565b6000600182019050919050565b6156e081615671565b6156ea8184613605565b92506156f58261567c565b8060005b8381101561572d5761570a826156b7565b6157148782613629565b965061571f836156ca565b9250506001810190506156f9565b505050505050565b600060808201905061574a60008301856136c0565b61575760208301846156d7565b9392505050565b7f4265745a696c6c613a204f6e6c7920616363756d756c6174656420666565732060008201527f61726520617661696c61626c6500000000000000000000000000000000000000602082015250565b60006157ba602d836133c3565b91506157c58261575e565b604082019050919050565b600060208201905081810360008301526157e9816157ad565b9050919050565b7f4265745a696c6c613a20456d657267656e6379207769746864726177616c206660008201527f61696c6564000000000000000000000000000000000000000000000000000000602082015250565b600061584c6025836133c3565b9150615857826157f0565b604082019050919050565b6000602082019050818103600083015261587b8161583f565b905091905056fea264697066735822122052a6ba4c809e751c62184282425eb7252f5465a910ddabfd82083b408fd734be64736f6c63430008140033",
  "linkReferences": {},
  "deployedLinkReferences": {}
}