{
  "_format": "hh-sol-artifact-1",
  "contractName": "BetZilla",
  "sourceName": "contracts/BetZilla.sol",
  "abi": [
    {
      "inputs": [],
      "stateMutability": "nonpayable",
      "type": "constructor"
    },
    {
      "anonymous": false,
      "inputs": [
        {
          "indexed": true,
          "internalType": "uint256",
          "name": "marketId",
          "type": "uint256"
        },
        {
          "indexed": true,
          "internalType": "address",
          "name": "bettor",
          "type": "address"
        },
        {
          "indexed": false,
          "internalType": "uint8",
          "name": "outcome",
          "type": "uint8"
        },
        {
          "indexed": false,
          "internalType": "uint256",
          "name": "amount",
          "type": "uint256"
        }
      ],
      "name": "BetPlaced",
      "type": "event"
    },
    {
      "anonymous": false,
      "inputs": [
        {
          "indexed": true,
          "internalType": "uint256",
          "name": "marketId",
          "type": "uint256"
        },
        {
          "indexed": false,
          "internalType": "string",
          "name": "description",
          "type": "string"
        },
        {
          "indexed": false,
          "internalType": "uint256",
          "name": "endTime",
          "type": "uint256"
        }
      ],
      "name": "MarketCreated",
      "type": "event"
    },
    {
      "anonymous": false,
      "inputs": [
        {
          "indexed": true,
          "internalType": "uint256",
          "name": "marketId",
          "type": "uint256"
        },
        {
          "indexed": false,
          "internalType": "uint8",
          "name": "winningOutcome",
          "type": "uint8"
        }
      ],
      "name": "MarketResolved",
      "type": "event"
    },
    {
      "anonymous": false,
      "inputs": [
        {
          "indexed": true,
          "internalType": "uint256",
          "name": "marketId",
          "type": "uint256"
        },
        {
          "indexed": true,
          "internalType": "address",
          "name": "bettor",
          "type": "address"
        },
        {
          "indexed": false,
          "internalType": "uint256",
          "name": "amount",
          "type": "uint256"
        }
      ],
      "name": "WinningsClaimed",
      "type": "event"
    },
    {
      "inputs": [
        {
          "internalType": "uint256",
          "name": "",
          "type": "uint256"
        },
        {
          "internalType": "address",
          "name": "",
          "type": "address"
        }
      ],
      "name": "bets",
      "outputs": [
        {
          "internalType": "uint8",
          "name": "outcome",
          "type": "uint8"
        },
        {
          "internalType": "uint256",
          "name": "amount",
          "type": "uint256"
        },
        {
          "internalType": "bool",
          "name": "claimed",
          "type": "bool"
        }
      ],
      "stateMutability": "view",
      "type": "function"
    },
    {
      "inputs": [
        {
          "internalType": "uint256",
          "name": "marketId",
          "type": "uint256"
        },
        {
          "internalType": "uint8",
          "name": "outcome",
          "type": "uint8"
        }
      ],
      "name": "calculateOdds",
      "outputs": [
        {
          "internalType": "uint256",
          "name": "",
          "type": "uint256"
        }
      ],
      "stateMutability": "view",
      "type": "function"
    },
    {
      "inputs": [
        {
          "internalType": "uint256",
          "name": "marketId",
          "type": "uint256"
        },
        {
          "internalType": "address",
          "name": "bettor",
          "type": "address"
        }
      ],
      "name": "calculateWinnings",
      "outputs": [
        {
          "internalType": "uint256",
          "name": "",
          "type": "uint256"
        }
      ],
      "stateMutability": "view",
      "type": "function"
    },
    {
      "inputs": [
        {
          "internalType": "uint256",
          "name": "marketId",
          "type": "uint256"
        }
      ],
      "name": "claimWinnings",
      "outputs": [],
      "stateMutability": "nonpayable",
      "type": "function"
    },
    {
      "inputs": [
        {
          "internalType": "string",
          "name": "description",
          "type": "string"
        },
        {
          "internalType": "uint256",
          "name": "duration",
          "type": "uint256"
        }
      ],
      "name": "createMarket",
      "outputs": [],
      "stateMutability": "nonpayable",
      "type": "function"
    },
    {
      "inputs": [],
      "name": "earlyBettorBonus",
      "outputs": [
        {
          "internalType": "uint256",
          "name": "",
          "type": "uint256"
        }
      ],
      "stateMutability": "view",
      "type": "function"
    },
    {
      "inputs": [
        {
          "internalType": "uint256",
          "name": "marketId",
          "type": "uint256"
        }
      ],
      "name": "getMarket",
      "outputs": [
        {
          "internalType": "string",
          "name": "description",
          "type": "string"
        },
        {
          "internalType": "uint256",
          "name": "totalAmount",
          "type": "uint256"
        },
        {
          "internalType": "uint256",
          "name": "outcome1Amount",
          "type": "uint256"
        },
        {
          "internalType": "uint256",
          "name": "outcome2Amount",
          "type": "uint256"
        },
        {
          "internalType": "uint256",
          "name": "outcome3Amount",
          "type": "uint256"
        },
        {
          "internalType": "bool",
          "name": "isActive",
          "type": "bool"
        },
        {
          "internalType": "bool",
          "name": "isResolved",
          "type": "bool"
        },
        {
          "internalType": "uint8",
          "name": "winningOutcome",
          "type": "uint8"
        },
        {
          "internalType": "uint256",
          "name": "endTime",
          "type": "uint256"
        }
      ],
      "stateMutability": "view",
      "type": "function"
    },
    {
      "inputs": [
        {
          "internalType": "uint256",
          "name": "marketId",
          "type": "uint256"
        },
        {
          "internalType": "uint8",
          "name": "outcome",
          "type": "uint8"
        }
      ],
      "name": "getMaxBet",
      "outputs": [
        {
          "internalType": "uint256",
          "name": "",
          "type": "uint256"
        }
      ],
      "stateMutability": "view",
      "type": "function"
    },
    {
      "inputs": [
        {
          "internalType": "uint256",
          "name": "marketId",
          "type": "uint256"
        }
      ],
      "name": "getOdds",
      "outputs": [
        {
          "internalType": "uint256[3]",
          "name": "",
          "type": "uint256[3]"
        }
      ],
      "stateMutability": "view",
      "type": "function"
    },
    {
      "inputs": [
        {
          "internalType": "address",
          "name": "user",
          "type": "address"
        }
      ],
      "name": "getUserMarkets",
      "outputs": [
        {
          "internalType": "uint256[]",
          "name": "",
          "type": "uint256[]"
        }
      ],
      "stateMutability": "view",
      "type": "function"
    },
    {
      "inputs": [],
      "name": "marketCount",
      "outputs": [
        {
          "internalType": "uint256",
          "name": "",
          "type": "uint256"
        }
      ],
      "stateMutability": "view",
      "type": "function"
    },
    {
      "inputs": [
        {
          "internalType": "uint256",
          "name": "",
          "type": "uint256"
        }
      ],
      "name": "markets",
      "outputs": [
        {
          "internalType": "string",
          "name": "description",
          "type": "string"
        },
        {
          "internalType": "uint256",
          "name": "totalAmount",
          "type": "uint256"
        },
        {
          "internalType": "uint256",
          "name": "outcome1Amount",
          "type": "uint256"
        },
        {
          "internalType": "uint256",
          "name": "outcome2Amount",
          "type": "uint256"
        },
        {
          "internalType": "uint256",
          "name": "outcome3Amount",
          "type": "uint256"
        },
        {
          "internalType": "bool",
          "name": "isActive",
          "type": "bool"
        },
        {
          "internalType": "bool",
          "name": "isResolved",
          "type": "bool"
        },
        {
          "internalType": "uint8",
          "name": "winningOutcome",
          "type": "uint8"
        },
        {
          "internalType": "uint256",
          "name": "endTime",
          "type": "uint256"
        }
      ],
      "stateMutability": "view",
      "type": "function"
    },
    {
      "inputs": [],
      "name": "owner",
      "outputs": [
        {
          "internalType": "address",
          "name": "",
          "type": "address"
        }
      ],
      "stateMutability": "view",
      "type": "function"
    },
    {
      "inputs": [
        {
          "internalType": "uint256",
          "name": "marketId",
          "type": "uint256"
        },
        {
          "internalType": "uint8",
          "name": "outcome",
          "type": "uint8"
        }
      ],
      "name": "placeBet",
      "outputs": [],
      "stateMutability": "payable",
      "type": "function"
    },
    {
      "inputs": [],
      "name": "platformFee",
      "outputs": [
        {
          "internalType": "uint256",
          "name": "",
          "type": "uint256"
        }
      ],
      "stateMutability": "view",
      "type": "function"
    },
    {
      "inputs": [
        {
          "internalType": "uint256",
          "name": "marketId",
          "type": "uint256"
        },
        {
          "internalType": "uint8",
          "name": "winningOutcome",
          "type": "uint8"
        }
      ],
      "name": "resolveMarket",
      "outputs": [],
      "stateMutability": "nonpayable",
      "type": "function"
    },
    {
      "inputs": [
        {
          "internalType": "address",
          "name": "",
          "type": "address"
        },
        {
          "internalType": "uint256",
          "name": "",
          "type": "uint256"
        }
      ],
      "name": "userMarkets",
      "outputs": [
        {
          "internalType": "uint256",
          "name": "",
          "type": "uint256"
        }
      ],
      "stateMutability": "view",
      "type": "function"
    },
    {
      "inputs": [],
      "name": "withdrawFees",
      "outputs": [],
      "stateMutability": "nonpayable",
      "type": "function"
    },
    {
      "stateMutability": "payable",
      "type": "receive"
    }
  ],
  "bytecode": "0x608060405260026004556005805534801561001957600080fd5b5033600660006101000a81548173ffffffffffffffffffffffffffffffffffffffff021916908373ffffffffffffffffffffffffffffffffffffffff160217905550612fd58061006a6000396000f3fe60806040526004361061010d5760003560e01c806394c4cf4811610095578063df55406e11610064578063df55406e14610395578063eb44fdd3146103be578063ec97908214610403578063f15cc4061461042e578063f644b3bb1461046b57610114565b806394c4cf48146102ab578063b1283e77146102d6578063da4473d81461031b578063db0f871d1461035857610114565b8063637655c2116100dc578063637655c2146101b4578063677bd9ff146101f15780637d05d0e41461021a578063883c84c1146102575780638da5cb5b1461028057610114565b806303edf91414610119578063126c41661461013557806326232a2e14610172578063476343ee1461019d57610114565b3661011457005b600080fd5b610133600480360381019061012e9190611c8c565b6104aa565b005b34801561014157600080fd5b5061015c60048036038101906101579190611ccc565b610ad4565b6040516101699190611da4565b60405180910390f35b34801561017e57600080fd5b50610187610be5565b6040516101949190611dce565b60405180910390f35b3480156101a957600080fd5b506101b2610beb565b005b3480156101c057600080fd5b506101db60048036038101906101d69190611c8c565b610d95565b6040516101e89190611dce565b60405180910390f35b3480156101fd57600080fd5b5061021860048036038101906102139190611ccc565b610e3b565b005b34801561022657600080fd5b50610241600480360381019061023c9190611c8c565b6111bc565b60405161024e9190611dce565b60405180910390f35b34801561026357600080fd5b5061027e60048036038101906102799190611f2f565b61129d565b005b34801561028c57600080fd5b506102956113e5565b6040516102a29190611fcc565b60405180910390f35b3480156102b757600080fd5b506102c061140b565b6040516102cd9190611dce565b60405180910390f35b3480156102e257600080fd5b506102fd60048036038101906102f89190611ccc565b611411565b60405161031299989796959493929190612090565b60405180910390f35b34801561032757600080fd5b50610342600480360381019061033d9190612150565b61150e565b60405161034f9190612214565b60405180910390f35b34801561036457600080fd5b5061037f600480360381019061037a9190612236565b6115a5565b60405161038c9190611dce565b60405180910390f35b3480156103a157600080fd5b506103bc60048036038101906103b79190611c8c565b6115d6565b005b3480156103ca57600080fd5b506103e560048036038101906103e09190611ccc565b611812565b6040516103fa99989796959493929190612090565b60405180910390f35b34801561040f57600080fd5b50610418611935565b6040516104259190611dce565b60405180910390f35b34801561043a57600080fd5b5061045560048036038101906104509190612276565b61193b565b6040516104629190611dce565b60405180910390f35b34801561047757600080fd5b50610492600480360381019061048d9190612276565b611b96565b6040516104a1939291906122b6565b60405180910390f35b816000811180156104bd57506003548111155b6104fc576040517f08c379a00000000000000000000000000000000000000000000000000000000081526004016104f390612339565b60405180910390fd5b8260008082815260200190815260200160002060050160009054906101000a900460ff1661055f576040517f08c379a0000000000000000000000000000000000000000000000000000000008152600401610556906123a5565b60405180910390fd5b60008082815260200190815260200160002060050160019054906101000a900460ff16156105c2576040517f08c379a00000000000000000000000000000000000000000000000000000000081526004016105b990612411565b60405180910390fd5b600080828152602001908152602001600020600601544210610619576040517f08c379a00000000000000000000000000000000000000000000000000000000081526004016106109061247d565b60405180910390fd5b60018360ff1610158015610631575060038360ff1611155b610670576040517f08c379a0000000000000000000000000000000000000000000000000000000008152600401610667906124e9565b60405180910390fd5b600034116106b3576040517f08c379a00000000000000000000000000000000000000000000000000000000081526004016106aa9061257b565b60405180910390fd5b60008085815260200190815260200160002060080160003373ffffffffffffffffffffffffffffffffffffffff1673ffffffffffffffffffffffffffffffffffffffff16815260200190815260200160002060009054906101000a900460ff1615610753576040517f08c379a000000000000000000000000000000000000000000000000000000000815260040161074a9061260d565b60405180910390fd5b6000806000868152602001908152602001600020905060006001600087815260200190815260200160002060003373ffffffffffffffffffffffffffffffffffffffff1673ffffffffffffffffffffffffffffffffffffffff1681526020019081526020016000209050848160000160006101000a81548160ff021916908360ff160217905550348160010181905550348260010160008282546107f7919061265c565b9250508190555060018260080160003373ffffffffffffffffffffffffffffffffffffffff1673ffffffffffffffffffffffffffffffffffffffff16815260200190815260200160002060006101000a81548160ff021916908315150217905550600a826007018054905010156108ce5781600701339080600181540180825580915050600190039060005260206000200160009091909190916101000a81548173ffffffffffffffffffffffffffffffffffffffff021916908373ffffffffffffffffffffffffffffffffffffffff1602179055505b60018560ff16036108f957348260020160008282546108ed919061265c565b92505081905550610941565b60028560ff16036109245734826003016000828254610918919061265c565b92505081905550610940565b34826004016000828254610938919061265c565b925050819055505b5b6000805b600260003373ffffffffffffffffffffffffffffffffffffffff1673ffffffffffffffffffffffffffffffffffffffff16815260200190815260200160002080549050811015610a0d5787600260003373ffffffffffffffffffffffffffffffffffffffff1673ffffffffffffffffffffffffffffffffffffffff16815260200190815260200160002082815481106109e1576109e0612690565b5b9060005260206000200154036109fa5760019150610a0d565b8080610a05906126bf565b915050610945565b5080610a7a57600260003373ffffffffffffffffffffffffffffffffffffffff1673ffffffffffffffffffffffffffffffffffffffff1681526020019081526020016000208790806001815401808255809150506001900390600052602060002001600090919091909150555b3373ffffffffffffffffffffffffffffffffffffffff16877f4f1eed5e863a822b0f9eb960dfdab2cc5a99beec4b191f2a7a9c7e28e5a155248834604051610ac3929190612707565b60405180910390a350505050505050565b610adc611be7565b60008060008481526020019081526020016000209050610afa611be7565b600082600201541115610b4557816002015460648360010154610b1d9190612730565b610b2791906127a1565b81600060038110610b3b57610b3a612690565b5b6020020181815250505b600082600301541115610b9057816003015460648360010154610b689190612730565b610b7291906127a1565b81600160038110610b8657610b85612690565b5b6020020181815250505b600082600401541115610bdb57816004015460648360010154610bb39190612730565b610bbd91906127a1565b81600260038110610bd157610bd0612690565b5b6020020181815250505b8092505050919050565b60045481565b600660009054906101000a900473ffffffffffffffffffffffffffffffffffffffff1673ffffffffffffffffffffffffffffffffffffffff163373ffffffffffffffffffffffffffffffffffffffff1614610c7b576040517f08c379a0000000000000000000000000000000000000000000000000000000008152600401610c7290612844565b60405180910390fd5b600047905060008111610cc3576040517f08c379a0000000000000000000000000000000000000000000000000000000008152600401610cba906128b0565b60405180910390fd5b6000600660009054906101000a900473ffffffffffffffffffffffffffffffffffffffff1673ffffffffffffffffffffffffffffffffffffffff1682604051610d0b90612901565b60006040518083038185875af1925050503d8060008114610d48576040519150601f19603f3d011682016040523d82523d6000602084013e610d4d565b606091505b5050905080610d91576040517f08c379a0000000000000000000000000000000000000000000000000000000008152600401610d8890612962565b60405180910390fd5b5050565b600080600080858152602001908152602001600020905060018360ff1610158015610dc4575060038360ff1611155b610e03576040517f08c379a0000000000000000000000000000000000000000000000000000000008152600401610dfa906124e9565b60405180910390fd5b6000816001015403610e2057670de0b6b3a7640000915050610e35565b600a8160010154610e3191906127a1565b9150505b92915050565b80600081118015610e4e57506003548111155b610e8d576040517f08c379a0000000000000000000000000000000000000000000000000000000008152600401610e8490612339565b60405180910390fd5b6000806000848152602001908152602001600020905060006001600085815260200190815260200160002060003373ffffffffffffffffffffffffffffffffffffffff1673ffffffffffffffffffffffffffffffffffffffff16815260200190815260200160002090508160050160019054906101000a900460ff16610f48576040517f08c379a0000000000000000000000000000000000000000000000000000000008152600401610f3f906129ce565b60405180910390fd5b6000816001015411610f8f576040517f08c379a0000000000000000000000000000000000000000000000000000000008152600401610f8690612a3a565b60405180910390fd5b8060020160009054906101000a900460ff1615610fe1576040517f08c379a0000000000000000000000000000000000000000000000000000000008152600401610fd890612aa6565b60405180910390fd5b8160050160029054906101000a900460ff1660ff168160000160009054906101000a900460ff1660ff161461104b576040517f08c379a000000000000000000000000000000000000000000000000000000000815260040161104290612b12565b60405180910390fd5b6000611057853361193b565b90506000811161109c576040517f08c379a000000000000000000000000000000000000000000000000000000000815260040161109390612b7e565b60405180910390fd5b60018260020160006101000a81548160ff02191690831515021790555060003373ffffffffffffffffffffffffffffffffffffffff16826040516110df90612901565b60006040518083038185875af1925050503d806000811461111c576040519150601f19603f3d011682016040523d82523d6000602084013e611121565b606091505b5050905080611165576040517f08c379a000000000000000000000000000000000000000000000000000000000815260040161115c90612962565b60405180910390fd5b3373ffffffffffffffffffffffffffffffffffffffff16867f5380cf6fe903b40c6d5a9e0dfbca2f3a423f0a21520b4d5947ed5169bdba946d846040516111ac9190611dce565b60405180910390a3505050505050565b600080600080858152602001908152602001600020905060018360ff16101580156111eb575060038360ff1611155b61122a576040517f08c379a0000000000000000000000000000000000000000000000000000000008152600401611221906124e9565b60405180910390fd5b600060018460ff16036112435781600201549050611263565b60028460ff160361125a5781600301549050611262565b816004015490505b5b6000810361127657600092505050611297565b80606483600101546112889190612730565b61129291906127a1565b925050505b92915050565b600660009054906101000a900473ffffffffffffffffffffffffffffffffffffffff1673ffffffffffffffffffffffffffffffffffffffff163373ffffffffffffffffffffffffffffffffffffffff161461132d576040517f08c379a000000000000000000000000000000000000000000000000000000000815260040161132490612844565b60405180910390fd5b60036000815480929190611340906126bf565b91905055506000806000600354815260200190815260200160002090508281600001908161136e9190612daa565b5060018160050160006101000a81548160ff0219169083151502179055508142611398919061265c565b81600601819055506003547f2d1e9ad45dbe8e898e0374deebf2a661b2ae7c1855d2a29507d584c35d287c758483600601546040516113d8929190612e7c565b60405180910390a2505050565b600660009054906101000a900473ffffffffffffffffffffffffffffffffffffffff1681565b60055481565b600060205280600052604060002060009150905080600001805461143490612bcd565b80601f016020809104026020016040519081016040528092919081815260200182805461146090612bcd565b80156114ad5780601f10611482576101008083540402835291602001916114ad565b820191906000526020600020905b81548152906001019060200180831161149057829003601f168201915b5050505050908060010154908060020154908060030154908060040154908060050160009054906101000a900460ff16908060050160019054906101000a900460ff16908060050160029054906101000a900460ff16908060060154905089565b6060600260008373ffffffffffffffffffffffffffffffffffffffff1673ffffffffffffffffffffffffffffffffffffffff16815260200190815260200160002080548060200260200160405190810160405280929190818152602001828054801561159957602002820191906000526020600020905b815481526020019060010190808311611585575b50505050509050919050565b600260205281600052604060002081815481106115c157600080fd5b90600052602060002001600091509150505481565b600660009054906101000a900473ffffffffffffffffffffffffffffffffffffffff1673ffffffffffffffffffffffffffffffffffffffff163373ffffffffffffffffffffffffffffffffffffffff1614611666576040517f08c379a000000000000000000000000000000000000000000000000000000000815260040161165d90612844565b60405180910390fd5b8160008111801561167957506003548111155b6116b8576040517f08c379a00000000000000000000000000000000000000000000000000000000081526004016116af90612339565b60405180910390fd5b60018260ff16101580156116d0575060038260ff1611155b61170f576040517f08c379a000000000000000000000000000000000000000000000000000000000815260040161170690612ef8565b60405180910390fd5b60008084815260200190815260200160002060060154421015611767576040517f08c379a000000000000000000000000000000000000000000000000000000000815260040161175e90612f64565b60405180910390fd5b6000806000858152602001908152602001600020905060018160050160016101000a81548160ff021916908315150217905550828160050160026101000a81548160ff021916908360ff16021790555060008160050160006101000a81548160ff021916908315150217905550837f739f283563fb51ab6b89ee95d937b2e63a6cfcb83c385dbebb629f9d97bd43e6846040516118049190612f84565b60405180910390a250505050565b606060008060008060008060008060008060008c815260200190815260200160002090508060000181600101548260020154836003015484600401548560050160009054906101000a900460ff168660050160019054906101000a900460ff168760050160029054906101000a900460ff16886006015488805461189590612bcd565b80601f01602080910402602001604051908101604052809291908181526020018280546118c190612bcd565b801561190e5780601f106118e35761010080835404028352916020019161190e565b820191906000526020600020905b8154815290600101906020018083116118f157829003601f168201915b50505050509850995099509950995099509950995099509950509193959799909294969850565b60035481565b600080600080858152602001908152602001600020905060006001600086815260200190815260200160002060008573ffffffffffffffffffffffffffffffffffffffff1673ffffffffffffffffffffffffffffffffffffffff16815260200190815260200160002090508160050160019054906101000a900460ff1615806119c8575060008160010154145b806119e157508060020160009054906101000a900460ff165b80611a1457508160050160029054906101000a900460ff1660ff168160000160009054906101000a900460ff1660ff1614155b15611a2457600092505050611b90565b600060018360050160029054906101000a900460ff1660ff1603611a4e5782600201549050611a7f565b60028360050160029054906101000a900460ff1660ff1603611a765782600301549050611a7e565b826004015490505b5b60008103611a935760009350505050611b90565b60008183600101548560010154611aaa9190612730565b611ab491906127a1565b90506000805b8560070180549050811015611b58578773ffffffffffffffffffffffffffffffffffffffff16866007018281548110611af657611af5612690565b5b9060005260206000200160009054906101000a900473ffffffffffffffffffffffffffffffffffffffff1673ffffffffffffffffffffffffffffffffffffffff1603611b455760019150611b58565b8080611b50906126bf565b915050611aba565b508015611b8757606460055483611b6f9190612730565b611b7991906127a1565b82611b84919061265c565b91505b81955050505050505b92915050565b6001602052816000526040600020602052806000526040600020600091509150508060000160009054906101000a900460ff16908060010154908060020160009054906101000a900460ff16905083565b6040518060600160405280600390602082028036833780820191505090505090565b6000604051905090565b600080fd5b600080fd5b6000819050919050565b611c3081611c1d565b8114611c3b57600080fd5b50565b600081359050611c4d81611c27565b92915050565b600060ff82169050919050565b611c6981611c53565b8114611c7457600080fd5b50565b600081359050611c8681611c60565b92915050565b60008060408385031215611ca357611ca2611c13565b5b6000611cb185828601611c3e565b9250506020611cc285828601611c77565b9150509250929050565b600060208284031215611ce257611ce1611c13565b5b6000611cf084828501611c3e565b91505092915050565b600060039050919050565b600081905092915050565b6000819050919050565b611d2281611c1d565b82525050565b6000611d348383611d19565b60208301905092915050565b6000602082019050919050565b611d5681611cf9565b611d608184611d04565b9250611d6b82611d0f565b8060005b83811015611d9c578151611d838782611d28565b9650611d8e83611d40565b925050600181019050611d6f565b505050505050565b6000606082019050611db96000830184611d4d565b92915050565b611dc881611c1d565b82525050565b6000602082019050611de36000830184611dbf565b92915050565b600080fd5b600080fd5b6000601f19601f8301169050919050565b7f4e487b7100000000000000000000000000000000000000000000000000000000600052604160045260246000fd5b611e3c82611df3565b810181811067ffffffffffffffff82111715611e5b57611e5a611e04565b5b80604052505050565b6000611e6e611c09565b9050611e7a8282611e33565b919050565b600067ffffffffffffffff821115611e9a57611e99611e04565b5b611ea382611df3565b9050602081019050919050565b82818337600083830152505050565b6000611ed2611ecd84611e7f565b611e64565b905082815260208101848484011115611eee57611eed611dee565b5b611ef9848285611eb0565b509392505050565b600082601f830112611f1657611f15611de9565b5b8135611f26848260208601611ebf565b91505092915050565b60008060408385031215611f4657611f45611c13565b5b600083013567ffffffffffffffff811115611f6457611f63611c18565b5b611f7085828601611f01565b9250506020611f8185828601611c3e565b9150509250929050565b600073ffffffffffffffffffffffffffffffffffffffff82169050919050565b6000611fb682611f8b565b9050919050565b611fc681611fab565b82525050565b6000602082019050611fe16000830184611fbd565b92915050565b600081519050919050565b600082825260208201905092915050565b60005b83811015612021578082015181840152602081019050612006565b60008484015250505050565b600061203882611fe7565b6120428185611ff2565b9350612052818560208601612003565b61205b81611df3565b840191505092915050565b60008115159050919050565b61207b81612066565b82525050565b61208a81611c53565b82525050565b60006101208201905081810360008301526120ab818c61202d565b90506120ba602083018b611dbf565b6120c7604083018a611dbf565b6120d46060830189611dbf565b6120e16080830188611dbf565b6120ee60a0830187612072565b6120fb60c0830186612072565b61210860e0830185612081565b612116610100830184611dbf565b9a9950505050505050505050565b61212d81611fab565b811461213857600080fd5b50565b60008135905061214a81612124565b92915050565b60006020828403121561216657612165611c13565b5b60006121748482850161213b565b91505092915050565b600081519050919050565b600082825260208201905092915050565b6000819050602082019050919050565b6000602082019050919050565b60006121c18261217d565b6121cb8185612188565b93506121d683612199565b8060005b838110156122075781516121ee8882611d28565b97506121f9836121a9565b9250506001810190506121da565b5085935050505092915050565b6000602082019050818103600083015261222e81846121b6565b905092915050565b6000806040838503121561224d5761224c611c13565b5b600061225b8582860161213b565b925050602061226c85828601611c3e565b9150509250929050565b6000806040838503121561228d5761228c611c13565b5b600061229b85828601611c3e565b92505060206122ac8582860161213b565b9150509250929050565b60006060820190506122cb6000830186612081565b6122d86020830185611dbf565b6122e56040830184612072565b949350505050565b7f4d61726b657420646f6573206e6f742065786973740000000000000000000000600082015250565b6000612323601583611ff2565b915061232e826122ed565b602082019050919050565b6000602082019050818103600083015261235281612316565b9050919050565b7f4d61726b6574206973206e6f7420616374697665000000000000000000000000600082015250565b600061238f601483611ff2565b915061239a82612359565b602082019050919050565b600060208201905081810360008301526123be81612382565b9050919050565b7f4d61726b657420697320616c7265616479207265736f6c766564000000000000600082015250565b60006123fb601a83611ff2565b9150612406826123c5565b602082019050919050565b6000602082019050818103600083015261242a816123ee565b9050919050565b7f4d61726b65742068617320656e64656400000000000000000000000000000000600082015250565b6000612467601083611ff2565b915061247282612431565b602082019050919050565b600060208201905081810360008301526124968161245a565b9050919050565b7f496e76616c6964206f7574636f6d650000000000000000000000000000000000600082015250565b60006124d3600f83611ff2565b91506124de8261249d565b602082019050919050565b60006020820190508181036000830152612502816124c6565b9050919050565b7f42657420616d6f756e74206d7573742062652067726561746572207468616e2060008201527f3000000000000000000000000000000000000000000000000000000000000000602082015250565b6000612565602183611ff2565b915061257082612509565b604082019050919050565b6000602082019050818103600083015261259481612558565b9050919050565b7f416c726561647920706c61636564206120626574206f6e2074686973206d617260008201527f6b65740000000000000000000000000000000000000000000000000000000000602082015250565b60006125f7602383611ff2565b91506126028261259b565b604082019050919050565b60006020820190508181036000830152612626816125ea565b9050919050565b7f4e487b7100000000000000000000000000000000000000000000000000000000600052601160045260246000fd5b600061266782611c1d565b915061267283611c1d565b925082820190508082111561268a5761268961262d565b5b92915050565b7f4e487b7100000000000000000000000000000000000000000000000000000000600052603260045260246000fd5b60006126ca82611c1d565b91507fffffffffffffffffffffffffffffffffffffffffffffffffffffffffffffffff82036126fc576126fb61262d565b5b600182019050919050565b600060408201905061271c6000830185612081565b6127296020830184611dbf565b9392505050565b600061273b82611c1d565b915061274683611c1d565b925082820261275481611c1d565b9150828204841483151761276b5761276a61262d565b5b5092915050565b7f4e487b7100000000000000000000000000000000000000000000000000000000600052601260045260246000fd5b60006127ac82611c1d565b91506127b783611c1d565b9250826127c7576127c6612772565b5b828204905092915050565b7f4f6e6c79206f776e65722063616e2063616c6c20746869732066756e6374696f60008201527f6e00000000000000000000000000000000000000000000000000000000000000602082015250565b600061282e602183611ff2565b9150612839826127d2565b604082019050919050565b6000602082019050818103600083015261285d81612821565b9050919050565b7f4e6f206665657320746f20776974686472617700000000000000000000000000600082015250565b600061289a601383611ff2565b91506128a582612864565b602082019050919050565b600060208201905081810360008301526128c98161288d565b9050919050565b600081905092915050565b50565b60006128eb6000836128d0565b91506128f6826128db565b600082019050919050565b600061290c826128de565b9150819050919050565b7f5472616e73666572206661696c65640000000000000000000000000000000000600082015250565b600061294c600f83611ff2565b915061295782612916565b602082019050919050565b6000602082019050818103600083015261297b8161293f565b9050919050565b7f4d61726b6574206973206e6f74207265736f6c76656400000000000000000000600082015250565b60006129b8601683611ff2565b91506129c382612982565b602082019050919050565b600060208201905081810360008301526129e7816129ab565b9050919050565b7f4e6f2062657420666f756e640000000000000000000000000000000000000000600082015250565b6000612a24600c83611ff2565b9150612a2f826129ee565b602082019050919050565b60006020820190508181036000830152612a5381612a17565b9050919050565b7f57696e6e696e677320616c726561647920636c61696d65640000000000000000600082015250565b6000612a90601883611ff2565b9150612a9b82612a5a565b602082019050919050565b60006020820190508181036000830152612abf81612a83565b9050919050565b7f42657420646964206e6f742077696e0000000000000000000000000000000000600082015250565b6000612afc600f83611ff2565b9150612b0782612ac6565b602082019050919050565b60006020820190508181036000830152612b2b81612aef565b9050919050565b7f4e6f2077696e6e696e677320746f20636c61696d000000000000000000000000600082015250565b6000612b68601483611ff2565b9150612b7382612b32565b602082019050919050565b60006020820190508181036000830152612b9781612b5b565b9050919050565b7f4e487b7100000000000000000000000000000000000000000000000000000000600052602260045260246000fd5b60006002820490506001821680612be557607f821691505b602082108103612bf857612bf7612b9e565b5b50919050565b60008190508160005260206000209050919050565b60006020601f8301049050919050565b600082821b905092915050565b600060088302612c607fffffffffffffffffffffffffffffffffffffffffffffffffffffffffffffffff82612c23565b612c6a8683612c23565b95508019841693508086168417925050509392505050565b6000819050919050565b6000612ca7612ca2612c9d84611c1d565b612c82565b611c1d565b9050919050565b6000819050919050565b612cc183612c8c565b612cd5612ccd82612cae565b848454612c30565b825550505050565b600090565b612cea612cdd565b612cf5818484612cb8565b505050565b5b81811015612d1957612d0e600082612ce2565b600181019050612cfb565b5050565b601f821115612d5e57612d2f81612bfe565b612d3884612c13565b81016020851015612d47578190505b612d5b612d5385612c13565b830182612cfa565b50505b505050565b600082821c905092915050565b6000612d8160001984600802612d63565b1980831691505092915050565b6000612d9a8383612d70565b9150826002028217905092915050565b612db382611fe7565b67ffffffffffffffff811115612dcc57612dcb611e04565b5b612dd68254612bcd565b612de1828285612d1d565b600060209050601f831160018114612e145760008415612e02578287015190505b612e0c8582612d8e565b865550612e74565b601f198416612e2286612bfe565b60005b82811015612e4a57848901518255600182019150602085019450602081019050612e25565b86831015612e675784890151612e63601f891682612d70565b8355505b6001600288020188555050505b505050505050565b60006040820190508181036000830152612e96818561202d565b9050612ea56020830184611dbf565b9392505050565b7f496e76616c69642077696e6e696e67206f7574636f6d65000000000000000000600082015250565b6000612ee2601783611ff2565b9150612eed82612eac565b602082019050919050565b60006020820190508181036000830152612f1181612ed5565b9050919050565b7f4d61726b657420686173206e6f7420656e646564207965740000000000000000600082015250565b6000612f4e601883611ff2565b9150612f5982612f18565b602082019050919050565b60006020820190508181036000830152612f7d81612f41565b9050919050565b6000602082019050612f996000830184612081565b9291505056fea26469706673582212203cdeeaa43abb80b73d7493021e55986b233d4c093004390a4410b489818a60f664736f6c63430008140033",
  "linkReferences": {},
  "deployedLinkReferences": {}
}