{
  "_format": "hh-sol-artifact-1",
  "contractName": "BetZilla",
  "sourceName": "contracts/BetZilla.sol",
  "abi": [
    {
      "inputs": [],
      "stateMutability": "nonpayable",
      "type": "constructor"
    },
    {
      "anonymous": false,
      "inputs": [
        {
          "indexed": false,
          "internalType": "uint256",
          "name": "marketId",
          "type": "uint256"
        },
        {
          "indexed": true,
          "internalType": "address",
          "name": "user",
          "type": "address"
        },
        {
          "indexed": false,
          "internalType": "uint8",
          "name": "outcome",
          "type": "uint8"
        },
        {
          "indexed": false,
          "internalType": "uint256",
          "name": "amount",
          "type": "uint256"
        }
      ],
      "name": "BetPlaced",
      "type": "event"
    },
    {
      "anonymous": false,
      "inputs": [
        {
          "indexed": false,
          "internalType": "uint256",
          "name": "marketId",
          "type": "uint256"
        },
        {
          "indexed": false,
          "internalType": "uint256[3]",
          "name": "finalOdds",
          "type": "uint256[3]"
        }
      ],
      "name": "BettingClosed",
      "type": "event"
    },
    {
      "anonymous": false,
      "inputs": [
        {
          "indexed": false,
          "internalType": "uint256",
          "name": "marketId",
          "type": "uint256"
        },
        {
          "indexed": false,
          "internalType": "string",
          "name": "description",
          "type": "string"
        },
        {
          "indexed": false,
          "internalType": "uint256",
          "name": "startTime",
          "type": "uint256"
        }
      ],
      "name": "MarketCreated",
      "type": "event"
    },
    {
      "anonymous": false,
      "inputs": [
        {
          "indexed": false,
          "internalType": "uint256",
          "name": "marketId",
          "type": "uint256"
        },
        {
          "indexed": false,
          "internalType": "uint8",
          "name": "winningOutcome",
          "type": "uint8"
        }
      ],
      "name": "MarketResolved",
      "type": "event"
    },
    {
      "anonymous": false,
      "inputs": [
        {
          "indexed": false,
          "internalType": "uint256",
          "name": "marketId",
          "type": "uint256"
        },
        {
          "indexed": false,
          "internalType": "address",
          "name": "user",
          "type": "address"
        },
        {
          "indexed": false,
          "internalType": "uint256",
          "name": "payout",
          "type": "uint256"
        }
      ],
      "name": "WinningsClaimed",
      "type": "event"
    },
    {
      "inputs": [],
      "name": "FEE_PERCENT",
      "outputs": [
        {
          "internalType": "uint256",
          "name": "",
          "type": "uint256"
        }
      ],
      "stateMutability": "view",
      "type": "function"
    },
    {
      "inputs": [
        {
          "internalType": "uint256",
          "name": "",
          "type": "uint256"
        },
        {
          "internalType": "address",
          "name": "",
          "type": "address"
        }
      ],
      "name": "bets",
      "outputs": [
        {
          "internalType": "uint8",
          "name": "outcome",
          "type": "uint8"
        },
        {
          "internalType": "uint256",
          "name": "amount",
          "type": "uint256"
        },
        {
          "internalType": "bool",
          "name": "claimed",
          "type": "bool"
        },
        {
          "internalType": "bool",
          "name": "refunded",
          "type": "bool"
        },
        {
          "internalType": "uint256",
          "name": "placedAt",
          "type": "uint256"
        }
      ],
      "stateMutability": "view",
      "type": "function"
    },
    {
      "inputs": [
        {
          "internalType": "uint256",
          "name": "marketId",
          "type": "uint256"
        }
      ],
      "name": "claimWinnings",
      "outputs": [],
      "stateMutability": "nonpayable",
      "type": "function"
    },
    {
      "inputs": [
        {
          "internalType": "uint256",
          "name": "marketId",
          "type": "uint256"
        }
      ],
      "name": "closeBetting",
      "outputs": [],
      "stateMutability": "nonpayable",
      "type": "function"
    },
    {
      "inputs": [
        {
          "internalType": "string",
          "name": "description",
          "type": "string"
        },
        {
          "internalType": "uint256",
          "name": "startTime",
          "type": "uint256"
        }
      ],
      "name": "createMarket",
      "outputs": [],
      "stateMutability": "nonpayable",
      "type": "function"
    },
    {
      "inputs": [
        {
          "internalType": "uint256",
          "name": "marketId",
          "type": "uint256"
        }
      ],
      "name": "getCurrentFee",
      "outputs": [
        {
          "internalType": "uint256",
          "name": "",
          "type": "uint256"
        }
      ],
      "stateMutability": "view",
      "type": "function"
    },
    {
      "inputs": [
        {
          "internalType": "uint256",
          "name": "marketId",
          "type": "uint256"
        }
      ],
      "name": "getEstimatedOdds",
      "outputs": [
        {
          "internalType": "uint256[3]",
          "name": "",
          "type": "uint256[3]"
        }
      ],
      "stateMutability": "view",
      "type": "function"
    },
    {
      "inputs": [
        {
          "internalType": "uint256",
          "name": "marketId",
          "type": "uint256"
        }
      ],
      "name": "getFinalOdds",
      "outputs": [
        {
          "internalType": "uint256[3]",
          "name": "",
          "type": "uint256[3]"
        }
      ],
      "stateMutability": "view",
      "type": "function"
    },
    {
      "inputs": [
        {
          "internalType": "uint256",
          "name": "marketId",
          "type": "uint256"
        }
      ],
      "name": "getMarket",
      "outputs": [
        {
          "internalType": "string",
          "name": "description",
          "type": "string"
        },
        {
          "internalType": "uint256",
          "name": "totalAmount",
          "type": "uint256"
        },
        {
          "internalType": "uint256[3]",
          "name": "outcomeAmounts",
          "type": "uint256[3]"
        },
        {
          "internalType": "bool",
          "name": "isClosed",
          "type": "bool"
        },
        {
          "internalType": "bool",
          "name": "isResolved",
          "type": "bool"
        },
        {
          "internalType": "uint8",
          "name": "winningOutcome",
          "type": "uint8"
        },
        {
          "internalType": "uint256",
          "name": "startTime",
          "type": "uint256"
        },
        {
          "internalType": "uint256[3]",
          "name": "finalOdds",
          "type": "uint256[3]"
        }
      ],
      "stateMutability": "view",
      "type": "function"
    },
    {
      "inputs": [
        {
          "internalType": "uint256",
          "name": "marketId",
          "type": "uint256"
        },
        {
          "internalType": "address",
          "name": "user",
          "type": "address"
        }
      ],
      "name": "getUserBet",
      "outputs": [
        {
          "internalType": "uint8",
          "name": "outcome",
          "type": "uint8"
        },
        {
          "internalType": "uint256",
          "name": "amount",
          "type": "uint256"
        },
        {
          "internalType": "bool",
          "name": "claimed",
          "type": "bool"
        },
        {
          "internalType": "bool",
          "name": "refunded",
          "type": "bool"
        },
        {
          "internalType": "uint256",
          "name": "placedAt",
          "type": "uint256"
        }
      ],
      "stateMutability": "view",
      "type": "function"
    },
    {
      "inputs": [
        {
          "internalType": "address",
          "name": "user",
          "type": "address"
        }
      ],
      "name": "getUserMarkets",
      "outputs": [
        {
          "internalType": "uint256[]",
          "name": "",
          "type": "uint256[]"
        }
      ],
      "stateMutability": "view",
      "type": "function"
    },
    {
      "inputs": [],
      "name": "marketCount",
      "outputs": [
        {
          "internalType": "uint256",
          "name": "",
          "type": "uint256"
        }
      ],
      "stateMutability": "view",
      "type": "function"
    },
    {
      "inputs": [
        {
          "internalType": "uint256",
          "name": "",
          "type": "uint256"
        }
      ],
      "name": "markets",
      "outputs": [
        {
          "internalType": "string",
          "name": "description",
          "type": "string"
        },
        {
          "internalType": "uint256",
          "name": "totalAmount",
          "type": "uint256"
        },
        {
          "internalType": "bool",
          "name": "isClosed",
          "type": "bool"
        },
        {
          "internalType": "bool",
          "name": "isResolved",
          "type": "bool"
        },
        {
          "internalType": "uint8",
          "name": "winningOutcome",
          "type": "uint8"
        },
        {
          "internalType": "uint256",
          "name": "startTime",
          "type": "uint256"
        }
      ],
      "stateMutability": "view",
      "type": "function"
    },
    {
      "inputs": [],
      "name": "owner",
      "outputs": [
        {
          "internalType": "address",
          "name": "",
          "type": "address"
        }
      ],
      "stateMutability": "view",
      "type": "function"
    },
    {
      "inputs": [
        {
          "internalType": "uint256",
          "name": "marketId",
          "type": "uint256"
        },
        {
          "internalType": "uint8",
          "name": "outcome",
          "type": "uint8"
        }
      ],
      "name": "placeBet",
      "outputs": [],
      "stateMutability": "payable",
      "type": "function"
    },
    {
      "inputs": [
        {
          "internalType": "uint256",
          "name": "marketId",
          "type": "uint256"
        },
        {
          "internalType": "uint8",
          "name": "outcome",
          "type": "uint8"
        }
      ],
      "name": "setResult",
      "outputs": [],
      "stateMutability": "nonpayable",
      "type": "function"
    },
    {
      "inputs": [
        {
          "internalType": "address",
          "name": "",
          "type": "address"
        },
        {
          "internalType": "uint256",
          "name": "",
          "type": "uint256"
        }
      ],
      "name": "userMarketIds",
      "outputs": [
        {
          "internalType": "uint256",
          "name": "",
          "type": "uint256"
        }
      ],
      "stateMutability": "view",
      "type": "function"
    },
    {
      "inputs": [],
      "name": "withdrawFees",
      "outputs": [],
      "stateMutability": "nonpayable",
      "type": "function"
    },
    {
      "stateMutability": "payable",
      "type": "receive"
    }
  ],
  "bytecode": "0x608060405234801561001057600080fd5b50336000806101000a81548173ffffffffffffffffffffffffffffffffffffffff021916908373ffffffffffffffffffffffffffffffffffffffff160217905550613363806100606000396000f3fe60806040526004361061010d5760003560e01c8063b1283e7711610095578063e469e1c211610064578063e469e1c214610392578063eaf98d23146103cf578063eb44fdd3146103fa578063ec9790821461043e578063f644b3bb1461046957610114565b8063b1283e77146102a9578063b4ad06a1146102eb578063c03fb87c14610314578063da4473d81461035557610114565b8063677bd9ff116100dc578063677bd9ff146101b25780636c285681146101db578063883c84c1146102185780638da5cb5b14610241578063a366c50d1461026c57610114565b806303edf914146101195780633d79577514610135578063476343ee1461017257806356150a361461018957610114565b3661011457005b600080fd5b610133600480360381019061012e9190611da3565b6104aa565b005b34801561014157600080fd5b5061015c60048036038101906101579190611de3565b6108fb565b6040516101699190611ebb565b60405180910390f35b34801561017e57600080fd5b50610187610ac5565b005b34801561019557600080fd5b506101b060048036038101906101ab9190611da3565b610c6c565b005b3480156101be57600080fd5b506101d960048036038101906101d49190611de3565b610ed6565b005b3480156101e757600080fd5b5061020260048036038101906101fd9190611de3565b611247565b60405161020f9190611ee5565b60405180910390f35b34801561022457600080fd5b5061023f600480360381019061023a9190612046565b6112a5565b005b34801561024d57600080fd5b50610256611520565b60405161026391906120e3565b60405180910390f35b34801561027857600080fd5b50610293600480360381019061028e9190611de3565b611544565b6040516102a09190611ebb565b60405180910390f35b3480156102b557600080fd5b506102d060048036038101906102cb9190611de3565b6115a5565b6040516102e2969594939291906121a7565b60405180910390f35b3480156102f757600080fd5b50610312600480360381019061030d9190611de3565b611690565b005b34801561032057600080fd5b5061033b6004803603810190610336919061223b565b611911565b60405161034c95949392919061227b565b60405180910390f35b34801561036157600080fd5b5061037c600480360381019061037791906122ce565b6119c1565b6040516103899190612392565b60405180910390f35b34801561039e57600080fd5b506103b960048036038101906103b491906123b4565b611a58565b6040516103c69190611ee5565b60405180910390f35b3480156103db57600080fd5b506103e4611a89565b6040516103f19190611ee5565b60405180910390f35b34801561040657600080fd5b50610421600480360381019061041c9190611de3565b611a8e565b6040516104359897969594939291906123f4565b60405180910390f35b34801561044a57600080fd5b50610453611c31565b6040516104609190611ee5565b60405180910390f35b34801561047557600080fd5b50610490600480360381019061048b919061223b565b611c37565b6040516104a195949392919061227b565b60405180910390f35b816000811180156104bd57506001548111155b6104fc576040517f08c379a00000000000000000000000000000000000000000000000000000000081526004016104f3906124c7565b60405180910390fd5b60006002600085815260200190815260200160002090508060050160009054906101000a900460ff1615610565576040517f08c379a000000000000000000000000000000000000000000000000000000000815260040161055c90612533565b60405180910390fd5b806006015442106105ab576040517f08c379a00000000000000000000000000000000000000000000000000000000081526004016105a29061259f565b60405180910390fd5b60018360ff16101580156105c3575060038360ff1611155b610602576040517f08c379a00000000000000000000000000000000000000000000000000000000081526004016105f99061260b565b60405180910390fd5b60003411610645576040517f08c379a000000000000000000000000000000000000000000000000000000000815260040161063c90612677565b60405180910390fd5b3481600101600082825461065991906126c6565b92505081905550348160020160018561067291906126fa565b60ff16600381106106865761068561272f565b5b01600082825461069691906126c6565b925050819055506000806003600087815260200190815260200160002060003373ffffffffffffffffffffffffffffffffffffffff1673ffffffffffffffffffffffffffffffffffffffff168152602001908152602001600020600101541490508015610860576040518060a001604052808560ff168152602001348152602001600015158152602001600015158152602001428152506003600087815260200190815260200160002060003373ffffffffffffffffffffffffffffffffffffffff1673ffffffffffffffffffffffffffffffffffffffff16815260200190815260200160002060008201518160000160006101000a81548160ff021916908360ff1602179055506020820151816001015560408201518160020160006101000a81548160ff02191690831515021790555060608201518160020160016101000a81548160ff02191690831515021790555060808201518160030155905050600460003373ffffffffffffffffffffffffffffffffffffffff1673ffffffffffffffffffffffffffffffffffffffff1681526020019081526020016000208590806001815401808255809150506001900390600052602060002001600090919091909150556108a2565b60006108a1576040517f08c379a0000000000000000000000000000000000000000000000000000000008152600401610898906127d0565b60405180910390fd5b5b3373ffffffffffffffffffffffffffffffffffffffff167f4f1eed5e863a822b0f9eb960dfdab2cc5a99beec4b191f2a7a9c7e28e5a155248686346040516108ec939291906127f0565b60405180910390a25050505050565b610903611ca1565b8160008111801561091657506001548111155b610955576040517f08c379a000000000000000000000000000000000000000000000000000000000815260040161094c906124c7565b60405180910390fd5b60006002600085815260200190815260200160002090508060050160009054906101000a900460ff16156109cb57806007016003806020026040519081016040528092919082600380156109be576020028201915b8154815260200190600101908083116109aa575b5050505050925050610abf565b60008160010154036109fd57604051806060016040528060c8815260200160c8815260200160c8815250925050610abf565b610a05611ca1565b60005b6003811015610ab8576000836002018260038110610a2957610a2861272f565b5b01541115610a8557826002018160038110610a4757610a4661272f565b5b015460648460010154610a5a9190612827565b610a649190612898565b828260038110610a7757610a7661272f565b5b602002018181525050610aa5565b6101f4828260038110610a9b57610a9a61272f565b5b6020020181815250505b8080610ab0906128c9565b915050610a08565b5080935050505b50919050565b60008054906101000a900473ffffffffffffffffffffffffffffffffffffffff1673ffffffffffffffffffffffffffffffffffffffff163373ffffffffffffffffffffffffffffffffffffffff1614610b53576040517f08c379a0000000000000000000000000000000000000000000000000000000008152600401610b4a9061295d565b60405180910390fd5b600047905060008111610b9b576040517f08c379a0000000000000000000000000000000000000000000000000000000008152600401610b92906129c9565b60405180910390fd5b60008060009054906101000a900473ffffffffffffffffffffffffffffffffffffffff1673ffffffffffffffffffffffffffffffffffffffff1682604051610be290612a1a565b60006040518083038185875af1925050503d8060008114610c1f576040519150601f19603f3d011682016040523d82523d6000602084013e610c24565b606091505b5050905080610c68576040517f08c379a0000000000000000000000000000000000000000000000000000000008152600401610c5f90612a7b565b60405180910390fd5b5050565b60008054906101000a900473ffffffffffffffffffffffffffffffffffffffff1673ffffffffffffffffffffffffffffffffffffffff163373ffffffffffffffffffffffffffffffffffffffff1614610cfa576040517f08c379a0000000000000000000000000000000000000000000000000000000008152600401610cf19061295d565b60405180910390fd5b81600081118015610d0d57506001548111155b610d4c576040517f08c379a0000000000000000000000000000000000000000000000000000000008152600401610d43906124c7565b60405180910390fd5b60018260ff1610158015610d64575060038260ff1611155b610da3576040517f08c379a0000000000000000000000000000000000000000000000000000000008152600401610d9a90612ae7565b60405180910390fd5b60006002600085815260200190815260200160002090508060050160009054906101000a900460ff16610e0b576040517f08c379a0000000000000000000000000000000000000000000000000000000008152600401610e0290612b53565b60405180910390fd5b8060050160019054906101000a900460ff1615610e5d576040517f08c379a0000000000000000000000000000000000000000000000000000000008152600401610e5490612bbf565b60405180910390fd5b828160050160026101000a81548160ff021916908360ff16021790555060018160050160016101000a81548160ff0219169083151502179055507f739f283563fb51ab6b89ee95d937b2e63a6cfcb83c385dbebb629f9d97bd43e68484604051610ec8929190612bdf565b60405180910390a150505050565b80600081118015610ee957506001548111155b610f28576040517f08c379a0000000000000000000000000000000000000000000000000000000008152600401610f1f906124c7565b60405180910390fd5b600060026000848152602001908152602001600020905060006003600085815260200190815260200160002060003373ffffffffffffffffffffffffffffffffffffffff1673ffffffffffffffffffffffffffffffffffffffff16815260200190815260200160002090508160050160019054906101000a900460ff16610fe4576040517f08c379a0000000000000000000000000000000000000000000000000000000008152600401610fdb90612c54565b60405180910390fd5b8060020160009054906101000a900460ff1615611036576040517f08c379a000000000000000000000000000000000000000000000000000000000815260040161102d90612cc0565b60405180910390fd5b8160050160029054906101000a900460ff1660ff168160000160009054906101000a900460ff1660ff16146110a0576040517f08c379a000000000000000000000000000000000000000000000000000000000815260040161109790612d2c565b60405180910390fd5b60008260070160018360000160009054906101000a900460ff166110c491906126fa565b60ff16600381106110d8576110d761272f565b5b01549050600060648284600101546110f09190612827565b6110fa9190612898565b90506000606460038361110d9190612827565b6111179190612898565b9050600081836111279190612d4c565b856001015461113691906126c6565b905060018560020160006101000a81548160ff02191690831515021790555060003373ffffffffffffffffffffffffffffffffffffffff168260405161117b90612a1a565b60006040518083038185875af1925050503d80600081146111b8576040519150601f19603f3d011682016040523d82523d6000602084013e6111bd565b606091505b5050905080611201576040517f08c379a00000000000000000000000000000000000000000000000000000000081526004016111f890612a7b565b60405180910390fd5b7f5380cf6fe903b40c6d5a9e0dfbca2f3a423f0a21520b4d5947ed5169bdba946d89338460405161123493929190612d80565b60405180910390a1505050505050505050565b60008160008111801561125c57506001548111155b61129b576040517f08c379a0000000000000000000000000000000000000000000000000000000008152600401611292906124c7565b60405180910390fd5b6003915050919050565b60008054906101000a900473ffffffffffffffffffffffffffffffffffffffff1673ffffffffffffffffffffffffffffffffffffffff163373ffffffffffffffffffffffffffffffffffffffff1614611333576040517f08c379a000000000000000000000000000000000000000000000000000000000815260040161132a9061295d565b60405180910390fd5b428111611375576040517f08c379a000000000000000000000000000000000000000000000000000000000815260040161136c90612e03565b60405180910390fd5b60016000815480929190611388906128c9565b9190505550604051806101000160405280838152602001600081526020016040518060600160405280600081526020016000815260200160008152508152602001600015158152602001600015158152602001600060ff1681526020018281526020016040518060600160405280600081526020016000815260200160008152508152506002600060015481526020019081526020016000206000820151816000019081611436919061302f565b5060208201518160010155604082015181600201906003611458929190611cc3565b5060608201518160050160006101000a81548160ff02191690831515021790555060808201518160050160016101000a81548160ff02191690831515021790555060a08201518160050160026101000a81548160ff021916908360ff16021790555060c0820151816006015560e0820151816007019060036114db929190611cc3565b509050507f2d1e9ad45dbe8e898e0374deebf2a661b2ae7c1855d2a29507d584c35d287c75600154838360405161151493929190613101565b60405180910390a15050565b60008054906101000a900473ffffffffffffffffffffffffffffffffffffffff1681565b61154c611ca1565b60026000838152602001908152602001600020600701600380602002604051908101604052809291908260038015611599576020028201915b815481526020019060010190808311611585575b50505050509050919050565b60026020528060005260406000206000915090508060000180546115c890612e52565b80601f01602080910402602001604051908101604052809291908181526020018280546115f490612e52565b80156116415780601f1061161657610100808354040283529160200191611641565b820191906000526020600020905b81548152906001019060200180831161162457829003601f168201915b5050505050908060010154908060050160009054906101000a900460ff16908060050160019054906101000a900460ff16908060050160029054906101000a900460ff16908060060154905086565b60008054906101000a900473ffffffffffffffffffffffffffffffffffffffff1673ffffffffffffffffffffffffffffffffffffffff163373ffffffffffffffffffffffffffffffffffffffff161461171e576040517f08c379a00000000000000000000000000000000000000000000000000000000081526004016117159061295d565b60405180910390fd5b8060008111801561173157506001548111155b611770576040517f08c379a0000000000000000000000000000000000000000000000000000000008152600401611767906124c7565b60405180910390fd5b600060026000848152602001908152602001600020905080600601544210156117ce576040517f08c379a00000000000000000000000000000000000000000000000000000000081526004016117c59061318b565b60405180910390fd5b8060050160009054906101000a900460ff1615611820576040517f08c379a0000000000000000000000000000000000000000000000000000000008152600401611817906131f7565b60405180910390fd5b60018160050160006101000a81548160ff02191690831515021790555060008160010154905060005b60038160ff1610156118ce576000836002018260ff16600381106118705761186f61272f565b5b0154905060008114611899578060648461188a9190612827565b6118949190612898565b61189c565b60005b846007018360ff16600381106118b5576118b461272f565b5b01819055505080806118c690613217565b915050611849565b507f739dc946f0a35d22d4e2d61e0f800b8606d67f74513e3097bc4aee150feab4a58483600701604051611903929190613304565b60405180910390a150505050565b6000806000806000806003600089815260200190815260200160002060008873ffffffffffffffffffffffffffffffffffffffff1673ffffffffffffffffffffffffffffffffffffffff16815260200190815260200160002090508060000160009054906101000a900460ff1681600101548260020160009054906101000a900460ff168360020160019054906101000a900460ff16846003015495509550955095509550509295509295909350565b6060600460008373ffffffffffffffffffffffffffffffffffffffff1673ffffffffffffffffffffffffffffffffffffffff168152602001908152602001600020805480602002602001604051908101604052809291908181526020018280548015611a4c57602002820191906000526020600020905b815481526020019060010190808311611a38575b50505050509050919050565b60046020528160005260406000208181548110611a7457600080fd5b90600052602060002001600091509150505481565b600381565b60606000611a9a611ca1565b600080600080611aa8611ca1565b6000600260008b81526020019081526020016000209050806000018160010154826002018360050160009054906101000a900460ff168460050160019054906101000a900460ff168560050160029054906101000a900460ff16866006015487600701878054611b1790612e52565b80601f0160208091040260200160405190810160405280929190818152602001828054611b4390612e52565b8015611b905780601f10611b6557610100808354040283529160200191611b90565b820191906000526020600020905b815481529060010190602001808311611b7357829003601f168201915b5050505050975085600380602002604051908101604052809291908260038015611bcf576020028201915b815481526020019060010190808311611bbb575b5050505050955080600380602002604051908101604052809291908260038015611c0e576020028201915b815481526020019060010190808311611bfa575b505050505090509850985098509850985098509850985050919395975091939597565b60015481565b6003602052816000526040600020602052806000526040600020600091509150508060000160009054906101000a900460ff16908060010154908060020160009054906101000a900460ff16908060020160019054906101000a900460ff16908060030154905085565b6040518060600160405280600390602082028036833780820191505090505090565b8260038101928215611cf2579160200282015b82811115611cf1578251825591602001919060010190611cd6565b5b509050611cff9190611d03565b5090565b5b80821115611d1c576000816000905550600101611d04565b5090565b6000604051905090565b600080fd5b600080fd5b6000819050919050565b611d4781611d34565b8114611d5257600080fd5b50565b600081359050611d6481611d3e565b92915050565b600060ff82169050919050565b611d8081611d6a565b8114611d8b57600080fd5b50565b600081359050611d9d81611d77565b92915050565b60008060408385031215611dba57611db9611d2a565b5b6000611dc885828601611d55565b9250506020611dd985828601611d8e565b9150509250929050565b600060208284031215611df957611df8611d2a565b5b6000611e0784828501611d55565b91505092915050565b600060039050919050565b600081905092915050565b6000819050919050565b611e3981611d34565b82525050565b6000611e4b8383611e30565b60208301905092915050565b6000602082019050919050565b611e6d81611e10565b611e778184611e1b565b9250611e8282611e26565b8060005b83811015611eb3578151611e9a8782611e3f565b9650611ea583611e57565b925050600181019050611e86565b505050505050565b6000606082019050611ed06000830184611e64565b92915050565b611edf81611d34565b82525050565b6000602082019050611efa6000830184611ed6565b92915050565b600080fd5b600080fd5b6000601f19601f8301169050919050565b7f4e487b7100000000000000000000000000000000000000000000000000000000600052604160045260246000fd5b611f5382611f0a565b810181811067ffffffffffffffff82111715611f7257611f71611f1b565b5b80604052505050565b6000611f85611d20565b9050611f918282611f4a565b919050565b600067ffffffffffffffff821115611fb157611fb0611f1b565b5b611fba82611f0a565b9050602081019050919050565b82818337600083830152505050565b6000611fe9611fe484611f96565b611f7b565b90508281526020810184848401111561200557612004611f05565b5b612010848285611fc7565b509392505050565b600082601f83011261202d5761202c611f00565b5b813561203d848260208601611fd6565b91505092915050565b6000806040838503121561205d5761205c611d2a565b5b600083013567ffffffffffffffff81111561207b5761207a611d2f565b5b61208785828601612018565b925050602061209885828601611d55565b9150509250929050565b600073ffffffffffffffffffffffffffffffffffffffff82169050919050565b60006120cd826120a2565b9050919050565b6120dd816120c2565b82525050565b60006020820190506120f860008301846120d4565b92915050565b600081519050919050565b600082825260208201905092915050565b60005b8381101561213857808201518184015260208101905061211d565b60008484015250505050565b600061214f826120fe565b6121598185612109565b935061216981856020860161211a565b61217281611f0a565b840191505092915050565b60008115159050919050565b6121928161217d565b82525050565b6121a181611d6a565b82525050565b600060c08201905081810360008301526121c18189612144565b90506121d06020830188611ed6565b6121dd6040830187612189565b6121ea6060830186612189565b6121f76080830185612198565b61220460a0830184611ed6565b979650505050505050565b612218816120c2565b811461222357600080fd5b50565b6000813590506122358161220f565b92915050565b6000806040838503121561225257612251611d2a565b5b600061226085828601611d55565b925050602061227185828601612226565b9150509250929050565b600060a0820190506122906000830188612198565b61229d6020830187611ed6565b6122aa6040830186612189565b6122b76060830185612189565b6122c46080830184611ed6565b9695505050505050565b6000602082840312156122e4576122e3611d2a565b5b60006122f284828501612226565b91505092915050565b600081519050919050565b600082825260208201905092915050565b6000819050602082019050919050565b6000602082019050919050565b600061233f826122fb565b6123498185612306565b935061235483612317565b8060005b8381101561238557815161236c8882611e3f565b975061237783612327565b925050600181019050612358565b5085935050505092915050565b600060208201905081810360008301526123ac8184612334565b905092915050565b600080604083850312156123cb576123ca611d2a565b5b60006123d985828601612226565b92505060206123ea85828601611d55565b9150509250929050565b600061018082019050818103600083015261240f818b612144565b905061241e602083018a611ed6565b61242b6040830189611e64565b61243860a0830188612189565b61244560c0830187612189565b61245260e0830186612198565b612460610100830185611ed6565b61246e610120830184611e64565b9998505050505050505050565b7f496e76616c6964206d61726b6574000000000000000000000000000000000000600082015250565b60006124b1600e83612109565b91506124bc8261247b565b602082019050919050565b600060208201905081810360008301526124e0816124a4565b9050919050565b7f42657474696e6720636c6f736564000000000000000000000000000000000000600082015250565b600061251d600e83612109565b9150612528826124e7565b602082019050919050565b6000602082019050818103600083015261254c81612510565b9050919050565b7f4d61746368207374617274656400000000000000000000000000000000000000600082015250565b6000612589600d83612109565b915061259482612553565b602082019050919050565b600060208201905081810360008301526125b88161257c565b9050919050565b7f496e76616c6964206f7574636f6d650000000000000000000000000000000000600082015250565b60006125f5600f83612109565b9150612600826125bf565b602082019050919050565b60006020820190508181036000830152612624816125e8565b9050919050565b7f426574206d757374206265203e20300000000000000000000000000000000000600082015250565b6000612661600f83612109565b915061266c8261262b565b602082019050919050565b6000602082019050818103600083015261269081612654565b9050919050565b7f4e487b7100000000000000000000000000000000000000000000000000000000600052601160045260246000fd5b60006126d182611d34565b91506126dc83611d34565b92508282019050808211156126f4576126f3612697565b5b92915050565b600061270582611d6a565b915061271083611d6a565b9250828203905060ff81111561272957612728612697565b5b92915050565b7f4e487b7100000000000000000000000000000000000000000000000000000000600052603260045260246000fd5b7f416c726561647920706c6163656420626574206f6e2074686973206d61726b6560008201527f7400000000000000000000000000000000000000000000000000000000000000602082015250565b60006127ba602183612109565b91506127c58261275e565b604082019050919050565b600060208201905081810360008301526127e9816127ad565b9050919050565b60006060820190506128056000830186611ed6565b6128126020830185612198565b61281f6040830184611ed6565b949350505050565b600061283282611d34565b915061283d83611d34565b925082820261284b81611d34565b9150828204841483151761286257612861612697565b5b5092915050565b7f4e487b7100000000000000000000000000000000000000000000000000000000600052601260045260246000fd5b60006128a382611d34565b91506128ae83611d34565b9250826128be576128bd612869565b5b828204905092915050565b60006128d482611d34565b91507fffffffffffffffffffffffffffffffffffffffffffffffffffffffffffffffff820361290657612905612697565b5b600182019050919050565b7f4f6e6c79206f776e657200000000000000000000000000000000000000000000600082015250565b6000612947600a83612109565b915061295282612911565b602082019050919050565b600060208201905081810360008301526129768161293a565b9050919050565b7f4e6f206665657320746f20776974686472617700000000000000000000000000600082015250565b60006129b3601383612109565b91506129be8261297d565b602082019050919050565b600060208201905081810360008301526129e2816129a6565b9050919050565b600081905092915050565b50565b6000612a046000836129e9565b9150612a0f826129f4565b600082019050919050565b6000612a25826129f7565b9150819050919050565b7f5472616e73666572206661696c65640000000000000000000000000000000000600082015250565b6000612a65600f83612109565b9150612a7082612a2f565b602082019050919050565b60006020820190508181036000830152612a9481612a58565b9050919050565b7f496e76616c696420726573756c74000000000000000000000000000000000000600082015250565b6000612ad1600e83612109565b9150612adc82612a9b565b602082019050919050565b60006020820190508181036000830152612b0081612ac4565b9050919050565b7f42657474696e67207374696c6c206f70656e0000000000000000000000000000600082015250565b6000612b3d601283612109565b9150612b4882612b07565b602082019050919050565b60006020820190508181036000830152612b6c81612b30565b9050919050565b7f416c7265616479207265736f6c76656400000000000000000000000000000000600082015250565b6000612ba9601083612109565b9150612bb482612b73565b602082019050919050565b60006020820190508181036000830152612bd881612b9c565b9050919050565b6000604082019050612bf46000830185611ed6565b612c016020830184612198565b9392505050565b7f4d61726b6574206e6f74207265736f6c76656400000000000000000000000000600082015250565b6000612c3e601383612109565b9150612c4982612c08565b602082019050919050565b60006020820190508181036000830152612c6d81612c31565b9050919050565b7f416c726561647920636c61696d65640000000000000000000000000000000000600082015250565b6000612caa600f83612109565b9150612cb582612c74565b602082019050919050565b60006020820190508181036000830152612cd981612c9d565b9050919050565b7f4e6f7420612077696e6e65720000000000000000000000000000000000000000600082015250565b6000612d16600c83612109565b9150612d2182612ce0565b602082019050919050565b60006020820190508181036000830152612d4581612d09565b9050919050565b6000612d5782611d34565b9150612d6283611d34565b9250828203905081811115612d7a57612d79612697565b5b92915050565b6000606082019050612d956000830186611ed6565b612da260208301856120d4565b612daf6040830184611ed6565b949350505050565b7f53746172742074696d65206d75737420626520696e2066757475726500000000600082015250565b6000612ded601c83612109565b9150612df882612db7565b602082019050919050565b60006020820190508181036000830152612e1c81612de0565b9050919050565b7f4e487b7100000000000000000000000000000000000000000000000000000000600052602260045260246000fd5b60006002820490506001821680612e6a57607f821691505b602082108103612e7d57612e7c612e23565b5b50919050565b60008190508160005260206000209050919050565b60006020601f8301049050919050565b600082821b905092915050565b600060088302612ee57fffffffffffffffffffffffffffffffffffffffffffffffffffffffffffffffff82612ea8565b612eef8683612ea8565b95508019841693508086168417925050509392505050565b6000819050919050565b6000612f2c612f27612f2284611d34565b612f07565b611d34565b9050919050565b6000819050919050565b612f4683612f11565b612f5a612f5282612f33565b848454612eb5565b825550505050565b600090565b612f6f612f62565b612f7a818484612f3d565b505050565b5b81811015612f9e57612f93600082612f67565b600181019050612f80565b5050565b601f821115612fe357612fb481612e83565b612fbd84612e98565b81016020851015612fcc578190505b612fe0612fd885612e98565b830182612f7f565b50505b505050565b600082821c905092915050565b600061300660001984600802612fe8565b1980831691505092915050565b600061301f8383612ff5565b9150826002028217905092915050565b613038826120fe565b67ffffffffffffffff81111561305157613050611f1b565b5b61305b8254612e52565b613066828285612fa2565b600060209050601f8311600181146130995760008415613087578287015190505b6130918582613013565b8655506130f9565b601f1984166130a786612e83565b60005b828110156130cf578489015182556001820191506020850194506020810190506130aa565b868310156130ec57848901516130e8601f891682612ff5565b8355505b6001600288020188555050505b505050505050565b60006060820190506131166000830186611ed6565b81810360208301526131288185612144565b90506131376040830184611ed6565b949350505050565b7f4d61746368206e6f742073746172746564000000000000000000000000000000600082015250565b6000613175601183612109565b91506131808261313f565b602082019050919050565b600060208201905081810360008301526131a481613168565b9050919050565b7f416c726561647920636c6f736564000000000000000000000000000000000000600082015250565b60006131e1600e83612109565b91506131ec826131ab565b602082019050919050565b60006020820190508181036000830152613210816131d4565b9050919050565b600061322282611d6a565b915060ff820361323557613234612697565b5b600182019050919050565b600060039050919050565b6000819050919050565b60008160001c9050919050565b6000819050919050565b600061327f61327a83613255565b613262565b9050919050565b6000613292825461326c565b9050919050565b6000600182019050919050565b6132af81613240565b6132b98184611e1b565b92506132c48261324b565b8060005b838110156132fc576132d982613286565b6132e38782611e3f565b96506132ee83613299565b9250506001810190506132c8565b505050505050565b60006080820190506133196000830185611ed6565b61332660208301846132a6565b939250505056fea264697066735822122026467dc0d251541c13aa4605a708b4c34182612ac21d705d1de448b6aac03a5664736f6c63430008140033",
  "linkReferences": {},
  "deployedLinkReferences": {}
}