{
  "_format": "hh-sol-artifact-1",
  "contractName": "BetZilla",
  "sourceName": "contracts/BetZilla.sol",
  "abi": [
    {
      "inputs": [],
      "stateMutability": "nonpayable",
      "type": "constructor"
    },
    {
      "anonymous": false,
      "inputs": [
        {
          "indexed": false,
          "internalType": "uint256",
          "name": "marketId",
          "type": "uint256"
        },
        {
          "indexed": true,
          "internalType": "address",
          "name": "user",
          "type": "address"
        },
        {
          "indexed": false,
          "internalType": "uint8",
          "name": "outcome",
          "type": "uint8"
        },
        {
          "indexed": false,
          "internalType": "uint256",
          "name": "amount",
          "type": "uint256"
        }
      ],
      "name": "BetPlaced",
      "type": "event"
    },
    {
      "anonymous": false,
      "inputs": [
        {
          "indexed": false,
          "internalType": "uint256",
          "name": "marketId",
          "type": "uint256"
        },
        {
          "indexed": false,
          "internalType": "uint256[3]",
          "name": "finalOdds",
          "type": "uint256[3]"
        }
      ],
      "name": "BettingClosed",
      "type": "event"
    },
    {
      "anonymous": false,
      "inputs": [
        {
          "indexed": false,
          "internalType": "uint256",
          "name": "marketId",
          "type": "uint256"
        },
        {
          "indexed": false,
          "internalType": "string",
          "name": "description",
          "type": "string"
        },
        {
          "indexed": false,
          "internalType": "uint256",
          "name": "startTime",
          "type": "uint256"
        }
      ],
      "name": "MarketCreated",
      "type": "event"
    },
    {
      "anonymous": false,
      "inputs": [
        {
          "indexed": false,
          "internalType": "uint256",
          "name": "marketId",
          "type": "uint256"
        },
        {
          "indexed": false,
          "internalType": "uint8",
          "name": "winningOutcome",
          "type": "uint8"
        }
      ],
      "name": "MarketResolved",
      "type": "event"
    },
    {
      "anonymous": false,
      "inputs": [
        {
          "indexed": false,
          "internalType": "uint256",
          "name": "marketId",
          "type": "uint256"
        },
        {
          "indexed": false,
          "internalType": "address",
          "name": "user",
          "type": "address"
        },
        {
          "indexed": false,
          "internalType": "uint256",
          "name": "payout",
          "type": "uint256"
        }
      ],
      "name": "WinningsClaimed",
      "type": "event"
    },
    {
      "inputs": [],
      "name": "FEE_PERCENT",
      "outputs": [
        {
          "internalType": "uint256",
          "name": "",
          "type": "uint256"
        }
      ],
      "stateMutability": "view",
      "type": "function"
    },
    {
      "inputs": [
        {
          "internalType": "uint256",
          "name": "",
          "type": "uint256"
        },
        {
          "internalType": "address",
          "name": "",
          "type": "address"
        }
      ],
      "name": "bets",
      "outputs": [
        {
          "internalType": "uint8",
          "name": "outcome",
          "type": "uint8"
        },
        {
          "internalType": "uint256",
          "name": "amount",
          "type": "uint256"
        },
        {
          "internalType": "bool",
          "name": "claimed",
          "type": "bool"
        },
        {
          "internalType": "bool",
          "name": "refunded",
          "type": "bool"
        },
        {
          "internalType": "uint256",
          "name": "placedAt",
          "type": "uint256"
        }
      ],
      "stateMutability": "view",
      "type": "function"
    },
    {
      "inputs": [
        {
          "internalType": "uint256",
          "name": "marketId",
          "type": "uint256"
        }
      ],
      "name": "claimWinnings",
      "outputs": [],
      "stateMutability": "nonpayable",
      "type": "function"
    },
    {
      "inputs": [
        {
          "internalType": "uint256",
          "name": "marketId",
          "type": "uint256"
        }
      ],
      "name": "closeBetting",
      "outputs": [],
      "stateMutability": "nonpayable",
      "type": "function"
    },
    {
      "inputs": [
        {
          "internalType": "string",
          "name": "description",
          "type": "string"
        },
        {
          "internalType": "uint256",
          "name": "startTime",
          "type": "uint256"
        }
      ],
      "name": "createMarket",
      "outputs": [],
      "stateMutability": "nonpayable",
      "type": "function"
    },
    {
      "inputs": [
        {
          "internalType": "uint256",
          "name": "marketId",
          "type": "uint256"
        }
      ],
      "name": "getFinalOdds",
      "outputs": [
        {
          "internalType": "uint256[3]",
          "name": "",
          "type": "uint256[3]"
        }
      ],
      "stateMutability": "view",
      "type": "function"
    },
    {
      "inputs": [
        {
          "internalType": "uint256",
          "name": "marketId",
          "type": "uint256"
        }
      ],
      "name": "getMarket",
      "outputs": [
        {
          "internalType": "string",
          "name": "description",
          "type": "string"
        },
        {
          "internalType": "uint256",
          "name": "totalAmount",
          "type": "uint256"
        },
        {
          "internalType": "uint256[3]",
          "name": "outcomeAmounts",
          "type": "uint256[3]"
        },
        {
          "internalType": "bool",
          "name": "isClosed",
          "type": "bool"
        },
        {
          "internalType": "bool",
          "name": "isResolved",
          "type": "bool"
        },
        {
          "internalType": "uint8",
          "name": "winningOutcome",
          "type": "uint8"
        },
        {
          "internalType": "uint256",
          "name": "startTime",
          "type": "uint256"
        },
        {
          "internalType": "uint256[3]",
          "name": "finalOdds",
          "type": "uint256[3]"
        }
      ],
      "stateMutability": "view",
      "type": "function"
    },
    {
      "inputs": [
        {
          "internalType": "uint256",
          "name": "marketId",
          "type": "uint256"
        },
        {
          "internalType": "address",
          "name": "user",
          "type": "address"
        }
      ],
      "name": "getUserBet",
      "outputs": [
        {
          "internalType": "uint8",
          "name": "outcome",
          "type": "uint8"
        },
        {
          "internalType": "uint256",
          "name": "amount",
          "type": "uint256"
        },
        {
          "internalType": "bool",
          "name": "claimed",
          "type": "bool"
        },
        {
          "internalType": "bool",
          "name": "refunded",
          "type": "bool"
        },
        {
          "internalType": "uint256",
          "name": "placedAt",
          "type": "uint256"
        }
      ],
      "stateMutability": "view",
      "type": "function"
    },
    {
      "inputs": [
        {
          "internalType": "address",
          "name": "user",
          "type": "address"
        }
      ],
      "name": "getUserMarkets",
      "outputs": [
        {
          "internalType": "uint256[]",
          "name": "",
          "type": "uint256[]"
        }
      ],
      "stateMutability": "view",
      "type": "function"
    },
    {
      "inputs": [],
      "name": "marketCount",
      "outputs": [
        {
          "internalType": "uint256",
          "name": "",
          "type": "uint256"
        }
      ],
      "stateMutability": "view",
      "type": "function"
    },
    {
      "inputs": [
        {
          "internalType": "uint256",
          "name": "",
          "type": "uint256"
        }
      ],
      "name": "markets",
      "outputs": [
        {
          "internalType": "string",
          "name": "description",
          "type": "string"
        },
        {
          "internalType": "uint256",
          "name": "totalAmount",
          "type": "uint256"
        },
        {
          "internalType": "bool",
          "name": "isClosed",
          "type": "bool"
        },
        {
          "internalType": "bool",
          "name": "isResolved",
          "type": "bool"
        },
        {
          "internalType": "uint8",
          "name": "winningOutcome",
          "type": "uint8"
        },
        {
          "internalType": "uint256",
          "name": "startTime",
          "type": "uint256"
        }
      ],
      "stateMutability": "view",
      "type": "function"
    },
    {
      "inputs": [],
      "name": "owner",
      "outputs": [
        {
          "internalType": "address",
          "name": "",
          "type": "address"
        }
      ],
      "stateMutability": "view",
      "type": "function"
    },
    {
      "inputs": [
        {
          "internalType": "uint256",
          "name": "marketId",
          "type": "uint256"
        },
        {
          "internalType": "uint8",
          "name": "outcome",
          "type": "uint8"
        }
      ],
      "name": "placeBet",
      "outputs": [],
      "stateMutability": "payable",
      "type": "function"
    },
    {
      "inputs": [
        {
          "internalType": "uint256",
          "name": "marketId",
          "type": "uint256"
        },
        {
          "internalType": "uint8",
          "name": "outcome",
          "type": "uint8"
        }
      ],
      "name": "setResult",
      "outputs": [],
      "stateMutability": "nonpayable",
      "type": "function"
    },
    {
      "inputs": [
        {
          "internalType": "address",
          "name": "",
          "type": "address"
        },
        {
          "internalType": "uint256",
          "name": "",
          "type": "uint256"
        }
      ],
      "name": "userMarketIds",
      "outputs": [
        {
          "internalType": "uint256",
          "name": "",
          "type": "uint256"
        }
      ],
      "stateMutability": "view",
      "type": "function"
    },
    {
      "inputs": [],
      "name": "withdrawFees",
      "outputs": [],
      "stateMutability": "nonpayable",
      "type": "function"
    },
    {
      "stateMutability": "payable",
      "type": "receive"
    }
  ],
  "bytecode": "0x608060405234801561001057600080fd5b50336000806101000a81548173ffffffffffffffffffffffffffffffffffffffff021916908373ffffffffffffffffffffffffffffffffffffffff160217905550613073806100606000396000f3fe6080604052600436106100f75760003560e01c8063b4ad06a11161008a578063eaf98d2311610059578063eaf98d231461033f578063eb44fdd31461036a578063ec979082146103ae578063f644b3bb146103d9576100fe565b8063b4ad06a11461025b578063c03fb87c14610284578063da4473d8146102c5578063e469e1c214610302576100fe565b8063883c84c1116100c6578063883c84c1146101885780638da5cb5b146101b1578063a366c50d146101dc578063b1283e7714610219576100fe565b806303edf91414610103578063476343ee1461011f57806356150a3614610136578063677bd9ff1461015f576100fe565b366100fe57005b600080fd5b61011d60048036038101906101189190611ad9565b61041a565b005b34801561012b57600080fd5b50610134610859565b005b34801561014257600080fd5b5061015d60048036038101906101589190611ad9565b610a00565b005b34801561016b57600080fd5b5061018660048036038101906101819190611b19565b610c6a565b005b34801561019457600080fd5b506101af60048036038101906101aa9190611c8c565b610fdb565b005b3480156101bd57600080fd5b506101c6611256565b6040516101d39190611d29565b60405180910390f35b3480156101e857600080fd5b5061020360048036038101906101fe9190611b19565b61127a565b6040516102109190611def565b60405180910390f35b34801561022557600080fd5b50610240600480360381019061023b9190611b19565b6112db565b60405161025296959493929190611ec2565b60405180910390f35b34801561026757600080fd5b50610282600480360381019061027d9190611b19565b6113c6565b005b34801561029057600080fd5b506102ab60048036038101906102a69190611f56565b611647565b6040516102bc959493929190611f96565b60405180910390f35b3480156102d157600080fd5b506102ec60048036038101906102e79190611fe9565b6116f7565b6040516102f991906120ad565b60405180910390f35b34801561030e57600080fd5b50610329600480360381019061032491906120cf565b61178e565b604051610336919061210f565b60405180910390f35b34801561034b57600080fd5b506103546117bf565b604051610361919061210f565b60405180910390f35b34801561037657600080fd5b50610391600480360381019061038c9190611b19565b6117c4565b6040516103a598979695949392919061212a565b60405180910390f35b3480156103ba57600080fd5b506103c3611967565b6040516103d0919061210f565b60405180910390f35b3480156103e557600080fd5b5061040060048036038101906103fb9190611f56565b61196d565b604051610411959493929190611f96565b60405180910390f35b8160008111801561042d57506001548111155b61046c576040517f08c379a0000000000000000000000000000000000000000000000000000000008152600401610463906121fd565b60405180910390fd5b60006002600085815260200190815260200160002090508060050160009054906101000a900460ff16156104d5576040517f08c379a00000000000000000000000000000000000000000000000000000000081526004016104cc90612269565b60405180910390fd5b8060060154421061051b576040517f08c379a0000000000000000000000000000000000000000000000000000000008152600401610512906122d5565b60405180910390fd5b60018360ff1610158015610533575060038360ff1611155b610572576040517f08c379a000000000000000000000000000000000000000000000000000000000815260040161056990612341565b60405180910390fd5b600034116105b5576040517f08c379a00000000000000000000000000000000000000000000000000000000081526004016105ac906123ad565b60405180910390fd5b60006003600086815260200190815260200160002060003373ffffffffffffffffffffffffffffffffffffffff1673ffffffffffffffffffffffffffffffffffffffff168152602001908152602001600020600101541461064b576040517f08c379a000000000000000000000000000000000000000000000000000000000815260040161064290612419565b60405180910390fd5b3481600101600082825461065f9190612468565b925050819055503481600201600185610678919061249c565b60ff166003811061068c5761068b6124d1565b5b01600082825461069c9190612468565b925050819055506040518060a001604052808460ff168152602001348152602001600015158152602001600015158152602001428152506003600086815260200190815260200160002060003373ffffffffffffffffffffffffffffffffffffffff1673ffffffffffffffffffffffffffffffffffffffff16815260200190815260200160002060008201518160000160006101000a81548160ff021916908360ff1602179055506020820151816001015560408201518160020160006101000a81548160ff02191690831515021790555060608201518160020160016101000a81548160ff02191690831515021790555060808201518160030155905050600460003373ffffffffffffffffffffffffffffffffffffffff1673ffffffffffffffffffffffffffffffffffffffff1681526020019081526020016000208490806001815401808255809150506001900390600052602060002001600090919091909150553373ffffffffffffffffffffffffffffffffffffffff167f4f1eed5e863a822b0f9eb960dfdab2cc5a99beec4b191f2a7a9c7e28e5a1552485853460405161084b93929190612500565b60405180910390a250505050565b60008054906101000a900473ffffffffffffffffffffffffffffffffffffffff1673ffffffffffffffffffffffffffffffffffffffff163373ffffffffffffffffffffffffffffffffffffffff16146108e7576040517f08c379a00000000000000000000000000000000000000000000000000000000081526004016108de90612583565b60405180910390fd5b60004790506000811161092f576040517f08c379a0000000000000000000000000000000000000000000000000000000008152600401610926906125ef565b60405180910390fd5b60008060009054906101000a900473ffffffffffffffffffffffffffffffffffffffff1673ffffffffffffffffffffffffffffffffffffffff168260405161097690612640565b60006040518083038185875af1925050503d80600081146109b3576040519150601f19603f3d011682016040523d82523d6000602084013e6109b8565b606091505b50509050806109fc576040517f08c379a00000000000000000000000000000000000000000000000000000000081526004016109f3906126a1565b60405180910390fd5b5050565b60008054906101000a900473ffffffffffffffffffffffffffffffffffffffff1673ffffffffffffffffffffffffffffffffffffffff163373ffffffffffffffffffffffffffffffffffffffff1614610a8e576040517f08c379a0000000000000000000000000000000000000000000000000000000008152600401610a8590612583565b60405180910390fd5b81600081118015610aa157506001548111155b610ae0576040517f08c379a0000000000000000000000000000000000000000000000000000000008152600401610ad7906121fd565b60405180910390fd5b60018260ff1610158015610af8575060038260ff1611155b610b37576040517f08c379a0000000000000000000000000000000000000000000000000000000008152600401610b2e9061270d565b60405180910390fd5b60006002600085815260200190815260200160002090508060050160009054906101000a900460ff16610b9f576040517f08c379a0000000000000000000000000000000000000000000000000000000008152600401610b9690612779565b60405180910390fd5b8060050160019054906101000a900460ff1615610bf1576040517f08c379a0000000000000000000000000000000000000000000000000000000008152600401610be8906127e5565b60405180910390fd5b828160050160026101000a81548160ff021916908360ff16021790555060018160050160016101000a81548160ff0219169083151502179055507f739f283563fb51ab6b89ee95d937b2e63a6cfcb83c385dbebb629f9d97bd43e68484604051610c5c929190612805565b60405180910390a150505050565b80600081118015610c7d57506001548111155b610cbc576040517f08c379a0000000000000000000000000000000000000000000000000000000008152600401610cb3906121fd565b60405180910390fd5b600060026000848152602001908152602001600020905060006003600085815260200190815260200160002060003373ffffffffffffffffffffffffffffffffffffffff1673ffffffffffffffffffffffffffffffffffffffff16815260200190815260200160002090508160050160019054906101000a900460ff16610d78576040517f08c379a0000000000000000000000000000000000000000000000000000000008152600401610d6f9061287a565b60405180910390fd5b8060020160009054906101000a900460ff1615610dca576040517f08c379a0000000000000000000000000000000000000000000000000000000008152600401610dc1906128e6565b60405180910390fd5b8160050160029054906101000a900460ff1660ff168160000160009054906101000a900460ff1660ff1614610e34576040517f08c379a0000000000000000000000000000000000000000000000000000000008152600401610e2b90612952565b60405180910390fd5b60008260070160018360000160009054906101000a900460ff16610e58919061249c565b60ff1660038110610e6c57610e6b6124d1565b5b0154905060006064828460010154610e849190612972565b610e8e91906129e3565b905060006064600383610ea19190612972565b610eab91906129e3565b905060008183610ebb9190612a14565b8560010154610eca9190612468565b905060018560020160006101000a81548160ff02191690831515021790555060003373ffffffffffffffffffffffffffffffffffffffff1682604051610f0f90612640565b60006040518083038185875af1925050503d8060008114610f4c576040519150601f19603f3d011682016040523d82523d6000602084013e610f51565b606091505b5050905080610f95576040517f08c379a0000000000000000000000000000000000000000000000000000000008152600401610f8c906126a1565b60405180910390fd5b7f5380cf6fe903b40c6d5a9e0dfbca2f3a423f0a21520b4d5947ed5169bdba946d893384604051610fc893929190612a48565b60405180910390a1505050505050505050565b60008054906101000a900473ffffffffffffffffffffffffffffffffffffffff1673ffffffffffffffffffffffffffffffffffffffff163373ffffffffffffffffffffffffffffffffffffffff1614611069576040517f08c379a000000000000000000000000000000000000000000000000000000000815260040161106090612583565b60405180910390fd5b4281116110ab576040517f08c379a00000000000000000000000000000000000000000000000000000000081526004016110a290612acb565b60405180910390fd5b600160008154809291906110be90612aeb565b9190505550604051806101000160405280838152602001600081526020016040518060600160405280600081526020016000815260200160008152508152602001600015158152602001600015158152602001600060ff168152602001828152602001604051806060016040528060008152602001600081526020016000815250815250600260006001548152602001908152602001600020600082015181600001908161116c9190612d3f565b506020820151816001015560408201518160020190600361118e9291906119d7565b5060608201518160050160006101000a81548160ff02191690831515021790555060808201518160050160016101000a81548160ff02191690831515021790555060a08201518160050160026101000a81548160ff021916908360ff16021790555060c0820151816006015560e0820151816007019060036112119291906119d7565b509050507f2d1e9ad45dbe8e898e0374deebf2a661b2ae7c1855d2a29507d584c35d287c75600154838360405161124a93929190612e11565b60405180910390a15050565b60008054906101000a900473ffffffffffffffffffffffffffffffffffffffff1681565b611282611a17565b600260008381526020019081526020016000206007016003806020026040519081016040528092919082600380156112cf576020028201915b8154815260200190600101908083116112bb575b50505050509050919050565b60026020528060005260406000206000915090508060000180546112fe90612b62565b80601f016020809104026020016040519081016040528092919081815260200182805461132a90612b62565b80156113775780601f1061134c57610100808354040283529160200191611377565b820191906000526020600020905b81548152906001019060200180831161135a57829003601f168201915b5050505050908060010154908060050160009054906101000a900460ff16908060050160019054906101000a900460ff16908060050160029054906101000a900460ff16908060060154905086565b60008054906101000a900473ffffffffffffffffffffffffffffffffffffffff1673ffffffffffffffffffffffffffffffffffffffff163373ffffffffffffffffffffffffffffffffffffffff1614611454576040517f08c379a000000000000000000000000000000000000000000000000000000000815260040161144b90612583565b60405180910390fd5b8060008111801561146757506001548111155b6114a6576040517f08c379a000000000000000000000000000000000000000000000000000000000815260040161149d906121fd565b60405180910390fd5b60006002600084815260200190815260200160002090508060060154421015611504576040517f08c379a00000000000000000000000000000000000000000000000000000000081526004016114fb90612e9b565b60405180910390fd5b8060050160009054906101000a900460ff1615611556576040517f08c379a000000000000000000000000000000000000000000000000000000000815260040161154d90612f07565b60405180910390fd5b60018160050160006101000a81548160ff02191690831515021790555060008160010154905060005b60038160ff161015611604576000836002018260ff16600381106115a6576115a56124d1565b5b01549050600081146115cf57806064846115c09190612972565b6115ca91906129e3565b6115d2565b60005b846007018360ff16600381106115eb576115ea6124d1565b5b01819055505080806115fc90612f27565b91505061157f565b507f739dc946f0a35d22d4e2d61e0f800b8606d67f74513e3097bc4aee150feab4a58483600701604051611639929190613014565b60405180910390a150505050565b6000806000806000806003600089815260200190815260200160002060008873ffffffffffffffffffffffffffffffffffffffff1673ffffffffffffffffffffffffffffffffffffffff16815260200190815260200160002090508060000160009054906101000a900460ff1681600101548260020160009054906101000a900460ff168360020160019054906101000a900460ff16846003015495509550955095509550509295509295909350565b6060600460008373ffffffffffffffffffffffffffffffffffffffff1673ffffffffffffffffffffffffffffffffffffffff16815260200190815260200160002080548060200260200160405190810160405280929190818152602001828054801561178257602002820191906000526020600020905b81548152602001906001019080831161176e575b50505050509050919050565b600460205281600052604060002081815481106117aa57600080fd5b90600052602060002001600091509150505481565b600381565b606060006117d0611a17565b6000806000806117de611a17565b6000600260008b81526020019081526020016000209050806000018160010154826002018360050160009054906101000a900460ff168460050160019054906101000a900460ff168560050160029054906101000a900460ff1686600601548760070187805461184d90612b62565b80601f016020809104026020016040519081016040528092919081815260200182805461187990612b62565b80156118c65780601f1061189b576101008083540402835291602001916118c6565b820191906000526020600020905b8154815290600101906020018083116118a957829003601f168201915b5050505050975085600380602002604051908101604052809291908260038015611905576020028201915b8154815260200190600101908083116118f1575b5050505050955080600380602002604051908101604052809291908260038015611944576020028201915b815481526020019060010190808311611930575b505050505090509850985098509850985098509850985050919395975091939597565b60015481565b6003602052816000526040600020602052806000526040600020600091509150508060000160009054906101000a900460ff16908060010154908060020160009054906101000a900460ff16908060020160019054906101000a900460ff16908060030154905085565b8260038101928215611a06579160200282015b82811115611a055782518255916020019190600101906119ea565b5b509050611a139190611a39565b5090565b6040518060600160405280600390602082028036833780820191505090505090565b5b80821115611a52576000816000905550600101611a3a565b5090565b6000604051905090565b600080fd5b600080fd5b6000819050919050565b611a7d81611a6a565b8114611a8857600080fd5b50565b600081359050611a9a81611a74565b92915050565b600060ff82169050919050565b611ab681611aa0565b8114611ac157600080fd5b50565b600081359050611ad381611aad565b92915050565b60008060408385031215611af057611aef611a60565b5b6000611afe85828601611a8b565b9250506020611b0f85828601611ac4565b9150509250929050565b600060208284031215611b2f57611b2e611a60565b5b6000611b3d84828501611a8b565b91505092915050565b600080fd5b600080fd5b6000601f19601f8301169050919050565b7f4e487b7100000000000000000000000000000000000000000000000000000000600052604160045260246000fd5b611b9982611b50565b810181811067ffffffffffffffff82111715611bb857611bb7611b61565b5b80604052505050565b6000611bcb611a56565b9050611bd78282611b90565b919050565b600067ffffffffffffffff821115611bf757611bf6611b61565b5b611c0082611b50565b9050602081019050919050565b82818337600083830152505050565b6000611c2f611c2a84611bdc565b611bc1565b905082815260208101848484011115611c4b57611c4a611b4b565b5b611c56848285611c0d565b509392505050565b600082601f830112611c7357611c72611b46565b5b8135611c83848260208601611c1c565b91505092915050565b60008060408385031215611ca357611ca2611a60565b5b600083013567ffffffffffffffff811115611cc157611cc0611a65565b5b611ccd85828601611c5e565b9250506020611cde85828601611a8b565b9150509250929050565b600073ffffffffffffffffffffffffffffffffffffffff82169050919050565b6000611d1382611ce8565b9050919050565b611d2381611d08565b82525050565b6000602082019050611d3e6000830184611d1a565b92915050565b600060039050919050565b600081905092915050565b6000819050919050565b611d6d81611a6a565b82525050565b6000611d7f8383611d64565b60208301905092915050565b6000602082019050919050565b611da181611d44565b611dab8184611d4f565b9250611db682611d5a565b8060005b83811015611de7578151611dce8782611d73565b9650611dd983611d8b565b925050600181019050611dba565b505050505050565b6000606082019050611e046000830184611d98565b92915050565b600081519050919050565b600082825260208201905092915050565b60005b83811015611e44578082015181840152602081019050611e29565b60008484015250505050565b6000611e5b82611e0a565b611e658185611e15565b9350611e75818560208601611e26565b611e7e81611b50565b840191505092915050565b611e9281611a6a565b82525050565b60008115159050919050565b611ead81611e98565b82525050565b611ebc81611aa0565b82525050565b600060c0820190508181036000830152611edc8189611e50565b9050611eeb6020830188611e89565b611ef86040830187611ea4565b611f056060830186611ea4565b611f126080830185611eb3565b611f1f60a0830184611e89565b979650505050505050565b611f3381611d08565b8114611f3e57600080fd5b50565b600081359050611f5081611f2a565b92915050565b60008060408385031215611f6d57611f6c611a60565b5b6000611f7b85828601611a8b565b9250506020611f8c85828601611f41565b9150509250929050565b600060a082019050611fab6000830188611eb3565b611fb86020830187611e89565b611fc56040830186611ea4565b611fd26060830185611ea4565b611fdf6080830184611e89565b9695505050505050565b600060208284031215611fff57611ffe611a60565b5b600061200d84828501611f41565b91505092915050565b600081519050919050565b600082825260208201905092915050565b6000819050602082019050919050565b6000602082019050919050565b600061205a82612016565b6120648185612021565b935061206f83612032565b8060005b838110156120a05781516120878882611d73565b975061209283612042565b925050600181019050612073565b5085935050505092915050565b600060208201905081810360008301526120c7818461204f565b905092915050565b600080604083850312156120e6576120e5611a60565b5b60006120f485828601611f41565b925050602061210585828601611a8b565b9150509250929050565b60006020820190506121246000830184611e89565b92915050565b6000610180820190508181036000830152612145818b611e50565b9050612154602083018a611e89565b6121616040830189611d98565b61216e60a0830188611ea4565b61217b60c0830187611ea4565b61218860e0830186611eb3565b612196610100830185611e89565b6121a4610120830184611d98565b9998505050505050505050565b7f496e76616c6964206d61726b6574000000000000000000000000000000000000600082015250565b60006121e7600e83611e15565b91506121f2826121b1565b602082019050919050565b60006020820190508181036000830152612216816121da565b9050919050565b7f42657474696e6720636c6f736564000000000000000000000000000000000000600082015250565b6000612253600e83611e15565b915061225e8261221d565b602082019050919050565b6000602082019050818103600083015261228281612246565b9050919050565b7f4d61746368207374617274656400000000000000000000000000000000000000600082015250565b60006122bf600d83611e15565b91506122ca82612289565b602082019050919050565b600060208201905081810360008301526122ee816122b2565b9050919050565b7f496e76616c6964206f7574636f6d650000000000000000000000000000000000600082015250565b600061232b600f83611e15565b9150612336826122f5565b602082019050919050565b6000602082019050818103600083015261235a8161231e565b9050919050565b7f426574206d757374206265203e20300000000000000000000000000000000000600082015250565b6000612397600f83611e15565b91506123a282612361565b602082019050919050565b600060208201905081810360008301526123c68161238a565b9050919050565b7f416c726561647920626574000000000000000000000000000000000000000000600082015250565b6000612403600b83611e15565b915061240e826123cd565b602082019050919050565b60006020820190508181036000830152612432816123f6565b9050919050565b7f4e487b7100000000000000000000000000000000000000000000000000000000600052601160045260246000fd5b600061247382611a6a565b915061247e83611a6a565b925082820190508082111561249657612495612439565b5b92915050565b60006124a782611aa0565b91506124b283611aa0565b9250828203905060ff8111156124cb576124ca612439565b5b92915050565b7f4e487b7100000000000000000000000000000000000000000000000000000000600052603260045260246000fd5b60006060820190506125156000830186611e89565b6125226020830185611eb3565b61252f6040830184611e89565b949350505050565b7f4f6e6c79206f776e657200000000000000000000000000000000000000000000600082015250565b600061256d600a83611e15565b915061257882612537565b602082019050919050565b6000602082019050818103600083015261259c81612560565b9050919050565b7f4e6f206665657320746f20776974686472617700000000000000000000000000600082015250565b60006125d9601383611e15565b91506125e4826125a3565b602082019050919050565b60006020820190508181036000830152612608816125cc565b9050919050565b600081905092915050565b50565b600061262a60008361260f565b91506126358261261a565b600082019050919050565b600061264b8261261d565b9150819050919050565b7f5472616e73666572206661696c65640000000000000000000000000000000000600082015250565b600061268b600f83611e15565b915061269682612655565b602082019050919050565b600060208201905081810360008301526126ba8161267e565b9050919050565b7f496e76616c696420726573756c74000000000000000000000000000000000000600082015250565b60006126f7600e83611e15565b9150612702826126c1565b602082019050919050565b60006020820190508181036000830152612726816126ea565b9050919050565b7f42657474696e67207374696c6c206f70656e0000000000000000000000000000600082015250565b6000612763601283611e15565b915061276e8261272d565b602082019050919050565b6000602082019050818103600083015261279281612756565b9050919050565b7f416c7265616479207265736f6c76656400000000000000000000000000000000600082015250565b60006127cf601083611e15565b91506127da82612799565b602082019050919050565b600060208201905081810360008301526127fe816127c2565b9050919050565b600060408201905061281a6000830185611e89565b6128276020830184611eb3565b9392505050565b7f4d61726b6574206e6f74207265736f6c76656400000000000000000000000000600082015250565b6000612864601383611e15565b915061286f8261282e565b602082019050919050565b6000602082019050818103600083015261289381612857565b9050919050565b7f416c726561647920636c61696d65640000000000000000000000000000000000600082015250565b60006128d0600f83611e15565b91506128db8261289a565b602082019050919050565b600060208201905081810360008301526128ff816128c3565b9050919050565b7f4e6f7420612077696e6e65720000000000000000000000000000000000000000600082015250565b600061293c600c83611e15565b915061294782612906565b602082019050919050565b6000602082019050818103600083015261296b8161292f565b9050919050565b600061297d82611a6a565b915061298883611a6a565b925082820261299681611a6a565b915082820484148315176129ad576129ac612439565b5b5092915050565b7f4e487b7100000000000000000000000000000000000000000000000000000000600052601260045260246000fd5b60006129ee82611a6a565b91506129f983611a6a565b925082612a0957612a086129b4565b5b828204905092915050565b6000612a1f82611a6a565b9150612a2a83611a6a565b9250828203905081811115612a4257612a41612439565b5b92915050565b6000606082019050612a5d6000830186611e89565b612a6a6020830185611d1a565b612a776040830184611e89565b949350505050565b7f53746172742074696d65206d75737420626520696e2066757475726500000000600082015250565b6000612ab5601c83611e15565b9150612ac082612a7f565b602082019050919050565b60006020820190508181036000830152612ae481612aa8565b9050919050565b6000612af682611a6a565b91507fffffffffffffffffffffffffffffffffffffffffffffffffffffffffffffffff8203612b2857612b27612439565b5b600182019050919050565b7f4e487b7100000000000000000000000000000000000000000000000000000000600052602260045260246000fd5b60006002820490506001821680612b7a57607f821691505b602082108103612b8d57612b8c612b33565b5b50919050565b60008190508160005260206000209050919050565b60006020601f8301049050919050565b600082821b905092915050565b600060088302612bf57fffffffffffffffffffffffffffffffffffffffffffffffffffffffffffffffff82612bb8565b612bff8683612bb8565b95508019841693508086168417925050509392505050565b6000819050919050565b6000612c3c612c37612c3284611a6a565b612c17565b611a6a565b9050919050565b6000819050919050565b612c5683612c21565b612c6a612c6282612c43565b848454612bc5565b825550505050565b600090565b612c7f612c72565b612c8a818484612c4d565b505050565b5b81811015612cae57612ca3600082612c77565b600181019050612c90565b5050565b601f821115612cf357612cc481612b93565b612ccd84612ba8565b81016020851015612cdc578190505b612cf0612ce885612ba8565b830182612c8f565b50505b505050565b600082821c905092915050565b6000612d1660001984600802612cf8565b1980831691505092915050565b6000612d2f8383612d05565b9150826002028217905092915050565b612d4882611e0a565b67ffffffffffffffff811115612d6157612d60611b61565b5b612d6b8254612b62565b612d76828285612cb2565b600060209050601f831160018114612da95760008415612d97578287015190505b612da18582612d23565b865550612e09565b601f198416612db786612b93565b60005b82811015612ddf57848901518255600182019150602085019450602081019050612dba565b86831015612dfc5784890151612df8601f891682612d05565b8355505b6001600288020188555050505b505050505050565b6000606082019050612e266000830186611e89565b8181036020830152612e388185611e50565b9050612e476040830184611e89565b949350505050565b7f4d61746368206e6f742073746172746564000000000000000000000000000000600082015250565b6000612e85601183611e15565b9150612e9082612e4f565b602082019050919050565b60006020820190508181036000830152612eb481612e78565b9050919050565b7f416c726561647920636c6f736564000000000000000000000000000000000000600082015250565b6000612ef1600e83611e15565b9150612efc82612ebb565b602082019050919050565b60006020820190508181036000830152612f2081612ee4565b9050919050565b6000612f3282611aa0565b915060ff8203612f4557612f44612439565b5b600182019050919050565b600060039050919050565b6000819050919050565b60008160001c9050919050565b6000819050919050565b6000612f8f612f8a83612f65565b612f72565b9050919050565b6000612fa28254612f7c565b9050919050565b6000600182019050919050565b612fbf81612f50565b612fc98184611d4f565b9250612fd482612f5b565b8060005b8381101561300c57612fe982612f96565b612ff38782611d73565b9650612ffe83612fa9565b925050600181019050612fd8565b505050505050565b60006080820190506130296000830185611e89565b6130366020830184612fb6565b939250505056fea2646970667358221220600e8ac425dc08fb61f4fce544a0ac0683aebd437d7d81b2bdb5cf1aeb1e96c064736f6c63430008140033",
  "linkReferences": {},
  "deployedLinkReferences": {}
}