{
  "_format": "hh-sol-artifact-1",
  "contractName": "BetZilla",
  "sourceName": "contracts/BetZilla.sol",
  "abi": [
    {
      "inputs": [],
      "stateMutability": "nonpayable",
      "type": "constructor"
    },
    {
      "anonymous": false,
      "inputs": [
        {
          "indexed": false,
          "internalType": "uint256",
          "name": "marketId",
          "type": "uint256"
        },
        {
          "indexed": true,
          "internalType": "address",
          "name": "user",
          "type": "address"
        },
        {
          "indexed": false,
          "internalType": "uint8",
          "name": "outcome",
          "type": "uint8"
        },
        {
          "indexed": false,
          "internalType": "uint256",
          "name": "amount",
          "type": "uint256"
        }
      ],
      "name": "BetPlaced",
      "type": "event"
    },
    {
      "anonymous": false,
      "inputs": [
        {
          "indexed": false,
          "internalType": "uint256",
          "name": "marketId",
          "type": "uint256"
        },
        {
          "indexed": false,
          "internalType": "uint256[3]",
          "name": "finalOdds",
          "type": "uint256[3]"
        }
      ],
      "name": "BettingClosed",
      "type": "event"
    },
    {
      "anonymous": false,
      "inputs": [
        {
          "indexed": false,
          "internalType": "string",
          "name": "message",
          "type": "string"
        }
      ],
      "name": "Debug",
      "type": "event"
    },
    {
      "anonymous": false,
      "inputs": [
        {
          "indexed": false,
          "internalType": "uint256",
          "name": "marketId",
          "type": "uint256"
        },
        {
          "indexed": false,
          "internalType": "string",
          "name": "description",
          "type": "string"
        },
        {
          "indexed": false,
          "internalType": "uint256",
          "name": "startTime",
          "type": "uint256"
        }
      ],
      "name": "MarketCreated",
      "type": "event"
    },
    {
      "anonymous": false,
      "inputs": [
        {
          "indexed": false,
          "internalType": "uint256",
          "name": "marketId",
          "type": "uint256"
        },
        {
          "indexed": false,
          "internalType": "uint8",
          "name": "winningOutcome",
          "type": "uint8"
        }
      ],
      "name": "MarketResolved",
      "type": "event"
    },
    {
      "anonymous": false,
      "inputs": [
        {
          "indexed": false,
          "internalType": "uint256",
          "name": "marketId",
          "type": "uint256"
        },
        {
          "indexed": false,
          "internalType": "address",
          "name": "user",
          "type": "address"
        },
        {
          "indexed": false,
          "internalType": "uint256",
          "name": "payout",
          "type": "uint256"
        }
      ],
      "name": "WinningsClaimed",
      "type": "event"
    },
    {
      "inputs": [],
      "name": "FEE_PERCENT",
      "outputs": [
        {
          "internalType": "uint256",
          "name": "",
          "type": "uint256"
        }
      ],
      "stateMutability": "view",
      "type": "function"
    },
    {
      "inputs": [
        {
          "internalType": "uint256",
          "name": "",
          "type": "uint256"
        },
        {
          "internalType": "address",
          "name": "",
          "type": "address"
        }
      ],
      "name": "bets",
      "outputs": [
        {
          "internalType": "uint8",
          "name": "outcome",
          "type": "uint8"
        },
        {
          "internalType": "uint256",
          "name": "amount",
          "type": "uint256"
        },
        {
          "internalType": "bool",
          "name": "claimed",
          "type": "bool"
        },
        {
          "internalType": "bool",
          "name": "refunded",
          "type": "bool"
        }
      ],
      "stateMutability": "view",
      "type": "function"
    },
    {
      "inputs": [
        {
          "internalType": "uint256",
          "name": "marketId",
          "type": "uint256"
        }
      ],
      "name": "claimWinnings",
      "outputs": [],
      "stateMutability": "nonpayable",
      "type": "function"
    },
    {
      "inputs": [
        {
          "internalType": "uint256",
          "name": "marketId",
          "type": "uint256"
        }
      ],
      "name": "closeBetting",
      "outputs": [],
      "stateMutability": "nonpayable",
      "type": "function"
    },
    {
      "inputs": [
        {
          "internalType": "string",
          "name": "description",
          "type": "string"
        },
        {
          "internalType": "uint256",
          "name": "startTime",
          "type": "uint256"
        }
      ],
      "name": "createMarket",
      "outputs": [],
      "stateMutability": "nonpayable",
      "type": "function"
    },
    {
      "inputs": [
        {
          "internalType": "uint256",
          "name": "marketId",
          "type": "uint256"
        }
      ],
      "name": "getFinalOdds",
      "outputs": [
        {
          "internalType": "uint256[3]",
          "name": "",
          "type": "uint256[3]"
        }
      ],
      "stateMutability": "view",
      "type": "function"
    },
    {
      "inputs": [
        {
          "internalType": "uint256",
          "name": "marketId",
          "type": "uint256"
        }
      ],
      "name": "getMarket",
      "outputs": [
        {
          "internalType": "string",
          "name": "description",
          "type": "string"
        },
        {
          "internalType": "uint256",
          "name": "totalAmount",
          "type": "uint256"
        },
        {
          "internalType": "uint256[3]",
          "name": "outcomeAmounts",
          "type": "uint256[3]"
        },
        {
          "internalType": "bool",
          "name": "isClosed",
          "type": "bool"
        },
        {
          "internalType": "bool",
          "name": "isResolved",
          "type": "bool"
        },
        {
          "internalType": "uint8",
          "name": "winningOutcome",
          "type": "uint8"
        },
        {
          "internalType": "uint256",
          "name": "startTime",
          "type": "uint256"
        },
        {
          "internalType": "uint256[3]",
          "name": "finalOdds",
          "type": "uint256[3]"
        }
      ],
      "stateMutability": "view",
      "type": "function"
    },
    {
      "inputs": [
        {
          "internalType": "uint256",
          "name": "marketId",
          "type": "uint256"
        },
        {
          "internalType": "address",
          "name": "user",
          "type": "address"
        }
      ],
      "name": "getUserBet",
      "outputs": [
        {
          "internalType": "uint8",
          "name": "outcome",
          "type": "uint8"
        },
        {
          "internalType": "uint256",
          "name": "amount",
          "type": "uint256"
        },
        {
          "internalType": "bool",
          "name": "claimed",
          "type": "bool"
        },
        {
          "internalType": "bool",
          "name": "refunded",
          "type": "bool"
        }
      ],
      "stateMutability": "view",
      "type": "function"
    },
    {
      "inputs": [],
      "name": "marketCount",
      "outputs": [
        {
          "internalType": "uint256",
          "name": "",
          "type": "uint256"
        }
      ],
      "stateMutability": "view",
      "type": "function"
    },
    {
      "inputs": [
        {
          "internalType": "uint256",
          "name": "",
          "type": "uint256"
        }
      ],
      "name": "markets",
      "outputs": [
        {
          "internalType": "string",
          "name": "description",
          "type": "string"
        },
        {
          "internalType": "uint256",
          "name": "totalAmount",
          "type": "uint256"
        },
        {
          "internalType": "bool",
          "name": "isClosed",
          "type": "bool"
        },
        {
          "internalType": "bool",
          "name": "isResolved",
          "type": "bool"
        },
        {
          "internalType": "uint8",
          "name": "winningOutcome",
          "type": "uint8"
        },
        {
          "internalType": "uint256",
          "name": "startTime",
          "type": "uint256"
        }
      ],
      "stateMutability": "view",
      "type": "function"
    },
    {
      "inputs": [],
      "name": "owner",
      "outputs": [
        {
          "internalType": "address",
          "name": "",
          "type": "address"
        }
      ],
      "stateMutability": "view",
      "type": "function"
    },
    {
      "inputs": [
        {
          "internalType": "uint256",
          "name": "marketId",
          "type": "uint256"
        },
        {
          "internalType": "uint8",
          "name": "outcome",
          "type": "uint8"
        }
      ],
      "name": "placeBet",
      "outputs": [],
      "stateMutability": "payable",
      "type": "function"
    },
    {
      "inputs": [
        {
          "internalType": "uint256",
          "name": "marketId",
          "type": "uint256"
        }
      ],
      "name": "refundBet",
      "outputs": [],
      "stateMutability": "nonpayable",
      "type": "function"
    },
    {
      "inputs": [
        {
          "internalType": "uint256",
          "name": "marketId",
          "type": "uint256"
        },
        {
          "internalType": "uint8",
          "name": "outcome",
          "type": "uint8"
        }
      ],
      "name": "setResult",
      "outputs": [],
      "stateMutability": "nonpayable",
      "type": "function"
    },
    {
      "inputs": [],
      "name": "withdrawFees",
      "outputs": [],
      "stateMutability": "nonpayable",
      "type": "function"
    },
    {
      "stateMutability": "payable",
      "type": "receive"
    }
  ],
  "bytecode": "0x608060405234801561001057600080fd5b50336000806101000a81548173ffffffffffffffffffffffffffffffffffffffff021916908373ffffffffffffffffffffffffffffffffffffffff16021790555061353d806100606000396000f3fe6080604052600436106100ec5760003560e01c8063b1283e771161008a578063eaf98d2311610059578063eaf98d23146102e2578063eb44fdd31461030d578063ec97908214610351578063f644b3bb1461037c576100f3565b8063b1283e771461020e578063b4ad06a114610250578063c03fb87c14610279578063e1fdb4b4146102b9576100f3565b8063677bd9ff116100c6578063677bd9ff14610154578063883c84c11461017d5780638da5cb5b146101a6578063a366c50d146101d1576100f3565b806303edf914146100f8578063476343ee1461011457806356150a361461012b576100f3565b366100f357005b600080fd5b610112600480360381019061010d9190611dd7565b6103bc565b005b34801561012057600080fd5b5061012961089d565b005b34801561013757600080fd5b50610152600480360381019061014d9190611dd7565b610a44565b005b34801561016057600080fd5b5061017b60048036038101906101769190611e17565b610cae565b005b34801561018957600080fd5b506101a4600480360381019061019f9190611f8a565b61101f565b005b3480156101b257600080fd5b506101bb61129a565b6040516101c89190612027565b60405180910390f35b3480156101dd57600080fd5b506101f860048036038101906101f39190611e17565b6112be565b60405161020591906120ed565b60405180910390f35b34801561021a57600080fd5b5061023560048036038101906102309190611e17565b61131f565b604051610247969594939291906121c0565b60405180910390f35b34801561025c57600080fd5b5061027760048036038101906102729190611e17565b61140a565b005b34801561028557600080fd5b506102a0600480360381019061029b9190612254565b61168b565b6040516102b09493929190612294565b60405180910390f35b3480156102c557600080fd5b506102e060048036038101906102db9190611e17565b611732565b005b3480156102ee57600080fd5b506102f7611ac3565b60405161030491906122d9565b60405180910390f35b34801561031957600080fd5b50610334600480360381019061032f9190611e17565b611ac8565b6040516103489897969594939291906122f4565b60405180910390f35b34801561035d57600080fd5b50610366611c6b565b60405161037391906122d9565b60405180910390f35b34801561038857600080fd5b506103a3600480360381019061039e9190612254565b611c71565b6040516103b39493929190612294565b60405180910390f35b816000811180156103cf57506001548111155b61040e576040517f08c379a0000000000000000000000000000000000000000000000000000000008152600401610405906123c7565b60405180910390fd5b60006002600085815260200190815260200160002090508060050160009054906101000a900460ff16156104ac577f7cdb51e9dbbc205231228146c3246e7f914aa6d4a33170e43ecc8e3593481d1a60405161046990612459565b60405180910390a16040517f08c379a00000000000000000000000000000000000000000000000000000000081526004016104a390612459565b60405180910390fd5b80600601544210610527577f7cdb51e9dbbc205231228146c3246e7f914aa6d4a33170e43ecc8e3593481d1a6040516104e4906124c5565b60405180910390a16040517f08c379a000000000000000000000000000000000000000000000000000000000815260040161051e906124c5565b60405180910390fd5b60018360ff16108061053c575060038360ff16115b156105b1577f7cdb51e9dbbc205231228146c3246e7f914aa6d4a33170e43ecc8e3593481d1a60405161056e90612531565b60405180910390a16040517f08c379a00000000000000000000000000000000000000000000000000000000081526004016105a890612531565b60405180910390fd5b60003403610629577f7cdb51e9dbbc205231228146c3246e7f914aa6d4a33170e43ecc8e3593481d1a6040516105e6906125c3565b60405180910390a16040517f08c379a0000000000000000000000000000000000000000000000000000000008152600401610620906125c3565b60405180910390fd5b60006003600086815260200190815260200160002060003373ffffffffffffffffffffffffffffffffffffffff1673ffffffffffffffffffffffffffffffffffffffff1681526020019081526020016000209050600081600101541115610703578360ff168160000160009054906101000a900460ff1660ff16146106e3576040517f08c379a00000000000000000000000000000000000000000000000000000000081526004016106da90612655565b60405180910390fd5b348160010160008282546106f791906126a4565b925050819055506107ec565b60405180608001604052808560ff168152602001348152602001600015158152602001600015158152506003600087815260200190815260200160002060003373ffffffffffffffffffffffffffffffffffffffff1673ffffffffffffffffffffffffffffffffffffffff16815260200190815260200160002060008201518160000160006101000a81548160ff021916908360ff1602179055506020820151816001015560408201518160020160006101000a81548160ff02191690831515021790555060608201518160020160016101000a81548160ff0219169083151502179055509050505b3482600101600082825461080091906126a4565b92505081905550348260020160018661081991906126d8565b60ff166003811061082d5761082c61270d565b5b01600082825461083d91906126a4565b925050819055503373ffffffffffffffffffffffffffffffffffffffff167f4f1eed5e863a822b0f9eb960dfdab2cc5a99beec4b191f2a7a9c7e28e5a1552486863460405161088e9392919061273c565b60405180910390a25050505050565b60008054906101000a900473ffffffffffffffffffffffffffffffffffffffff1673ffffffffffffffffffffffffffffffffffffffff163373ffffffffffffffffffffffffffffffffffffffff161461092b576040517f08c379a0000000000000000000000000000000000000000000000000000000008152600401610922906127e5565b60405180910390fd5b600047905060008111610973576040517f08c379a000000000000000000000000000000000000000000000000000000000815260040161096a90612851565b60405180910390fd5b60008060009054906101000a900473ffffffffffffffffffffffffffffffffffffffff1673ffffffffffffffffffffffffffffffffffffffff16826040516109ba906128a2565b60006040518083038185875af1925050503d80600081146109f7576040519150601f19603f3d011682016040523d82523d6000602084013e6109fc565b606091505b5050905080610a40576040517f08c379a0000000000000000000000000000000000000000000000000000000008152600401610a3790612903565b60405180910390fd5b5050565b60008054906101000a900473ffffffffffffffffffffffffffffffffffffffff1673ffffffffffffffffffffffffffffffffffffffff163373ffffffffffffffffffffffffffffffffffffffff1614610ad2576040517f08c379a0000000000000000000000000000000000000000000000000000000008152600401610ac9906127e5565b60405180910390fd5b81600081118015610ae557506001548111155b610b24576040517f08c379a0000000000000000000000000000000000000000000000000000000008152600401610b1b906123c7565b60405180910390fd5b60018260ff1610158015610b3c575060038260ff1611155b610b7b576040517f08c379a0000000000000000000000000000000000000000000000000000000008152600401610b7290612995565b60405180910390fd5b60006002600085815260200190815260200160002090508060050160009054906101000a900460ff16610be3576040517f08c379a0000000000000000000000000000000000000000000000000000000008152600401610bda90612a01565b60405180910390fd5b8060050160019054906101000a900460ff1615610c35576040517f08c379a0000000000000000000000000000000000000000000000000000000008152600401610c2c90612a6d565b60405180910390fd5b828160050160026101000a81548160ff021916908360ff16021790555060018160050160016101000a81548160ff0219169083151502179055507f739f283563fb51ab6b89ee95d937b2e63a6cfcb83c385dbebb629f9d97bd43e68484604051610ca0929190612a8d565b60405180910390a150505050565b80600081118015610cc157506001548111155b610d00576040517f08c379a0000000000000000000000000000000000000000000000000000000008152600401610cf7906123c7565b60405180910390fd5b600060026000848152602001908152602001600020905060006003600085815260200190815260200160002060003373ffffffffffffffffffffffffffffffffffffffff1673ffffffffffffffffffffffffffffffffffffffff16815260200190815260200160002090508160050160019054906101000a900460ff16610dbc576040517f08c379a0000000000000000000000000000000000000000000000000000000008152600401610db390612b02565b60405180910390fd5b8060020160009054906101000a900460ff1615610e0e576040517f08c379a0000000000000000000000000000000000000000000000000000000008152600401610e0590612b6e565b60405180910390fd5b8160050160029054906101000a900460ff1660ff168160000160009054906101000a900460ff1660ff1614610e78576040517f08c379a0000000000000000000000000000000000000000000000000000000008152600401610e6f90612c00565b60405180910390fd5b60008260070160018360000160009054906101000a900460ff16610e9c91906126d8565b60ff1660038110610eb057610eaf61270d565b5b0154905060006064828460010154610ec89190612c20565b610ed29190612c91565b905060006064600383610ee59190612c20565b610eef9190612c91565b905060008183610eff9190612cc2565b8560010154610f0e91906126a4565b905060018560020160006101000a81548160ff02191690831515021790555060003373ffffffffffffffffffffffffffffffffffffffff1682604051610f53906128a2565b60006040518083038185875af1925050503d8060008114610f90576040519150601f19603f3d011682016040523d82523d6000602084013e610f95565b606091505b5050905080610fd9576040517f08c379a0000000000000000000000000000000000000000000000000000000008152600401610fd090612903565b60405180910390fd5b7f5380cf6fe903b40c6d5a9e0dfbca2f3a423f0a21520b4d5947ed5169bdba946d89338460405161100c93929190612cf6565b60405180910390a1505050505050505050565b60008054906101000a900473ffffffffffffffffffffffffffffffffffffffff1673ffffffffffffffffffffffffffffffffffffffff163373ffffffffffffffffffffffffffffffffffffffff16146110ad576040517f08c379a00000000000000000000000000000000000000000000000000000000081526004016110a4906127e5565b60405180910390fd5b4281116110ef576040517f08c379a00000000000000000000000000000000000000000000000000000000081526004016110e690612d79565b60405180910390fd5b6001600081548092919061110290612d99565b9190505550604051806101000160405280838152602001600081526020016040518060600160405280600081526020016000815260200160008152508152602001600015158152602001600015158152602001600060ff16815260200182815260200160405180606001604052806000815260200160008152602001600081525081525060026000600154815260200190815260200160002060008201518160000190816111b09190612fed565b50602082015181600101556040820151816002019060036111d2929190611cd5565b5060608201518160050160006101000a81548160ff02191690831515021790555060808201518160050160016101000a81548160ff02191690831515021790555060a08201518160050160026101000a81548160ff021916908360ff16021790555060c0820151816006015560e082015181600701906003611255929190611cd5565b509050507f2d1e9ad45dbe8e898e0374deebf2a661b2ae7c1855d2a29507d584c35d287c75600154838360405161128e939291906130bf565b60405180910390a15050565b60008054906101000a900473ffffffffffffffffffffffffffffffffffffffff1681565b6112c6611d15565b60026000838152602001908152602001600020600701600380602002604051908101604052809291908260038015611313576020028201915b8154815260200190600101908083116112ff575b50505050509050919050565b600260205280600052604060002060009150905080600001805461134290612e10565b80601f016020809104026020016040519081016040528092919081815260200182805461136e90612e10565b80156113bb5780601f10611390576101008083540402835291602001916113bb565b820191906000526020600020905b81548152906001019060200180831161139e57829003601f168201915b5050505050908060010154908060050160009054906101000a900460ff16908060050160019054906101000a900460ff16908060050160029054906101000a900460ff16908060060154905086565b60008054906101000a900473ffffffffffffffffffffffffffffffffffffffff1673ffffffffffffffffffffffffffffffffffffffff163373ffffffffffffffffffffffffffffffffffffffff1614611498576040517f08c379a000000000000000000000000000000000000000000000000000000000815260040161148f906127e5565b60405180910390fd5b806000811180156114ab57506001548111155b6114ea576040517f08c379a00000000000000000000000000000000000000000000000000000000081526004016114e1906123c7565b60405180910390fd5b60006002600084815260200190815260200160002090508060060154421015611548576040517f08c379a000000000000000000000000000000000000000000000000000000000815260040161153f90613149565b60405180910390fd5b8060050160009054906101000a900460ff161561159a576040517f08c379a0000000000000000000000000000000000000000000000000000000008152600401611591906131b5565b60405180910390fd5b60018160050160006101000a81548160ff02191690831515021790555060008160010154905060005b60038160ff161015611648576000836002018260ff16600381106115ea576115e961270d565b5b015490506000811461161357806064846116049190612c20565b61160e9190612c91565b611616565b60005b846007018360ff166003811061162f5761162e61270d565b5b0181905550508080611640906131d5565b9150506115c3565b507f739dc946f0a35d22d4e2d61e0f800b8606d67f74513e3097bc4aee150feab4a5848360070160405161167d9291906132c2565b60405180910390a150505050565b60008060008060006003600088815260200190815260200160002060008773ffffffffffffffffffffffffffffffffffffffff1673ffffffffffffffffffffffffffffffffffffffff16815260200190815260200160002090508060000160009054906101000a900460ff1681600101548260020160009054906101000a900460ff168360020160019054906101000a900460ff1694509450945094505092959194509250565b8060008111801561174557506001548111155b611784576040517f08c379a000000000000000000000000000000000000000000000000000000000815260040161177b906123c7565b60405180910390fd5b600060026000848152602001908152602001600020905060006003600085815260200190815260200160002060003373ffffffffffffffffffffffffffffffffffffffff1673ffffffffffffffffffffffffffffffffffffffff16815260200190815260200160002090508160050160009054906101000a900460ff1615611841576040517f08c379a0000000000000000000000000000000000000000000000000000000008152600401611838906131b5565b60405180910390fd5b62015180826006015461185491906126a4565b4211611895576040517f08c379a000000000000000000000000000000000000000000000000000000000815260040161188c90613337565b60405180910390fd5b60008160010154116118dc576040517f08c379a00000000000000000000000000000000000000000000000000000000081526004016118d3906133a3565b60405180910390fd5b8060020160019054906101000a900460ff161561192e576040517f08c379a00000000000000000000000000000000000000000000000000000000081526004016119259061340f565b60405180910390fd5b8060020160009054906101000a900460ff1615611980576040517f08c379a00000000000000000000000000000000000000000000000000000000081526004016119779061347b565b60405180910390fd5b60008160010154905060018260020160016101000a81548160ff021916908315150217905550808360010160008282546119ba9190612cc2565b92505081905550808360020160018460000160009054906101000a900460ff166119e491906126d8565b60ff16600381106119f8576119f761270d565b5b016000828254611a089190612cc2565b9250508190555060003373ffffffffffffffffffffffffffffffffffffffff1682604051611a35906128a2565b60006040518083038185875af1925050503d8060008114611a72576040519150601f19603f3d011682016040523d82523d6000602084013e611a77565b606091505b5050905080611abb576040517f08c379a0000000000000000000000000000000000000000000000000000000008152600401611ab2906134e7565b60405180910390fd5b505050505050565b600381565b60606000611ad4611d15565b600080600080611ae2611d15565b6000600260008b81526020019081526020016000209050806000018160010154826002018360050160009054906101000a900460ff168460050160019054906101000a900460ff168560050160029054906101000a900460ff16866006015487600701878054611b5190612e10565b80601f0160208091040260200160405190810160405280929190818152602001828054611b7d90612e10565b8015611bca5780601f10611b9f57610100808354040283529160200191611bca565b820191906000526020600020905b815481529060010190602001808311611bad57829003601f168201915b5050505050975085600380602002604051908101604052809291908260038015611c09576020028201915b815481526020019060010190808311611bf5575b5050505050955080600380602002604051908101604052809291908260038015611c48576020028201915b815481526020019060010190808311611c34575b505050505090509850985098509850985098509850985050919395975091939597565b60015481565b6003602052816000526040600020602052806000526040600020600091509150508060000160009054906101000a900460ff16908060010154908060020160009054906101000a900460ff16908060020160019054906101000a900460ff16905084565b8260038101928215611d04579160200282015b82811115611d03578251825591602001919060010190611ce8565b5b509050611d119190611d37565b5090565b6040518060600160405280600390602082028036833780820191505090505090565b5b80821115611d50576000816000905550600101611d38565b5090565b6000604051905090565b600080fd5b600080fd5b6000819050919050565b611d7b81611d68565b8114611d8657600080fd5b50565b600081359050611d9881611d72565b92915050565b600060ff82169050919050565b611db481611d9e565b8114611dbf57600080fd5b50565b600081359050611dd181611dab565b92915050565b60008060408385031215611dee57611ded611d5e565b5b6000611dfc85828601611d89565b9250506020611e0d85828601611dc2565b9150509250929050565b600060208284031215611e2d57611e2c611d5e565b5b6000611e3b84828501611d89565b91505092915050565b600080fd5b600080fd5b6000601f19601f8301169050919050565b7f4e487b7100000000000000000000000000000000000000000000000000000000600052604160045260246000fd5b611e9782611e4e565b810181811067ffffffffffffffff82111715611eb657611eb5611e5f565b5b80604052505050565b6000611ec9611d54565b9050611ed58282611e8e565b919050565b600067ffffffffffffffff821115611ef557611ef4611e5f565b5b611efe82611e4e565b9050602081019050919050565b82818337600083830152505050565b6000611f2d611f2884611eda565b611ebf565b905082815260208101848484011115611f4957611f48611e49565b5b611f54848285611f0b565b509392505050565b600082601f830112611f7157611f70611e44565b5b8135611f81848260208601611f1a565b91505092915050565b60008060408385031215611fa157611fa0611d5e565b5b600083013567ffffffffffffffff811115611fbf57611fbe611d63565b5b611fcb85828601611f5c565b9250506020611fdc85828601611d89565b9150509250929050565b600073ffffffffffffffffffffffffffffffffffffffff82169050919050565b600061201182611fe6565b9050919050565b61202181612006565b82525050565b600060208201905061203c6000830184612018565b92915050565b600060039050919050565b600081905092915050565b6000819050919050565b61206b81611d68565b82525050565b600061207d8383612062565b60208301905092915050565b6000602082019050919050565b61209f81612042565b6120a9818461204d565b92506120b482612058565b8060005b838110156120e55781516120cc8782612071565b96506120d783612089565b9250506001810190506120b8565b505050505050565b60006060820190506121026000830184612096565b92915050565b600081519050919050565b600082825260208201905092915050565b60005b83811015612142578082015181840152602081019050612127565b60008484015250505050565b600061215982612108565b6121638185612113565b9350612173818560208601612124565b61217c81611e4e565b840191505092915050565b61219081611d68565b82525050565b60008115159050919050565b6121ab81612196565b82525050565b6121ba81611d9e565b82525050565b600060c08201905081810360008301526121da818961214e565b90506121e96020830188612187565b6121f660408301876121a2565b61220360608301866121a2565b61221060808301856121b1565b61221d60a0830184612187565b979650505050505050565b61223181612006565b811461223c57600080fd5b50565b60008135905061224e81612228565b92915050565b6000806040838503121561226b5761226a611d5e565b5b600061227985828601611d89565b925050602061228a8582860161223f565b9150509250929050565b60006080820190506122a960008301876121b1565b6122b66020830186612187565b6122c360408301856121a2565b6122d060608301846121a2565b95945050505050565b60006020820190506122ee6000830184612187565b92915050565b600061018082019050818103600083015261230f818b61214e565b905061231e602083018a612187565b61232b6040830189612096565b61233860a08301886121a2565b61234560c08301876121a2565b61235260e08301866121b1565b612360610100830185612187565b61236e610120830184612096565b9998505050505050505050565b7f4d61726b657420646f6573206e6f742065786973740000000000000000000000600082015250565b60006123b1601583612113565b91506123bc8261237b565b602082019050919050565b600060208201905081810360008301526123e0816123a4565b9050919050565b7f42657474696e6720697320636c6f73656420666f722074686973206d61726b6560008201527f7400000000000000000000000000000000000000000000000000000000000000602082015250565b6000612443602183612113565b915061244e826123e7565b604082019050919050565b6000602082019050818103600083015261247281612436565b9050919050565b7f4d617463682068617320616c7265616479207374617274656400000000000000600082015250565b60006124af601983612113565b91506124ba82612479565b602082019050919050565b600060208201905081810360008301526124de816124a2565b9050919050565b7f4f7574636f6d65206d75737420626520312c20322c206f722033000000000000600082015250565b600061251b601a83612113565b9150612526826124e5565b602082019050919050565b6000602082019050818103600083015261254a8161250e565b9050919050565b7f42657420616d6f756e74206d7573742062652067726561746572207468616e2060008201527f3000000000000000000000000000000000000000000000000000000000000000602082015250565b60006125ad602183612113565b91506125b882612551565b604082019050919050565b600060208201905081810360008301526125dc816125a0565b9050919050565b7f596f752063616e206f6e6c792061646420746f20796f7572206578697374696e60008201527f67206f7574636f6d650000000000000000000000000000000000000000000000602082015250565b600061263f602983612113565b915061264a826125e3565b604082019050919050565b6000602082019050818103600083015261266e81612632565b9050919050565b7f4e487b7100000000000000000000000000000000000000000000000000000000600052601160045260246000fd5b60006126af82611d68565b91506126ba83611d68565b92508282019050808211156126d2576126d1612675565b5b92915050565b60006126e382611d9e565b91506126ee83611d9e565b9250828203905060ff81111561270757612706612675565b5b92915050565b7f4e487b7100000000000000000000000000000000000000000000000000000000600052603260045260246000fd5b60006060820190506127516000830186612187565b61275e60208301856121b1565b61276b6040830184612187565b949350505050565b7f4f6e6c79206f776e65722063616e2063616c6c20746869732066756e6374696f60008201527f6e00000000000000000000000000000000000000000000000000000000000000602082015250565b60006127cf602183612113565b91506127da82612773565b604082019050919050565b600060208201905081810360008301526127fe816127c2565b9050919050565b7f4e6f206665657320617661696c61626c6520746f207769746864726177000000600082015250565b600061283b601d83612113565b915061284682612805565b602082019050919050565b6000602082019050818103600083015261286a8161282e565b9050919050565b600081905092915050565b50565b600061288c600083612871565b91506128978261287c565b600082019050919050565b60006128ad8261287f565b9150819050919050565b7f5472616e73666572206661696c65640000000000000000000000000000000000600082015250565b60006128ed600f83612113565b91506128f8826128b7565b602082019050919050565b6000602082019050818103600083015261291c816128e0565b9050919050565b7f57696e6e696e67206f7574636f6d65206d75737420626520312c20322c206f7260008201527f2033000000000000000000000000000000000000000000000000000000000000602082015250565b600061297f602283612113565b915061298a82612923565b604082019050919050565b600060208201905081810360008301526129ae81612972565b9050919050565b7f42657474696e67206973207374696c6c206f70656e0000000000000000000000600082015250565b60006129eb601583612113565b91506129f6826129b5565b602082019050919050565b60006020820190508181036000830152612a1a816129de565b9050919050565b7f4d61726b657420697320616c7265616479207265736f6c766564000000000000600082015250565b6000612a57601a83612113565b9150612a6282612a21565b602082019050919050565b60006020820190508181036000830152612a8681612a4a565b9050919050565b6000604082019050612aa26000830185612187565b612aaf60208301846121b1565b9392505050565b7f4d61726b6574206973206e6f74207265736f6c76656420796574000000000000600082015250565b6000612aec601a83612113565b9150612af782612ab6565b602082019050919050565b60006020820190508181036000830152612b1b81612adf565b9050919050565b7f57696e6e696e677320616c726561647920636c61696d65640000000000000000600082015250565b6000612b58601883612113565b9150612b6382612b22565b602082019050919050565b60006020820190508181036000830152612b8781612b4b565b9050919050565b7f426574206f7574636f6d6520646f6573206e6f74206d617463682077696e6e6960008201527f6e67206f7574636f6d6500000000000000000000000000000000000000000000602082015250565b6000612bea602a83612113565b9150612bf582612b8e565b604082019050919050565b60006020820190508181036000830152612c1981612bdd565b9050919050565b6000612c2b82611d68565b9150612c3683611d68565b9250828202612c4481611d68565b91508282048414831517612c5b57612c5a612675565b5b5092915050565b7f4e487b7100000000000000000000000000000000000000000000000000000000600052601260045260246000fd5b6000612c9c82611d68565b9150612ca783611d68565b925082612cb757612cb6612c62565b5b828204905092915050565b6000612ccd82611d68565b9150612cd883611d68565b9250828203905081811115612cf057612cef612675565b5b92915050565b6000606082019050612d0b6000830186612187565b612d186020830185612018565b612d256040830184612187565b949350505050565b7f53746172742074696d65206d75737420626520696e2074686520667574757265600082015250565b6000612d63602083612113565b9150612d6e82612d2d565b602082019050919050565b60006020820190508181036000830152612d9281612d56565b9050919050565b6000612da482611d68565b91507fffffffffffffffffffffffffffffffffffffffffffffffffffffffffffffffff8203612dd657612dd5612675565b5b600182019050919050565b7f4e487b7100000000000000000000000000000000000000000000000000000000600052602260045260246000fd5b60006002820490506001821680612e2857607f821691505b602082108103612e3b57612e3a612de1565b5b50919050565b60008190508160005260206000209050919050565b60006020601f8301049050919050565b600082821b905092915050565b600060088302612ea37fffffffffffffffffffffffffffffffffffffffffffffffffffffffffffffffff82612e66565b612ead8683612e66565b95508019841693508086168417925050509392505050565b6000819050919050565b6000612eea612ee5612ee084611d68565b612ec5565b611d68565b9050919050565b6000819050919050565b612f0483612ecf565b612f18612f1082612ef1565b848454612e73565b825550505050565b600090565b612f2d612f20565b612f38818484612efb565b505050565b5b81811015612f5c57612f51600082612f25565b600181019050612f3e565b5050565b601f821115612fa157612f7281612e41565b612f7b84612e56565b81016020851015612f8a578190505b612f9e612f9685612e56565b830182612f3d565b50505b505050565b600082821c905092915050565b6000612fc460001984600802612fa6565b1980831691505092915050565b6000612fdd8383612fb3565b9150826002028217905092915050565b612ff682612108565b67ffffffffffffffff81111561300f5761300e611e5f565b5b6130198254612e10565b613024828285612f60565b600060209050601f8311600181146130575760008415613045578287015190505b61304f8582612fd1565b8655506130b7565b601f19841661306586612e41565b60005b8281101561308d57848901518255600182019150602085019450602081019050613068565b868310156130aa57848901516130a6601f891682612fb3565b8355505b6001600288020188555050505b505050505050565b60006060820190506130d46000830186612187565b81810360208301526130e6818561214e565b90506130f56040830184612187565b949350505050565b7f4d6174636820686173206e6f7420737461727465642079657400000000000000600082015250565b6000613133601983612113565b915061313e826130fd565b602082019050919050565b6000602082019050818103600083015261316281613126565b9050919050565b7f42657474696e6720697320616c726561647920636c6f73656400000000000000600082015250565b600061319f601983612113565b91506131aa82613169565b602082019050919050565b600060208201905081810360008301526131ce81613192565b9050919050565b60006131e082611d9e565b915060ff82036131f3576131f2612675565b5b600182019050919050565b600060039050919050565b6000819050919050565b60008160001c9050919050565b6000819050919050565b600061323d61323883613213565b613220565b9050919050565b6000613250825461322a565b9050919050565b6000600182019050919050565b61326d816131fe565b613277818461204d565b925061328282613209565b8060005b838110156132ba5761329782613244565b6132a18782612071565b96506132ac83613257565b925050600181019050613286565b505050505050565b60006080820190506132d76000830185612187565b6132e46020830184613264565b9392505050565b7f526566756e64206e6f7420617661696c61626c65207965740000000000000000600082015250565b6000613321601883612113565b915061332c826132eb565b602082019050919050565b6000602082019050818103600083015261335081613314565b9050919050565b7f4e6f2062657420746f20726566756e6400000000000000000000000000000000600082015250565b600061338d601083612113565b915061339882613357565b602082019050919050565b600060208201905081810360008301526133bc81613380565b9050919050565b7f416c726561647920726566756e64656400000000000000000000000000000000600082015250565b60006133f9601083612113565b9150613404826133c3565b602082019050919050565b60006020820190508181036000830152613428816133ec565b9050919050565b7f416c726561647920636c61696d65640000000000000000000000000000000000600082015250565b6000613465600f83612113565b91506134708261342f565b602082019050919050565b6000602082019050818103600083015261349481613458565b9050919050565b7f526566756e64207472616e73666572206661696c656400000000000000000000600082015250565b60006134d1601683612113565b91506134dc8261349b565b602082019050919050565b60006020820190508181036000830152613500816134c4565b905091905056fea26469706673582212200c1348791f1860976303e58aa46b6b2ac1c9e92f26844deb202528b21e408aa464736f6c63430008140033",
  "linkReferences": {},
  "deployedLinkReferences": {}
}