{
  "_format": "hh-sol-artifact-1",
  "contractName": "BetZilla",
  "sourceName": "contracts/BetZilla.sol",
  "abi": [
    {
      "inputs": [],
      "stateMutability": "nonpayable",
      "type": "constructor"
    },
    {
      "anonymous": false,
      "inputs": [
        {
          "indexed": false,
          "internalType": "uint256",
          "name": "marketId",
          "type": "uint256"
        },
        {
          "indexed": true,
          "internalType": "address",
          "name": "user",
          "type": "address"
        },
        {
          "indexed": false,
          "internalType": "uint8",
          "name": "outcome",
          "type": "uint8"
        },
        {
          "indexed": false,
          "internalType": "uint256",
          "name": "amount",
          "type": "uint256"
        }
      ],
      "name": "BetPlaced",
      "type": "event"
    },
    {
      "anonymous": false,
      "inputs": [
        {
          "indexed": false,
          "internalType": "uint256",
          "name": "marketId",
          "type": "uint256"
        },
        {
          "indexed": false,
          "internalType": "uint256[3]",
          "name": "finalOdds",
          "type": "uint256[3]"
        }
      ],
      "name": "BettingClosed",
      "type": "event"
    },
    {
      "anonymous": false,
      "inputs": [
        {
          "indexed": false,
          "internalType": "string",
          "name": "message",
          "type": "string"
        }
      ],
      "name": "Debug",
      "type": "event"
    },
    {
      "anonymous": false,
      "inputs": [
        {
          "indexed": false,
          "internalType": "uint256",
          "name": "marketId",
          "type": "uint256"
        },
        {
          "indexed": false,
          "internalType": "string",
          "name": "description",
          "type": "string"
        },
        {
          "indexed": false,
          "internalType": "uint256",
          "name": "startTime",
          "type": "uint256"
        }
      ],
      "name": "MarketCreated",
      "type": "event"
    },
    {
      "anonymous": false,
      "inputs": [
        {
          "indexed": false,
          "internalType": "uint256",
          "name": "marketId",
          "type": "uint256"
        },
        {
          "indexed": false,
          "internalType": "uint8",
          "name": "winningOutcome",
          "type": "uint8"
        }
      ],
      "name": "MarketResolved",
      "type": "event"
    },
    {
      "anonymous": false,
      "inputs": [
        {
          "indexed": false,
          "internalType": "uint256",
          "name": "marketId",
          "type": "uint256"
        },
        {
          "indexed": false,
          "internalType": "address",
          "name": "user",
          "type": "address"
        },
        {
          "indexed": false,
          "internalType": "uint256",
          "name": "payout",
          "type": "uint256"
        }
      ],
      "name": "WinningsClaimed",
      "type": "event"
    },
    {
      "inputs": [],
      "name": "FEE_PERCENT",
      "outputs": [
        {
          "internalType": "uint256",
          "name": "",
          "type": "uint256"
        }
      ],
      "stateMutability": "view",
      "type": "function"
    },
    {
      "inputs": [
        {
          "internalType": "uint256",
          "name": "",
          "type": "uint256"
        },
        {
          "internalType": "address",
          "name": "",
          "type": "address"
        }
      ],
      "name": "bets",
      "outputs": [
        {
          "internalType": "uint8",
          "name": "outcome",
          "type": "uint8"
        },
        {
          "internalType": "uint256",
          "name": "amount",
          "type": "uint256"
        },
        {
          "internalType": "bool",
          "name": "claimed",
          "type": "bool"
        },
        {
          "internalType": "bool",
          "name": "refunded",
          "type": "bool"
        },
        {
          "internalType": "uint256",
          "name": "placedAt",
          "type": "uint256"
        },
        {
          "internalType": "uint8",
          "name": "feePercent",
          "type": "uint8"
        }
      ],
      "stateMutability": "view",
      "type": "function"
    },
    {
      "inputs": [
        {
          "internalType": "uint256",
          "name": "marketId",
          "type": "uint256"
        }
      ],
      "name": "claimWinnings",
      "outputs": [],
      "stateMutability": "nonpayable",
      "type": "function"
    },
    {
      "inputs": [
        {
          "internalType": "uint256",
          "name": "marketId",
          "type": "uint256"
        }
      ],
      "name": "closeBetting",
      "outputs": [],
      "stateMutability": "nonpayable",
      "type": "function"
    },
    {
      "inputs": [
        {
          "internalType": "string",
          "name": "description",
          "type": "string"
        },
        {
          "internalType": "uint256",
          "name": "startTime",
          "type": "uint256"
        }
      ],
      "name": "createMarket",
      "outputs": [],
      "stateMutability": "nonpayable",
      "type": "function"
    },
    {
      "inputs": [
        {
          "internalType": "uint256",
          "name": "marketId",
          "type": "uint256"
        }
      ],
      "name": "getCurrentFee",
      "outputs": [
        {
          "internalType": "uint256",
          "name": "",
          "type": "uint256"
        }
      ],
      "stateMutability": "view",
      "type": "function"
    },
    {
      "inputs": [
        {
          "internalType": "uint256",
          "name": "marketId",
          "type": "uint256"
        }
      ],
      "name": "getEstimatedOdds",
      "outputs": [
        {
          "internalType": "uint256[3]",
          "name": "",
          "type": "uint256[3]"
        }
      ],
      "stateMutability": "view",
      "type": "function"
    },
    {
      "inputs": [
        {
          "internalType": "uint256",
          "name": "marketId",
          "type": "uint256"
        }
      ],
      "name": "getFinalOdds",
      "outputs": [
        {
          "internalType": "uint256[3]",
          "name": "",
          "type": "uint256[3]"
        }
      ],
      "stateMutability": "view",
      "type": "function"
    },
    {
      "inputs": [
        {
          "internalType": "uint256",
          "name": "marketId",
          "type": "uint256"
        }
      ],
      "name": "getMarket",
      "outputs": [
        {
          "internalType": "string",
          "name": "description",
          "type": "string"
        },
        {
          "internalType": "uint256",
          "name": "totalAmount",
          "type": "uint256"
        },
        {
          "internalType": "uint256[3]",
          "name": "outcomeAmounts",
          "type": "uint256[3]"
        },
        {
          "internalType": "bool",
          "name": "isClosed",
          "type": "bool"
        },
        {
          "internalType": "bool",
          "name": "isResolved",
          "type": "bool"
        },
        {
          "internalType": "uint8",
          "name": "winningOutcome",
          "type": "uint8"
        },
        {
          "internalType": "uint256",
          "name": "startTime",
          "type": "uint256"
        },
        {
          "internalType": "uint256[3]",
          "name": "finalOdds",
          "type": "uint256[3]"
        }
      ],
      "stateMutability": "view",
      "type": "function"
    },
    {
      "inputs": [
        {
          "internalType": "uint256",
          "name": "marketId",
          "type": "uint256"
        },
        {
          "internalType": "address",
          "name": "user",
          "type": "address"
        }
      ],
      "name": "getUserBet",
      "outputs": [
        {
          "internalType": "uint8",
          "name": "outcome",
          "type": "uint8"
        },
        {
          "internalType": "uint256",
          "name": "amount",
          "type": "uint256"
        },
        {
          "internalType": "bool",
          "name": "claimed",
          "type": "bool"
        },
        {
          "internalType": "bool",
          "name": "refunded",
          "type": "bool"
        }
      ],
      "stateMutability": "view",
      "type": "function"
    },
    {
      "inputs": [],
      "name": "marketCount",
      "outputs": [
        {
          "internalType": "uint256",
          "name": "",
          "type": "uint256"
        }
      ],
      "stateMutability": "view",
      "type": "function"
    },
    {
      "inputs": [
        {
          "internalType": "uint256",
          "name": "",
          "type": "uint256"
        }
      ],
      "name": "markets",
      "outputs": [
        {
          "internalType": "string",
          "name": "description",
          "type": "string"
        },
        {
          "internalType": "uint256",
          "name": "totalAmount",
          "type": "uint256"
        },
        {
          "internalType": "bool",
          "name": "isClosed",
          "type": "bool"
        },
        {
          "internalType": "bool",
          "name": "isResolved",
          "type": "bool"
        },
        {
          "internalType": "uint8",
          "name": "winningOutcome",
          "type": "uint8"
        },
        {
          "internalType": "uint256",
          "name": "startTime",
          "type": "uint256"
        }
      ],
      "stateMutability": "view",
      "type": "function"
    },
    {
      "inputs": [],
      "name": "owner",
      "outputs": [
        {
          "internalType": "address",
          "name": "",
          "type": "address"
        }
      ],
      "stateMutability": "view",
      "type": "function"
    },
    {
      "inputs": [
        {
          "internalType": "uint256",
          "name": "marketId",
          "type": "uint256"
        },
        {
          "internalType": "uint8",
          "name": "outcome",
          "type": "uint8"
        }
      ],
      "name": "placeBet",
      "outputs": [],
      "stateMutability": "payable",
      "type": "function"
    },
    {
      "inputs": [
        {
          "internalType": "uint256",
          "name": "marketId",
          "type": "uint256"
        }
      ],
      "name": "refundBet",
      "outputs": [],
      "stateMutability": "nonpayable",
      "type": "function"
    },
    {
      "inputs": [
        {
          "internalType": "uint256",
          "name": "marketId",
          "type": "uint256"
        },
        {
          "internalType": "uint8",
          "name": "outcome",
          "type": "uint8"
        }
      ],
      "name": "setResult",
      "outputs": [],
      "stateMutability": "nonpayable",
      "type": "function"
    },
    {
      "inputs": [],
      "name": "withdrawFees",
      "outputs": [],
      "stateMutability": "nonpayable",
      "type": "function"
    },
    {
      "stateMutability": "payable",
      "type": "receive"
    }
  ],
  "bytecode": "0x608060405234801561001057600080fd5b50336000806101000a81548173ffffffffffffffffffffffffffffffffffffffff021916908373ffffffffffffffffffffffffffffffffffffffff160217905550613910806100606000396000f3fe6080604052600436106101025760003560e01c8063a366c50d11610095578063e1fdb4b411610064578063e1fdb4b414610349578063eaf98d2314610372578063eb44fdd31461039d578063ec979082146103e1578063f644b3bb1461040c57610109565b8063a366c50d14610261578063b1283e771461029e578063b4ad06a1146102e0578063c03fb87c1461030957610109565b8063677bd9ff116100d1578063677bd9ff146101a75780636c285681146101d0578063883c84c11461020d5780638da5cb5b1461023657610109565b806303edf9141461010e5780633d7957751461012a578063476343ee1461016757806356150a361461017e57610109565b3661010957005b600080fd5b61012860048036038101906101239190612149565b61044e565b005b34801561013657600080fd5b50610151600480360381019061014c9190612189565b610989565b60405161015e9190612261565b60405180910390f35b34801561017357600080fd5b5061017c610b48565b005b34801561018a57600080fd5b506101a560048036038101906101a09190612149565b610cef565b005b3480156101b357600080fd5b506101ce60048036038101906101c99190612189565b610f59565b005b3480156101dc57600080fd5b506101f760048036038101906101f29190612189565b6112dd565b604051610204919061228b565b60405180910390f35b34801561021957600080fd5b50610234600480360381019061022f91906123ec565b611378565b005b34801561024257600080fd5b5061024b6115f3565b6040516102589190612489565b60405180910390f35b34801561026d57600080fd5b5061028860048036038101906102839190612189565b611617565b6040516102959190612261565b60405180910390f35b3480156102aa57600080fd5b506102c560048036038101906102c09190612189565b611678565b6040516102d79695949392919061254d565b60405180910390f35b3480156102ec57600080fd5b5061030760048036038101906103029190612189565b611763565b005b34801561031557600080fd5b50610330600480360381019061032b91906125e1565b6119e4565b6040516103409493929190612621565b60405180910390f35b34801561035557600080fd5b50610370600480360381019061036b9190612189565b611a8b565b005b34801561037e57600080fd5b50610387611e1c565b604051610394919061228b565b60405180910390f35b3480156103a957600080fd5b506103c460048036038101906103bf9190612189565b611e21565b6040516103d8989796959493929190612666565b60405180910390f35b3480156103ed57600080fd5b506103f6611fc4565b604051610403919061228b565b60405180910390f35b34801561041857600080fd5b50610433600480360381019061042e91906125e1565b611fca565b604051610445969594939291906126ed565b60405180910390f35b8160008111801561046157506001548111155b6104a0576040517f08c379a00000000000000000000000000000000000000000000000000000000081526004016104979061279a565b60405180910390fd5b60006002600085815260200190815260200160002090508060050160009054906101000a900460ff161561053e577f7cdb51e9dbbc205231228146c3246e7f914aa6d4a33170e43ecc8e3593481d1a6040516104fb9061282c565b60405180910390a16040517f08c379a00000000000000000000000000000000000000000000000000000000081526004016105359061282c565b60405180910390fd5b806006015442106105b9577f7cdb51e9dbbc205231228146c3246e7f914aa6d4a33170e43ecc8e3593481d1a60405161057690612898565b60405180910390a16040517f08c379a00000000000000000000000000000000000000000000000000000000081526004016105b090612898565b60405180910390fd5b60018360ff1610806105ce575060038360ff16115b15610643577f7cdb51e9dbbc205231228146c3246e7f914aa6d4a33170e43ecc8e3593481d1a60405161060090612904565b60405180910390a16040517f08c379a000000000000000000000000000000000000000000000000000000000815260040161063a90612904565b60405180910390fd5b600034036106bb577f7cdb51e9dbbc205231228146c3246e7f914aa6d4a33170e43ecc8e3593481d1a60405161067890612996565b60405180910390a16040517f08c379a00000000000000000000000000000000000000000000000000000000081526004016106b290612996565b60405180910390fd5b60006003600086815260200190815260200160002060003373ffffffffffffffffffffffffffffffffffffffff1673ffffffffffffffffffffffffffffffffffffffff168152602001908152602001600020905060008160010154111561078e57806001015482600101600082825461073491906129e5565b9250508190555080600101548260020160018360000160009054906101000a900460ff166107629190612a19565b60ff166003811061077657610775612a4e565b5b01600082825461078691906129e5565b925050819055505b6000620151804261079f9190612a7d565b8360060154116107b05760036107b3565b60025b90506040518060c001604052808660ff1681526020013481526020016000151581526020016000151581526020014281526020018260ff168152506003600088815260200190815260200160002060003373ffffffffffffffffffffffffffffffffffffffff1673ffffffffffffffffffffffffffffffffffffffff16815260200190815260200160002060008201518160000160006101000a81548160ff021916908360ff1602179055506020820151816001015560408201518160020160006101000a81548160ff02191690831515021790555060608201518160020160016101000a81548160ff0219169083151502179055506080820151816003015560a08201518160040160006101000a81548160ff021916908360ff160217905550905050348360010160008282546108eb9190612a7d565b9250508190555034836002016001876109049190612a19565b60ff166003811061091857610917612a4e565b5b0160008282546109289190612a7d565b925050819055503373ffffffffffffffffffffffffffffffffffffffff167f4f1eed5e863a822b0f9eb960dfdab2cc5a99beec4b191f2a7a9c7e28e5a1552487873460405161097993929190612ab1565b60405180910390a2505050505050565b610991612047565b816000811180156109a457506001548111155b6109e3576040517f08c379a00000000000000000000000000000000000000000000000000000000081526004016109da9061279a565b60405180910390fd5b60006002600085815260200190815260200160002090508060050160009054906101000a900460ff1615610a4c576040517f08c379a0000000000000000000000000000000000000000000000000000000008152600401610a439061282c565b60405180910390fd5b620151808160060154610a5f91906129e5565b421015610aa1576040517f08c379a0000000000000000000000000000000000000000000000000000000008152600401610a9890612b5a565b60405180910390fd5b600081600101549050610ab2612047565b60005b60038160ff161015610b3b576000846002018260ff1660038110610adc57610adb612a4e565b5b0154905060008114610b055780606485610af69190612b7a565b610b009190612beb565b610b08565b60005b838360ff1660038110610b1e57610b1d612a4e565b5b602002018181525050508080610b3390612c1c565b915050610ab5565b5080945050505050919050565b60008054906101000a900473ffffffffffffffffffffffffffffffffffffffff1673ffffffffffffffffffffffffffffffffffffffff163373ffffffffffffffffffffffffffffffffffffffff1614610bd6576040517f08c379a0000000000000000000000000000000000000000000000000000000008152600401610bcd90612cb7565b60405180910390fd5b600047905060008111610c1e576040517f08c379a0000000000000000000000000000000000000000000000000000000008152600401610c1590612d23565b60405180910390fd5b60008060009054906101000a900473ffffffffffffffffffffffffffffffffffffffff1673ffffffffffffffffffffffffffffffffffffffff1682604051610c6590612d74565b60006040518083038185875af1925050503d8060008114610ca2576040519150601f19603f3d011682016040523d82523d6000602084013e610ca7565b606091505b5050905080610ceb576040517f08c379a0000000000000000000000000000000000000000000000000000000008152600401610ce290612dd5565b60405180910390fd5b5050565b60008054906101000a900473ffffffffffffffffffffffffffffffffffffffff1673ffffffffffffffffffffffffffffffffffffffff163373ffffffffffffffffffffffffffffffffffffffff1614610d7d576040517f08c379a0000000000000000000000000000000000000000000000000000000008152600401610d7490612cb7565b60405180910390fd5b81600081118015610d9057506001548111155b610dcf576040517f08c379a0000000000000000000000000000000000000000000000000000000008152600401610dc69061279a565b60405180910390fd5b60018260ff1610158015610de7575060038260ff1611155b610e26576040517f08c379a0000000000000000000000000000000000000000000000000000000008152600401610e1d90612e67565b60405180910390fd5b60006002600085815260200190815260200160002090508060050160009054906101000a900460ff16610e8e576040517f08c379a0000000000000000000000000000000000000000000000000000000008152600401610e8590612ed3565b60405180910390fd5b8060050160019054906101000a900460ff1615610ee0576040517f08c379a0000000000000000000000000000000000000000000000000000000008152600401610ed790612f3f565b60405180910390fd5b828160050160026101000a81548160ff021916908360ff16021790555060018160050160016101000a81548160ff0219169083151502179055507f739f283563fb51ab6b89ee95d937b2e63a6cfcb83c385dbebb629f9d97bd43e68484604051610f4b929190612f5f565b60405180910390a150505050565b80600081118015610f6c57506001548111155b610fab576040517f08c379a0000000000000000000000000000000000000000000000000000000008152600401610fa29061279a565b60405180910390fd5b600060026000848152602001908152602001600020905060006003600085815260200190815260200160002060003373ffffffffffffffffffffffffffffffffffffffff1673ffffffffffffffffffffffffffffffffffffffff16815260200190815260200160002090508160050160019054906101000a900460ff16611067576040517f08c379a000000000000000000000000000000000000000000000000000000000815260040161105e90612fd4565b60405180910390fd5b8060020160009054906101000a900460ff16156110b9576040517f08c379a00000000000000000000000000000000000000000000000000000000081526004016110b090613040565b60405180910390fd5b8160050160029054906101000a900460ff1660ff168160000160009054906101000a900460ff1660ff1614611123576040517f08c379a000000000000000000000000000000000000000000000000000000000815260040161111a906130d2565b60405180910390fd5b60008260070160018360000160009054906101000a900460ff166111479190612a19565b60ff166003811061115b5761115a612a4e565b5b01549050600060648284600101546111739190612b7a565b61117d9190612beb565b9050600060648460040160009054906101000a900460ff1660ff16836111a39190612b7a565b6111ad9190612beb565b9050600081836111bd91906129e5565b85600101546111cc9190612a7d565b905060018560020160006101000a81548160ff02191690831515021790555060003373ffffffffffffffffffffffffffffffffffffffff168260405161121190612d74565b60006040518083038185875af1925050503d806000811461124e576040519150601f19603f3d011682016040523d82523d6000602084013e611253565b606091505b5050905080611297576040517f08c379a000000000000000000000000000000000000000000000000000000000815260040161128e90612dd5565b60405180910390fd5b7f5380cf6fe903b40c6d5a9e0dfbca2f3a423f0a21520b4d5947ed5169bdba946d8933846040516112ca939291906130f2565b60405180910390a1505050505050505050565b6000816000811180156112f257506001548111155b611331576040517f08c379a00000000000000000000000000000000000000000000000000000000081526004016113289061279a565b60405180910390fd5b600060026000858152602001908152602001600020905062015180426113579190612a7d565b8160060154111561136c576002925050611372565b60039250505b50919050565b60008054906101000a900473ffffffffffffffffffffffffffffffffffffffff1673ffffffffffffffffffffffffffffffffffffffff163373ffffffffffffffffffffffffffffffffffffffff1614611406576040517f08c379a00000000000000000000000000000000000000000000000000000000081526004016113fd90612cb7565b60405180910390fd5b428111611448576040517f08c379a000000000000000000000000000000000000000000000000000000000815260040161143f90613175565b60405180910390fd5b6001600081548092919061145b90613195565b9190505550604051806101000160405280838152602001600081526020016040518060600160405280600081526020016000815260200160008152508152602001600015158152602001600015158152602001600060ff168152602001828152602001604051806060016040528060008152602001600081526020016000815250815250600260006001548152602001908152602001600020600082015181600001908161150991906133e9565b506020820151816001015560408201518160020190600361152b929190612069565b5060608201518160050160006101000a81548160ff02191690831515021790555060808201518160050160016101000a81548160ff02191690831515021790555060a08201518160050160026101000a81548160ff021916908360ff16021790555060c0820151816006015560e0820151816007019060036115ae929190612069565b509050507f2d1e9ad45dbe8e898e0374deebf2a661b2ae7c1855d2a29507d584c35d287c7560015483836040516115e7939291906134bb565b60405180910390a15050565b60008054906101000a900473ffffffffffffffffffffffffffffffffffffffff1681565b61161f612047565b6002600083815260200190815260200160002060070160038060200260405190810160405280929190826003801561166c576020028201915b815481526020019060010190808311611658575b50505050509050919050565b600260205280600052604060002060009150905080600001805461169b9061320c565b80601f01602080910402602001604051908101604052809291908181526020018280546116c79061320c565b80156117145780601f106116e957610100808354040283529160200191611714565b820191906000526020600020905b8154815290600101906020018083116116f757829003601f168201915b5050505050908060010154908060050160009054906101000a900460ff16908060050160019054906101000a900460ff16908060050160029054906101000a900460ff16908060060154905086565b60008054906101000a900473ffffffffffffffffffffffffffffffffffffffff1673ffffffffffffffffffffffffffffffffffffffff163373ffffffffffffffffffffffffffffffffffffffff16146117f1576040517f08c379a00000000000000000000000000000000000000000000000000000000081526004016117e890612cb7565b60405180910390fd5b8060008111801561180457506001548111155b611843576040517f08c379a000000000000000000000000000000000000000000000000000000000815260040161183a9061279a565b60405180910390fd5b600060026000848152602001908152602001600020905080600601544210156118a1576040517f08c379a000000000000000000000000000000000000000000000000000000000815260040161189890613545565b60405180910390fd5b8060050160009054906101000a900460ff16156118f3576040517f08c379a00000000000000000000000000000000000000000000000000000000081526004016118ea906135b1565b60405180910390fd5b60018160050160006101000a81548160ff02191690831515021790555060008160010154905060005b60038160ff1610156119a1576000836002018260ff166003811061194357611942612a4e565b5b015490506000811461196c578060648461195d9190612b7a565b6119679190612beb565b61196f565b60005b846007018360ff166003811061198857611987612a4e565b5b018190555050808061199990612c1c565b91505061191c565b507f739dc946f0a35d22d4e2d61e0f800b8606d67f74513e3097bc4aee150feab4a584836007016040516119d6929190613695565b60405180910390a150505050565b60008060008060006003600088815260200190815260200160002060008773ffffffffffffffffffffffffffffffffffffffff1673ffffffffffffffffffffffffffffffffffffffff16815260200190815260200160002090508060000160009054906101000a900460ff1681600101548260020160009054906101000a900460ff168360020160019054906101000a900460ff1694509450945094505092959194509250565b80600081118015611a9e57506001548111155b611add576040517f08c379a0000000000000000000000000000000000000000000000000000000008152600401611ad49061279a565b60405180910390fd5b600060026000848152602001908152602001600020905060006003600085815260200190815260200160002060003373ffffffffffffffffffffffffffffffffffffffff1673ffffffffffffffffffffffffffffffffffffffff16815260200190815260200160002090508160050160009054906101000a900460ff1615611b9a576040517f08c379a0000000000000000000000000000000000000000000000000000000008152600401611b91906135b1565b60405180910390fd5b620151808260060154611bad9190612a7d565b4211611bee576040517f08c379a0000000000000000000000000000000000000000000000000000000008152600401611be59061370a565b60405180910390fd5b6000816001015411611c35576040517f08c379a0000000000000000000000000000000000000000000000000000000008152600401611c2c90613776565b60405180910390fd5b8060020160019054906101000a900460ff1615611c87576040517f08c379a0000000000000000000000000000000000000000000000000000000008152600401611c7e906137e2565b60405180910390fd5b8060020160009054906101000a900460ff1615611cd9576040517f08c379a0000000000000000000000000000000000000000000000000000000008152600401611cd09061384e565b60405180910390fd5b60008160010154905060018260020160016101000a81548160ff02191690831515021790555080836001016000828254611d1391906129e5565b92505081905550808360020160018460000160009054906101000a900460ff16611d3d9190612a19565b60ff1660038110611d5157611d50612a4e565b5b016000828254611d6191906129e5565b9250508190555060003373ffffffffffffffffffffffffffffffffffffffff1682604051611d8e90612d74565b60006040518083038185875af1925050503d8060008114611dcb576040519150601f19603f3d011682016040523d82523d6000602084013e611dd0565b606091505b5050905080611e14576040517f08c379a0000000000000000000000000000000000000000000000000000000008152600401611e0b906138ba565b60405180910390fd5b505050505050565b600381565b60606000611e2d612047565b600080600080611e3b612047565b6000600260008b81526020019081526020016000209050806000018160010154826002018360050160009054906101000a900460ff168460050160019054906101000a900460ff168560050160029054906101000a900460ff16866006015487600701878054611eaa9061320c565b80601f0160208091040260200160405190810160405280929190818152602001828054611ed69061320c565b8015611f235780601f10611ef857610100808354040283529160200191611f23565b820191906000526020600020905b815481529060010190602001808311611f0657829003601f168201915b5050505050975085600380602002604051908101604052809291908260038015611f62576020028201915b815481526020019060010190808311611f4e575b5050505050955080600380602002604051908101604052809291908260038015611fa1576020028201915b815481526020019060010190808311611f8d575b505050505090509850985098509850985098509850985050919395975091939597565b60015481565b6003602052816000526040600020602052806000526040600020600091509150508060000160009054906101000a900460ff16908060010154908060020160009054906101000a900460ff16908060020160019054906101000a900460ff16908060030154908060040160009054906101000a900460ff16905086565b6040518060600160405280600390602082028036833780820191505090505090565b8260038101928215612098579160200282015b8281111561209757825182559160200191906001019061207c565b5b5090506120a591906120a9565b5090565b5b808211156120c25760008160009055506001016120aa565b5090565b6000604051905090565b600080fd5b600080fd5b6000819050919050565b6120ed816120da565b81146120f857600080fd5b50565b60008135905061210a816120e4565b92915050565b600060ff82169050919050565b61212681612110565b811461213157600080fd5b50565b6000813590506121438161211d565b92915050565b600080604083850312156121605761215f6120d0565b5b600061216e858286016120fb565b925050602061217f85828601612134565b9150509250929050565b60006020828403121561219f5761219e6120d0565b5b60006121ad848285016120fb565b91505092915050565b600060039050919050565b600081905092915050565b6000819050919050565b6121df816120da565b82525050565b60006121f183836121d6565b60208301905092915050565b6000602082019050919050565b612213816121b6565b61221d81846121c1565b9250612228826121cc565b8060005b8381101561225957815161224087826121e5565b965061224b836121fd565b92505060018101905061222c565b505050505050565b6000606082019050612276600083018461220a565b92915050565b612285816120da565b82525050565b60006020820190506122a0600083018461227c565b92915050565b600080fd5b600080fd5b6000601f19601f8301169050919050565b7f4e487b7100000000000000000000000000000000000000000000000000000000600052604160045260246000fd5b6122f9826122b0565b810181811067ffffffffffffffff82111715612318576123176122c1565b5b80604052505050565b600061232b6120c6565b905061233782826122f0565b919050565b600067ffffffffffffffff821115612357576123566122c1565b5b612360826122b0565b9050602081019050919050565b82818337600083830152505050565b600061238f61238a8461233c565b612321565b9050828152602081018484840111156123ab576123aa6122ab565b5b6123b684828561236d565b509392505050565b600082601f8301126123d3576123d26122a6565b5b81356123e384826020860161237c565b91505092915050565b60008060408385031215612403576124026120d0565b5b600083013567ffffffffffffffff811115612421576124206120d5565b5b61242d858286016123be565b925050602061243e858286016120fb565b9150509250929050565b600073ffffffffffffffffffffffffffffffffffffffff82169050919050565b600061247382612448565b9050919050565b61248381612468565b82525050565b600060208201905061249e600083018461247a565b92915050565b600081519050919050565b600082825260208201905092915050565b60005b838110156124de5780820151818401526020810190506124c3565b60008484015250505050565b60006124f5826124a4565b6124ff81856124af565b935061250f8185602086016124c0565b612518816122b0565b840191505092915050565b60008115159050919050565b61253881612523565b82525050565b61254781612110565b82525050565b600060c082019050818103600083015261256781896124ea565b9050612576602083018861227c565b612583604083018761252f565b612590606083018661252f565b61259d608083018561253e565b6125aa60a083018461227c565b979650505050505050565b6125be81612468565b81146125c957600080fd5b50565b6000813590506125db816125b5565b92915050565b600080604083850312156125f8576125f76120d0565b5b6000612606858286016120fb565b9250506020612617858286016125cc565b9150509250929050565b6000608082019050612636600083018761253e565b612643602083018661227c565b612650604083018561252f565b61265d606083018461252f565b95945050505050565b6000610180820190508181036000830152612681818b6124ea565b9050612690602083018a61227c565b61269d604083018961220a565b6126aa60a083018861252f565b6126b760c083018761252f565b6126c460e083018661253e565b6126d261010083018561227c565b6126e061012083018461220a565b9998505050505050505050565b600060c082019050612702600083018961253e565b61270f602083018861227c565b61271c604083018761252f565b612729606083018661252f565b612736608083018561227c565b61274360a083018461253e565b979650505050505050565b7f4d61726b657420646f6573206e6f742065786973740000000000000000000000600082015250565b60006127846015836124af565b915061278f8261274e565b602082019050919050565b600060208201905081810360008301526127b381612777565b9050919050565b7f42657474696e6720697320636c6f73656420666f722074686973206d61726b6560008201527f7400000000000000000000000000000000000000000000000000000000000000602082015250565b60006128166021836124af565b9150612821826127ba565b604082019050919050565b6000602082019050818103600083015261284581612809565b9050919050565b7f4d617463682068617320616c7265616479207374617274656400000000000000600082015250565b60006128826019836124af565b915061288d8261284c565b602082019050919050565b600060208201905081810360008301526128b181612875565b9050919050565b7f4f7574636f6d65206d75737420626520312c20322c206f722033000000000000600082015250565b60006128ee601a836124af565b91506128f9826128b8565b602082019050919050565b6000602082019050818103600083015261291d816128e1565b9050919050565b7f42657420616d6f756e74206d7573742062652067726561746572207468616e2060008201527f3000000000000000000000000000000000000000000000000000000000000000602082015250565b60006129806021836124af565b915061298b82612924565b604082019050919050565b600060208201905081810360008301526129af81612973565b9050919050565b7f4e487b7100000000000000000000000000000000000000000000000000000000600052601160045260246000fd5b60006129f0826120da565b91506129fb836120da565b9250828203905081811115612a1357612a126129b6565b5b92915050565b6000612a2482612110565b9150612a2f83612110565b9250828203905060ff811115612a4857612a476129b6565b5b92915050565b7f4e487b7100000000000000000000000000000000000000000000000000000000600052603260045260246000fd5b6000612a88826120da565b9150612a93836120da565b9250828201905080821115612aab57612aaa6129b6565b5b92915050565b6000606082019050612ac6600083018661227c565b612ad3602083018561253e565b612ae0604083018461227c565b949350505050565b7f4f64647320646973706f6e6962696c6920736f6c6f206e656c6c65203234682060008201527f707265636564656e746920616c6c27696e697a696f0000000000000000000000602082015250565b6000612b446035836124af565b9150612b4f82612ae8565b604082019050919050565b60006020820190508181036000830152612b7381612b37565b9050919050565b6000612b85826120da565b9150612b90836120da565b9250828202612b9e816120da565b91508282048414831517612bb557612bb46129b6565b5b5092915050565b7f4e487b7100000000000000000000000000000000000000000000000000000000600052601260045260246000fd5b6000612bf6826120da565b9150612c01836120da565b925082612c1157612c10612bbc565b5b828204905092915050565b6000612c2782612110565b915060ff8203612c3a57612c396129b6565b5b600182019050919050565b7f4f6e6c79206f776e65722063616e2063616c6c20746869732066756e6374696f60008201527f6e00000000000000000000000000000000000000000000000000000000000000602082015250565b6000612ca16021836124af565b9150612cac82612c45565b604082019050919050565b60006020820190508181036000830152612cd081612c94565b9050919050565b7f4e6f206665657320617661696c61626c6520746f207769746864726177000000600082015250565b6000612d0d601d836124af565b9150612d1882612cd7565b602082019050919050565b60006020820190508181036000830152612d3c81612d00565b9050919050565b600081905092915050565b50565b6000612d5e600083612d43565b9150612d6982612d4e565b600082019050919050565b6000612d7f82612d51565b9150819050919050565b7f5472616e73666572206661696c65640000000000000000000000000000000000600082015250565b6000612dbf600f836124af565b9150612dca82612d89565b602082019050919050565b60006020820190508181036000830152612dee81612db2565b9050919050565b7f57696e6e696e67206f7574636f6d65206d75737420626520312c20322c206f7260008201527f2033000000000000000000000000000000000000000000000000000000000000602082015250565b6000612e516022836124af565b9150612e5c82612df5565b604082019050919050565b60006020820190508181036000830152612e8081612e44565b9050919050565b7f42657474696e67206973207374696c6c206f70656e0000000000000000000000600082015250565b6000612ebd6015836124af565b9150612ec882612e87565b602082019050919050565b60006020820190508181036000830152612eec81612eb0565b9050919050565b7f4d61726b657420697320616c7265616479207265736f6c766564000000000000600082015250565b6000612f29601a836124af565b9150612f3482612ef3565b602082019050919050565b60006020820190508181036000830152612f5881612f1c565b9050919050565b6000604082019050612f74600083018561227c565b612f81602083018461253e565b9392505050565b7f4d61726b6574206973206e6f74207265736f6c76656420796574000000000000600082015250565b6000612fbe601a836124af565b9150612fc982612f88565b602082019050919050565b60006020820190508181036000830152612fed81612fb1565b9050919050565b7f57696e6e696e677320616c726561647920636c61696d65640000000000000000600082015250565b600061302a6018836124af565b915061303582612ff4565b602082019050919050565b600060208201905081810360008301526130598161301d565b9050919050565b7f426574206f7574636f6d6520646f6573206e6f74206d617463682077696e6e6960008201527f6e67206f7574636f6d6500000000000000000000000000000000000000000000602082015250565b60006130bc602a836124af565b91506130c782613060565b604082019050919050565b600060208201905081810360008301526130eb816130af565b9050919050565b6000606082019050613107600083018661227c565b613114602083018561247a565b613121604083018461227c565b949350505050565b7f53746172742074696d65206d75737420626520696e2074686520667574757265600082015250565b600061315f6020836124af565b915061316a82613129565b602082019050919050565b6000602082019050818103600083015261318e81613152565b9050919050565b60006131a0826120da565b91507fffffffffffffffffffffffffffffffffffffffffffffffffffffffffffffffff82036131d2576131d16129b6565b5b600182019050919050565b7f4e487b7100000000000000000000000000000000000000000000000000000000600052602260045260246000fd5b6000600282049050600182168061322457607f821691505b602082108103613237576132366131dd565b5b50919050565b60008190508160005260206000209050919050565b60006020601f8301049050919050565b600082821b905092915050565b60006008830261329f7fffffffffffffffffffffffffffffffffffffffffffffffffffffffffffffffff82613262565b6132a98683613262565b95508019841693508086168417925050509392505050565b6000819050919050565b60006132e66132e16132dc846120da565b6132c1565b6120da565b9050919050565b6000819050919050565b613300836132cb565b61331461330c826132ed565b84845461326f565b825550505050565b600090565b61332961331c565b6133348184846132f7565b505050565b5b818110156133585761334d600082613321565b60018101905061333a565b5050565b601f82111561339d5761336e8161323d565b61337784613252565b81016020851015613386578190505b61339a61339285613252565b830182613339565b50505b505050565b600082821c905092915050565b60006133c0600019846008026133a2565b1980831691505092915050565b60006133d983836133af565b9150826002028217905092915050565b6133f2826124a4565b67ffffffffffffffff81111561340b5761340a6122c1565b5b613415825461320c565b61342082828561335c565b600060209050601f8311600181146134535760008415613441578287015190505b61344b85826133cd565b8655506134b3565b601f1984166134618661323d565b60005b8281101561348957848901518255600182019150602085019450602081019050613464565b868310156134a657848901516134a2601f8916826133af565b8355505b6001600288020188555050505b505050505050565b60006060820190506134d0600083018661227c565b81810360208301526134e281856124ea565b90506134f1604083018461227c565b949350505050565b7f4d6174636820686173206e6f7420737461727465642079657400000000000000600082015250565b600061352f6019836124af565b915061353a826134f9565b602082019050919050565b6000602082019050818103600083015261355e81613522565b9050919050565b7f42657474696e6720697320616c726561647920636c6f73656400000000000000600082015250565b600061359b6019836124af565b91506135a682613565565b602082019050919050565b600060208201905081810360008301526135ca8161358e565b9050919050565b600060039050919050565b6000819050919050565b60008160001c9050919050565b6000819050919050565b600061361061360b836135e6565b6135f3565b9050919050565b600061362382546135fd565b9050919050565b6000600182019050919050565b613640816135d1565b61364a81846121c1565b9250613655826135dc565b8060005b8381101561368d5761366a82613617565b61367487826121e5565b965061367f8361362a565b925050600181019050613659565b505050505050565b60006080820190506136aa600083018561227c565b6136b76020830184613637565b9392505050565b7f526566756e64206e6f7420617661696c61626c65207965740000000000000000600082015250565b60006136f46018836124af565b91506136ff826136be565b602082019050919050565b60006020820190508181036000830152613723816136e7565b9050919050565b7f4e6f2062657420746f20726566756e6400000000000000000000000000000000600082015250565b60006137606010836124af565b915061376b8261372a565b602082019050919050565b6000602082019050818103600083015261378f81613753565b9050919050565b7f416c726561647920726566756e64656400000000000000000000000000000000600082015250565b60006137cc6010836124af565b91506137d782613796565b602082019050919050565b600060208201905081810360008301526137fb816137bf565b9050919050565b7f416c726561647920636c61696d65640000000000000000000000000000000000600082015250565b6000613838600f836124af565b915061384382613802565b602082019050919050565b600060208201905081810360008301526138678161382b565b9050919050565b7f526566756e64207472616e73666572206661696c656400000000000000000000600082015250565b60006138a46016836124af565b91506138af8261386e565b602082019050919050565b600060208201905081810360008301526138d381613897565b905091905056fea2646970667358221220b02b7208b4fcc4335c9900d299bd7c86ee7ceddc3736d93575369e1672eeabb064736f6c63430008140033",
  "linkReferences": {},
  "deployedLinkReferences": {}
}