{
  "_format": "hh-sol-artifact-1",
  "contractName": "BetZilla",
  "sourceName": "contracts/BetZilla.sol",
  "abi": [
    {
      "inputs": [],
      "stateMutability": "nonpayable",
      "type": "constructor"
    },
    {
      "anonymous": false,
      "inputs": [
        {
          "indexed": false,
          "internalType": "uint256",
          "name": "marketId",
          "type": "uint256"
        },
        {
          "indexed": true,
          "internalType": "address",
          "name": "user",
          "type": "address"
        },
        {
          "indexed": false,
          "internalType": "uint8",
          "name": "outcome",
          "type": "uint8"
        },
        {
          "indexed": false,
          "internalType": "uint256",
          "name": "amount",
          "type": "uint256"
        }
      ],
      "name": "BetPlaced",
      "type": "event"
    },
    {
      "anonymous": false,
      "inputs": [
        {
          "indexed": false,
          "internalType": "uint256",
          "name": "marketId",
          "type": "uint256"
        },
        {
          "indexed": false,
          "internalType": "uint256[3]",
          "name": "finalOdds",
          "type": "uint256[3]"
        }
      ],
      "name": "BettingClosed",
      "type": "event"
    },
    {
      "anonymous": false,
      "inputs": [
        {
          "indexed": false,
          "internalType": "string",
          "name": "message",
          "type": "string"
        }
      ],
      "name": "Debug",
      "type": "event"
    },
    {
      "anonymous": false,
      "inputs": [
        {
          "indexed": false,
          "internalType": "uint256",
          "name": "marketId",
          "type": "uint256"
        },
        {
          "indexed": false,
          "internalType": "string",
          "name": "description",
          "type": "string"
        },
        {
          "indexed": false,
          "internalType": "uint256",
          "name": "startTime",
          "type": "uint256"
        }
      ],
      "name": "MarketCreated",
      "type": "event"
    },
    {
      "anonymous": false,
      "inputs": [
        {
          "indexed": false,
          "internalType": "uint256",
          "name": "marketId",
          "type": "uint256"
        },
        {
          "indexed": false,
          "internalType": "uint8",
          "name": "winningOutcome",
          "type": "uint8"
        }
      ],
      "name": "MarketResolved",
      "type": "event"
    },
    {
      "anonymous": false,
      "inputs": [
        {
          "indexed": false,
          "internalType": "uint256",
          "name": "marketId",
          "type": "uint256"
        },
        {
          "indexed": false,
          "internalType": "address",
          "name": "user",
          "type": "address"
        },
        {
          "indexed": false,
          "internalType": "uint256",
          "name": "payout",
          "type": "uint256"
        }
      ],
      "name": "WinningsClaimed",
      "type": "event"
    },
    {
      "inputs": [],
      "name": "FEE_PERCENT",
      "outputs": [
        {
          "internalType": "uint256",
          "name": "",
          "type": "uint256"
        }
      ],
      "stateMutability": "view",
      "type": "function"
    },
    {
      "inputs": [
        {
          "internalType": "uint256",
          "name": "",
          "type": "uint256"
        },
        {
          "internalType": "address",
          "name": "",
          "type": "address"
        }
      ],
      "name": "bets",
      "outputs": [
        {
          "internalType": "uint8",
          "name": "outcome",
          "type": "uint8"
        },
        {
          "internalType": "uint256",
          "name": "amount",
          "type": "uint256"
        },
        {
          "internalType": "bool",
          "name": "claimed",
          "type": "bool"
        },
        {
          "internalType": "bool",
          "name": "refunded",
          "type": "bool"
        }
      ],
      "stateMutability": "view",
      "type": "function"
    },
    {
      "inputs": [
        {
          "internalType": "uint256",
          "name": "marketId",
          "type": "uint256"
        }
      ],
      "name": "claimWinnings",
      "outputs": [],
      "stateMutability": "nonpayable",
      "type": "function"
    },
    {
      "inputs": [
        {
          "internalType": "uint256",
          "name": "marketId",
          "type": "uint256"
        }
      ],
      "name": "closeBetting",
      "outputs": [],
      "stateMutability": "nonpayable",
      "type": "function"
    },
    {
      "inputs": [
        {
          "internalType": "string",
          "name": "description",
          "type": "string"
        },
        {
          "internalType": "uint256",
          "name": "startTime",
          "type": "uint256"
        }
      ],
      "name": "createMarket",
      "outputs": [],
      "stateMutability": "nonpayable",
      "type": "function"
    },
    {
      "inputs": [
        {
          "internalType": "uint256",
          "name": "marketId",
          "type": "uint256"
        }
      ],
      "name": "getFinalOdds",
      "outputs": [
        {
          "internalType": "uint256[3]",
          "name": "",
          "type": "uint256[3]"
        }
      ],
      "stateMutability": "view",
      "type": "function"
    },
    {
      "inputs": [
        {
          "internalType": "uint256",
          "name": "marketId",
          "type": "uint256"
        }
      ],
      "name": "getMarket",
      "outputs": [
        {
          "internalType": "string",
          "name": "description",
          "type": "string"
        },
        {
          "internalType": "uint256",
          "name": "totalAmount",
          "type": "uint256"
        },
        {
          "internalType": "uint256[3]",
          "name": "outcomeAmounts",
          "type": "uint256[3]"
        },
        {
          "internalType": "bool",
          "name": "isClosed",
          "type": "bool"
        },
        {
          "internalType": "bool",
          "name": "isResolved",
          "type": "bool"
        },
        {
          "internalType": "uint8",
          "name": "winningOutcome",
          "type": "uint8"
        },
        {
          "internalType": "uint256",
          "name": "startTime",
          "type": "uint256"
        },
        {
          "internalType": "uint256[3]",
          "name": "finalOdds",
          "type": "uint256[3]"
        }
      ],
      "stateMutability": "view",
      "type": "function"
    },
    {
      "inputs": [
        {
          "internalType": "uint256",
          "name": "marketId",
          "type": "uint256"
        },
        {
          "internalType": "address",
          "name": "user",
          "type": "address"
        }
      ],
      "name": "getUserBet",
      "outputs": [
        {
          "internalType": "uint8",
          "name": "outcome",
          "type": "uint8"
        },
        {
          "internalType": "uint256",
          "name": "amount",
          "type": "uint256"
        },
        {
          "internalType": "bool",
          "name": "claimed",
          "type": "bool"
        },
        {
          "internalType": "bool",
          "name": "refunded",
          "type": "bool"
        }
      ],
      "stateMutability": "view",
      "type": "function"
    },
    {
      "inputs": [],
      "name": "marketCount",
      "outputs": [
        {
          "internalType": "uint256",
          "name": "",
          "type": "uint256"
        }
      ],
      "stateMutability": "view",
      "type": "function"
    },
    {
      "inputs": [
        {
          "internalType": "uint256",
          "name": "",
          "type": "uint256"
        }
      ],
      "name": "markets",
      "outputs": [
        {
          "internalType": "string",
          "name": "description",
          "type": "string"
        },
        {
          "internalType": "uint256",
          "name": "totalAmount",
          "type": "uint256"
        },
        {
          "internalType": "bool",
          "name": "isClosed",
          "type": "bool"
        },
        {
          "internalType": "bool",
          "name": "isResolved",
          "type": "bool"
        },
        {
          "internalType": "uint8",
          "name": "winningOutcome",
          "type": "uint8"
        },
        {
          "internalType": "uint256",
          "name": "startTime",
          "type": "uint256"
        }
      ],
      "stateMutability": "view",
      "type": "function"
    },
    {
      "inputs": [],
      "name": "owner",
      "outputs": [
        {
          "internalType": "address",
          "name": "",
          "type": "address"
        }
      ],
      "stateMutability": "view",
      "type": "function"
    },
    {
      "inputs": [
        {
          "internalType": "uint256",
          "name": "marketId",
          "type": "uint256"
        },
        {
          "internalType": "uint8",
          "name": "outcome",
          "type": "uint8"
        }
      ],
      "name": "placeBet",
      "outputs": [],
      "stateMutability": "payable",
      "type": "function"
    },
    {
      "inputs": [
        {
          "internalType": "uint256",
          "name": "marketId",
          "type": "uint256"
        }
      ],
      "name": "refundBet",
      "outputs": [],
      "stateMutability": "nonpayable",
      "type": "function"
    },
    {
      "inputs": [
        {
          "internalType": "uint256",
          "name": "marketId",
          "type": "uint256"
        },
        {
          "internalType": "uint8",
          "name": "outcome",
          "type": "uint8"
        }
      ],
      "name": "setResult",
      "outputs": [],
      "stateMutability": "nonpayable",
      "type": "function"
    },
    {
      "inputs": [],
      "name": "withdrawFees",
      "outputs": [],
      "stateMutability": "nonpayable",
      "type": "function"
    },
    {
      "stateMutability": "payable",
      "type": "receive"
    }
  ],
  "bytecode": "0x608060405234801561001057600080fd5b50336000806101000a81548173ffffffffffffffffffffffffffffffffffffffff021916908373ffffffffffffffffffffffffffffffffffffffff1602179055506134a3806100606000396000f3fe6080604052600436106100ec5760003560e01c8063b1283e771161008a578063eaf98d2311610059578063eaf98d23146102e2578063eb44fdd31461030d578063ec97908214610351578063f644b3bb1461037c576100f3565b8063b1283e771461020e578063b4ad06a114610250578063c03fb87c14610279578063e1fdb4b4146102b9576100f3565b8063677bd9ff116100c6578063677bd9ff14610154578063883c84c11461017d5780638da5cb5b146101a6578063a366c50d146101d1576100f3565b806303edf914146100f8578063476343ee1461011457806356150a361461012b576100f3565b366100f357005b600080fd5b610112600480360381019061010d9190611dcf565b6103bc565b005b34801561012057600080fd5b50610129610895565b005b34801561013757600080fd5b50610152600480360381019061014d9190611dcf565b610a3c565b005b34801561016057600080fd5b5061017b60048036038101906101769190611e0f565b610ca6565b005b34801561018957600080fd5b506101a4600480360381019061019f9190611f82565b611017565b005b3480156101b257600080fd5b506101bb611292565b6040516101c8919061201f565b60405180910390f35b3480156101dd57600080fd5b506101f860048036038101906101f39190611e0f565b6112b6565b60405161020591906120e5565b60405180910390f35b34801561021a57600080fd5b5061023560048036038101906102309190611e0f565b611317565b604051610247969594939291906121b8565b60405180910390f35b34801561025c57600080fd5b5061027760048036038101906102729190611e0f565b611402565b005b34801561028557600080fd5b506102a0600480360381019061029b919061224c565b611683565b6040516102b0949392919061228c565b60405180910390f35b3480156102c557600080fd5b506102e060048036038101906102db9190611e0f565b61172a565b005b3480156102ee57600080fd5b506102f7611abb565b60405161030491906122d1565b60405180910390f35b34801561031957600080fd5b50610334600480360381019061032f9190611e0f565b611ac0565b6040516103489897969594939291906122ec565b60405180910390f35b34801561035d57600080fd5b50610366611c63565b60405161037391906122d1565b60405180910390f35b34801561038857600080fd5b506103a3600480360381019061039e919061224c565b611c69565b6040516103b3949392919061228c565b60405180910390f35b816000811180156103cf57506001548111155b61040e576040517f08c379a0000000000000000000000000000000000000000000000000000000008152600401610405906123bf565b60405180910390fd5b60006002600085815260200190815260200160002090508060050160009054906101000a900460ff16156104ac577f7cdb51e9dbbc205231228146c3246e7f914aa6d4a33170e43ecc8e3593481d1a60405161046990612451565b60405180910390a16040517f08c379a00000000000000000000000000000000000000000000000000000000081526004016104a390612451565b60405180910390fd5b80600601544210610527577f7cdb51e9dbbc205231228146c3246e7f914aa6d4a33170e43ecc8e3593481d1a6040516104e4906124bd565b60405180910390a16040517f08c379a000000000000000000000000000000000000000000000000000000000815260040161051e906124bd565b60405180910390fd5b60018360ff16108061053c575060038360ff16115b156105b1577f7cdb51e9dbbc205231228146c3246e7f914aa6d4a33170e43ecc8e3593481d1a60405161056e90612529565b60405180910390a16040517f08c379a00000000000000000000000000000000000000000000000000000000081526004016105a890612529565b60405180910390fd5b60003403610629577f7cdb51e9dbbc205231228146c3246e7f914aa6d4a33170e43ecc8e3593481d1a6040516105e6906125bb565b60405180910390a16040517f08c379a0000000000000000000000000000000000000000000000000000000008152600401610620906125bb565b60405180910390fd5b60006003600086815260200190815260200160002060003373ffffffffffffffffffffffffffffffffffffffff1673ffffffffffffffffffffffffffffffffffffffff16815260200190815260200160002090506000816001015411156106fc5780600101548260010160008282546106a2919061260a565b9250508190555080600101548260020160018360000160009054906101000a900460ff166106d0919061263e565b60ff16600381106106e4576106e3612673565b5b0160008282546106f4919061260a565b925050819055505b60405180608001604052808560ff168152602001348152602001600015158152602001600015158152506003600087815260200190815260200160002060003373ffffffffffffffffffffffffffffffffffffffff1673ffffffffffffffffffffffffffffffffffffffff16815260200190815260200160002060008201518160000160006101000a81548160ff021916908360ff1602179055506020820151816001015560408201518160020160006101000a81548160ff02191690831515021790555060608201518160020160016101000a81548160ff021916908315150217905550905050348260010160008282546107f891906126a2565b925050819055503482600201600186610811919061263e565b60ff166003811061082557610824612673565b5b01600082825461083591906126a2565b925050819055503373ffffffffffffffffffffffffffffffffffffffff167f4f1eed5e863a822b0f9eb960dfdab2cc5a99beec4b191f2a7a9c7e28e5a15524868634604051610886939291906126d6565b60405180910390a25050505050565b60008054906101000a900473ffffffffffffffffffffffffffffffffffffffff1673ffffffffffffffffffffffffffffffffffffffff163373ffffffffffffffffffffffffffffffffffffffff1614610923576040517f08c379a000000000000000000000000000000000000000000000000000000000815260040161091a9061277f565b60405180910390fd5b60004790506000811161096b576040517f08c379a0000000000000000000000000000000000000000000000000000000008152600401610962906127eb565b60405180910390fd5b60008060009054906101000a900473ffffffffffffffffffffffffffffffffffffffff1673ffffffffffffffffffffffffffffffffffffffff16826040516109b29061283c565b60006040518083038185875af1925050503d80600081146109ef576040519150601f19603f3d011682016040523d82523d6000602084013e6109f4565b606091505b5050905080610a38576040517f08c379a0000000000000000000000000000000000000000000000000000000008152600401610a2f9061289d565b60405180910390fd5b5050565b60008054906101000a900473ffffffffffffffffffffffffffffffffffffffff1673ffffffffffffffffffffffffffffffffffffffff163373ffffffffffffffffffffffffffffffffffffffff1614610aca576040517f08c379a0000000000000000000000000000000000000000000000000000000008152600401610ac19061277f565b60405180910390fd5b81600081118015610add57506001548111155b610b1c576040517f08c379a0000000000000000000000000000000000000000000000000000000008152600401610b13906123bf565b60405180910390fd5b60018260ff1610158015610b34575060038260ff1611155b610b73576040517f08c379a0000000000000000000000000000000000000000000000000000000008152600401610b6a9061292f565b60405180910390fd5b60006002600085815260200190815260200160002090508060050160009054906101000a900460ff16610bdb576040517f08c379a0000000000000000000000000000000000000000000000000000000008152600401610bd29061299b565b60405180910390fd5b8060050160019054906101000a900460ff1615610c2d576040517f08c379a0000000000000000000000000000000000000000000000000000000008152600401610c2490612a07565b60405180910390fd5b828160050160026101000a81548160ff021916908360ff16021790555060018160050160016101000a81548160ff0219169083151502179055507f739f283563fb51ab6b89ee95d937b2e63a6cfcb83c385dbebb629f9d97bd43e68484604051610c98929190612a27565b60405180910390a150505050565b80600081118015610cb957506001548111155b610cf8576040517f08c379a0000000000000000000000000000000000000000000000000000000008152600401610cef906123bf565b60405180910390fd5b600060026000848152602001908152602001600020905060006003600085815260200190815260200160002060003373ffffffffffffffffffffffffffffffffffffffff1673ffffffffffffffffffffffffffffffffffffffff16815260200190815260200160002090508160050160019054906101000a900460ff16610db4576040517f08c379a0000000000000000000000000000000000000000000000000000000008152600401610dab90612a9c565b60405180910390fd5b8060020160009054906101000a900460ff1615610e06576040517f08c379a0000000000000000000000000000000000000000000000000000000008152600401610dfd90612b08565b60405180910390fd5b8160050160029054906101000a900460ff1660ff168160000160009054906101000a900460ff1660ff1614610e70576040517f08c379a0000000000000000000000000000000000000000000000000000000008152600401610e6790612b9a565b60405180910390fd5b60008260070160018360000160009054906101000a900460ff16610e94919061263e565b60ff1660038110610ea857610ea7612673565b5b0154905060006064828460010154610ec09190612bba565b610eca9190612c2b565b905060006064600383610edd9190612bba565b610ee79190612c2b565b905060008183610ef7919061260a565b8560010154610f0691906126a2565b905060018560020160006101000a81548160ff02191690831515021790555060003373ffffffffffffffffffffffffffffffffffffffff1682604051610f4b9061283c565b60006040518083038185875af1925050503d8060008114610f88576040519150601f19603f3d011682016040523d82523d6000602084013e610f8d565b606091505b5050905080610fd1576040517f08c379a0000000000000000000000000000000000000000000000000000000008152600401610fc89061289d565b60405180910390fd5b7f5380cf6fe903b40c6d5a9e0dfbca2f3a423f0a21520b4d5947ed5169bdba946d89338460405161100493929190612c5c565b60405180910390a1505050505050505050565b60008054906101000a900473ffffffffffffffffffffffffffffffffffffffff1673ffffffffffffffffffffffffffffffffffffffff163373ffffffffffffffffffffffffffffffffffffffff16146110a5576040517f08c379a000000000000000000000000000000000000000000000000000000000815260040161109c9061277f565b60405180910390fd5b4281116110e7576040517f08c379a00000000000000000000000000000000000000000000000000000000081526004016110de90612cdf565b60405180910390fd5b600160008154809291906110fa90612cff565b9190505550604051806101000160405280838152602001600081526020016040518060600160405280600081526020016000815260200160008152508152602001600015158152602001600015158152602001600060ff16815260200182815260200160405180606001604052806000815260200160008152602001600081525081525060026000600154815260200190815260200160002060008201518160000190816111a89190612f53565b50602082015181600101556040820151816002019060036111ca929190611ccd565b5060608201518160050160006101000a81548160ff02191690831515021790555060808201518160050160016101000a81548160ff02191690831515021790555060a08201518160050160026101000a81548160ff021916908360ff16021790555060c0820151816006015560e08201518160070190600361124d929190611ccd565b509050507f2d1e9ad45dbe8e898e0374deebf2a661b2ae7c1855d2a29507d584c35d287c75600154838360405161128693929190613025565b60405180910390a15050565b60008054906101000a900473ffffffffffffffffffffffffffffffffffffffff1681565b6112be611d0d565b6002600083815260200190815260200160002060070160038060200260405190810160405280929190826003801561130b576020028201915b8154815260200190600101908083116112f7575b50505050509050919050565b600260205280600052604060002060009150905080600001805461133a90612d76565b80601f016020809104026020016040519081016040528092919081815260200182805461136690612d76565b80156113b35780601f10611388576101008083540402835291602001916113b3565b820191906000526020600020905b81548152906001019060200180831161139657829003601f168201915b5050505050908060010154908060050160009054906101000a900460ff16908060050160019054906101000a900460ff16908060050160029054906101000a900460ff16908060060154905086565b60008054906101000a900473ffffffffffffffffffffffffffffffffffffffff1673ffffffffffffffffffffffffffffffffffffffff163373ffffffffffffffffffffffffffffffffffffffff1614611490576040517f08c379a00000000000000000000000000000000000000000000000000000000081526004016114879061277f565b60405180910390fd5b806000811180156114a357506001548111155b6114e2576040517f08c379a00000000000000000000000000000000000000000000000000000000081526004016114d9906123bf565b60405180910390fd5b60006002600084815260200190815260200160002090508060060154421015611540576040517f08c379a0000000000000000000000000000000000000000000000000000000008152600401611537906130af565b60405180910390fd5b8060050160009054906101000a900460ff1615611592576040517f08c379a00000000000000000000000000000000000000000000000000000000081526004016115899061311b565b60405180910390fd5b60018160050160006101000a81548160ff02191690831515021790555060008160010154905060005b60038160ff161015611640576000836002018260ff16600381106115e2576115e1612673565b5b015490506000811461160b57806064846115fc9190612bba565b6116069190612c2b565b61160e565b60005b846007018360ff166003811061162757611626612673565b5b01819055505080806116389061313b565b9150506115bb565b507f739dc946f0a35d22d4e2d61e0f800b8606d67f74513e3097bc4aee150feab4a58483600701604051611675929190613228565b60405180910390a150505050565b60008060008060006003600088815260200190815260200160002060008773ffffffffffffffffffffffffffffffffffffffff1673ffffffffffffffffffffffffffffffffffffffff16815260200190815260200160002090508060000160009054906101000a900460ff1681600101548260020160009054906101000a900460ff168360020160019054906101000a900460ff1694509450945094505092959194509250565b8060008111801561173d57506001548111155b61177c576040517f08c379a0000000000000000000000000000000000000000000000000000000008152600401611773906123bf565b60405180910390fd5b600060026000848152602001908152602001600020905060006003600085815260200190815260200160002060003373ffffffffffffffffffffffffffffffffffffffff1673ffffffffffffffffffffffffffffffffffffffff16815260200190815260200160002090508160050160009054906101000a900460ff1615611839576040517f08c379a00000000000000000000000000000000000000000000000000000000081526004016118309061311b565b60405180910390fd5b62015180826006015461184c91906126a2565b421161188d576040517f08c379a00000000000000000000000000000000000000000000000000000000081526004016118849061329d565b60405180910390fd5b60008160010154116118d4576040517f08c379a00000000000000000000000000000000000000000000000000000000081526004016118cb90613309565b60405180910390fd5b8060020160019054906101000a900460ff1615611926576040517f08c379a000000000000000000000000000000000000000000000000000000000815260040161191d90613375565b60405180910390fd5b8060020160009054906101000a900460ff1615611978576040517f08c379a000000000000000000000000000000000000000000000000000000000815260040161196f906133e1565b60405180910390fd5b60008160010154905060018260020160016101000a81548160ff021916908315150217905550808360010160008282546119b2919061260a565b92505081905550808360020160018460000160009054906101000a900460ff166119dc919061263e565b60ff16600381106119f0576119ef612673565b5b016000828254611a00919061260a565b9250508190555060003373ffffffffffffffffffffffffffffffffffffffff1682604051611a2d9061283c565b60006040518083038185875af1925050503d8060008114611a6a576040519150601f19603f3d011682016040523d82523d6000602084013e611a6f565b606091505b5050905080611ab3576040517f08c379a0000000000000000000000000000000000000000000000000000000008152600401611aaa9061344d565b60405180910390fd5b505050505050565b600381565b60606000611acc611d0d565b600080600080611ada611d0d565b6000600260008b81526020019081526020016000209050806000018160010154826002018360050160009054906101000a900460ff168460050160019054906101000a900460ff168560050160029054906101000a900460ff16866006015487600701878054611b4990612d76565b80601f0160208091040260200160405190810160405280929190818152602001828054611b7590612d76565b8015611bc25780601f10611b9757610100808354040283529160200191611bc2565b820191906000526020600020905b815481529060010190602001808311611ba557829003601f168201915b5050505050975085600380602002604051908101604052809291908260038015611c01576020028201915b815481526020019060010190808311611bed575b5050505050955080600380602002604051908101604052809291908260038015611c40576020028201915b815481526020019060010190808311611c2c575b505050505090509850985098509850985098509850985050919395975091939597565b60015481565b6003602052816000526040600020602052806000526040600020600091509150508060000160009054906101000a900460ff16908060010154908060020160009054906101000a900460ff16908060020160019054906101000a900460ff16905084565b8260038101928215611cfc579160200282015b82811115611cfb578251825591602001919060010190611ce0565b5b509050611d099190611d2f565b5090565b6040518060600160405280600390602082028036833780820191505090505090565b5b80821115611d48576000816000905550600101611d30565b5090565b6000604051905090565b600080fd5b600080fd5b6000819050919050565b611d7381611d60565b8114611d7e57600080fd5b50565b600081359050611d9081611d6a565b92915050565b600060ff82169050919050565b611dac81611d96565b8114611db757600080fd5b50565b600081359050611dc981611da3565b92915050565b60008060408385031215611de657611de5611d56565b5b6000611df485828601611d81565b9250506020611e0585828601611dba565b9150509250929050565b600060208284031215611e2557611e24611d56565b5b6000611e3384828501611d81565b91505092915050565b600080fd5b600080fd5b6000601f19601f8301169050919050565b7f4e487b7100000000000000000000000000000000000000000000000000000000600052604160045260246000fd5b611e8f82611e46565b810181811067ffffffffffffffff82111715611eae57611ead611e57565b5b80604052505050565b6000611ec1611d4c565b9050611ecd8282611e86565b919050565b600067ffffffffffffffff821115611eed57611eec611e57565b5b611ef682611e46565b9050602081019050919050565b82818337600083830152505050565b6000611f25611f2084611ed2565b611eb7565b905082815260208101848484011115611f4157611f40611e41565b5b611f4c848285611f03565b509392505050565b600082601f830112611f6957611f68611e3c565b5b8135611f79848260208601611f12565b91505092915050565b60008060408385031215611f9957611f98611d56565b5b600083013567ffffffffffffffff811115611fb757611fb6611d5b565b5b611fc385828601611f54565b9250506020611fd485828601611d81565b9150509250929050565b600073ffffffffffffffffffffffffffffffffffffffff82169050919050565b600061200982611fde565b9050919050565b61201981611ffe565b82525050565b60006020820190506120346000830184612010565b92915050565b600060039050919050565b600081905092915050565b6000819050919050565b61206381611d60565b82525050565b6000612075838361205a565b60208301905092915050565b6000602082019050919050565b6120978161203a565b6120a18184612045565b92506120ac82612050565b8060005b838110156120dd5781516120c48782612069565b96506120cf83612081565b9250506001810190506120b0565b505050505050565b60006060820190506120fa600083018461208e565b92915050565b600081519050919050565b600082825260208201905092915050565b60005b8381101561213a57808201518184015260208101905061211f565b60008484015250505050565b600061215182612100565b61215b818561210b565b935061216b81856020860161211c565b61217481611e46565b840191505092915050565b61218881611d60565b82525050565b60008115159050919050565b6121a38161218e565b82525050565b6121b281611d96565b82525050565b600060c08201905081810360008301526121d28189612146565b90506121e1602083018861217f565b6121ee604083018761219a565b6121fb606083018661219a565b61220860808301856121a9565b61221560a083018461217f565b979650505050505050565b61222981611ffe565b811461223457600080fd5b50565b60008135905061224681612220565b92915050565b6000806040838503121561226357612262611d56565b5b600061227185828601611d81565b925050602061228285828601612237565b9150509250929050565b60006080820190506122a160008301876121a9565b6122ae602083018661217f565b6122bb604083018561219a565b6122c8606083018461219a565b95945050505050565b60006020820190506122e6600083018461217f565b92915050565b6000610180820190508181036000830152612307818b612146565b9050612316602083018a61217f565b612323604083018961208e565b61233060a083018861219a565b61233d60c083018761219a565b61234a60e08301866121a9565b61235861010083018561217f565b61236661012083018461208e565b9998505050505050505050565b7f4d61726b657420646f6573206e6f742065786973740000000000000000000000600082015250565b60006123a960158361210b565b91506123b482612373565b602082019050919050565b600060208201905081810360008301526123d88161239c565b9050919050565b7f42657474696e6720697320636c6f73656420666f722074686973206d61726b6560008201527f7400000000000000000000000000000000000000000000000000000000000000602082015250565b600061243b60218361210b565b9150612446826123df565b604082019050919050565b6000602082019050818103600083015261246a8161242e565b9050919050565b7f4d617463682068617320616c7265616479207374617274656400000000000000600082015250565b60006124a760198361210b565b91506124b282612471565b602082019050919050565b600060208201905081810360008301526124d68161249a565b9050919050565b7f4f7574636f6d65206d75737420626520312c20322c206f722033000000000000600082015250565b6000612513601a8361210b565b915061251e826124dd565b602082019050919050565b6000602082019050818103600083015261254281612506565b9050919050565b7f42657420616d6f756e74206d7573742062652067726561746572207468616e2060008201527f3000000000000000000000000000000000000000000000000000000000000000602082015250565b60006125a560218361210b565b91506125b082612549565b604082019050919050565b600060208201905081810360008301526125d481612598565b9050919050565b7f4e487b7100000000000000000000000000000000000000000000000000000000600052601160045260246000fd5b600061261582611d60565b915061262083611d60565b9250828203905081811115612638576126376125db565b5b92915050565b600061264982611d96565b915061265483611d96565b9250828203905060ff81111561266d5761266c6125db565b5b92915050565b7f4e487b7100000000000000000000000000000000000000000000000000000000600052603260045260246000fd5b60006126ad82611d60565b91506126b883611d60565b92508282019050808211156126d0576126cf6125db565b5b92915050565b60006060820190506126eb600083018661217f565b6126f860208301856121a9565b612705604083018461217f565b949350505050565b7f4f6e6c79206f776e65722063616e2063616c6c20746869732066756e6374696f60008201527f6e00000000000000000000000000000000000000000000000000000000000000602082015250565b600061276960218361210b565b91506127748261270d565b604082019050919050565b600060208201905081810360008301526127988161275c565b9050919050565b7f4e6f206665657320617661696c61626c6520746f207769746864726177000000600082015250565b60006127d5601d8361210b565b91506127e08261279f565b602082019050919050565b60006020820190508181036000830152612804816127c8565b9050919050565b600081905092915050565b50565b600061282660008361280b565b915061283182612816565b600082019050919050565b600061284782612819565b9150819050919050565b7f5472616e73666572206661696c65640000000000000000000000000000000000600082015250565b6000612887600f8361210b565b915061289282612851565b602082019050919050565b600060208201905081810360008301526128b68161287a565b9050919050565b7f57696e6e696e67206f7574636f6d65206d75737420626520312c20322c206f7260008201527f2033000000000000000000000000000000000000000000000000000000000000602082015250565b600061291960228361210b565b9150612924826128bd565b604082019050919050565b600060208201905081810360008301526129488161290c565b9050919050565b7f42657474696e67206973207374696c6c206f70656e0000000000000000000000600082015250565b600061298560158361210b565b91506129908261294f565b602082019050919050565b600060208201905081810360008301526129b481612978565b9050919050565b7f4d61726b657420697320616c7265616479207265736f6c766564000000000000600082015250565b60006129f1601a8361210b565b91506129fc826129bb565b602082019050919050565b60006020820190508181036000830152612a20816129e4565b9050919050565b6000604082019050612a3c600083018561217f565b612a4960208301846121a9565b9392505050565b7f4d61726b6574206973206e6f74207265736f6c76656420796574000000000000600082015250565b6000612a86601a8361210b565b9150612a9182612a50565b602082019050919050565b60006020820190508181036000830152612ab581612a79565b9050919050565b7f57696e6e696e677320616c726561647920636c61696d65640000000000000000600082015250565b6000612af260188361210b565b9150612afd82612abc565b602082019050919050565b60006020820190508181036000830152612b2181612ae5565b9050919050565b7f426574206f7574636f6d6520646f6573206e6f74206d617463682077696e6e6960008201527f6e67206f7574636f6d6500000000000000000000000000000000000000000000602082015250565b6000612b84602a8361210b565b9150612b8f82612b28565b604082019050919050565b60006020820190508181036000830152612bb381612b77565b9050919050565b6000612bc582611d60565b9150612bd083611d60565b9250828202612bde81611d60565b91508282048414831517612bf557612bf46125db565b5b5092915050565b7f4e487b7100000000000000000000000000000000000000000000000000000000600052601260045260246000fd5b6000612c3682611d60565b9150612c4183611d60565b925082612c5157612c50612bfc565b5b828204905092915050565b6000606082019050612c71600083018661217f565b612c7e6020830185612010565b612c8b604083018461217f565b949350505050565b7f53746172742074696d65206d75737420626520696e2074686520667574757265600082015250565b6000612cc960208361210b565b9150612cd482612c93565b602082019050919050565b60006020820190508181036000830152612cf881612cbc565b9050919050565b6000612d0a82611d60565b91507fffffffffffffffffffffffffffffffffffffffffffffffffffffffffffffffff8203612d3c57612d3b6125db565b5b600182019050919050565b7f4e487b7100000000000000000000000000000000000000000000000000000000600052602260045260246000fd5b60006002820490506001821680612d8e57607f821691505b602082108103612da157612da0612d47565b5b50919050565b60008190508160005260206000209050919050565b60006020601f8301049050919050565b600082821b905092915050565b600060088302612e097fffffffffffffffffffffffffffffffffffffffffffffffffffffffffffffffff82612dcc565b612e138683612dcc565b95508019841693508086168417925050509392505050565b6000819050919050565b6000612e50612e4b612e4684611d60565b612e2b565b611d60565b9050919050565b6000819050919050565b612e6a83612e35565b612e7e612e7682612e57565b848454612dd9565b825550505050565b600090565b612e93612e86565b612e9e818484612e61565b505050565b5b81811015612ec257612eb7600082612e8b565b600181019050612ea4565b5050565b601f821115612f0757612ed881612da7565b612ee184612dbc565b81016020851015612ef0578190505b612f04612efc85612dbc565b830182612ea3565b50505b505050565b600082821c905092915050565b6000612f2a60001984600802612f0c565b1980831691505092915050565b6000612f438383612f19565b9150826002028217905092915050565b612f5c82612100565b67ffffffffffffffff811115612f7557612f74611e57565b5b612f7f8254612d76565b612f8a828285612ec6565b600060209050601f831160018114612fbd5760008415612fab578287015190505b612fb58582612f37565b86555061301d565b601f198416612fcb86612da7565b60005b82811015612ff357848901518255600182019150602085019450602081019050612fce565b86831015613010578489015161300c601f891682612f19565b8355505b6001600288020188555050505b505050505050565b600060608201905061303a600083018661217f565b818103602083015261304c8185612146565b905061305b604083018461217f565b949350505050565b7f4d6174636820686173206e6f7420737461727465642079657400000000000000600082015250565b600061309960198361210b565b91506130a482613063565b602082019050919050565b600060208201905081810360008301526130c88161308c565b9050919050565b7f42657474696e6720697320616c726561647920636c6f73656400000000000000600082015250565b600061310560198361210b565b9150613110826130cf565b602082019050919050565b60006020820190508181036000830152613134816130f8565b9050919050565b600061314682611d96565b915060ff8203613159576131586125db565b5b600182019050919050565b600060039050919050565b6000819050919050565b60008160001c9050919050565b6000819050919050565b60006131a361319e83613179565b613186565b9050919050565b60006131b68254613190565b9050919050565b6000600182019050919050565b6131d381613164565b6131dd8184612045565b92506131e88261316f565b8060005b83811015613220576131fd826131aa565b6132078782612069565b9650613212836131bd565b9250506001810190506131ec565b505050505050565b600060808201905061323d600083018561217f565b61324a60208301846131ca565b9392505050565b7f526566756e64206e6f7420617661696c61626c65207965740000000000000000600082015250565b600061328760188361210b565b915061329282613251565b602082019050919050565b600060208201905081810360008301526132b68161327a565b9050919050565b7f4e6f2062657420746f20726566756e6400000000000000000000000000000000600082015250565b60006132f360108361210b565b91506132fe826132bd565b602082019050919050565b60006020820190508181036000830152613322816132e6565b9050919050565b7f416c726561647920726566756e64656400000000000000000000000000000000600082015250565b600061335f60108361210b565b915061336a82613329565b602082019050919050565b6000602082019050818103600083015261338e81613352565b9050919050565b7f416c726561647920636c61696d65640000000000000000000000000000000000600082015250565b60006133cb600f8361210b565b91506133d682613395565b602082019050919050565b600060208201905081810360008301526133fa816133be565b9050919050565b7f526566756e64207472616e73666572206661696c656400000000000000000000600082015250565b600061343760168361210b565b915061344282613401565b602082019050919050565b600060208201905081810360008301526134668161342a565b905091905056fea2646970667358221220d4238706f2fc82ea7c1acb9d367115df4bc927d81642164c35d69a893a5aa28d64736f6c63430008140033",
  "linkReferences": {},
  "deployedLinkReferences": {}
}