{
  "_format": "hh-sol-artifact-1",
  "contractName": "BetZilla",
  "sourceName": "contracts/BetZilla.sol",
  "abi": [
    {
      "inputs": [],
      "stateMutability": "nonpayable",
      "type": "constructor"
    },
    {
      "anonymous": false,
      "inputs": [
        {
          "indexed": false,
          "internalType": "uint256",
          "name": "marketId",
          "type": "uint256"
        },
        {
          "indexed": true,
          "internalType": "address",
          "name": "user",
          "type": "address"
        },
        {
          "indexed": false,
          "internalType": "enum BetZilla.Outcome",
          "name": "outcome",
          "type": "uint8"
        },
        {
          "indexed": false,
          "internalType": "uint256",
          "name": "amount",
          "type": "uint256"
        }
      ],
      "name": "BetPlaced",
      "type": "event"
    },
    {
      "anonymous": false,
      "inputs": [
        {
          "indexed": false,
          "internalType": "uint256",
          "name": "marketId",
          "type": "uint256"
        },
        {
          "indexed": false,
          "internalType": "uint256[3]",
          "name": "finalOdds",
          "type": "uint256[3]"
        }
      ],
      "name": "BettingClosed",
      "type": "event"
    },
    {
      "anonymous": false,
      "inputs": [
        {
          "indexed": false,
          "internalType": "uint256",
          "name": "marketId",
          "type": "uint256"
        },
        {
          "indexed": false,
          "internalType": "string",
          "name": "reason",
          "type": "string"
        }
      ],
      "name": "MarketAutoRefunded",
      "type": "event"
    },
    {
      "anonymous": false,
      "inputs": [
        {
          "indexed": false,
          "internalType": "uint256",
          "name": "marketId",
          "type": "uint256"
        }
      ],
      "name": "MarketCancelled",
      "type": "event"
    },
    {
      "anonymous": false,
      "inputs": [
        {
          "indexed": false,
          "internalType": "uint256",
          "name": "marketId",
          "type": "uint256"
        },
        {
          "indexed": false,
          "internalType": "string",
          "name": "description",
          "type": "string"
        },
        {
          "indexed": false,
          "internalType": "uint256",
          "name": "startTime",
          "type": "uint256"
        }
      ],
      "name": "MarketCreated",
      "type": "event"
    },
    {
      "anonymous": false,
      "inputs": [
        {
          "indexed": false,
          "internalType": "uint256",
          "name": "marketId",
          "type": "uint256"
        },
        {
          "indexed": false,
          "internalType": "enum BetZilla.Outcome",
          "name": "winningOutcome",
          "type": "uint8"
        }
      ],
      "name": "MarketResolved",
      "type": "event"
    },
    {
      "anonymous": false,
      "inputs": [
        {
          "indexed": false,
          "internalType": "uint256",
          "name": "marketId",
          "type": "uint256"
        },
        {
          "indexed": false,
          "internalType": "address",
          "name": "user",
          "type": "address"
        },
        {
          "indexed": false,
          "internalType": "uint256",
          "name": "amount",
          "type": "uint256"
        }
      ],
      "name": "RefundClaimed",
      "type": "event"
    },
    {
      "anonymous": false,
      "inputs": [
        {
          "indexed": false,
          "internalType": "uint256",
          "name": "marketId",
          "type": "uint256"
        },
        {
          "indexed": false,
          "internalType": "address",
          "name": "user",
          "type": "address"
        },
        {
          "indexed": false,
          "internalType": "uint256",
          "name": "netPayout",
          "type": "uint256"
        },
        {
          "indexed": false,
          "internalType": "uint256",
          "name": "feeAmount",
          "type": "uint256"
        }
      ],
      "name": "WinningsClaimed",
      "type": "event"
    },
    {
      "stateMutability": "payable",
      "type": "fallback"
    },
    {
      "inputs": [],
      "name": "EARLY_FEE_PERCENT",
      "outputs": [
        {
          "internalType": "uint256",
          "name": "",
          "type": "uint256"
        }
      ],
      "stateMutability": "view",
      "type": "function"
    },
    {
      "inputs": [],
      "name": "LATE_FEE_PERCENT",
      "outputs": [
        {
          "internalType": "uint256",
          "name": "",
          "type": "uint256"
        }
      ],
      "stateMutability": "view",
      "type": "function"
    },
    {
      "inputs": [],
      "name": "MIN_BET_AMOUNT",
      "outputs": [
        {
          "internalType": "uint256",
          "name": "",
          "type": "uint256"
        }
      ],
      "stateMutability": "view",
      "type": "function"
    },
    {
      "inputs": [],
      "name": "MIN_ODDS",
      "outputs": [
        {
          "internalType": "uint256",
          "name": "",
          "type": "uint256"
        }
      ],
      "stateMutability": "view",
      "type": "function"
    },
    {
      "inputs": [],
      "name": "MIN_POOL_SIZE",
      "outputs": [
        {
          "internalType": "uint256",
          "name": "",
          "type": "uint256"
        }
      ],
      "stateMutability": "view",
      "type": "function"
    },
    {
      "inputs": [],
      "name": "accumulatedFees",
      "outputs": [
        {
          "internalType": "uint256",
          "name": "",
          "type": "uint256"
        }
      ],
      "stateMutability": "view",
      "type": "function"
    },
    {
      "inputs": [
        {
          "internalType": "uint256",
          "name": "",
          "type": "uint256"
        },
        {
          "internalType": "address",
          "name": "",
          "type": "address"
        }
      ],
      "name": "bets",
      "outputs": [
        {
          "internalType": "enum BetZilla.Outcome",
          "name": "outcome",
          "type": "uint8"
        },
        {
          "internalType": "uint256",
          "name": "amount",
          "type": "uint256"
        },
        {
          "internalType": "bool",
          "name": "claimed",
          "type": "bool"
        },
        {
          "internalType": "bool",
          "name": "refunded",
          "type": "bool"
        },
        {
          "internalType": "uint256",
          "name": "placedAt",
          "type": "uint256"
        }
      ],
      "stateMutability": "view",
      "type": "function"
    },
    {
      "inputs": [
        {
          "internalType": "uint256",
          "name": "marketId",
          "type": "uint256"
        }
      ],
      "name": "cancelMarket",
      "outputs": [],
      "stateMutability": "nonpayable",
      "type": "function"
    },
    {
      "inputs": [
        {
          "internalType": "uint256",
          "name": "marketId",
          "type": "uint256"
        }
      ],
      "name": "claimRefund",
      "outputs": [],
      "stateMutability": "nonpayable",
      "type": "function"
    },
    {
      "inputs": [
        {
          "internalType": "uint256",
          "name": "marketId",
          "type": "uint256"
        }
      ],
      "name": "claimWinnings",
      "outputs": [],
      "stateMutability": "nonpayable",
      "type": "function"
    },
    {
      "inputs": [
        {
          "internalType": "uint256",
          "name": "marketId",
          "type": "uint256"
        }
      ],
      "name": "closeBetting",
      "outputs": [],
      "stateMutability": "nonpayable",
      "type": "function"
    },
    {
      "inputs": [
        {
          "internalType": "string",
          "name": "description",
          "type": "string"
        },
        {
          "internalType": "uint256",
          "name": "startTime",
          "type": "uint256"
        }
      ],
      "name": "createMarket",
      "outputs": [],
      "stateMutability": "nonpayable",
      "type": "function"
    },
    {
      "inputs": [],
      "name": "emergencyWithdraw",
      "outputs": [],
      "stateMutability": "nonpayable",
      "type": "function"
    },
    {
      "inputs": [
        {
          "internalType": "uint256",
          "name": "marketId",
          "type": "uint256"
        }
      ],
      "name": "getBettingPhase",
      "outputs": [
        {
          "internalType": "bool",
          "name": "isEarlyPhase",
          "type": "bool"
        },
        {
          "internalType": "bool",
          "name": "isLatePhase",
          "type": "bool"
        },
        {
          "internalType": "uint256",
          "name": "currentFeePercent",
          "type": "uint256"
        },
        {
          "internalType": "uint256",
          "name": "hoursUntilMatch",
          "type": "uint256"
        }
      ],
      "stateMutability": "view",
      "type": "function"
    },
    {
      "inputs": [
        {
          "internalType": "uint256",
          "name": "marketId",
          "type": "uint256"
        }
      ],
      "name": "getCurrentFee",
      "outputs": [
        {
          "internalType": "uint256",
          "name": "",
          "type": "uint256"
        }
      ],
      "stateMutability": "view",
      "type": "function"
    },
    {
      "inputs": [
        {
          "internalType": "uint256",
          "name": "marketId",
          "type": "uint256"
        }
      ],
      "name": "getEstimatedOdds",
      "outputs": [
        {
          "internalType": "uint256[3]",
          "name": "",
          "type": "uint256[3]"
        }
      ],
      "stateMutability": "view",
      "type": "function"
    },
    {
      "inputs": [
        {
          "internalType": "uint256",
          "name": "marketId",
          "type": "uint256"
        }
      ],
      "name": "getMarket",
      "outputs": [
        {
          "internalType": "string",
          "name": "description",
          "type": "string"
        },
        {
          "internalType": "uint256",
          "name": "totalAmount",
          "type": "uint256"
        },
        {
          "internalType": "uint256[3]",
          "name": "outcomeAmounts",
          "type": "uint256[3]"
        },
        {
          "internalType": "bool",
          "name": "isClosed",
          "type": "bool"
        },
        {
          "internalType": "bool",
          "name": "isResolved",
          "type": "bool"
        },
        {
          "internalType": "bool",
          "name": "isCancelled",
          "type": "bool"
        },
        {
          "internalType": "enum BetZilla.Outcome",
          "name": "winningOutcome",
          "type": "uint8"
        },
        {
          "internalType": "uint256[3]",
          "name": "finalOdds",
          "type": "uint256[3]"
        }
      ],
      "stateMutability": "view",
      "type": "function"
    },
    {
      "inputs": [
        {
          "internalType": "uint256",
          "name": "marketId",
          "type": "uint256"
        }
      ],
      "name": "getMarketStatus",
      "outputs": [
        {
          "internalType": "bool",
          "name": "isActive",
          "type": "bool"
        },
        {
          "internalType": "bool",
          "name": "hasValidActivity",
          "type": "bool"
        },
        {
          "internalType": "string",
          "name": "statusMessage",
          "type": "string"
        },
        {
          "internalType": "uint256",
          "name": "totalPool",
          "type": "uint256"
        },
        {
          "internalType": "uint8",
          "name": "activeOutcomes",
          "type": "uint8"
        }
      ],
      "stateMutability": "view",
      "type": "function"
    },
    {
      "inputs": [
        {
          "internalType": "uint256",
          "name": "marketId",
          "type": "uint256"
        },
        {
          "internalType": "address",
          "name": "user",
          "type": "address"
        }
      ],
      "name": "getUserBet",
      "outputs": [
        {
          "internalType": "enum BetZilla.Outcome",
          "name": "outcome",
          "type": "uint8"
        },
        {
          "internalType": "uint256",
          "name": "amount",
          "type": "uint256"
        },
        {
          "internalType": "bool",
          "name": "claimed",
          "type": "bool"
        }
      ],
      "stateMutability": "view",
      "type": "function"
    },
    {
      "inputs": [
        {
          "internalType": "uint256",
          "name": "marketId",
          "type": "uint256"
        },
        {
          "internalType": "address",
          "name": "user",
          "type": "address"
        }
      ],
      "name": "getUserFee",
      "outputs": [
        {
          "internalType": "uint256",
          "name": "",
          "type": "uint256"
        }
      ],
      "stateMutability": "view",
      "type": "function"
    },
    {
      "inputs": [
        {
          "internalType": "address",
          "name": "user",
          "type": "address"
        }
      ],
      "name": "getUserMarkets",
      "outputs": [
        {
          "internalType": "uint256[]",
          "name": "",
          "type": "uint256[]"
        }
      ],
      "stateMutability": "view",
      "type": "function"
    },
    {
      "inputs": [],
      "name": "marketCount",
      "outputs": [
        {
          "internalType": "uint256",
          "name": "",
          "type": "uint256"
        }
      ],
      "stateMutability": "view",
      "type": "function"
    },
    {
      "inputs": [
        {
          "internalType": "uint256",
          "name": "",
          "type": "uint256"
        }
      ],
      "name": "markets",
      "outputs": [
        {
          "internalType": "string",
          "name": "description",
          "type": "string"
        },
        {
          "internalType": "uint256",
          "name": "totalAmount",
          "type": "uint256"
        },
        {
          "internalType": "bool",
          "name": "isClosed",
          "type": "bool"
        },
        {
          "internalType": "bool",
          "name": "isResolved",
          "type": "bool"
        },
        {
          "internalType": "bool",
          "name": "isCancelled",
          "type": "bool"
        },
        {
          "internalType": "enum BetZilla.Outcome",
          "name": "winningOutcome",
          "type": "uint8"
        },
        {
          "internalType": "uint256",
          "name": "startTime",
          "type": "uint256"
        }
      ],
      "stateMutability": "view",
      "type": "function"
    },
    {
      "inputs": [],
      "name": "owner",
      "outputs": [
        {
          "internalType": "address",
          "name": "",
          "type": "address"
        }
      ],
      "stateMutability": "view",
      "type": "function"
    },
    {
      "inputs": [
        {
          "internalType": "uint256",
          "name": "marketId",
          "type": "uint256"
        },
        {
          "internalType": "enum BetZilla.Outcome",
          "name": "outcome",
          "type": "uint8"
        }
      ],
      "name": "placeBet",
      "outputs": [],
      "stateMutability": "payable",
      "type": "function"
    },
    {
      "inputs": [
        {
          "internalType": "uint256",
          "name": "marketId",
          "type": "uint256"
        },
        {
          "internalType": "address",
          "name": "user",
          "type": "address"
        }
      ],
      "name": "previewWinnings",
      "outputs": [
        {
          "internalType": "uint256",
          "name": "grossPayout",
          "type": "uint256"
        },
        {
          "internalType": "uint256",
          "name": "feeAmount",
          "type": "uint256"
        },
        {
          "internalType": "uint256",
          "name": "netPayout",
          "type": "uint256"
        },
        {
          "internalType": "uint256",
          "name": "feePercent",
          "type": "uint256"
        }
      ],
      "stateMutability": "view",
      "type": "function"
    },
    {
      "inputs": [
        {
          "internalType": "uint256",
          "name": "marketId",
          "type": "uint256"
        },
        {
          "internalType": "enum BetZilla.Outcome",
          "name": "outcome",
          "type": "uint8"
        }
      ],
      "name": "setResult",
      "outputs": [],
      "stateMutability": "nonpayable",
      "type": "function"
    },
    {
      "inputs": [
        {
          "internalType": "address",
          "name": "",
          "type": "address"
        },
        {
          "internalType": "uint256",
          "name": "",
          "type": "uint256"
        }
      ],
      "name": "userMarketIds",
      "outputs": [
        {
          "internalType": "uint256",
          "name": "",
          "type": "uint256"
        }
      ],
      "stateMutability": "view",
      "type": "function"
    },
    {
      "inputs": [],
      "name": "withdrawFees",
      "outputs": [],
      "stateMutability": "nonpayable",
      "type": "function"
    },
    {
      "stateMutability": "payable",
      "type": "receive"
    }
  ],
  "bytecode": "0x608060405234801561001057600080fd5b50336000806101000a81548173ffffffffffffffffffffffffffffffffffffffff021916908373ffffffffffffffffffffffffffffffffffffffff16021790555061596580620000616000396000f3fe6080604052600436106101c65760003560e01c8063b1283e77116100f7578063e275913211610095578063ec97908211610064578063ec979082146106fb578063f0add5b714610726578063f24cd6a014610763578063f644b3bb146107a357610218565b8063e27591321461060e578063e469e1c214610639578063eb44fdd314610676578063ec5a711a146106ba57610218565b8063bf1b87f4116100d1578063bf1b87f414610550578063c03fb87c1461057b578063da4473d8146105ba578063db2e21bc146105f757610218565b8063b1283e77146104b9578063b4ad06a1146104fc578063bdffaf7b1461052557610218565b8063677bd9ff116101645780637c16cd9e1161013e5780637c16cd9e14610411578063883c84c11461043a5780638da5cb5b14610463578063ae07d0511461048e57610218565b8063677bd9ff1461036b5780636c28568114610394578063726c1ffb146103d157610218565b806356150a36116101a057806356150a36146102c3578063587f5ed7146102ec5780635b7baf64146103175780636475e3d31461034057610218565b806303edf914146102535780633d7957751461026f578063476343ee146102ac57610218565b3661021857678ac7230489e80000341115610216576040517f08c379a000000000000000000000000000000000000000000000000000000000815260040161020d906134f3565b60405180910390fd5b005b6040517f08c379a000000000000000000000000000000000000000000000000000000000815260040161024a906135ab565b60405180910390fd5b61026d6004803603810190610268919061363a565b6107e4565b005b34801561027b57600080fd5b506102966004803603810190610291919061367a565b610db1565b6040516102a39190613752565b60405180910390f35b3480156102b857600080fd5b506102c1610f91565b005b3480156102cf57600080fd5b506102ea60048036038101906102e5919061363a565b611144565b005b3480156102f857600080fd5b50610301611450565b60405161030e919061377c565b60405180910390f35b34801561032357600080fd5b5061033e6004803603810190610339919061367a565b611456565b005b34801561034c57600080fd5b50610355611712565b604051610362919061377c565b60405180910390f35b34801561037757600080fd5b50610392600480360381019061038d919061367a565b61171d565b005b3480156103a057600080fd5b506103bb60048036038101906103b6919061367a565b611c22565b6040516103c8919061377c565b60405180910390f35b3480156103dd57600080fd5b506103f860048036038101906103f391906137f5565b611cd2565b6040516104089493929190613835565b60405180910390f35b34801561041d57600080fd5b506104386004803603810190610433919061367a565b611f0a565b005b34801561044657600080fd5b50610461600480360381019061045c91906139c0565b6120c9565b005b34801561046f57600080fd5b506104786123d0565b6040516104859190613a2b565b60405180910390f35b34801561049a57600080fd5b506104a36123f4565b6040516104b0919061377c565b60405180910390f35b3480156104c557600080fd5b506104e060048036038101906104db919061367a565b6123f9565b6040516104f39796959493929190613b46565b60405180910390f35b34801561050857600080fd5b50610523600480360381019061051e919061367a565b6124f7565b005b34801561053157600080fd5b5061053a6128d8565b604051610547919061377c565b60405180910390f35b34801561055c57600080fd5b506105656128e3565b604051610572919061377c565b60405180910390f35b34801561058757600080fd5b506105a2600480360381019061059d91906137f5565b6128e8565b6040516105b193929190613bbc565b60405180910390f35b3480156105c657600080fd5b506105e160048036038101906105dc9190613bf3565b6129cb565b6040516105ee9190613cb7565b60405180910390f35b34801561060357600080fd5b5061060c612a62565b005b34801561061a57600080fd5b50610623612c17565b604051610630919061377c565b60405180910390f35b34801561064557600080fd5b50610660600480360381019061065b9190613cd9565b612c1c565b60405161066d919061377c565b60405180910390f35b34801561068257600080fd5b5061069d6004803603810190610698919061367a565b612c4d565b6040516106b1989796959493929190613d19565b60405180910390f35b3480156106c657600080fd5b506106e160048036038101906106dc919061367a565b612e50565b6040516106f2959493929190613dbc565b60405180910390f35b34801561070757600080fd5b50610710613054565b60405161071d919061377c565b60405180910390f35b34801561073257600080fd5b5061074d600480360381019061074891906137f5565b61305a565b60405161075a919061377c565b60405180910390f35b34801561076f57600080fd5b5061078a6004803603810190610785919061367a565b61317f565b60405161079a9493929190613e16565b60405180910390f35b3480156107af57600080fd5b506107ca60048036038101906107c591906137f5565b61326e565b6040516107db959493929190613e5b565b60405180910390f35b816000811180156107f757506001548111155b610836576040517f08c379a000000000000000000000000000000000000000000000000000000000815260040161082d90613efa565b60405180910390fd5b60006003600085815260200190815260200160002090508060050160009054906101000a900460ff161561089f576040517f08c379a000000000000000000000000000000000000000000000000000000000815260040161089690613f8c565b60405180910390fd5b8060050160029054906101000a900460ff16156108f1576040517f08c379a00000000000000000000000000000000000000000000000000000000081526004016108e89061401e565b60405180910390fd5b603c8160060154610902919061406d565b4210610943576040517f08c379a000000000000000000000000000000000000000000000000000000000815260040161093a90614113565b60405180910390fd5b6001600381111561095757610956613acf565b5b83600381111561096a57610969613acf565b5b1015801561099c575060038081111561098657610985613acf565b5b83600381111561099957610998613acf565b5b11155b6109db576040517f08c379a00000000000000000000000000000000000000000000000000000000081526004016109d2906141a5565b60405180910390fd5b66038d7ea4c68000341015610a25576040517f08c379a0000000000000000000000000000000000000000000000000000000008152600401610a1c90614237565b60405180910390fd5b34816001016000828254610a399190614257565b9250508190555034816002016001856003811115610a5a57610a59613acf565b5b610a64919061428b565b60ff1660038110610a7857610a776142c0565b5b016000828254610a889190614257565b925050819055506000806004600087815260200190815260200160002060003373ffffffffffffffffffffffffffffffffffffffff1673ffffffffffffffffffffffffffffffffffffffff168152602001908152602001600020600101541490508015610c70576040518060a00160405280856003811115610b0d57610b0c613acf565b5b8152602001348152602001600015158152602001600015158152602001428152506004600087815260200190815260200160002060003373ffffffffffffffffffffffffffffffffffffffff1673ffffffffffffffffffffffffffffffffffffffff16815260200190815260200160002060008201518160000160006101000a81548160ff02191690836003811115610ba957610ba8613acf565b5b02179055506020820151816001015560408201518160020160006101000a81548160ff02191690831515021790555060608201518160020160016101000a81548160ff02191690831515021790555060808201518160030155905050600560003373ffffffffffffffffffffffffffffffffffffffff1673ffffffffffffffffffffffffffffffffffffffff168152602001908152602001600020859080600181540180825580915050600190039060005260206000200160009091909190915055610d58565b60006004600087815260200190815260200160002060003373ffffffffffffffffffffffffffffffffffffffff1673ffffffffffffffffffffffffffffffffffffffff1681526020019081526020016000209050846003811115610cd757610cd6613acf565b5b8160000160009054906101000a900460ff166003811115610cfb57610cfa613acf565b5b14610d3b576040517f08c379a0000000000000000000000000000000000000000000000000000000008152600401610d3290614361565b60405180910390fd5b34816001016000828254610d4f9190614257565b92505081905550505b3373ffffffffffffffffffffffffffffffffffffffff167f4f1eed5e863a822b0f9eb960dfdab2cc5a99beec4b191f2a7a9c7e28e5a15524868634604051610da293929190614381565b60405180910390a25050505050565b610db96133f1565b81600081118015610dcc57506001548111155b610e0b576040517f08c379a0000000000000000000000000000000000000000000000000000000008152600401610e0290613efa565b60405180910390fd5b60006003600085815260200190815260200160002090508060050160009054906101000a900460ff1615610e815780600701600380602002604051908101604052809291908260038015610e74576020028201915b815481526020019060010190808311610e60575b5050505050925050610f8b565b6000816001015403610eb357604051806060016040528060c8815260200160c8815260200160c8815250925050610f8b565b610ebb6133f1565b60005b6003811015610f84576000836002018260038110610edf57610ede6142c0565b5b01541115610f52576000836002018260038110610eff57610efe6142c0565b5b015460648560010154610f1291906143b8565b610f1c9190614429565b90506065811015610f2e576065610f30565b805b838360038110610f4357610f426142c0565b5b60200201818152505050610f71565b6000828260038110610f6757610f666142c0565b5b6020020181815250505b8080610f7c9061445a565b915050610ebe565b5080935050505b50919050565b60008054906101000a900473ffffffffffffffffffffffffffffffffffffffff1673ffffffffffffffffffffffffffffffffffffffff163373ffffffffffffffffffffffffffffffffffffffff161461101f576040517f08c379a000000000000000000000000000000000000000000000000000000000815260040161101690614514565b60405180910390fd5b600060025411611064576040517f08c379a000000000000000000000000000000000000000000000000000000000815260040161105b906145a6565b60405180910390fd5b60006002549050600060028190555060008060009054906101000a900473ffffffffffffffffffffffffffffffffffffffff1673ffffffffffffffffffffffffffffffffffffffff16826040516110ba906145f7565b60006040518083038185875af1925050503d80600081146110f7576040519150601f19603f3d011682016040523d82523d6000602084013e6110fc565b606091505b5050905080611140576040517f08c379a00000000000000000000000000000000000000000000000000000000081526004016111379061467e565b60405180910390fd5b5050565b60008054906101000a900473ffffffffffffffffffffffffffffffffffffffff1673ffffffffffffffffffffffffffffffffffffffff163373ffffffffffffffffffffffffffffffffffffffff16146111d2576040517f08c379a00000000000000000000000000000000000000000000000000000000081526004016111c990614514565b60405180910390fd5b816000811180156111e557506001548111155b611224576040517f08c379a000000000000000000000000000000000000000000000000000000000815260040161121b90613efa565b60405180910390fd5b6001600381111561123857611237613acf565b5b82600381111561124b5761124a613acf565b5b1015801561127d575060038081111561126757611266613acf565b5b82600381111561127a57611279613acf565b5b11155b6112bc576040517f08c379a00000000000000000000000000000000000000000000000000000000081526004016112b390614710565b60405180910390fd5b60006003600085815260200190815260200160002090508060050160009054906101000a900460ff16611324576040517f08c379a000000000000000000000000000000000000000000000000000000000815260040161131b906147a2565b60405180910390fd5b8060050160019054906101000a900460ff1615611376576040517f08c379a000000000000000000000000000000000000000000000000000000000815260040161136d90614834565b60405180910390fd5b8060050160029054906101000a900460ff16156113c8576040517f08c379a00000000000000000000000000000000000000000000000000000000081526004016113bf906148c6565b60405180910390fd5b828160050160036101000a81548160ff021916908360038111156113ef576113ee613acf565b5b021790555060018160050160016101000a81548160ff0219169083151502179055507f739f283563fb51ab6b89ee95d937b2e63a6cfcb83c385dbebb629f9d97bd43e684846040516114429291906148e6565b60405180910390a150505050565b60025481565b8060008111801561146957506001548111155b6114a8576040517f08c379a000000000000000000000000000000000000000000000000000000000815260040161149f90613efa565b60405180910390fd5b600060036000848152602001908152602001600020905060006004600085815260200190815260200160002060003373ffffffffffffffffffffffffffffffffffffffff1673ffffffffffffffffffffffffffffffffffffffff16815260200190815260200160002090508160050160029054906101000a900460ff16611564576040517f08c379a000000000000000000000000000000000000000000000000000000000815260040161155b90614981565b60405180910390fd5b8060020160019054906101000a900460ff16156115b6576040517f08c379a00000000000000000000000000000000000000000000000000000000081526004016115ad90614a13565b60405180910390fd5b60008160010154116115fd576040517f08c379a00000000000000000000000000000000000000000000000000000000081526004016115f490614aa5565b60405180910390fd5b60008160010154905060018260020160016101000a81548160ff02191690831515021790555060003373ffffffffffffffffffffffffffffffffffffffff1682604051611649906145f7565b60006040518083038185875af1925050503d8060008114611686576040519150601f19603f3d011682016040523d82523d6000602084013e61168b565b606091505b50509050806116cf576040517f08c379a00000000000000000000000000000000000000000000000000000000081526004016116c690614b11565b60405180910390fd5b7ff3f402280ef0a7905e124aa621b65eaeb2725c343e8b36d398ed78c29daf285c86338460405161170293929190614b31565b60405180910390a1505050505050565b66038d7ea4c6800081565b8060008111801561173057506001548111155b61176f576040517f08c379a000000000000000000000000000000000000000000000000000000000815260040161176690613efa565b60405180910390fd5b600060036000848152602001908152602001600020905060006004600085815260200190815260200160002060003373ffffffffffffffffffffffffffffffffffffffff1673ffffffffffffffffffffffffffffffffffffffff16815260200190815260200160002090508160050160019054906101000a900460ff1661182b576040517f08c379a000000000000000000000000000000000000000000000000000000000815260040161182290614bda565b60405180910390fd5b8060020160009054906101000a900460ff161561187d576040517f08c379a000000000000000000000000000000000000000000000000000000000815260040161187490614c6c565b60405180910390fd5b8160050160039054906101000a900460ff1660038111156118a1576118a0613acf565b5b8160000160009054906101000a900460ff1660038111156118c5576118c4613acf565b5b14611905576040517f08c379a00000000000000000000000000000000000000000000000000000000081526004016118fc90614cfe565b60405180910390fd5b600081600101541161194c576040517f08c379a000000000000000000000000000000000000000000000000000000000815260040161194390614d90565b60405180910390fd5b60008260070160018360000160009054906101000a900460ff16600381111561197857611977613acf565b5b611982919061428b565b60ff1660038110611996576119956142c0565b5b01549050600081116119dd576040517f08c379a00000000000000000000000000000000000000000000000000000000081526004016119d490614e22565b60405180910390fd5b600060648284600101546119f191906143b8565b6119fb9190614429565b905060008360030154856006015411611a15576000611a2a565b83600301548560060154611a29919061406d565b5b90506000620151808211611a3f576003611a42565b60025b9050600060648285611a5491906143b8565b611a5e9190614429565b905060008185611a6e919061406d565b905080471015611ab3576040517f08c379a0000000000000000000000000000000000000000000000000000000008152600401611aaa90614eb4565b60405180910390fd5b60008111611af6576040517f08c379a0000000000000000000000000000000000000000000000000000000008152600401611aed90614f46565b60405180910390fd5b60018760020160006101000a81548160ff0219169083151502179055508160026000828254611b259190614257565b9250508190555060003373ffffffffffffffffffffffffffffffffffffffff1682604051611b52906145f7565b60006040518083038185875af1925050503d8060008114611b8f576040519150601f19603f3d011682016040523d82523d6000602084013e611b94565b606091505b5050905080611bd8576040517f08c379a0000000000000000000000000000000000000000000000000000000008152600401611bcf90614fd8565b60405180910390fd5b7f6256309dc4c6375473b26b31fc0e88b0ca9ebca0e558d39fec5aa96863ad40cb8b338486604051611c0d9493929190614ff8565b60405180910390a15050505050505050505050565b600081600081118015611c3757506001548111155b611c76576040517f08c379a0000000000000000000000000000000000000000000000000000000008152600401611c6d90613efa565b60405180910390fd5b6000600360008581526020019081526020016000209050600042826006015411611ca1576000611cb2565b428260060154611cb1919061406d565b5b9050620151808111611cc5576003611cc8565b60025b9350505050919050565b60008060008085600081118015611ceb57506001548111155b611d2a576040517f08c379a0000000000000000000000000000000000000000000000000000000008152600401611d2190613efa565b60405180910390fd5b60006003600089815260200190815260200160002090506000600460008a815260200190815260200160002060008973ffffffffffffffffffffffffffffffffffffffff1673ffffffffffffffffffffffffffffffffffffffff1681526020019081526020016000209050600081600101541480611db757508160050160019054906101000a900460ff16155b80611e0857508160050160039054906101000a900460ff166003811115611de157611de0613acf565b5b8160000160009054906101000a900460ff166003811115611e0557611e04613acf565b5b14155b15611e225760008060008096509650965096505050611f00565b60008260070160018360000160009054906101000a900460ff166003811115611e4e57611e4d613acf565b5b611e58919061428b565b60ff1660038110611e6c57611e6b6142c0565b5b015490506064818360010154611e8291906143b8565b611e8c9190614429565b975060008260030154846006015411611ea6576000611ebb565b82600301548460060154611eba919061406d565b5b9050620151808111611ece576003611ed1565b60025b95506064868a611ee191906143b8565b611eeb9190614429565b97508789611ef9919061406d565b9650505050505b5092959194509250565b60008054906101000a900473ffffffffffffffffffffffffffffffffffffffff1673ffffffffffffffffffffffffffffffffffffffff163373ffffffffffffffffffffffffffffffffffffffff1614611f98576040517f08c379a0000000000000000000000000000000000000000000000000000000008152600401611f8f90614514565b60405180910390fd5b80600081118015611fab57506001548111155b611fea576040517f08c379a0000000000000000000000000000000000000000000000000000000008152600401611fe190613efa565b60405180910390fd5b60006003600084815260200190815260200160002090508060050160019054906101000a900460ff1615612053576040517f08c379a000000000000000000000000000000000000000000000000000000000815260040161204a906150af565b60405180910390fd5b60018160050160026101000a81548160ff02191690831515021790555060018160050160006101000a81548160ff0219169083151502179055507f2ca440fb7fca85d7f55d395a4abd94817330b83a62f3502efbb4770144e4ca97836040516120bc919061377c565b60405180910390a1505050565b60008054906101000a900473ffffffffffffffffffffffffffffffffffffffff1673ffffffffffffffffffffffffffffffffffffffff163373ffffffffffffffffffffffffffffffffffffffff1614612157576040517f08c379a000000000000000000000000000000000000000000000000000000000815260040161214e90614514565b60405180910390fd5b428111612199576040517f08c379a000000000000000000000000000000000000000000000000000000000815260040161219090615141565b60405180910390fd5b60008251116121dd576040517f08c379a00000000000000000000000000000000000000000000000000000000081526004016121d4906151d3565b60405180910390fd5b600160008154809291906121f09061445a565b9190505550604051806101200160405280838152602001600081526020016040518060600160405280600081526020016000815260200160008152508152602001600015158152602001600015158152602001600015158152602001600060038111156122605761225f613acf565b5b815260200182815260200160405180606001604052806000815260200160008152602001600081525081525060036000600154815260200190815260200160002060008201518160000190816122b691906153ff565b50602082015181600101556040820151816002019060036122d8929190613413565b5060608201518160050160006101000a81548160ff02191690831515021790555060808201518160050160016101000a81548160ff02191690831515021790555060a08201518160050160026101000a81548160ff02191690831515021790555060c08201518160050160036101000a81548160ff0219169083600381111561236457612363613acf565b5b021790555060e082015181600601556101008201518160070190600361238b929190613413565b509050507f2d1e9ad45dbe8e898e0374deebf2a661b2ae7c1855d2a29507d584c35d287c7560015483836040516123c4939291906154d1565b60405180910390a15050565b60008054906101000a900473ffffffffffffffffffffffffffffffffffffffff1681565b606581565b600360205280600052604060002060009150905080600001805461241c90615222565b80601f016020809104026020016040519081016040528092919081815260200182805461244890615222565b80156124955780601f1061246a57610100808354040283529160200191612495565b820191906000526020600020905b81548152906001019060200180831161247857829003601f168201915b5050505050908060010154908060050160009054906101000a900460ff16908060050160019054906101000a900460ff16908060050160029054906101000a900460ff16908060050160039054906101000a900460ff16908060060154905087565b60008054906101000a900473ffffffffffffffffffffffffffffffffffffffff1673ffffffffffffffffffffffffffffffffffffffff163373ffffffffffffffffffffffffffffffffffffffff1614612585576040517f08c379a000000000000000000000000000000000000000000000000000000000815260040161257c90614514565b60405180910390fd5b8060008111801561259857506001548111155b6125d7576040517f08c379a00000000000000000000000000000000000000000000000000000000081526004016125ce90613efa565b60405180910390fd5b60006003600084815260200190815260200160002090508060060154421015612635576040517f08c379a000000000000000000000000000000000000000000000000000000000815260040161262c90615581565b60405180910390fd5b8060050160009054906101000a900460ff1615612687576040517f08c379a000000000000000000000000000000000000000000000000000000000815260040161267e90615613565b60405180910390fd5b8060050160029054906101000a900460ff16156126d9576040517f08c379a00000000000000000000000000000000000000000000000000000000081526004016126d0906156a5565b60405180910390fd5b6000806126e5836132d8565b91509150816127a05760018360050160026101000a81548160ff02191690831515021790555060018360050160006101000a81548160ff0219169083151502179055507f03ee8ab1026be234e69b64de1ccd2a6cecde214bd1424ebbdf9a40784230f85b85826040516127599291906156c5565b60405180910390a17f2ca440fb7fca85d7f55d395a4abd94817330b83a62f3502efbb4770144e4ca9785604051612790919061377c565b60405180910390a15050506128d4565b60018360050160006101000a81548160ff02191690831515021790555060005b60038160ff161015612893576000846002018260ff16600381106127e7576127e66142c0565b5b0154111561285f576000846002018260ff166003811061280a576128096142c0565b5b01546064866001015461281d91906143b8565b6128279190614429565b9050606581101561283957606561283b565b805b856007018360ff1660038110612854576128536142c0565b5b018190555050612880565b6000846007018260ff166003811061287a576128796142c0565b5b01819055505b808061288b906156f5565b9150506127c0565b507f739dc946f0a35d22d4e2d61e0f800b8606d67f74513e3097bc4aee150feab4a585846007016040516128c89291906157e2565b60405180910390a15050505b5050565b66071afd498d000081565b600281565b60008060008460008111801561290057506001548111155b61293f576040517f08c379a000000000000000000000000000000000000000000000000000000000815260040161293690613efa565b60405180910390fd5b60006004600088815260200190815260200160002060008773ffffffffffffffffffffffffffffffffffffffff1673ffffffffffffffffffffffffffffffffffffffff16815260200190815260200160002090508060000160009054906101000a900460ff1681600101548260020160009054906101000a900460ff1694509450945050509250925092565b6060600560008373ffffffffffffffffffffffffffffffffffffffff1673ffffffffffffffffffffffffffffffffffffffff168152602001908152602001600020805480602002602001604051908101604052809291908181526020018280548015612a5657602002820191906000526020600020905b815481526020019060010190808311612a42575b50505050509050919050565b60008054906101000a900473ffffffffffffffffffffffffffffffffffffffff1673ffffffffffffffffffffffffffffffffffffffff163373ffffffffffffffffffffffffffffffffffffffff1614612af0576040517f08c379a0000000000000000000000000000000000000000000000000000000008152600401612ae790614514565b60405180910390fd5b6002544711612b34576040517f08c379a0000000000000000000000000000000000000000000000000000000008152600401612b2b9061587d565b60405180910390fd5b600060025447612b44919061406d565b905060008060009054906101000a900473ffffffffffffffffffffffffffffffffffffffff1673ffffffffffffffffffffffffffffffffffffffff1682604051612b8d906145f7565b60006040518083038185875af1925050503d8060008114612bca576040519150601f19603f3d011682016040523d82523d6000602084013e612bcf565b606091505b5050905080612c13576040517f08c379a0000000000000000000000000000000000000000000000000000000008152600401612c0a9061590f565b60405180910390fd5b5050565b600381565b60056020528160005260406000208181548110612c3857600080fd5b90600052602060002001600091509150505481565b60606000612c596133f1565b600080600080612c676133f1565b88600081118015612c7a57506001548111155b612cb9576040517f08c379a0000000000000000000000000000000000000000000000000000000008152600401612cb090613efa565b60405180910390fd5b6000600360008c81526020019081526020016000209050806000018160010154826002018360050160009054906101000a900460ff168460050160019054906101000a900460ff168560050160029054906101000a900460ff168660050160039054906101000a900460ff1687600701878054612d3590615222565b80601f0160208091040260200160405190810160405280929190818152602001828054612d6190615222565b8015612dae5780601f10612d8357610100808354040283529160200191612dae565b820191906000526020600020905b815481529060010190602001808311612d9157829003601f168201915b5050505050975085600380602002604051908101604052809291908260038015612ded576020028201915b815481526020019060010190808311612dd9575b5050505050955080600380602002604051908101604052809291908260038015612e2c576020028201915b815481526020019060010190808311612e18575b50505050509050995099509950995099509950995099505050919395975091939597565b600080606060008085600081118015612e6b57506001548111155b612eaa576040517f08c379a0000000000000000000000000000000000000000000000000000000008152600401612ea190613efa565b60405180910390fd5b60006003600089815260200190815260200160002090508060050160009054906101000a900460ff16158015612eef57508060050160029054906101000a900460ff16155b8015612efe5750806006015442105b96506000805b60038160ff161015612f55576000836002018260ff1660038110612f2b57612f2a6142c0565b5b01541115612f42578180612f3e906156f5565b9250505b8080612f4d906156f5565b915050612f04565b5066071afd498d000082600101541015612faa57600096506040518060400160405280601981526020017f4e65656473206d6f72652062657474696e6720766f6c756d65000000000000008152509550613035565b60028160ff161015612ff757600096506040518060400160405280601f81526020017f4e656564732062657473206f6e206d756c7469706c65206f7574636f6d6573008152509550613034565b600196506040518060400160405280601181526020017f526561647920666f7220636c6f7375726500000000000000000000000000000081525095505b5b8787878460010154849750975097509750975050505091939590929450565b60015481565b60008260008111801561306f57506001548111155b6130ae576040517f08c379a00000000000000000000000000000000000000000000000000000000081526004016130a590613efa565b60405180910390fd5b60006004600086815260200190815260200160002060008573ffffffffffffffffffffffffffffffffffffffff1673ffffffffffffffffffffffffffffffffffffffff16815260200190815260200160002090506000816001015403613118576000925050613178565b60006003600087815260200190815260200160002090506000826003015482600601541161314757600061315c565b8260030154826006015461315b919061406d565b5b905062015180811161316f576003613172565b60025b94505050505b5092915050565b6000806000808460008111801561319857506001548111155b6131d7576040517f08c379a00000000000000000000000000000000000000000000000000000000081526004016131ce90613efa565b60405180910390fd5b6000600360008881526020019081526020016000209050600042826006015411613202576000613213565b428260060154613212919061406d565b5b90506000610e10826132259190614429565b9050600062015180831161323a57600361323d565b60025b90506201518083116201518084111580156132585750600084115b8284985098509850985050505050509193509193565b6004602052816000526040600020602052806000526040600020600091509150508060000160009054906101000a900460ff16908060010154908060020160009054906101000a900460ff16908060020160019054906101000a900460ff16908060030154905085565b6000606066071afd498d0000836001015410156133305760006040518060400160405280601b81526020017f496e73756666696369656e742062657474696e6720766f6c756d650000000000815250915091506133ec565b6000805b60038160ff161015613385576000856002018260ff166003811061335b5761335a6142c0565b5b0154111561337257818061336e906156f5565b9250505b808061337d906156f5565b915050613334565b5060028160ff1610156133d45760006040518060400160405280602081526020017f4e6565642062657473206f6e206174206c656173742032206f7574636f6d657381525092509250506133ec565b60016040518060200160405280600081525092509250505b915091565b6040518060600160405280600390602082028036833780820191505090505090565b8260038101928215613442579160200282015b82811115613441578251825591602001919060010190613426565b5b50905061344f9190613453565b5090565b5b8082111561346c576000816000905550600101613454565b5090565b600082825260208201905092915050565b7f4265745a696c6c613a2044697265637420455448206465706f73697420746f6f60008201527f206c61726765202d2075736520706c616365426574282920696e737465616400602082015250565b60006134dd603f83613470565b91506134e882613481565b604082019050919050565b6000602082019050818103600083015261350c816134d0565b9050919050565b7f4265745a696c6c613a2046756e6374696f6e206e6f7420666f756e64202d206360008201527f6865636b2066756e6374696f6e206e616d6520616e6420706172616d6574657260208201527f7300000000000000000000000000000000000000000000000000000000000000604082015250565b6000613595604183613470565b91506135a082613513565b606082019050919050565b600060208201905081810360008301526135c481613588565b9050919050565b6000604051905090565b600080fd5b600080fd5b6000819050919050565b6135f2816135df565b81146135fd57600080fd5b50565b60008135905061360f816135e9565b92915050565b6004811061362257600080fd5b50565b60008135905061363481613615565b92915050565b60008060408385031215613651576136506135d5565b5b600061365f85828601613600565b925050602061367085828601613625565b9150509250929050565b6000602082840312156136905761368f6135d5565b5b600061369e84828501613600565b91505092915050565b600060039050919050565b600081905092915050565b6000819050919050565b6136d0816135df565b82525050565b60006136e283836136c7565b60208301905092915050565b6000602082019050919050565b613704816136a7565b61370e81846136b2565b9250613719826136bd565b8060005b8381101561374a57815161373187826136d6565b965061373c836136ee565b92505060018101905061371d565b505050505050565b600060608201905061376760008301846136fb565b92915050565b613776816135df565b82525050565b6000602082019050613791600083018461376d565b92915050565b600073ffffffffffffffffffffffffffffffffffffffff82169050919050565b60006137c282613797565b9050919050565b6137d2816137b7565b81146137dd57600080fd5b50565b6000813590506137ef816137c9565b92915050565b6000806040838503121561380c5761380b6135d5565b5b600061381a85828601613600565b925050602061382b858286016137e0565b9150509250929050565b600060808201905061384a600083018761376d565b613857602083018661376d565b613864604083018561376d565b613871606083018461376d565b95945050505050565b600080fd5b600080fd5b6000601f19601f8301169050919050565b7f4e487b7100000000000000000000000000000000000000000000000000000000600052604160045260246000fd5b6138cd82613884565b810181811067ffffffffffffffff821117156138ec576138eb613895565b5b80604052505050565b60006138ff6135cb565b905061390b82826138c4565b919050565b600067ffffffffffffffff82111561392b5761392a613895565b5b61393482613884565b9050602081019050919050565b82818337600083830152505050565b600061396361395e84613910565b6138f5565b90508281526020810184848401111561397f5761397e61387f565b5b61398a848285613941565b509392505050565b600082601f8301126139a7576139a661387a565b5b81356139b7848260208601613950565b91505092915050565b600080604083850312156139d7576139d66135d5565b5b600083013567ffffffffffffffff8111156139f5576139f46135da565b5b613a0185828601613992565b9250506020613a1285828601613600565b9150509250929050565b613a25816137b7565b82525050565b6000602082019050613a406000830184613a1c565b92915050565b600081519050919050565b60005b83811015613a6f578082015181840152602081019050613a54565b60008484015250505050565b6000613a8682613a46565b613a908185613470565b9350613aa0818560208601613a51565b613aa981613884565b840191505092915050565b60008115159050919050565b613ac981613ab4565b82525050565b7f4e487b7100000000000000000000000000000000000000000000000000000000600052602160045260246000fd5b60048110613b0f57613b0e613acf565b5b50565b6000819050613b2082613afe565b919050565b6000613b3082613b12565b9050919050565b613b4081613b25565b82525050565b600060e0820190508181036000830152613b60818a613a7b565b9050613b6f602083018961376d565b613b7c6040830188613ac0565b613b896060830187613ac0565b613b966080830186613ac0565b613ba360a0830185613b37565b613bb060c083018461376d565b98975050505050505050565b6000606082019050613bd16000830186613b37565b613bde602083018561376d565b613beb6040830184613ac0565b949350505050565b600060208284031215613c0957613c086135d5565b5b6000613c17848285016137e0565b91505092915050565b600081519050919050565b600082825260208201905092915050565b6000819050602082019050919050565b6000602082019050919050565b6000613c6482613c20565b613c6e8185613c2b565b9350613c7983613c3c565b8060005b83811015613caa578151613c9188826136d6565b9750613c9c83613c4c565b925050600181019050613c7d565b5085935050505092915050565b60006020820190508181036000830152613cd18184613c59565b905092915050565b60008060408385031215613cf057613cef6135d5565b5b6000613cfe858286016137e0565b9250506020613d0f85828601613600565b9150509250929050565b6000610180820190508181036000830152613d34818b613a7b565b9050613d43602083018a61376d565b613d5060408301896136fb565b613d5d60a0830188613ac0565b613d6a60c0830187613ac0565b613d7760e0830186613ac0565b613d85610100830185613b37565b613d936101208301846136fb565b9998505050505050505050565b600060ff82169050919050565b613db681613da0565b82525050565b600060a082019050613dd16000830188613ac0565b613dde6020830187613ac0565b8181036040830152613df08186613a7b565b9050613dff606083018561376d565b613e0c6080830184613dad565b9695505050505050565b6000608082019050613e2b6000830187613ac0565b613e386020830186613ac0565b613e45604083018561376d565b613e52606083018461376d565b95945050505050565b600060a082019050613e706000830188613b37565b613e7d602083018761376d565b613e8a6040830186613ac0565b613e976060830185613ac0565b613ea4608083018461376d565b9695505050505050565b7f4265745a696c6c613a204d61726b657420646f6573206e6f7420657869737400600082015250565b6000613ee4601f83613470565b9150613eef82613eae565b602082019050919050565b60006020820190508181036000830152613f1381613ed7565b9050919050565b7f4265745a696c6c613a2042657474696e6720697320636c6f73656420666f722060008201527f74686973206d61726b6574000000000000000000000000000000000000000000602082015250565b6000613f76602b83613470565b9150613f8182613f1a565b604082019050919050565b60006020820190508181036000830152613fa581613f69565b9050919050565b7f4265745a696c6c613a2043616e6e6f7420626574206f6e2063616e63656c6c6560008201527f64206d61726b6574000000000000000000000000000000000000000000000000602082015250565b6000614008602883613470565b915061401382613fac565b604082019050919050565b6000602082019050818103600083015261403781613ffb565b9050919050565b7f4e487b7100000000000000000000000000000000000000000000000000000000600052601160045260246000fd5b6000614078826135df565b9150614083836135df565b925082820390508181111561409b5761409a61403e565b5b92915050565b7f4265745a696c6c613a20546f6f20636c6f736520746f206d617463682073746160008201527f7274202d2062657474696e6720636c6f73656400000000000000000000000000602082015250565b60006140fd603383613470565b9150614108826140a1565b604082019050919050565b6000602082019050818103600083015261412c816140f0565b9050919050565b7f4265745a696c6c613a20496e76616c696420626574206f7574636f6d65202d2060008201527f6d75737420626520486f6d652c20447261772c206f7220417761790000000000602082015250565b600061418f603b83613470565b915061419a82614133565b604082019050919050565b600060208201905081810360008301526141be81614182565b9050919050565b7f4265745a696c6c613a2042657420616d6f756e7420746f6f206c6f77202d206d60008201527f696e696d756d20302e3030312045544820726571756972656400000000000000602082015250565b6000614221603983613470565b915061422c826141c5565b604082019050919050565b6000602082019050818103600083015261425081614214565b9050919050565b6000614262826135df565b915061426d836135df565b92508282019050808211156142855761428461403e565b5b92915050565b600061429682613da0565b91506142a183613da0565b9250828203905060ff8111156142ba576142b961403e565b5b92915050565b7f4e487b7100000000000000000000000000000000000000000000000000000000600052603260045260246000fd5b7f4265745a696c6c613a2043616e6e6f7420626574206f6e20646966666572656e60008201527f74206f7574636f6d657320666f72207468652073616d65206d61726b65740000602082015250565b600061434b603e83613470565b9150614356826142ef565b604082019050919050565b6000602082019050818103600083015261437a8161433e565b9050919050565b6000606082019050614396600083018661376d565b6143a36020830185613b37565b6143b0604083018461376d565b949350505050565b60006143c3826135df565b91506143ce836135df565b92508282026143dc816135df565b915082820484148315176143f3576143f261403e565b5b5092915050565b7f4e487b7100000000000000000000000000000000000000000000000000000000600052601260045260246000fd5b6000614434826135df565b915061443f836135df565b92508261444f5761444e6143fa565b5b828204905092915050565b6000614465826135df565b91507fffffffffffffffffffffffffffffffffffffffffffffffffffffffffffffffff82036144975761449661403e565b5b600182019050919050565b7f4265745a696c6c613a204f6e6c7920636f6e7472616374206f776e657220636160008201527f6e20706572666f726d207468697320616374696f6e0000000000000000000000602082015250565b60006144fe603583613470565b9150614509826144a2565b604082019050919050565b6000602082019050818103600083015261452d816144f1565b9050919050565b7f4265745a696c6c613a204e6f20706c6174666f726d206665657320617661696c60008201527f61626c6520666f72207769746864726177616c00000000000000000000000000602082015250565b6000614590603383613470565b915061459b82614534565b604082019050919050565b600060208201905081810360008301526145bf81614583565b9050919050565b600081905092915050565b50565b60006145e16000836145c6565b91506145ec826145d1565b600082019050919050565b6000614602826145d4565b9150819050919050565b7f4265745a696c6c613a20466565207769746864726177616c207472616e73666560008201527f72206661696c6564000000000000000000000000000000000000000000000000602082015250565b6000614668602883613470565b91506146738261460c565b604082019050919050565b600060208201905081810360008301526146978161465b565b9050919050565b7f4265745a696c6c613a20496e76616c6964206d6174636820726573756c74202d60008201527f206d75737420626520486f6d652c20447261772c206f72204177617900000000602082015250565b60006146fa603c83613470565b91506147058261469e565b604082019050919050565b60006020820190508181036000830152614729816146ed565b9050919050565b7f4265745a696c6c613a2043616e6e6f742073657420726573756c74207768696c60008201527f652062657474696e67206973207374696c6c206f70656e000000000000000000602082015250565b600061478c603783613470565b915061479782614730565b604082019050919050565b600060208201905081810360008301526147bb8161477f565b9050919050565b7f4265745a696c6c613a204d61726b657420726573756c7420616c72656164792060008201527f7365740000000000000000000000000000000000000000000000000000000000602082015250565b600061481e602383613470565b9150614829826147c2565b604082019050919050565b6000602082019050818103600083015261484d81614811565b9050919050565b7f4265745a696c6c613a2043616e6e6f742073657420726573756c7420666f722060008201527f63616e63656c6c6564206d61726b657400000000000000000000000000000000602082015250565b60006148b0603083613470565b91506148bb82614854565b604082019050919050565b600060208201905081810360008301526148df816148a3565b9050919050565b60006040820190506148fb600083018561376d565b6149086020830184613b37565b9392505050565b7f4265745a696c6c613a204d61726b657420776173206e6f742063616e63656c6c60008201527f6564202d206e6f20726566756e6420617661696c61626c650000000000000000602082015250565b600061496b603883613470565b91506149768261490f565b604082019050919050565b6000602082019050818103600083015261499a8161495e565b9050919050565b7f4265745a696c6c613a20526566756e6420616c726561647920636c61696d656460008201527f20666f722074686973206d61726b657400000000000000000000000000000000602082015250565b60006149fd603083613470565b9150614a08826149a1565b604082019050919050565b60006020820190508181036000830152614a2c816149f0565b9050919050565b7f4265745a696c6c613a204e6f2062657420666f756e6420746f20726566756e6460008201527f20666f722074686973206d61726b657400000000000000000000000000000000602082015250565b6000614a8f603083613470565b9150614a9a82614a33565b604082019050919050565b60006020820190508181036000830152614abe81614a82565b9050919050565b7f4265745a696c6c613a20526566756e64207472616e73666572206661696c6564600082015250565b6000614afb602083613470565b9150614b0682614ac5565b602082019050919050565b60006020820190508181036000830152614b2a81614aee565b9050919050565b6000606082019050614b46600083018661376d565b614b536020830185613a1c565b614b60604083018461376d565b949350505050565b7f4265745a696c6c613a204d6174636820726573756c74206e6f7420796574206160008201527f7661696c61626c65000000000000000000000000000000000000000000000000602082015250565b6000614bc4602883613470565b9150614bcf82614b68565b604082019050919050565b60006020820190508181036000830152614bf381614bb7565b9050919050565b7f4265745a696c6c613a2057696e6e696e677320616c726561647920636c61696d60008201527f656420666f722074686973206d61726b65740000000000000000000000000000602082015250565b6000614c56603283613470565b9150614c6182614bfa565b604082019050919050565b60006020820190508181036000830152614c8581614c49565b9050919050565b7f4265745a696c6c613a20596f75722062657420646964206e6f742077696e207460008201527f686973206d61726b657400000000000000000000000000000000000000000000602082015250565b6000614ce8602a83613470565b9150614cf382614c8c565b604082019050919050565b60006020820190508181036000830152614d1781614cdb565b9050919050565b7f4265745a696c6c613a204e6f2062657420666f756e6420666f7220746869732060008201527f6d61726b65740000000000000000000000000000000000000000000000000000602082015250565b6000614d7a602683613470565b9150614d8582614d1e565b604082019050919050565b60006020820190508181036000830152614da981614d6d565b9050919050565b7f4265745a696c6c613a20496e76616c6964206f6464732063616c63756c61746960008201527f6f6e000000000000000000000000000000000000000000000000000000000000602082015250565b6000614e0c602283613470565b9150614e1782614db0565b604082019050919050565b60006020820190508181036000830152614e3b81614dff565b9050919050565b7f4265745a696c6c613a20496e73756666696369656e7420636f6e74726163742060008201527f62616c616e636520666f72207061796f75740000000000000000000000000000602082015250565b6000614e9e603283613470565b9150614ea982614e42565b604082019050919050565b60006020820190508181036000830152614ecd81614e91565b9050919050565b7f4265745a696c6c613a204e6574207061796f75742063616c63756c6174696f6e60008201527f206572726f720000000000000000000000000000000000000000000000000000602082015250565b6000614f30602683613470565b9150614f3b82614ed4565b604082019050919050565b60006020820190508181036000830152614f5f81614f23565b9050919050565b7f4265745a696c6c613a2057696e6e696e6773207472616e73666572206661696c60008201527f6564000000000000000000000000000000000000000000000000000000000000602082015250565b6000614fc2602283613470565b9150614fcd82614f66565b604082019050919050565b60006020820190508181036000830152614ff181614fb5565b9050919050565b600060808201905061500d600083018761376d565b61501a6020830186613a1c565b615027604083018561376d565b615034606083018461376d565b95945050505050565b7f4265745a696c6c613a2043616e6e6f742063616e63656c206d61726b6574207460008201527f68617420616c726561647920686173206120726573756c740000000000000000602082015250565b6000615099603883613470565b91506150a48261503d565b604082019050919050565b600060208201905081810360008301526150c88161508c565b9050919050565b7f4265745a696c6c613a204d617463682073746172742074696d65206d7573742060008201527f626520696e207468652066757475726500000000000000000000000000000000602082015250565b600061512b603083613470565b9150615136826150cf565b604082019050919050565b6000602082019050818103600083015261515a8161511e565b9050919050565b7f4265745a696c6c613a204d61726b6574206465736372697074696f6e2063616e60008201527f6e6f7420626520656d7074790000000000000000000000000000000000000000602082015250565b60006151bd602c83613470565b91506151c882615161565b604082019050919050565b600060208201905081810360008301526151ec816151b0565b9050919050565b7f4e487b7100000000000000000000000000000000000000000000000000000000600052602260045260246000fd5b6000600282049050600182168061523a57607f821691505b60208210810361524d5761524c6151f3565b5b50919050565b60008190508160005260206000209050919050565b60006020601f8301049050919050565b600082821b905092915050565b6000600883026152b57fffffffffffffffffffffffffffffffffffffffffffffffffffffffffffffffff82615278565b6152bf8683615278565b95508019841693508086168417925050509392505050565b6000819050919050565b60006152fc6152f76152f2846135df565b6152d7565b6135df565b9050919050565b6000819050919050565b615316836152e1565b61532a61532282615303565b848454615285565b825550505050565b600090565b61533f615332565b61534a81848461530d565b505050565b5b8181101561536e57615363600082615337565b600181019050615350565b5050565b601f8211156153b35761538481615253565b61538d84615268565b8101602085101561539c578190505b6153b06153a885615268565b83018261534f565b50505b505050565b600082821c905092915050565b60006153d6600019846008026153b8565b1980831691505092915050565b60006153ef83836153c5565b9150826002028217905092915050565b61540882613a46565b67ffffffffffffffff81111561542157615420613895565b5b61542b8254615222565b615436828285615372565b600060209050601f8311600181146154695760008415615457578287015190505b61546185826153e3565b8655506154c9565b601f19841661547786615253565b60005b8281101561549f5784890151825560018201915060208501945060208101905061547a565b868310156154bc57848901516154b8601f8916826153c5565b8355505b6001600288020188555050505b505050505050565b60006060820190506154e6600083018661376d565b81810360208301526154f88185613a7b565b9050615507604083018461376d565b949350505050565b7f4265745a696c6c613a2043616e6e6f7420636c6f73652062657474696e67206260008201527f65666f7265206d61746368207374617274730000000000000000000000000000602082015250565b600061556b603283613470565b91506155768261550f565b604082019050919050565b6000602082019050818103600083015261559a8161555e565b9050919050565b7f4265745a696c6c613a2042657474696e6720616c726561647920636c6f73656460008201527f20666f722074686973206d61726b657400000000000000000000000000000000602082015250565b60006155fd603083613470565b9150615608826155a1565b604082019050919050565b6000602082019050818103600083015261562c816155f0565b9050919050565b7f4265745a696c6c613a2043616e6e6f7420636c6f73652062657474696e67206f60008201527f6e2063616e63656c6c6564206d61726b65740000000000000000000000000000602082015250565b600061568f603283613470565b915061569a82615633565b604082019050919050565b600060208201905081810360008301526156be81615682565b9050919050565b60006040820190506156da600083018561376d565b81810360208301526156ec8184613a7b565b90509392505050565b600061570082613da0565b915060ff82036157135761571261403e565b5b600182019050919050565b600060039050919050565b6000819050919050565b60008160001c9050919050565b6000819050919050565b600061575d61575883615733565b615740565b9050919050565b6000615770825461574a565b9050919050565b6000600182019050919050565b61578d8161571e565b61579781846136b2565b92506157a282615729565b8060005b838110156157da576157b782615764565b6157c187826136d6565b96506157cc83615777565b9250506001810190506157a6565b505050505050565b60006080820190506157f7600083018561376d565b6158046020830184615784565b9392505050565b7f4265745a696c6c613a204f6e6c7920616363756d756c6174656420666565732060008201527f61726520617661696c61626c6500000000000000000000000000000000000000602082015250565b6000615867602d83613470565b91506158728261580b565b604082019050919050565b600060208201905081810360008301526158968161585a565b9050919050565b7f4265745a696c6c613a20456d657267656e6379207769746864726177616c206660008201527f61696c6564000000000000000000000000000000000000000000000000000000602082015250565b60006158f9602583613470565b91506159048261589d565b604082019050919050565b60006020820190508181036000830152615928816158ec565b905091905056fea26469706673582212205a8e6ccdf83c47a73676a452bef0ba0e300d0b9b670f72b0859a4ea59cfa134d64736f6c63430008140033",
  "linkReferences": {},
  "deployedLinkReferences": {}
}