{
  "_format": "hh-sol-artifact-1",
  "contractName": "BetZilla",
  "sourceName": "contracts/BetZilla.sol",
  "abi": [
    {
      "inputs": [],
      "stateMutability": "nonpayable",
      "type": "constructor"
    },
    {
      "anonymous": false,
      "inputs": [
        {
          "indexed": false,
          "internalType": "uint256",
          "name": "marketId",
          "type": "uint256"
        },
        {
          "indexed": true,
          "internalType": "address",
          "name": "user",
          "type": "address"
        },
        {
          "indexed": false,
          "internalType": "uint8",
          "name": "outcome",
          "type": "uint8"
        },
        {
          "indexed": false,
          "internalType": "uint256",
          "name": "amount",
          "type": "uint256"
        }
      ],
      "name": "BetPlaced",
      "type": "event"
    },
    {
      "anonymous": false,
      "inputs": [
        {
          "indexed": false,
          "internalType": "uint256",
          "name": "marketId",
          "type": "uint256"
        },
        {
          "indexed": false,
          "internalType": "uint256[3]",
          "name": "finalOdds",
          "type": "uint256[3]"
        }
      ],
      "name": "BettingClosed",
      "type": "event"
    },
    {
      "anonymous": false,
      "inputs": [
        {
          "indexed": false,
          "internalType": "uint256",
          "name": "marketId",
          "type": "uint256"
        },
        {
          "indexed": false,
          "internalType": "string",
          "name": "description",
          "type": "string"
        },
        {
          "indexed": false,
          "internalType": "uint256",
          "name": "startTime",
          "type": "uint256"
        }
      ],
      "name": "MarketCreated",
      "type": "event"
    },
    {
      "anonymous": false,
      "inputs": [
        {
          "indexed": false,
          "internalType": "uint256",
          "name": "marketId",
          "type": "uint256"
        },
        {
          "indexed": false,
          "internalType": "uint8",
          "name": "winningOutcome",
          "type": "uint8"
        }
      ],
      "name": "MarketResolved",
      "type": "event"
    },
    {
      "anonymous": false,
      "inputs": [
        {
          "indexed": false,
          "internalType": "uint256",
          "name": "marketId",
          "type": "uint256"
        },
        {
          "indexed": false,
          "internalType": "address",
          "name": "user",
          "type": "address"
        },
        {
          "indexed": false,
          "internalType": "uint256",
          "name": "payout",
          "type": "uint256"
        }
      ],
      "name": "WinningsClaimed",
      "type": "event"
    },
    {
      "inputs": [],
      "name": "FEE_PERCENT",
      "outputs": [
        {
          "internalType": "uint256",
          "name": "",
          "type": "uint256"
        }
      ],
      "stateMutability": "view",
      "type": "function"
    },
    {
      "inputs": [
        {
          "internalType": "uint256",
          "name": "",
          "type": "uint256"
        },
        {
          "internalType": "address",
          "name": "",
          "type": "address"
        }
      ],
      "name": "bets",
      "outputs": [
        {
          "internalType": "uint8",
          "name": "outcome",
          "type": "uint8"
        },
        {
          "internalType": "uint256",
          "name": "amount",
          "type": "uint256"
        },
        {
          "internalType": "bool",
          "name": "claimed",
          "type": "bool"
        },
        {
          "internalType": "bool",
          "name": "refunded",
          "type": "bool"
        },
        {
          "internalType": "uint256",
          "name": "placedAt",
          "type": "uint256"
        }
      ],
      "stateMutability": "view",
      "type": "function"
    },
    {
      "inputs": [
        {
          "internalType": "uint256",
          "name": "marketId",
          "type": "uint256"
        }
      ],
      "name": "claimWinnings",
      "outputs": [],
      "stateMutability": "nonpayable",
      "type": "function"
    },
    {
      "inputs": [
        {
          "internalType": "uint256",
          "name": "marketId",
          "type": "uint256"
        }
      ],
      "name": "closeBetting",
      "outputs": [],
      "stateMutability": "nonpayable",
      "type": "function"
    },
    {
      "inputs": [
        {
          "internalType": "string",
          "name": "description",
          "type": "string"
        },
        {
          "internalType": "uint256",
          "name": "startTime",
          "type": "uint256"
        }
      ],
      "name": "createMarket",
      "outputs": [],
      "stateMutability": "nonpayable",
      "type": "function"
    },
    {
      "inputs": [
        {
          "internalType": "uint256",
          "name": "marketId",
          "type": "uint256"
        }
      ],
      "name": "getCurrentFee",
      "outputs": [
        {
          "internalType": "uint256",
          "name": "",
          "type": "uint256"
        }
      ],
      "stateMutability": "view",
      "type": "function"
    },
    {
      "inputs": [
        {
          "internalType": "uint256",
          "name": "marketId",
          "type": "uint256"
        }
      ],
      "name": "getEstimatedOdds",
      "outputs": [
        {
          "internalType": "uint256[3]",
          "name": "",
          "type": "uint256[3]"
        }
      ],
      "stateMutability": "view",
      "type": "function"
    },
    {
      "inputs": [
        {
          "internalType": "uint256",
          "name": "marketId",
          "type": "uint256"
        }
      ],
      "name": "getFinalOdds",
      "outputs": [
        {
          "internalType": "uint256[3]",
          "name": "",
          "type": "uint256[3]"
        }
      ],
      "stateMutability": "view",
      "type": "function"
    },
    {
      "inputs": [
        {
          "internalType": "uint256",
          "name": "marketId",
          "type": "uint256"
        }
      ],
      "name": "getMarket",
      "outputs": [
        {
          "internalType": "string",
          "name": "description",
          "type": "string"
        },
        {
          "internalType": "uint256",
          "name": "totalAmount",
          "type": "uint256"
        },
        {
          "internalType": "uint256[3]",
          "name": "outcomeAmounts",
          "type": "uint256[3]"
        },
        {
          "internalType": "bool",
          "name": "isClosed",
          "type": "bool"
        },
        {
          "internalType": "bool",
          "name": "isResolved",
          "type": "bool"
        },
        {
          "internalType": "uint8",
          "name": "winningOutcome",
          "type": "uint8"
        },
        {
          "internalType": "uint256",
          "name": "startTime",
          "type": "uint256"
        },
        {
          "internalType": "uint256[3]",
          "name": "finalOdds",
          "type": "uint256[3]"
        }
      ],
      "stateMutability": "view",
      "type": "function"
    },
    {
      "inputs": [
        {
          "internalType": "uint256",
          "name": "marketId",
          "type": "uint256"
        }
      ],
      "name": "getMarketPools",
      "outputs": [
        {
          "internalType": "uint256",
          "name": "totalPool",
          "type": "uint256"
        },
        {
          "internalType": "uint256[3]",
          "name": "outcomePools",
          "type": "uint256[3]"
        },
        {
          "internalType": "bool",
          "name": "isClosed",
          "type": "bool"
        }
      ],
      "stateMutability": "view",
      "type": "function"
    },
    {
      "inputs": [
        {
          "internalType": "uint256",
          "name": "marketId",
          "type": "uint256"
        },
        {
          "internalType": "address",
          "name": "user",
          "type": "address"
        }
      ],
      "name": "getUserBet",
      "outputs": [
        {
          "internalType": "uint8",
          "name": "outcome",
          "type": "uint8"
        },
        {
          "internalType": "uint256",
          "name": "amount",
          "type": "uint256"
        },
        {
          "internalType": "bool",
          "name": "claimed",
          "type": "bool"
        },
        {
          "internalType": "bool",
          "name": "refunded",
          "type": "bool"
        },
        {
          "internalType": "uint256",
          "name": "placedAt",
          "type": "uint256"
        }
      ],
      "stateMutability": "view",
      "type": "function"
    },
    {
      "inputs": [
        {
          "internalType": "address",
          "name": "user",
          "type": "address"
        }
      ],
      "name": "getUserMarkets",
      "outputs": [
        {
          "internalType": "uint256[]",
          "name": "",
          "type": "uint256[]"
        }
      ],
      "stateMutability": "view",
      "type": "function"
    },
    {
      "inputs": [],
      "name": "marketCount",
      "outputs": [
        {
          "internalType": "uint256",
          "name": "",
          "type": "uint256"
        }
      ],
      "stateMutability": "view",
      "type": "function"
    },
    {
      "inputs": [
        {
          "internalType": "uint256",
          "name": "",
          "type": "uint256"
        }
      ],
      "name": "markets",
      "outputs": [
        {
          "internalType": "string",
          "name": "description",
          "type": "string"
        },
        {
          "internalType": "uint256",
          "name": "totalAmount",
          "type": "uint256"
        },
        {
          "internalType": "bool",
          "name": "isClosed",
          "type": "bool"
        },
        {
          "internalType": "bool",
          "name": "isResolved",
          "type": "bool"
        },
        {
          "internalType": "uint8",
          "name": "winningOutcome",
          "type": "uint8"
        },
        {
          "internalType": "uint256",
          "name": "startTime",
          "type": "uint256"
        }
      ],
      "stateMutability": "view",
      "type": "function"
    },
    {
      "inputs": [],
      "name": "owner",
      "outputs": [
        {
          "internalType": "address",
          "name": "",
          "type": "address"
        }
      ],
      "stateMutability": "view",
      "type": "function"
    },
    {
      "inputs": [
        {
          "internalType": "uint256",
          "name": "marketId",
          "type": "uint256"
        },
        {
          "internalType": "uint8",
          "name": "outcome",
          "type": "uint8"
        }
      ],
      "name": "placeBet",
      "outputs": [],
      "stateMutability": "payable",
      "type": "function"
    },
    {
      "inputs": [
        {
          "internalType": "uint256",
          "name": "marketId",
          "type": "uint256"
        },
        {
          "internalType": "uint8",
          "name": "outcome",
          "type": "uint8"
        }
      ],
      "name": "setResult",
      "outputs": [],
      "stateMutability": "nonpayable",
      "type": "function"
    },
    {
      "inputs": [
        {
          "internalType": "address",
          "name": "",
          "type": "address"
        },
        {
          "internalType": "uint256",
          "name": "",
          "type": "uint256"
        }
      ],
      "name": "userMarketIds",
      "outputs": [
        {
          "internalType": "uint256",
          "name": "",
          "type": "uint256"
        }
      ],
      "stateMutability": "view",
      "type": "function"
    },
    {
      "inputs": [],
      "name": "withdrawFees",
      "outputs": [],
      "stateMutability": "nonpayable",
      "type": "function"
    },
    {
      "stateMutability": "payable",
      "type": "receive"
    }
  ],
  "bytecode": "0x608060405234801561001057600080fd5b50336000806101000a81548173ffffffffffffffffffffffffffffffffffffffff021916908373ffffffffffffffffffffffffffffffffffffffff160217905550613542806100606000396000f3fe6080604052600436106101185760003560e01c8063a366c50d116100a0578063e469e1c211610064578063e469e1c2146103dc578063eaf98d2314610419578063eb44fdd314610444578063ec97908214610488578063f644b3bb146104b35761011f565b8063a366c50d146102b6578063b1283e77146102f3578063b4ad06a114610335578063c03fb87c1461035e578063da4473d81461039f5761011f565b8063677bd9ff116100e7578063677bd9ff146101bd5780636ad454a2146101e65780636c28568114610225578063883c84c1146102625780638da5cb5b1461028b5761011f565b806303edf914146101245780633d79577514610140578063476343ee1461017d57806356150a36146101945761011f565b3661011f57005b600080fd5b61013e60048036038101906101399190611f4b565b6104f4565b005b34801561014c57600080fd5b5061016760048036038101906101629190611f8b565b610945565b6040516101749190612063565b60405180910390f35b34801561018957600080fd5b50610192610b38565b005b3480156101a057600080fd5b506101bb60048036038101906101b69190611f4b565b610cdf565b005b3480156101c957600080fd5b506101e460048036038101906101df9190611f8b565b610f49565b005b3480156101f257600080fd5b5061020d60048036038101906102089190611f8b565b6112ba565b60405161021c939291906120a8565b60405180910390f35b34801561023157600080fd5b5061024c60048036038101906102479190611f8b565b611398565b60405161025991906120df565b60405180910390f35b34801561026e57600080fd5b5061028960048036038101906102849190612240565b6113f6565b005b34801561029757600080fd5b506102a0611671565b6040516102ad91906122dd565b60405180910390f35b3480156102c257600080fd5b506102dd60048036038101906102d89190611f8b565b611695565b6040516102ea9190612063565b60405180910390f35b3480156102ff57600080fd5b5061031a60048036038101906103159190611f8b565b6116f6565b60405161032c96959493929190612386565b60405180910390f35b34801561034157600080fd5b5061035c60048036038101906103579190611f8b565b6117e1565b005b34801561036a57600080fd5b506103856004803603810190610380919061241a565b611ab9565b60405161039695949392919061245a565b60405180910390f35b3480156103ab57600080fd5b506103c660048036038101906103c191906124ad565b611b69565b6040516103d39190612571565b60405180910390f35b3480156103e857600080fd5b5061040360048036038101906103fe9190612593565b611c00565b60405161041091906120df565b60405180910390f35b34801561042557600080fd5b5061042e611c31565b60405161043b91906120df565b60405180910390f35b34801561045057600080fd5b5061046b60048036038101906104669190611f8b565b611c36565b60405161047f9897969594939291906125d3565b60405180910390f35b34801561049457600080fd5b5061049d611dd9565b6040516104aa91906120df565b60405180910390f35b3480156104bf57600080fd5b506104da60048036038101906104d5919061241a565b611ddf565b6040516104eb95949392919061245a565b60405180910390f35b8160008111801561050757506001548111155b610546576040517f08c379a000000000000000000000000000000000000000000000000000000000815260040161053d906126a6565b60405180910390fd5b60006002600085815260200190815260200160002090508060050160009054906101000a900460ff16156105af576040517f08c379a00000000000000000000000000000000000000000000000000000000081526004016105a690612712565b60405180910390fd5b806006015442106105f5576040517f08c379a00000000000000000000000000000000000000000000000000000000081526004016105ec9061277e565b60405180910390fd5b60018360ff161015801561060d575060038360ff1611155b61064c576040517f08c379a0000000000000000000000000000000000000000000000000000000008152600401610643906127ea565b60405180910390fd5b6000341161068f576040517f08c379a000000000000000000000000000000000000000000000000000000000815260040161068690612856565b60405180910390fd5b348160010160008282546106a391906128a5565b9250508190555034816002016001856106bc91906128d9565b60ff16600381106106d0576106cf61290e565b5b0160008282546106e091906128a5565b925050819055506000806003600087815260200190815260200160002060003373ffffffffffffffffffffffffffffffffffffffff1673ffffffffffffffffffffffffffffffffffffffff1681526020019081526020016000206001015414905080156108aa576040518060a001604052808560ff168152602001348152602001600015158152602001600015158152602001428152506003600087815260200190815260200160002060003373ffffffffffffffffffffffffffffffffffffffff1673ffffffffffffffffffffffffffffffffffffffff16815260200190815260200160002060008201518160000160006101000a81548160ff021916908360ff1602179055506020820151816001015560408201518160020160006101000a81548160ff02191690831515021790555060608201518160020160016101000a81548160ff02191690831515021790555060808201518160030155905050600460003373ffffffffffffffffffffffffffffffffffffffff1673ffffffffffffffffffffffffffffffffffffffff1681526020019081526020016000208590806001815401808255809150506001900390600052602060002001600090919091909150556108ec565b60006108eb576040517f08c379a00000000000000000000000000000000000000000000000000000000081526004016108e2906129af565b60405180910390fd5b5b3373ffffffffffffffffffffffffffffffffffffffff167f4f1eed5e863a822b0f9eb960dfdab2cc5a99beec4b191f2a7a9c7e28e5a15524868634604051610936939291906129cf565b60405180910390a25050505050565b61094d611e49565b8160008111801561096057506001548111155b61099f576040517f08c379a0000000000000000000000000000000000000000000000000000000008152600401610996906126a6565b60405180910390fd5b60006002600085815260200190815260200160002090508060050160009054906101000a900460ff1615610a155780600701600380602002604051908101604052809291908260038015610a08576020028201915b8154815260200190600101908083116109f4575b5050505050925050610b32565b6000816001015403610a4757604051806060016040528060c8815260200160c8815260200160c8815250925050610b32565b610a4f611e49565b6000606460036064610a619190612a06565b8460010154610a709190612a3a565b610a7a9190612aab565b905060005b6003811015610b2a576000846002018260038110610aa057610a9f61290e565b5b01541115610af857836002018160038110610abe57610abd61290e565b5b0154606483610acd9190612a3a565b610ad79190612aab565b838260038110610aea57610ae961290e565b5b602002018181525050610b17565b6000838260038110610b0d57610b0c61290e565b5b6020020181815250505b8080610b2290612adc565b915050610a7f565b508194505050505b50919050565b60008054906101000a900473ffffffffffffffffffffffffffffffffffffffff1673ffffffffffffffffffffffffffffffffffffffff163373ffffffffffffffffffffffffffffffffffffffff1614610bc6576040517f08c379a0000000000000000000000000000000000000000000000000000000008152600401610bbd90612b70565b60405180910390fd5b600047905060008111610c0e576040517f08c379a0000000000000000000000000000000000000000000000000000000008152600401610c0590612bdc565b60405180910390fd5b60008060009054906101000a900473ffffffffffffffffffffffffffffffffffffffff1673ffffffffffffffffffffffffffffffffffffffff1682604051610c5590612c2d565b60006040518083038185875af1925050503d8060008114610c92576040519150601f19603f3d011682016040523d82523d6000602084013e610c97565b606091505b5050905080610cdb576040517f08c379a0000000000000000000000000000000000000000000000000000000008152600401610cd290612c8e565b60405180910390fd5b5050565b60008054906101000a900473ffffffffffffffffffffffffffffffffffffffff1673ffffffffffffffffffffffffffffffffffffffff163373ffffffffffffffffffffffffffffffffffffffff1614610d6d576040517f08c379a0000000000000000000000000000000000000000000000000000000008152600401610d6490612b70565b60405180910390fd5b81600081118015610d8057506001548111155b610dbf576040517f08c379a0000000000000000000000000000000000000000000000000000000008152600401610db6906126a6565b60405180910390fd5b60018260ff1610158015610dd7575060038260ff1611155b610e16576040517f08c379a0000000000000000000000000000000000000000000000000000000008152600401610e0d90612cfa565b60405180910390fd5b60006002600085815260200190815260200160002090508060050160009054906101000a900460ff16610e7e576040517f08c379a0000000000000000000000000000000000000000000000000000000008152600401610e7590612d66565b60405180910390fd5b8060050160019054906101000a900460ff1615610ed0576040517f08c379a0000000000000000000000000000000000000000000000000000000008152600401610ec790612dd2565b60405180910390fd5b828160050160026101000a81548160ff021916908360ff16021790555060018160050160016101000a81548160ff0219169083151502179055507f739f283563fb51ab6b89ee95d937b2e63a6cfcb83c385dbebb629f9d97bd43e68484604051610f3b929190612df2565b60405180910390a150505050565b80600081118015610f5c57506001548111155b610f9b576040517f08c379a0000000000000000000000000000000000000000000000000000000008152600401610f92906126a6565b60405180910390fd5b600060026000848152602001908152602001600020905060006003600085815260200190815260200160002060003373ffffffffffffffffffffffffffffffffffffffff1673ffffffffffffffffffffffffffffffffffffffff16815260200190815260200160002090508160050160019054906101000a900460ff16611057576040517f08c379a000000000000000000000000000000000000000000000000000000000815260040161104e90612e67565b60405180910390fd5b8060020160009054906101000a900460ff16156110a9576040517f08c379a00000000000000000000000000000000000000000000000000000000081526004016110a090612ed3565b60405180910390fd5b8160050160029054906101000a900460ff1660ff168160000160009054906101000a900460ff1660ff1614611113576040517f08c379a000000000000000000000000000000000000000000000000000000000815260040161110a90612f3f565b60405180910390fd5b60008260070160018360000160009054906101000a900460ff1661113791906128d9565b60ff166003811061114b5761114a61290e565b5b01549050600060648284600101546111639190612a3a565b61116d9190612aab565b9050600060646003836111809190612a3a565b61118a9190612aab565b90506000818361119a9190612a06565b85600101546111a991906128a5565b905060018560020160006101000a81548160ff02191690831515021790555060003373ffffffffffffffffffffffffffffffffffffffff16826040516111ee90612c2d565b60006040518083038185875af1925050503d806000811461122b576040519150601f19603f3d011682016040523d82523d6000602084013e611230565b606091505b5050905080611274576040517f08c379a000000000000000000000000000000000000000000000000000000000815260040161126b90612c8e565b60405180910390fd5b7f5380cf6fe903b40c6d5a9e0dfbca2f3a423f0a21520b4d5947ed5169bdba946d8933846040516112a793929190612f5f565b60405180910390a1505050505050505050565b60006112c4611e49565b6000836000811180156112d957506001548111155b611318576040517f08c379a000000000000000000000000000000000000000000000000000000000815260040161130f906126a6565b60405180910390fd5b60006002600087815260200190815260200160002090508060010154816002018260050160009054906101000a900460ff1681600380602002604051908101604052809291908260038015611382576020028201915b81548152602001906001019080831161136e575b5050505050915094509450945050509193909250565b6000816000811180156113ad57506001548111155b6113ec576040517f08c379a00000000000000000000000000000000000000000000000000000000081526004016113e3906126a6565b60405180910390fd5b6003915050919050565b60008054906101000a900473ffffffffffffffffffffffffffffffffffffffff1673ffffffffffffffffffffffffffffffffffffffff163373ffffffffffffffffffffffffffffffffffffffff1614611484576040517f08c379a000000000000000000000000000000000000000000000000000000000815260040161147b90612b70565b60405180910390fd5b4281116114c6576040517f08c379a00000000000000000000000000000000000000000000000000000000081526004016114bd90612fe2565b60405180910390fd5b600160008154809291906114d990612adc565b9190505550604051806101000160405280838152602001600081526020016040518060600160405280600081526020016000815260200160008152508152602001600015158152602001600015158152602001600060ff1681526020018281526020016040518060600160405280600081526020016000815260200160008152508152506002600060015481526020019081526020016000206000820151816000019081611587919061320e565b50602082015181600101556040820151816002019060036115a9929190611e6b565b5060608201518160050160006101000a81548160ff02191690831515021790555060808201518160050160016101000a81548160ff02191690831515021790555060a08201518160050160026101000a81548160ff021916908360ff16021790555060c0820151816006015560e08201518160070190600361162c929190611e6b565b509050507f2d1e9ad45dbe8e898e0374deebf2a661b2ae7c1855d2a29507d584c35d287c756001548383604051611665939291906132e0565b60405180910390a15050565b60008054906101000a900473ffffffffffffffffffffffffffffffffffffffff1681565b61169d611e49565b600260008381526020019081526020016000206007016003806020026040519081016040528092919082600380156116ea576020028201915b8154815260200190600101908083116116d6575b50505050509050919050565b600260205280600052604060002060009150905080600001805461171990613031565b80601f016020809104026020016040519081016040528092919081815260200182805461174590613031565b80156117925780601f1061176757610100808354040283529160200191611792565b820191906000526020600020905b81548152906001019060200180831161177557829003601f168201915b5050505050908060010154908060050160009054906101000a900460ff16908060050160019054906101000a900460ff16908060050160029054906101000a900460ff16908060060154905086565b60008054906101000a900473ffffffffffffffffffffffffffffffffffffffff1673ffffffffffffffffffffffffffffffffffffffff163373ffffffffffffffffffffffffffffffffffffffff161461186f576040517f08c379a000000000000000000000000000000000000000000000000000000000815260040161186690612b70565b60405180910390fd5b8060008111801561188257506001548111155b6118c1576040517f08c379a00000000000000000000000000000000000000000000000000000000081526004016118b8906126a6565b60405180910390fd5b6000600260008481526020019081526020016000209050806006015442101561191f576040517f08c379a00000000000000000000000000000000000000000000000000000000081526004016119169061336a565b60405180910390fd5b8060050160009054906101000a900460ff1615611971576040517f08c379a0000000000000000000000000000000000000000000000000000000008152600401611968906133d6565b60405180910390fd5b60018160050160006101000a81548160ff02191690831515021790555060006064600360646119a09190612a06565b83600101546119af9190612a3a565b6119b99190612aab565b905060005b60038160ff161015611a76576000836002018260ff16600381106119e5576119e461290e565b5b01541115611a4257826002018160ff1660038110611a0657611a0561290e565b5b0154606483611a159190612a3a565b611a1f9190612aab565b836007018260ff1660038110611a3857611a3761290e565b5b0181905550611a63565b6000836007018260ff1660038110611a5d57611a5c61290e565b5b01819055505b8080611a6e906133f6565b9150506119be565b507f739dc946f0a35d22d4e2d61e0f800b8606d67f74513e3097bc4aee150feab4a58483600701604051611aab9291906134e3565b60405180910390a150505050565b6000806000806000806003600089815260200190815260200160002060008873ffffffffffffffffffffffffffffffffffffffff1673ffffffffffffffffffffffffffffffffffffffff16815260200190815260200160002090508060000160009054906101000a900460ff1681600101548260020160009054906101000a900460ff168360020160019054906101000a900460ff16846003015495509550955095509550509295509295909350565b6060600460008373ffffffffffffffffffffffffffffffffffffffff1673ffffffffffffffffffffffffffffffffffffffff168152602001908152602001600020805480602002602001604051908101604052809291908181526020018280548015611bf457602002820191906000526020600020905b815481526020019060010190808311611be0575b50505050509050919050565b60046020528160005260406000208181548110611c1c57600080fd5b90600052602060002001600091509150505481565b600381565b60606000611c42611e49565b600080600080611c50611e49565b6000600260008b81526020019081526020016000209050806000018160010154826002018360050160009054906101000a900460ff168460050160019054906101000a900460ff168560050160029054906101000a900460ff16866006015487600701878054611cbf90613031565b80601f0160208091040260200160405190810160405280929190818152602001828054611ceb90613031565b8015611d385780601f10611d0d57610100808354040283529160200191611d38565b820191906000526020600020905b815481529060010190602001808311611d1b57829003601f168201915b5050505050975085600380602002604051908101604052809291908260038015611d77576020028201915b815481526020019060010190808311611d63575b5050505050955080600380602002604051908101604052809291908260038015611db6576020028201915b815481526020019060010190808311611da2575b505050505090509850985098509850985098509850985050919395975091939597565b60015481565b6003602052816000526040600020602052806000526040600020600091509150508060000160009054906101000a900460ff16908060010154908060020160009054906101000a900460ff16908060020160019054906101000a900460ff16908060030154905085565b6040518060600160405280600390602082028036833780820191505090505090565b8260038101928215611e9a579160200282015b82811115611e99578251825591602001919060010190611e7e565b5b509050611ea79190611eab565b5090565b5b80821115611ec4576000816000905550600101611eac565b5090565b6000604051905090565b600080fd5b600080fd5b6000819050919050565b611eef81611edc565b8114611efa57600080fd5b50565b600081359050611f0c81611ee6565b92915050565b600060ff82169050919050565b611f2881611f12565b8114611f3357600080fd5b50565b600081359050611f4581611f1f565b92915050565b60008060408385031215611f6257611f61611ed2565b5b6000611f7085828601611efd565b9250506020611f8185828601611f36565b9150509250929050565b600060208284031215611fa157611fa0611ed2565b5b6000611faf84828501611efd565b91505092915050565b600060039050919050565b600081905092915050565b6000819050919050565b611fe181611edc565b82525050565b6000611ff38383611fd8565b60208301905092915050565b6000602082019050919050565b61201581611fb8565b61201f8184611fc3565b925061202a82611fce565b8060005b8381101561205b5781516120428782611fe7565b965061204d83611fff565b92505060018101905061202e565b505050505050565b6000606082019050612078600083018461200c565b92915050565b61208781611edc565b82525050565b60008115159050919050565b6120a28161208d565b82525050565b600060a0820190506120bd600083018661207e565b6120ca602083018561200c565b6120d76080830184612099565b949350505050565b60006020820190506120f4600083018461207e565b92915050565b600080fd5b600080fd5b6000601f19601f8301169050919050565b7f4e487b7100000000000000000000000000000000000000000000000000000000600052604160045260246000fd5b61214d82612104565b810181811067ffffffffffffffff8211171561216c5761216b612115565b5b80604052505050565b600061217f611ec8565b905061218b8282612144565b919050565b600067ffffffffffffffff8211156121ab576121aa612115565b5b6121b482612104565b9050602081019050919050565b82818337600083830152505050565b60006121e36121de84612190565b612175565b9050828152602081018484840111156121ff576121fe6120ff565b5b61220a8482856121c1565b509392505050565b600082601f830112612227576122266120fa565b5b81356122378482602086016121d0565b91505092915050565b6000806040838503121561225757612256611ed2565b5b600083013567ffffffffffffffff81111561227557612274611ed7565b5b61228185828601612212565b925050602061229285828601611efd565b9150509250929050565b600073ffffffffffffffffffffffffffffffffffffffff82169050919050565b60006122c78261229c565b9050919050565b6122d7816122bc565b82525050565b60006020820190506122f260008301846122ce565b92915050565b600081519050919050565b600082825260208201905092915050565b60005b83811015612332578082015181840152602081019050612317565b60008484015250505050565b6000612349826122f8565b6123538185612303565b9350612363818560208601612314565b61236c81612104565b840191505092915050565b61238081611f12565b82525050565b600060c08201905081810360008301526123a0818961233e565b90506123af602083018861207e565b6123bc6040830187612099565b6123c96060830186612099565b6123d66080830185612377565b6123e360a083018461207e565b979650505050505050565b6123f7816122bc565b811461240257600080fd5b50565b600081359050612414816123ee565b92915050565b6000806040838503121561243157612430611ed2565b5b600061243f85828601611efd565b925050602061245085828601612405565b9150509250929050565b600060a08201905061246f6000830188612377565b61247c602083018761207e565b6124896040830186612099565b6124966060830185612099565b6124a3608083018461207e565b9695505050505050565b6000602082840312156124c3576124c2611ed2565b5b60006124d184828501612405565b91505092915050565b600081519050919050565b600082825260208201905092915050565b6000819050602082019050919050565b6000602082019050919050565b600061251e826124da565b61252881856124e5565b9350612533836124f6565b8060005b8381101561256457815161254b8882611fe7565b975061255683612506565b925050600181019050612537565b5085935050505092915050565b6000602082019050818103600083015261258b8184612513565b905092915050565b600080604083850312156125aa576125a9611ed2565b5b60006125b885828601612405565b92505060206125c985828601611efd565b9150509250929050565b60006101808201905081810360008301526125ee818b61233e565b90506125fd602083018a61207e565b61260a604083018961200c565b61261760a0830188612099565b61262460c0830187612099565b61263160e0830186612377565b61263f61010083018561207e565b61264d61012083018461200c565b9998505050505050505050565b7f496e76616c6964206d61726b6574000000000000000000000000000000000000600082015250565b6000612690600e83612303565b915061269b8261265a565b602082019050919050565b600060208201905081810360008301526126bf81612683565b9050919050565b7f42657474696e6720636c6f736564000000000000000000000000000000000000600082015250565b60006126fc600e83612303565b9150612707826126c6565b602082019050919050565b6000602082019050818103600083015261272b816126ef565b9050919050565b7f4d61746368207374617274656400000000000000000000000000000000000000600082015250565b6000612768600d83612303565b915061277382612732565b602082019050919050565b600060208201905081810360008301526127978161275b565b9050919050565b7f496e76616c6964206f7574636f6d650000000000000000000000000000000000600082015250565b60006127d4600f83612303565b91506127df8261279e565b602082019050919050565b60006020820190508181036000830152612803816127c7565b9050919050565b7f426574206d757374206265203e20300000000000000000000000000000000000600082015250565b6000612840600f83612303565b915061284b8261280a565b602082019050919050565b6000602082019050818103600083015261286f81612833565b9050919050565b7f4e487b7100000000000000000000000000000000000000000000000000000000600052601160045260246000fd5b60006128b082611edc565b91506128bb83611edc565b92508282019050808211156128d3576128d2612876565b5b92915050565b60006128e482611f12565b91506128ef83611f12565b9250828203905060ff81111561290857612907612876565b5b92915050565b7f4e487b7100000000000000000000000000000000000000000000000000000000600052603260045260246000fd5b7f416c726561647920706c6163656420626574206f6e2074686973206d61726b6560008201527f7400000000000000000000000000000000000000000000000000000000000000602082015250565b6000612999602183612303565b91506129a48261293d565b604082019050919050565b600060208201905081810360008301526129c88161298c565b9050919050565b60006060820190506129e4600083018661207e565b6129f16020830185612377565b6129fe604083018461207e565b949350505050565b6000612a1182611edc565b9150612a1c83611edc565b9250828203905081811115612a3457612a33612876565b5b92915050565b6000612a4582611edc565b9150612a5083611edc565b9250828202612a5e81611edc565b91508282048414831517612a7557612a74612876565b5b5092915050565b7f4e487b7100000000000000000000000000000000000000000000000000000000600052601260045260246000fd5b6000612ab682611edc565b9150612ac183611edc565b925082612ad157612ad0612a7c565b5b828204905092915050565b6000612ae782611edc565b91507fffffffffffffffffffffffffffffffffffffffffffffffffffffffffffffffff8203612b1957612b18612876565b5b600182019050919050565b7f4f6e6c79206f776e657200000000000000000000000000000000000000000000600082015250565b6000612b5a600a83612303565b9150612b6582612b24565b602082019050919050565b60006020820190508181036000830152612b8981612b4d565b9050919050565b7f4e6f206665657320746f20776974686472617700000000000000000000000000600082015250565b6000612bc6601383612303565b9150612bd182612b90565b602082019050919050565b60006020820190508181036000830152612bf581612bb9565b9050919050565b600081905092915050565b50565b6000612c17600083612bfc565b9150612c2282612c07565b600082019050919050565b6000612c3882612c0a565b9150819050919050565b7f5472616e73666572206661696c65640000000000000000000000000000000000600082015250565b6000612c78600f83612303565b9150612c8382612c42565b602082019050919050565b60006020820190508181036000830152612ca781612c6b565b9050919050565b7f496e76616c696420726573756c74000000000000000000000000000000000000600082015250565b6000612ce4600e83612303565b9150612cef82612cae565b602082019050919050565b60006020820190508181036000830152612d1381612cd7565b9050919050565b7f42657474696e67207374696c6c206f70656e0000000000000000000000000000600082015250565b6000612d50601283612303565b9150612d5b82612d1a565b602082019050919050565b60006020820190508181036000830152612d7f81612d43565b9050919050565b7f416c7265616479207265736f6c76656400000000000000000000000000000000600082015250565b6000612dbc601083612303565b9150612dc782612d86565b602082019050919050565b60006020820190508181036000830152612deb81612daf565b9050919050565b6000604082019050612e07600083018561207e565b612e146020830184612377565b9392505050565b7f4d61726b6574206e6f74207265736f6c76656400000000000000000000000000600082015250565b6000612e51601383612303565b9150612e5c82612e1b565b602082019050919050565b60006020820190508181036000830152612e8081612e44565b9050919050565b7f416c726561647920636c61696d65640000000000000000000000000000000000600082015250565b6000612ebd600f83612303565b9150612ec882612e87565b602082019050919050565b60006020820190508181036000830152612eec81612eb0565b9050919050565b7f4e6f7420612077696e6e65720000000000000000000000000000000000000000600082015250565b6000612f29600c83612303565b9150612f3482612ef3565b602082019050919050565b60006020820190508181036000830152612f5881612f1c565b9050919050565b6000606082019050612f74600083018661207e565b612f8160208301856122ce565b612f8e604083018461207e565b949350505050565b7f53746172742074696d65206d75737420626520696e2066757475726500000000600082015250565b6000612fcc601c83612303565b9150612fd782612f96565b602082019050919050565b60006020820190508181036000830152612ffb81612fbf565b9050919050565b7f4e487b7100000000000000000000000000000000000000000000000000000000600052602260045260246000fd5b6000600282049050600182168061304957607f821691505b60208210810361305c5761305b613002565b5b50919050565b60008190508160005260206000209050919050565b60006020601f8301049050919050565b600082821b905092915050565b6000600883026130c47fffffffffffffffffffffffffffffffffffffffffffffffffffffffffffffffff82613087565b6130ce8683613087565b95508019841693508086168417925050509392505050565b6000819050919050565b600061310b61310661310184611edc565b6130e6565b611edc565b9050919050565b6000819050919050565b613125836130f0565b61313961313182613112565b848454613094565b825550505050565b600090565b61314e613141565b61315981848461311c565b505050565b5b8181101561317d57613172600082613146565b60018101905061315f565b5050565b601f8211156131c25761319381613062565b61319c84613077565b810160208510156131ab578190505b6131bf6131b785613077565b83018261315e565b50505b505050565b600082821c905092915050565b60006131e5600019846008026131c7565b1980831691505092915050565b60006131fe83836131d4565b9150826002028217905092915050565b613217826122f8565b67ffffffffffffffff8111156132305761322f612115565b5b61323a8254613031565b613245828285613181565b600060209050601f8311600181146132785760008415613266578287015190505b61327085826131f2565b8655506132d8565b601f19841661328686613062565b60005b828110156132ae57848901518255600182019150602085019450602081019050613289565b868310156132cb57848901516132c7601f8916826131d4565b8355505b6001600288020188555050505b505050505050565b60006060820190506132f5600083018661207e565b8181036020830152613307818561233e565b9050613316604083018461207e565b949350505050565b7f4d61746368206e6f742073746172746564000000000000000000000000000000600082015250565b6000613354601183612303565b915061335f8261331e565b602082019050919050565b6000602082019050818103600083015261338381613347565b9050919050565b7f416c726561647920636c6f736564000000000000000000000000000000000000600082015250565b60006133c0600e83612303565b91506133cb8261338a565b602082019050919050565b600060208201905081810360008301526133ef816133b3565b9050919050565b600061340182611f12565b915060ff820361341457613413612876565b5b600182019050919050565b600060039050919050565b6000819050919050565b60008160001c9050919050565b6000819050919050565b600061345e61345983613434565b613441565b9050919050565b6000613471825461344b565b9050919050565b6000600182019050919050565b61348e8161341f565b6134988184611fc3565b92506134a38261342a565b8060005b838110156134db576134b882613465565b6134c28782611fe7565b96506134cd83613478565b9250506001810190506134a7565b505050505050565b60006080820190506134f8600083018561207e565b6135056020830184613485565b939250505056fea2646970667358221220baa815c2da459367518af1e6292b160a4d4a2dbcb4e27165edfccf458b9f4be064736f6c63430008140033",
  "linkReferences": {},
  "deployedLinkReferences": {}
}