{
  "_format": "hh-sol-artifact-1",
  "contractName": "BetZillaNFT",
  "sourceName": "contracts/BetZillaNFT.sol",
  "abi": [
    {
      "inputs": [],
      "stateMutability": "nonpayable",
      "type": "constructor"
    },
    {
      "inputs": [
        {
          "internalType": "address",
          "name": "sender",
          "type": "address"
        },
        {
          "internalType": "uint256",
          "name": "tokenId",
          "type": "uint256"
        },
        {
          "internalType": "address",
          "name": "owner",
          "type": "address"
        }
      ],
      "name": "ERC721IncorrectOwner",
      "type": "error"
    },
    {
      "inputs": [
        {
          "internalType": "address",
          "name": "operator",
          "type": "address"
        },
        {
          "internalType": "uint256",
          "name": "tokenId",
          "type": "uint256"
        }
      ],
      "name": "ERC721InsufficientApproval",
      "type": "error"
    },
    {
      "inputs": [
        {
          "internalType": "address",
          "name": "approver",
          "type": "address"
        }
      ],
      "name": "ERC721InvalidApprover",
      "type": "error"
    },
    {
      "inputs": [
        {
          "internalType": "address",
          "name": "operator",
          "type": "address"
        }
      ],
      "name": "ERC721InvalidOperator",
      "type": "error"
    },
    {
      "inputs": [
        {
          "internalType": "address",
          "name": "owner",
          "type": "address"
        }
      ],
      "name": "ERC721InvalidOwner",
      "type": "error"
    },
    {
      "inputs": [
        {
          "internalType": "address",
          "name": "receiver",
          "type": "address"
        }
      ],
      "name": "ERC721InvalidReceiver",
      "type": "error"
    },
    {
      "inputs": [
        {
          "internalType": "address",
          "name": "sender",
          "type": "address"
        }
      ],
      "name": "ERC721InvalidSender",
      "type": "error"
    },
    {
      "inputs": [
        {
          "internalType": "uint256",
          "name": "tokenId",
          "type": "uint256"
        }
      ],
      "name": "ERC721NonexistentToken",
      "type": "error"
    },
    {
      "inputs": [
        {
          "internalType": "address",
          "name": "owner",
          "type": "address"
        }
      ],
      "name": "OwnableInvalidOwner",
      "type": "error"
    },
    {
      "inputs": [
        {
          "internalType": "address",
          "name": "account",
          "type": "address"
        }
      ],
      "name": "OwnableUnauthorizedAccount",
      "type": "error"
    },
    {
      "anonymous": false,
      "inputs": [
        {
          "indexed": true,
          "internalType": "address",
          "name": "owner",
          "type": "address"
        },
        {
          "indexed": true,
          "internalType": "address",
          "name": "approved",
          "type": "address"
        },
        {
          "indexed": true,
          "internalType": "uint256",
          "name": "tokenId",
          "type": "uint256"
        }
      ],
      "name": "Approval",
      "type": "event"
    },
    {
      "anonymous": false,
      "inputs": [
        {
          "indexed": true,
          "internalType": "address",
          "name": "owner",
          "type": "address"
        },
        {
          "indexed": true,
          "internalType": "address",
          "name": "operator",
          "type": "address"
        },
        {
          "indexed": false,
          "internalType": "bool",
          "name": "approved",
          "type": "bool"
        }
      ],
      "name": "ApprovalForAll",
      "type": "event"
    },
    {
      "anonymous": false,
      "inputs": [
        {
          "indexed": true,
          "internalType": "uint256",
          "name": "tokenId",
          "type": "uint256"
        }
      ],
      "name": "ListingCanceled",
      "type": "event"
    },
    {
      "anonymous": false,
      "inputs": [
        {
          "indexed": true,
          "internalType": "uint256",
          "name": "tokenId",
          "type": "uint256"
        },
        {
          "indexed": true,
          "internalType": "address",
          "name": "seller",
          "type": "address"
        },
        {
          "indexed": false,
          "internalType": "uint256",
          "name": "price",
          "type": "uint256"
        }
      ],
      "name": "NFTListed",
      "type": "event"
    },
    {
      "anonymous": false,
      "inputs": [
        {
          "indexed": true,
          "internalType": "address",
          "name": "to",
          "type": "address"
        },
        {
          "indexed": true,
          "internalType": "uint256",
          "name": "tokenId",
          "type": "uint256"
        },
        {
          "indexed": false,
          "internalType": "string",
          "name": "playerName",
          "type": "string"
        },
        {
          "indexed": false,
          "internalType": "uint8",
          "name": "rarity",
          "type": "uint8"
        }
      ],
      "name": "NFTMinted",
      "type": "event"
    },
    {
      "anonymous": false,
      "inputs": [
        {
          "indexed": true,
          "internalType": "uint256",
          "name": "tokenId",
          "type": "uint256"
        },
        {
          "indexed": true,
          "internalType": "address",
          "name": "seller",
          "type": "address"
        },
        {
          "indexed": true,
          "internalType": "address",
          "name": "buyer",
          "type": "address"
        },
        {
          "indexed": false,
          "internalType": "uint256",
          "name": "price",
          "type": "uint256"
        }
      ],
      "name": "NFTSold",
      "type": "event"
    },
    {
      "anonymous": false,
      "inputs": [
        {
          "indexed": true,
          "internalType": "uint256",
          "name": "tokenId",
          "type": "uint256"
        },
        {
          "indexed": true,
          "internalType": "address",
          "name": "user",
          "type": "address"
        }
      ],
      "name": "NFTUsed",
      "type": "event"
    },
    {
      "anonymous": false,
      "inputs": [
        {
          "indexed": true,
          "internalType": "address",
          "name": "previousOwner",
          "type": "address"
        },
        {
          "indexed": true,
          "internalType": "address",
          "name": "newOwner",
          "type": "address"
        }
      ],
      "name": "OwnershipTransferred",
      "type": "event"
    },
    {
      "anonymous": false,
      "inputs": [
        {
          "indexed": true,
          "internalType": "address",
          "name": "from",
          "type": "address"
        },
        {
          "indexed": true,
          "internalType": "address",
          "name": "to",
          "type": "address"
        },
        {
          "indexed": true,
          "internalType": "uint256",
          "name": "tokenId",
          "type": "uint256"
        }
      ],
      "name": "Transfer",
      "type": "event"
    },
    {
      "inputs": [
        {
          "internalType": "address",
          "name": "to",
          "type": "address"
        },
        {
          "internalType": "uint256",
          "name": "tokenId",
          "type": "uint256"
        }
      ],
      "name": "approve",
      "outputs": [],
      "stateMutability": "nonpayable",
      "type": "function"
    },
    {
      "inputs": [
        {
          "internalType": "address",
          "name": "owner",
          "type": "address"
        }
      ],
      "name": "balanceOf",
      "outputs": [
        {
          "internalType": "uint256",
          "name": "",
          "type": "uint256"
        }
      ],
      "stateMutability": "view",
      "type": "function"
    },
    {
      "inputs": [],
      "name": "betzillaContract",
      "outputs": [
        {
          "internalType": "address",
          "name": "",
          "type": "address"
        }
      ],
      "stateMutability": "view",
      "type": "function"
    },
    {
      "inputs": [
        {
          "internalType": "uint256",
          "name": "tokenId",
          "type": "uint256"
        }
      ],
      "name": "buyNFT",
      "outputs": [],
      "stateMutability": "payable",
      "type": "function"
    },
    {
      "inputs": [
        {
          "internalType": "uint256",
          "name": "tokenId",
          "type": "uint256"
        }
      ],
      "name": "cancelListing",
      "outputs": [],
      "stateMutability": "nonpayable",
      "type": "function"
    },
    {
      "inputs": [],
      "name": "getAllListings",
      "outputs": [
        {
          "components": [
            {
              "internalType": "uint256",
              "name": "tokenId",
              "type": "uint256"
            },
            {
              "internalType": "address",
              "name": "seller",
              "type": "address"
            },
            {
              "internalType": "uint256",
              "name": "price",
              "type": "uint256"
            },
            {
              "internalType": "bool",
              "name": "active",
              "type": "bool"
            }
          ],
          "internalType": "struct BetZillaNFT.NFTListing[]",
          "name": "",
          "type": "tuple[]"
        }
      ],
      "stateMutability": "view",
      "type": "function"
    },
    {
      "inputs": [
        {
          "internalType": "uint256",
          "name": "tokenId",
          "type": "uint256"
        }
      ],
      "name": "getApproved",
      "outputs": [
        {
          "internalType": "address",
          "name": "",
          "type": "address"
        }
      ],
      "stateMutability": "view",
      "type": "function"
    },
    {
      "inputs": [
        {
          "internalType": "uint256",
          "name": "tokenId",
          "type": "uint256"
        }
      ],
      "name": "getPlayerNFT",
      "outputs": [
        {
          "internalType": "string",
          "name": "playerName",
          "type": "string"
        },
        {
          "internalType": "uint8",
          "name": "rarity",
          "type": "uint8"
        },
        {
          "internalType": "uint256",
          "name": "multiplier",
          "type": "uint256"
        },
        {
          "internalType": "uint256",
          "name": "usesRemaining",
          "type": "uint256"
        },
        {
          "internalType": "string",
          "name": "imageUrl",
          "type": "string"
        }
      ],
      "stateMutability": "view",
      "type": "function"
    },
    {
      "inputs": [],
      "name": "getRarityInfo",
      "outputs": [
        {
          "internalType": "uint256[4]",
          "name": "currentSupply",
          "type": "uint256[4]"
        },
        {
          "internalType": "uint256[4]",
          "name": "maxSupply",
          "type": "uint256[4]"
        }
      ],
      "stateMutability": "view",
      "type": "function"
    },
    {
      "inputs": [
        {
          "internalType": "address",
          "name": "user",
          "type": "address"
        }
      ],
      "name": "getUserNFTs",
      "outputs": [
        {
          "internalType": "uint256[]",
          "name": "",
          "type": "uint256[]"
        }
      ],
      "stateMutability": "view",
      "type": "function"
    },
    {
      "inputs": [
        {
          "internalType": "address",
          "name": "owner",
          "type": "address"
        },
        {
          "internalType": "address",
          "name": "operator",
          "type": "address"
        }
      ],
      "name": "isApprovedForAll",
      "outputs": [
        {
          "internalType": "bool",
          "name": "",
          "type": "bool"
        }
      ],
      "stateMutability": "view",
      "type": "function"
    },
    {
      "inputs": [
        {
          "internalType": "uint256",
          "name": "tokenId",
          "type": "uint256"
        }
      ],
      "name": "isNFTUsable",
      "outputs": [
        {
          "internalType": "bool",
          "name": "",
          "type": "bool"
        }
      ],
      "stateMutability": "view",
      "type": "function"
    },
    {
      "inputs": [
        {
          "internalType": "uint256",
          "name": "tokenId",
          "type": "uint256"
        },
        {
          "internalType": "uint256",
          "name": "price",
          "type": "uint256"
        }
      ],
      "name": "listNFT",
      "outputs": [],
      "stateMutability": "nonpayable",
      "type": "function"
    },
    {
      "inputs": [],
      "name": "listingFeePercent",
      "outputs": [
        {
          "internalType": "uint256",
          "name": "",
          "type": "uint256"
        }
      ],
      "stateMutability": "view",
      "type": "function"
    },
    {
      "inputs": [
        {
          "internalType": "address",
          "name": "to",
          "type": "address"
        },
        {
          "internalType": "string",
          "name": "playerName",
          "type": "string"
        },
        {
          "internalType": "uint8",
          "name": "rarity",
          "type": "uint8"
        },
        {
          "internalType": "uint256",
          "name": "multiplier",
          "type": "uint256"
        },
        {
          "internalType": "uint256",
          "name": "maxUses",
          "type": "uint256"
        },
        {
          "internalType": "string",
          "name": "imageUrl",
          "type": "string"
        }
      ],
      "name": "mintPlayerNFT",
      "outputs": [
        {
          "internalType": "uint256",
          "name": "",
          "type": "uint256"
        }
      ],
      "stateMutability": "nonpayable",
      "type": "function"
    },
    {
      "inputs": [],
      "name": "name",
      "outputs": [
        {
          "internalType": "string",
          "name": "",
          "type": "string"
        }
      ],
      "stateMutability": "view",
      "type": "function"
    },
    {
      "inputs": [
        {
          "internalType": "uint256",
          "name": "",
          "type": "uint256"
        }
      ],
      "name": "nftListings",
      "outputs": [
        {
          "internalType": "uint256",
          "name": "tokenId",
          "type": "uint256"
        },
        {
          "internalType": "address",
          "name": "seller",
          "type": "address"
        },
        {
          "internalType": "uint256",
          "name": "price",
          "type": "uint256"
        },
        {
          "internalType": "bool",
          "name": "active",
          "type": "bool"
        }
      ],
      "stateMutability": "view",
      "type": "function"
    },
    {
      "inputs": [],
      "name": "owner",
      "outputs": [
        {
          "internalType": "address",
          "name": "",
          "type": "address"
        }
      ],
      "stateMutability": "view",
      "type": "function"
    },
    {
      "inputs": [
        {
          "internalType": "uint256",
          "name": "tokenId",
          "type": "uint256"
        }
      ],
      "name": "ownerOf",
      "outputs": [
        {
          "internalType": "address",
          "name": "",
          "type": "address"
        }
      ],
      "stateMutability": "view",
      "type": "function"
    },
    {
      "inputs": [
        {
          "internalType": "uint256",
          "name": "",
          "type": "uint256"
        }
      ],
      "name": "playerNFTs",
      "outputs": [
        {
          "internalType": "string",
          "name": "playerName",
          "type": "string"
        },
        {
          "internalType": "uint8",
          "name": "rarity",
          "type": "uint8"
        },
        {
          "internalType": "uint256",
          "name": "multiplier",
          "type": "uint256"
        },
        {
          "internalType": "uint256",
          "name": "maxUses",
          "type": "uint256"
        },
        {
          "internalType": "uint256",
          "name": "usesRemaining",
          "type": "uint256"
        },
        {
          "internalType": "string",
          "name": "imageUrl",
          "type": "string"
        },
        {
          "internalType": "bool",
          "name": "exists",
          "type": "bool"
        }
      ],
      "stateMutability": "view",
      "type": "function"
    },
    {
      "inputs": [
        {
          "internalType": "uint8",
          "name": "",
          "type": "uint8"
        }
      ],
      "name": "rarityMaxSupply",
      "outputs": [
        {
          "internalType": "uint256",
          "name": "",
          "type": "uint256"
        }
      ],
      "stateMutability": "view",
      "type": "function"
    },
    {
      "inputs": [
        {
          "internalType": "uint8",
          "name": "",
          "type": "uint8"
        }
      ],
      "name": "raritySupply",
      "outputs": [
        {
          "internalType": "uint256",
          "name": "",
          "type": "uint256"
        }
      ],
      "stateMutability": "view",
      "type": "function"
    },
    {
      "inputs": [],
      "name": "renounceOwnership",
      "outputs": [],
      "stateMutability": "nonpayable",
      "type": "function"
    },
    {
      "inputs": [
        {
          "internalType": "address",
          "name": "from",
          "type": "address"
        },
        {
          "internalType": "address",
          "name": "to",
          "type": "address"
        },
        {
          "internalType": "uint256",
          "name": "tokenId",
          "type": "uint256"
        }
      ],
      "name": "safeTransferFrom",
      "outputs": [],
      "stateMutability": "nonpayable",
      "type": "function"
    },
    {
      "inputs": [
        {
          "internalType": "address",
          "name": "from",
          "type": "address"
        },
        {
          "internalType": "address",
          "name": "to",
          "type": "address"
        },
        {
          "internalType": "uint256",
          "name": "tokenId",
          "type": "uint256"
        },
        {
          "internalType": "bytes",
          "name": "data",
          "type": "bytes"
        }
      ],
      "name": "safeTransferFrom",
      "outputs": [],
      "stateMutability": "nonpayable",
      "type": "function"
    },
    {
      "inputs": [
        {
          "internalType": "address",
          "name": "operator",
          "type": "address"
        },
        {
          "internalType": "bool",
          "name": "approved",
          "type": "bool"
        }
      ],
      "name": "setApprovalForAll",
      "outputs": [],
      "stateMutability": "nonpayable",
      "type": "function"
    },
    {
      "inputs": [
        {
          "internalType": "address",
          "name": "_betzillaContract",
          "type": "address"
        }
      ],
      "name": "setBetzillaContract",
      "outputs": [],
      "stateMutability": "nonpayable",
      "type": "function"
    },
    {
      "inputs": [
        {
          "internalType": "uint256",
          "name": "_feePercent",
          "type": "uint256"
        }
      ],
      "name": "setListingFeePercent",
      "outputs": [],
      "stateMutability": "nonpayable",
      "type": "function"
    },
    {
      "inputs": [
        {
          "internalType": "bytes4",
          "name": "interfaceId",
          "type": "bytes4"
        }
      ],
      "name": "supportsInterface",
      "outputs": [
        {
          "internalType": "bool",
          "name": "",
          "type": "bool"
        }
      ],
      "stateMutability": "view",
      "type": "function"
    },
    {
      "inputs": [],
      "name": "symbol",
      "outputs": [
        {
          "internalType": "string",
          "name": "",
          "type": "string"
        }
      ],
      "stateMutability": "view",
      "type": "function"
    },
    {
      "inputs": [
        {
          "internalType": "uint256",
          "name": "tokenId",
          "type": "uint256"
        }
      ],
      "name": "tokenURI",
      "outputs": [
        {
          "internalType": "string",
          "name": "",
          "type": "string"
        }
      ],
      "stateMutability": "view",
      "type": "function"
    },
    {
      "inputs": [
        {
          "internalType": "address",
          "name": "from",
          "type": "address"
        },
        {
          "internalType": "address",
          "name": "to",
          "type": "address"
        },
        {
          "internalType": "uint256",
          "name": "tokenId",
          "type": "uint256"
        }
      ],
      "name": "transferFrom",
      "outputs": [],
      "stateMutability": "nonpayable",
      "type": "function"
    },
    {
      "inputs": [
        {
          "internalType": "address",
          "name": "newOwner",
          "type": "address"
        }
      ],
      "name": "transferOwnership",
      "outputs": [],
      "stateMutability": "nonpayable",
      "type": "function"
    },
    {
      "inputs": [
        {
          "internalType": "uint256",
          "name": "tokenId",
          "type": "uint256"
        }
      ],
      "name": "useNFT",
      "outputs": [],
      "stateMutability": "nonpayable",
      "type": "function"
    },
    {
      "inputs": [],
      "name": "withdrawFees",
      "outputs": [],
      "stateMutability": "nonpayable",
      "type": "function"
    }
  ],
  "bytecode": "0x608060405260fa600c553480156200001657600080fd5b50336040518060400160405280601381526020017f4265745a696c6c6120506c61796572204e4654000000000000000000000000008152506040518060400160405280600681526020017f425a504e465400000000000000000000000000000000000000000000000000008152508160009081620000959190620004ee565b508060019081620000a79190620004ee565b505050600073ffffffffffffffffffffffffffffffffffffffff168173ffffffffffffffffffffffffffffffffffffffff16036200011f5760006040517f1e4fbdf70000000000000000000000000000000000000000000000000000000081526004016200011691906200061a565b60405180910390fd5b6200013081620001ae60201b60201c565b50612710600a6000600160ff168152602001908152602001600020819055506109c4600a6000600260ff168152602001908152602001600020819055506101f4600a6000600360ff168152602001908152602001600020819055506064600a6000600460ff1681526020019081526020016000208190555062000637565b6000600660009054906101000a900473ffffffffffffffffffffffffffffffffffffffff16905081600660006101000a81548173ffffffffffffffffffffffffffffffffffffffff021916908373ffffffffffffffffffffffffffffffffffffffff1602179055508173ffffffffffffffffffffffffffffffffffffffff168173ffffffffffffffffffffffffffffffffffffffff167f8be0079c531659141344cd1fd0a4f28419497f9722a3daafe3b4186f6b6457e060405160405180910390a35050565b600081519050919050565b7f4e487b7100000000000000000000000000000000000000000000000000000000600052604160045260246000fd5b7f4e487b7100000000000000000000000000000000000000000000000000000000600052602260045260246000fd5b60006002820490506001821680620002f657607f821691505b6020821081036200030c576200030b620002ae565b5b50919050565b60008190508160005260206000209050919050565b60006020601f8301049050919050565b600082821b905092915050565b600060088302620003767fffffffffffffffffffffffffffffffffffffffffffffffffffffffffffffffff8262000337565b62000382868362000337565b95508019841693508086168417925050509392505050565b6000819050919050565b6000819050919050565b6000620003cf620003c9620003c3846200039a565b620003a4565b6200039a565b9050919050565b6000819050919050565b620003eb83620003ae565b62000403620003fa82620003d6565b84845462000344565b825550505050565b600090565b6200041a6200040b565b62000427818484620003e0565b505050565b5b818110156200044f576200044360008262000410565b6001810190506200042d565b5050565b601f8211156200049e57620004688162000312565b620004738462000327565b8101602085101562000483578190505b6200049b620004928562000327565b8301826200042c565b50505b505050565b600082821c905092915050565b6000620004c360001984600802620004a3565b1980831691505092915050565b6000620004de8383620004b0565b9150826002028217905092915050565b620004f98262000274565b67ffffffffffffffff8111156200051557620005146200027f565b5b620005218254620002dd565b6200052e82828562000453565b600060209050601f83116001811462000566576000841562000551578287015190505b6200055d8582620004d0565b865550620005cd565b601f198416620005768662000312565b60005b82811015620005a05784890151825560018201915060208501945060208101905062000579565b86831015620005c05784890151620005bc601f891682620004b0565b8355505b6001600288020188555050505b505050505050565b600073ffffffffffffffffffffffffffffffffffffffff82169050919050565b60006200060282620005d5565b9050919050565b6200061481620005f5565b82525050565b600060208201905062000631600083018462000609565b92915050565b6155e880620006476000396000f3fe6080604052600436106102035760003560e01c80636352211e1161011857806395d89b41116100a0578063c87b56dd1161006f578063c87b56dd1461079d578063d902883a146107da578063e985e9c514610817578063eb15a71914610854578063f2fde38b1461087d57610203565b806395d89b41146106f5578063a22cb46514610720578063ae73ccec14610749578063b88d4fde1461077457610203565b8063782ffead116100e7578063782ffead146105f25780637c5bb03d146106355780638b9047b0146106755780638da5cb5b146106a157806394383f14146106cc57610203565b80636352211e146105245780636d63c5d91461056157806370a082311461059e578063715018a6146105db57610203565b806337eb93f41161019b578063476343ee1161016a578063476343ee1461046057806351ed82881461047757806352de4ee51461049357806355b9d443146104d05780636151ff2e146104f957610203565b806337eb93f4146103905780634099485b146103b957806342842e0e146103f657806345d00a121461041f57610203565b8063095ea7b3116101d7578063095ea7b3146102ea57806323b872dd14610313578063305a67a81461033c5780633356726c1461036557610203565b806280113a1461020857806301ffc9a71461024557806306fdde0314610282578063081812fc146102ad575b600080fd5b34801561021457600080fd5b5061022f600480360381019061022a91906137c2565b6108a6565b60405161023c9190613808565b60405180910390f35b34801561025157600080fd5b5061026c6004803603810190610267919061387b565b6108be565b60405161027991906138c3565b60405180910390f35b34801561028e57600080fd5b506102976109a0565b6040516102a4919061396e565b60405180910390f35b3480156102b957600080fd5b506102d460048036038101906102cf91906139bc565b610a32565b6040516102e19190613a2a565b60405180910390f35b3480156102f657600080fd5b50610311600480360381019061030c9190613a71565b610a4e565b005b34801561031f57600080fd5b5061033a60048036038101906103359190613ab1565b610a64565b005b34801561034857600080fd5b50610363600480360381019061035e91906139bc565b610b66565b005b34801561037157600080fd5b5061037a610ccc565b6040516103879190613a2a565b60405180910390f35b34801561039c57600080fd5b506103b760048036038101906103b291906139bc565b610cf2565b005b3480156103c557600080fd5b506103e060048036038101906103db91906137c2565b610d49565b6040516103ed9190613808565b60405180910390f35b34801561040257600080fd5b5061041d60048036038101906104189190613ab1565b610d61565b005b34801561042b57600080fd5b50610446600480360381019061044191906139bc565b610d81565b604051610457959493929190613b13565b60405180910390f35b34801561046c57600080fd5b50610475610fb6565b005b610491600480360381019061048c91906139bc565b611057565b005b34801561049f57600080fd5b506104ba60048036038101906104b59190613b74565b61129f565b6040516104c79190613c5f565b60405180910390f35b3480156104dc57600080fd5b506104f760048036038101906104f291906139bc565b611395565b005b34801561050557600080fd5b5061050e611556565b60405161051b9190613808565b60405180910390f35b34801561053057600080fd5b5061054b600480360381019061054691906139bc565b61155c565b6040516105589190613a2a565b60405180910390f35b34801561056d57600080fd5b50610588600480360381019061058391906139bc565b61156e565b60405161059591906138c3565b60405180910390f35b3480156105aa57600080fd5b506105c560048036038101906105c09190613b74565b611764565b6040516105d29190613808565b60405180910390f35b3480156105e757600080fd5b506105f061181e565b005b3480156105fe57600080fd5b50610619600480360381019061061491906139bc565b611832565b60405161062c9796959493929190613c81565b60405180910390f35b34801561064157600080fd5b5061065c600480360381019061065791906139bc565b61199e565b60405161066c9493929190613cfe565b60405180910390f35b34801561068157600080fd5b5061068a6119fb565b604051610698929190613dc7565b60405180910390f35b3480156106ad57600080fd5b506106b6611abf565b6040516106c39190613a2a565b60405180910390f35b3480156106d857600080fd5b506106f360048036038101906106ee9190613df1565b611ae9565b005b34801561070157600080fd5b5061070a611d24565b604051610717919061396e565b60405180910390f35b34801561072c57600080fd5b5061074760048036038101906107429190613e5d565b611db6565b005b34801561075557600080fd5b5061075e611dcc565b60405161076b9190613fbf565b60405180910390f35b34801561078057600080fd5b5061079b60048036038101906107969190614116565b611faa565b005b3480156107a957600080fd5b506107c460048036038101906107bf91906139bc565b611fcf565b6040516107d1919061396e565b60405180910390f35b3480156107e657600080fd5b5061080160048036038101906107fc919061423a565b612259565b60405161080e9190613808565b60405180910390f35b34801561082357600080fd5b5061083e600480360381019061083991906142ff565b6124d5565b60405161084b91906138c3565b60405180910390f35b34801561086057600080fd5b5061087b60048036038101906108769190613b74565b612569565b005b34801561088957600080fd5b506108a4600480360381019061089f9190613b74565b6125b5565b005b600a6020528060005260406000206000915090505481565b60007f80ac58cd000000000000000000000000000000000000000000000000000000007bffffffffffffffffffffffffffffffffffffffffffffffffffffffff1916827bffffffffffffffffffffffffffffffffffffffffffffffffffffffff1916148061098957507f5b5e139f000000000000000000000000000000000000000000000000000000007bffffffffffffffffffffffffffffffffffffffffffffffffffffffff1916827bffffffffffffffffffffffffffffffffffffffffffffffffffffffff1916145b8061099957506109988261263b565b5b9050919050565b6060600080546109af9061436e565b80601f01602080910402602001604051908101604052809291908181526020018280546109db9061436e565b8015610a285780601f106109fd57610100808354040283529160200191610a28565b820191906000526020600020905b815481529060010190602001808311610a0b57829003601f168201915b5050505050905090565b6000610a3d826126a5565b50610a478261272d565b9050919050565b610a608282610a5b61276a565b612772565b5050565b600073ffffffffffffffffffffffffffffffffffffffff168273ffffffffffffffffffffffffffffffffffffffff1603610ad65760006040517f64a0ae92000000000000000000000000000000000000000000000000000000008152600401610acd9190613a2a565b60405180910390fd5b6000610aea8383610ae561276a565b612784565b90508373ffffffffffffffffffffffffffffffffffffffff168173ffffffffffffffffffffffffffffffffffffffff1614610b60578382826040517f64283d7b000000000000000000000000000000000000000000000000000000008152600401610b579392919061439f565b60405180910390fd5b50505050565b3373ffffffffffffffffffffffffffffffffffffffff166008600083815260200190815260200160002060010160009054906101000a900473ffffffffffffffffffffffffffffffffffffffff1673ffffffffffffffffffffffffffffffffffffffff1614610c0a576040517f08c379a0000000000000000000000000000000000000000000000000000000008152600401610c0190614422565b60405180910390fd5b6008600082815260200190815260200160002060030160009054906101000a900460ff16610c6d576040517f08c379a0000000000000000000000000000000000000000000000000000000008152600401610c649061448e565b60405180910390fd5b60006008600083815260200190815260200160002060030160006101000a81548160ff021916908315150217905550807f5d7a33421ffa4bc07eb8929c5ace6393d3aa5ec3775e4e2f442527876b7dbe8860405160405180910390a250565b600d60009054906101000a900473ffffffffffffffffffffffffffffffffffffffff1681565b610cfa61299e565b6103e8811115610d3f576040517f08c379a0000000000000000000000000000000000000000000000000000000008152600401610d36906144fa565b60405180910390fd5b80600c8190555050565b60096020528060005260406000206000915090505481565b610d7c83838360405180602001604052806000815250611faa565b505050565b6060600080600060606007600087815260200190815260200160002060060160009054906101000a900460ff16610ded576040517f08c379a0000000000000000000000000000000000000000000000000000000008152600401610de490614566565b60405180910390fd5b6000600760008881526020019081526020016000206040518060e0016040529081600082018054610e1d9061436e565b80601f0160208091040260200160405190810160405280929190818152602001828054610e499061436e565b8015610e965780601f10610e6b57610100808354040283529160200191610e96565b820191906000526020600020905b815481529060010190602001808311610e7957829003601f168201915b505050505081526020016001820160009054906101000a900460ff1660ff1660ff168152602001600282015481526020016003820154815260200160048201548152602001600582018054610eea9061436e565b80601f0160208091040260200160405190810160405280929190818152602001828054610f169061436e565b8015610f635780601f10610f3857610100808354040283529160200191610f63565b820191906000526020600020905b815481529060010190602001808311610f4657829003601f168201915b505050505081526020016006820160009054906101000a900460ff161515151581525050905080600001518160200151826040015183608001518460a00151955095509550955095505091939590929450565b610fbe61299e565b600047905060008111611006576040517f08c379a0000000000000000000000000000000000000000000000000000000008152600401610ffd906145d2565b60405180910390fd5b61100e611abf565b73ffffffffffffffffffffffffffffffffffffffff166108fc829081150290604051600060405180830381858888f19350505050158015611053573d6000803e3d6000fd5b5050565b60006008600083815260200190815260200160002090508060030160009054906101000a900460ff166110bf576040517f08c379a00000000000000000000000000000000000000000000000000000000081526004016110b69061463e565b60405180910390fd5b8060020154341015611106576040517f08c379a00000000000000000000000000000000000000000000000000000000081526004016110fd906146aa565b60405180910390fd5b60008160010160009054906101000a900473ffffffffffffffffffffffffffffffffffffffff1690506000826002015490506000612710600c548361114b91906146f9565b611155919061476a565b905060008183611165919061479b565b905060008560030160006101000a81548160ff02191690831515021790555061118f843388612a25565b8373ffffffffffffffffffffffffffffffffffffffff166108fc829081150290604051600060405180830381858888f193505050501580156111d5573d6000803e3d6000fd5b5082341115611231573373ffffffffffffffffffffffffffffffffffffffff166108fc8434611204919061479b565b9081150290604051600060405180830381858888f1935050505015801561122f573d6000803e3d6000fd5b505b3373ffffffffffffffffffffffffffffffffffffffff168473ffffffffffffffffffffffffffffffffffffffff16877f8562eb94748e30bb0071e932744ce902b460c683474fcb3bfd567ffa16b1afb28660405161128f9190613808565b60405180910390a4505050505050565b606060006112ac83611764565b905060008167ffffffffffffffff8111156112ca576112c9613feb565b5b6040519080825280602002602001820160405280156112f85781602001602082028036833780820191505090505b509050600080600190505b600b548111611389578573ffffffffffffffffffffffffffffffffffffffff1661132c82612b92565b73ffffffffffffffffffffffffffffffffffffffff1603611376578083838151811061135b5761135a6147cf565b5b6020026020010181815250508180611372906147fe565b9250505b8080611381906147fe565b915050611303565b50819350505050919050565b600d60009054906101000a900473ffffffffffffffffffffffffffffffffffffffff1673ffffffffffffffffffffffffffffffffffffffff163373ffffffffffffffffffffffffffffffffffffffff1614611425576040517f08c379a000000000000000000000000000000000000000000000000000000000815260040161141c906148b8565b60405180910390fd5b6007600082815260200190815260200160002060060160009054906101000a900460ff16611488576040517f08c379a000000000000000000000000000000000000000000000000000000000815260040161147f90614566565b60405180910390fd5b600060076000838152602001908152602001600020905060008160030154111561150e5760008160040154116114f3576040517f08c379a00000000000000000000000000000000000000000000000000000000081526004016114ea90614924565b60405180910390fd5b80600401600081548092919061150890614944565b91905055505b3273ffffffffffffffffffffffffffffffffffffffff16827f14b34544297223ed985288e37006ab99f4b9c319b150dfa956e4297baafd454e60405160405180910390a35050565b600c5481565b6000611567826126a5565b9050919050565b60006007600083815260200190815260200160002060060160009054906101000a900460ff166115a1576000905061175f565b6000600760008481526020019081526020016000206040518060e00160405290816000820180546115d19061436e565b80601f01602080910402602001604051908101604052809291908181526020018280546115fd9061436e565b801561164a5780601f1061161f5761010080835404028352916020019161164a565b820191906000526020600020905b81548152906001019060200180831161162d57829003601f168201915b505050505081526020016001820160009054906101000a900460ff1660ff1660ff16815260200160028201548152602001600382015481526020016004820154815260200160058201805461169e9061436e565b80601f01602080910402602001604051908101604052809291908181526020018280546116ca9061436e565b80156117175780601f106116ec57610100808354040283529160200191611717565b820191906000526020600020905b8154815290600101906020018083116116fa57829003601f168201915b505050505081526020016006820160009054906101000a900460ff1615151515815250509050600081606001510361175357600191505061175f565b60008160800151119150505b919050565b60008073ffffffffffffffffffffffffffffffffffffffff168273ffffffffffffffffffffffffffffffffffffffff16036117d75760006040517f89c62b640000000000000000000000000000000000000000000000000000000081526004016117ce9190613a2a565b60405180910390fd5b600360008373ffffffffffffffffffffffffffffffffffffffff1673ffffffffffffffffffffffffffffffffffffffff168152602001908152602001600020549050919050565b61182661299e565b6118306000612bcf565b565b60076020528060005260406000206000915090508060000180546118559061436e565b80601f01602080910402602001604051908101604052809291908181526020018280546118819061436e565b80156118ce5780601f106118a3576101008083540402835291602001916118ce565b820191906000526020600020905b8154815290600101906020018083116118b157829003601f168201915b5050505050908060010160009054906101000a900460ff16908060020154908060030154908060040154908060050180546119089061436e565b80601f01602080910402602001604051908101604052809291908181526020018280546119349061436e565b80156119815780601f1061195657610100808354040283529160200191611981565b820191906000526020600020905b81548152906001019060200180831161196457829003601f168201915b5050505050908060060160009054906101000a900460ff16905087565b60086020528060005260406000206000915090508060000154908060010160009054906101000a900473ffffffffffffffffffffffffffffffffffffffff16908060020154908060030160009054906101000a900460ff16905084565b611a03613713565b611a0b613713565b6000600190505b60048160ff1611611aba57600960008260ff1660ff1681526020019081526020016000205483600183611a45919061496d565b60ff1660048110611a5957611a586147cf565b5b602002018181525050600a60008260ff1660ff1681526020019081526020016000205482600183611a8a919061496d565b60ff1660048110611a9e57611a9d6147cf565b5b6020020181815250508080611ab2906149a2565b915050611a12565b509091565b6000600660009054906101000a900473ffffffffffffffffffffffffffffffffffffffff16905090565b3373ffffffffffffffffffffffffffffffffffffffff16611b098361155c565b73ffffffffffffffffffffffffffffffffffffffff1614611b5f576040517f08c379a0000000000000000000000000000000000000000000000000000000008152600401611b5690614a17565b60405180910390fd5b60008111611ba2576040517f08c379a0000000000000000000000000000000000000000000000000000000008152600401611b9990614a83565b60405180910390fd5b6008600083815260200190815260200160002060030160009054906101000a900460ff1615611c06576040517f08c379a0000000000000000000000000000000000000000000000000000000008152600401611bfd90614aef565b60405180910390fd5b60405180608001604052808381526020013373ffffffffffffffffffffffffffffffffffffffff16815260200182815260200160011515815250600860008481526020019081526020016000206000820151816000015560208201518160010160006101000a81548173ffffffffffffffffffffffffffffffffffffffff021916908373ffffffffffffffffffffffffffffffffffffffff1602179055506040820151816002015560608201518160030160006101000a81548160ff0219169083151502179055509050503373ffffffffffffffffffffffffffffffffffffffff16827f5f9c03de076f5063cd3ebcfe8ef7aa8af378e4b35a83c77ba9777e97083879a283604051611d189190613808565b60405180910390a35050565b606060018054611d339061436e565b80601f0160208091040260200160405190810160405280929190818152602001828054611d5f9061436e565b8015611dac5780601f10611d8157610100808354040283529160200191611dac565b820191906000526020600020905b815481529060010190602001808311611d8f57829003601f168201915b5050505050905090565b611dc8611dc161276a565b8383612c95565b5050565b6060600080600190505b600b548111611e2a576008600082815260200190815260200160002060030160009054906101000a900460ff1615611e17578180611e13906147fe565b9250505b8080611e22906147fe565b915050611dd6565b5060008167ffffffffffffffff811115611e4757611e46613feb565b5b604051908082528060200260200182016040528015611e8057816020015b611e6d613735565b815260200190600190039081611e655790505b509050600080600190505b600b548111611fa0576008600082815260200190815260200160002060030160009054906101000a900460ff1615611f8d5760086000828152602001908152602001600020604051806080016040529081600082015481526020016001820160009054906101000a900473ffffffffffffffffffffffffffffffffffffffff1673ffffffffffffffffffffffffffffffffffffffff1673ffffffffffffffffffffffffffffffffffffffff168152602001600282015481526020016003820160009054906101000a900460ff161515151581525050838381518110611f7357611f726147cf565b5b60200260200101819052508180611f89906147fe565b9250505b8080611f98906147fe565b915050611e8b565b5081935050505090565b611fb5848484610a64565b611fc9611fc061276a565b85858585612e04565b50505050565b60606007600083815260200190815260200160002060060160009054906101000a900460ff16612034576040517f08c379a000000000000000000000000000000000000000000000000000000000815260040161202b90614566565b60405180910390fd5b6000600760008481526020019081526020016000206040518060e00160405290816000820180546120649061436e565b80601f01602080910402602001604051908101604052809291908181526020018280546120909061436e565b80156120dd5780601f106120b2576101008083540402835291602001916120dd565b820191906000526020600020905b8154815290600101906020018083116120c057829003601f168201915b505050505081526020016001820160009054906101000a900460ff1660ff1660ff1681526020016002820154815260200160038201548152602001600482015481526020016005820180546121319061436e565b80601f016020809104026020016040519081016040528092919081815260200182805461215d9061436e565b80156121aa5780601f1061217f576101008083540402835291602001916121aa565b820191906000526020600020905b81548152906001019060200180831161218d57829003601f168201915b505050505081526020016006820160009054906101000a900460ff1615151515815250509050600081600001518260a001516121e98460200151612fb5565b6121f68560400151613115565b6122038660800151613115565b604051602001612217959493929190614f4d565b604051602081830303815290604052905061223181613275565b6040516020016122419190615073565b60405160208183030381529060405292505050919050565b600061226361299e565b60018560ff161015801561227b575060048560ff1611155b6122ba576040517f08c379a00000000000000000000000000000000000000000000000000000000081526004016122b1906150e1565b60405180910390fd5b600a60008660ff1660ff16815260200190815260200160002054600960008760ff1660ff168152602001908152602001600020541061232e576040517f08c379a000000000000000000000000000000000000000000000000000000000815260040161232590615173565b60405180910390fd5b600b6000815480929190612341906147fe565b91905055506000600b549050600084905060038760ff161061236257600090505b6040518060e001604052808981526020018860ff168152602001878152602001828152602001828152602001858152602001600115158152506007600084815260200190815260200160002060008201518160000190816123c3919061533f565b5060208201518160010160006101000a81548160ff021916908360ff16021790555060408201518160020155606082015181600301556080820151816004015560a0820151816005019081612418919061533f565b5060c08201518160060160006101000a81548160ff021916908315150217905550905050600960008860ff1660ff1681526020019081526020016000206000815480929190612466906147fe565b9190505550612475898361328e565b818973ffffffffffffffffffffffffffffffffffffffff167fa28e409b956c5c50cc10f73fe082b662633e77493bd12a0384f494d6f5e100518a8a6040516124be929190615411565b60405180910390a381925050509695505050505050565b6000600560008473ffffffffffffffffffffffffffffffffffffffff1673ffffffffffffffffffffffffffffffffffffffff16815260200190815260200160002060008373ffffffffffffffffffffffffffffffffffffffff1673ffffffffffffffffffffffffffffffffffffffff16815260200190815260200160002060009054906101000a900460ff16905092915050565b61257161299e565b80600d60006101000a81548173ffffffffffffffffffffffffffffffffffffffff021916908373ffffffffffffffffffffffffffffffffffffffff16021790555050565b6125bd61299e565b600073ffffffffffffffffffffffffffffffffffffffff168173ffffffffffffffffffffffffffffffffffffffff160361262f5760006040517f1e4fbdf70000000000000000000000000000000000000000000000000000000081526004016126269190613a2a565b60405180910390fd5b61263881612bcf565b50565b60007f01ffc9a7000000000000000000000000000000000000000000000000000000007bffffffffffffffffffffffffffffffffffffffffffffffffffffffff1916827bffffffffffffffffffffffffffffffffffffffffffffffffffffffff1916149050919050565b6000806126b183612b92565b9050600073ffffffffffffffffffffffffffffffffffffffff168173ffffffffffffffffffffffffffffffffffffffff160361272457826040517f7e27328900000000000000000000000000000000000000000000000000000000815260040161271b9190613808565b60405180910390fd5b80915050919050565b60006004600083815260200190815260200160002060009054906101000a900473ffffffffffffffffffffffffffffffffffffffff169050919050565b600033905090565b61277f83838360016132ac565b505050565b60008061279084612b92565b9050600073ffffffffffffffffffffffffffffffffffffffff168373ffffffffffffffffffffffffffffffffffffffff16146127d2576127d1818486613471565b5b600073ffffffffffffffffffffffffffffffffffffffff168173ffffffffffffffffffffffffffffffffffffffff1614612863576128146000856000806132ac565b6001600360008373ffffffffffffffffffffffffffffffffffffffff1673ffffffffffffffffffffffffffffffffffffffff168152602001908152602001600020600082825403925050819055505b600073ffffffffffffffffffffffffffffffffffffffff168573ffffffffffffffffffffffffffffffffffffffff16146128e6576001600360008773ffffffffffffffffffffffffffffffffffffffff1673ffffffffffffffffffffffffffffffffffffffff168152602001908152602001600020600082825401925050819055505b846002600086815260200190815260200160002060006101000a81548173ffffffffffffffffffffffffffffffffffffffff021916908373ffffffffffffffffffffffffffffffffffffffff160217905550838573ffffffffffffffffffffffffffffffffffffffff168273ffffffffffffffffffffffffffffffffffffffff167fddf252ad1be2c89b69c2b068fc378daa952ba7f163c4a11628f55a4df523b3ef60405160405180910390a4809150509392505050565b6129a661276a565b73ffffffffffffffffffffffffffffffffffffffff166129c4611abf565b73ffffffffffffffffffffffffffffffffffffffff1614612a23576129e761276a565b6040517f118cdaa7000000000000000000000000000000000000000000000000000000008152600401612a1a9190613a2a565b60405180910390fd5b565b600073ffffffffffffffffffffffffffffffffffffffff168273ffffffffffffffffffffffffffffffffffffffff1603612a975760006040517f64a0ae92000000000000000000000000000000000000000000000000000000008152600401612a8e9190613a2a565b60405180910390fd5b6000612aa583836000612784565b9050600073ffffffffffffffffffffffffffffffffffffffff168173ffffffffffffffffffffffffffffffffffffffff1603612b1857816040517f7e273289000000000000000000000000000000000000000000000000000000008152600401612b0f9190613808565b60405180910390fd5b8373ffffffffffffffffffffffffffffffffffffffff168173ffffffffffffffffffffffffffffffffffffffff1614612b8c578382826040517f64283d7b000000000000000000000000000000000000000000000000000000008152600401612b839392919061439f565b60405180910390fd5b50505050565b60006002600083815260200190815260200160002060009054906101000a900473ffffffffffffffffffffffffffffffffffffffff169050919050565b6000600660009054906101000a900473ffffffffffffffffffffffffffffffffffffffff16905081600660006101000a81548173ffffffffffffffffffffffffffffffffffffffff021916908373ffffffffffffffffffffffffffffffffffffffff1602179055508173ffffffffffffffffffffffffffffffffffffffff168173ffffffffffffffffffffffffffffffffffffffff167f8be0079c531659141344cd1fd0a4f28419497f9722a3daafe3b4186f6b6457e060405160405180910390a35050565b600073ffffffffffffffffffffffffffffffffffffffff168273ffffffffffffffffffffffffffffffffffffffff1603612d0657816040517f5b08ba18000000000000000000000000000000000000000000000000000000008152600401612cfd9190613a2a565b60405180910390fd5b80600560008573ffffffffffffffffffffffffffffffffffffffff1673ffffffffffffffffffffffffffffffffffffffff16815260200190815260200160002060008473ffffffffffffffffffffffffffffffffffffffff1673ffffffffffffffffffffffffffffffffffffffff16815260200190815260200160002060006101000a81548160ff0219169083151502179055508173ffffffffffffffffffffffffffffffffffffffff168373ffffffffffffffffffffffffffffffffffffffff167f17307eab39ab6107e8899845ad3d59bd9653f200f220920489ca2b5937696c3183604051612df791906138c3565b60405180910390a3505050565b60008373ffffffffffffffffffffffffffffffffffffffff163b1115612fae578273ffffffffffffffffffffffffffffffffffffffff1663150b7a02868685856040518563ffffffff1660e01b8152600401612e639493929190615496565b6020604051808303816000875af1925050508015612e9f57506040513d601f19601f82011682018060405250810190612e9c91906154f7565b60015b612f23573d8060008114612ecf576040519150601f19603f3d011682016040523d82523d6000602084013e612ed4565b606091505b506000815103612f1b57836040517f64a0ae92000000000000000000000000000000000000000000000000000000008152600401612f129190613a2a565b60405180910390fd5b805181602001fd5b63150b7a0260e01b7bffffffffffffffffffffffffffffffffffffffffffffffffffffffff1916817bffffffffffffffffffffffffffffffffffffffffffffffffffffffff191614612fac57836040517f64a0ae92000000000000000000000000000000000000000000000000000000008152600401612fa39190613a2a565b60405180910390fd5b505b5050505050565b606060018260ff1603612fff576040518060400160405280600881526020017f22436f6d6d6f6e220000000000000000000000000000000000000000000000008152509050613110565b60028260ff1603613047576040518060400160405280600681526020017f22526172652200000000000000000000000000000000000000000000000000008152509050613110565b60038260ff160361308f576040518060400160405280600681526020017f22457069632200000000000000000000000000000000000000000000000000008152509050613110565b60048260ff16036130d7576040518060400160405280600b81526020017f224c6567656e64617279220000000000000000000000000000000000000000008152509050613110565b6040518060400160405280600981526020017f22556e6b6e6f776e22000000000000000000000000000000000000000000000081525090505b919050565b60606000820361315c576040518060400160405280600181526020017f30000000000000000000000000000000000000000000000000000000000000008152509050613270565b600082905060005b6000821461318e578080613177906147fe565b915050600a82613187919061476a565b9150613164565b60008167ffffffffffffffff8111156131aa576131a9613feb565b5b6040519080825280601f01601f1916602001820160405280156131dc5781602001600182028036833780820191505090505b5090505b60008514613269576001826131f5919061479b565b9150600a856132049190615524565b60306132109190615555565b60f81b818381518110613226576132256147cf565b5b60200101907effffffffffffffffffffffffffffffffffffffffffffffffffffffffffffff1916908160001a905350600a85613262919061476a565b94506131e0565b8093505050505b919050565b6060604051806020016040528060008152509050919050565b6132a8828260405180602001604052806000815250613535565b5050565b80806132e55750600073ffffffffffffffffffffffffffffffffffffffff168273ffffffffffffffffffffffffffffffffffffffff1614155b156134195760006132f5846126a5565b9050600073ffffffffffffffffffffffffffffffffffffffff168373ffffffffffffffffffffffffffffffffffffffff161415801561336057508273ffffffffffffffffffffffffffffffffffffffff168173ffffffffffffffffffffffffffffffffffffffff1614155b8015613373575061337181846124d5565b155b156133b557826040517fa9fbf51f0000000000000000000000000000000000000000000000000000000081526004016133ac9190613a2a565b60405180910390fd5b811561341757838573ffffffffffffffffffffffffffffffffffffffff168273ffffffffffffffffffffffffffffffffffffffff167f8c5be1e5ebec7d5bd14f71427d1e84f3dd0314c0f7b2291e5b200ac8c7c3b92560405160405180910390a45b505b836004600085815260200190815260200160002060006101000a81548173ffffffffffffffffffffffffffffffffffffffff021916908373ffffffffffffffffffffffffffffffffffffffff16021790555050505050565b61347c838383613559565b61353057600073ffffffffffffffffffffffffffffffffffffffff168373ffffffffffffffffffffffffffffffffffffffff16036134f157806040517f7e2732890000000000000000000000000000000000000000000000000000000081526004016134e89190613808565b60405180910390fd5b81816040517f177e802f000000000000000000000000000000000000000000000000000000008152600401613527929190615589565b60405180910390fd5b505050565b61353f838361361a565b61355461354a61276a565b6000858585612e04565b505050565b60008073ffffffffffffffffffffffffffffffffffffffff168373ffffffffffffffffffffffffffffffffffffffff161415801561361157508273ffffffffffffffffffffffffffffffffffffffff168473ffffffffffffffffffffffffffffffffffffffff1614806135d257506135d184846124d5565b5b8061361057508273ffffffffffffffffffffffffffffffffffffffff166135f88361272d565b73ffffffffffffffffffffffffffffffffffffffff16145b5b90509392505050565b600073ffffffffffffffffffffffffffffffffffffffff168273ffffffffffffffffffffffffffffffffffffffff160361368c5760006040517f64a0ae920000000000000000000000000000000000000000000000000000000081526004016136839190613a2a565b60405180910390fd5b600061369a83836000612784565b9050600073ffffffffffffffffffffffffffffffffffffffff168173ffffffffffffffffffffffffffffffffffffffff161461370e5760006040517f73c6ac6e0000000000000000000000000000000000000000000000000000000081526004016137059190613a2a565b60405180910390fd5b505050565b6040518060800160405280600490602082028036833780820191505090505090565b604051806080016040528060008152602001600073ffffffffffffffffffffffffffffffffffffffff168152602001600081526020016000151581525090565b6000604051905090565b600080fd5b600080fd5b600060ff82169050919050565b61379f81613789565b81146137aa57600080fd5b50565b6000813590506137bc81613796565b92915050565b6000602082840312156137d8576137d761377f565b5b60006137e6848285016137ad565b91505092915050565b6000819050919050565b613802816137ef565b82525050565b600060208201905061381d60008301846137f9565b92915050565b60007fffffffff0000000000000000000000000000000000000000000000000000000082169050919050565b61385881613823565b811461386357600080fd5b50565b6000813590506138758161384f565b92915050565b6000602082840312156138915761389061377f565b5b600061389f84828501613866565b91505092915050565b60008115159050919050565b6138bd816138a8565b82525050565b60006020820190506138d860008301846138b4565b92915050565b600081519050919050565b600082825260208201905092915050565b60005b838110156139185780820151818401526020810190506138fd565b60008484015250505050565b6000601f19601f8301169050919050565b6000613940826138de565b61394a81856138e9565b935061395a8185602086016138fa565b61396381613924565b840191505092915050565b600060208201905081810360008301526139888184613935565b905092915050565b613999816137ef565b81146139a457600080fd5b50565b6000813590506139b681613990565b92915050565b6000602082840312156139d2576139d161377f565b5b60006139e0848285016139a7565b91505092915050565b600073ffffffffffffffffffffffffffffffffffffffff82169050919050565b6000613a14826139e9565b9050919050565b613a2481613a09565b82525050565b6000602082019050613a3f6000830184613a1b565b92915050565b613a4e81613a09565b8114613a5957600080fd5b50565b600081359050613a6b81613a45565b92915050565b60008060408385031215613a8857613a8761377f565b5b6000613a9685828601613a5c565b9250506020613aa7858286016139a7565b9150509250929050565b600080600060608486031215613aca57613ac961377f565b5b6000613ad886828701613a5c565b9350506020613ae986828701613a5c565b9250506040613afa868287016139a7565b9150509250925092565b613b0d81613789565b82525050565b600060a0820190508181036000830152613b2d8188613935565b9050613b3c6020830187613b04565b613b4960408301866137f9565b613b5660608301856137f9565b8181036080830152613b688184613935565b90509695505050505050565b600060208284031215613b8a57613b8961377f565b5b6000613b9884828501613a5c565b91505092915050565b600081519050919050565b600082825260208201905092915050565b6000819050602082019050919050565b613bd6816137ef565b82525050565b6000613be88383613bcd565b60208301905092915050565b6000602082019050919050565b6000613c0c82613ba1565b613c168185613bac565b9350613c2183613bbd565b8060005b83811015613c52578151613c398882613bdc565b9750613c4483613bf4565b925050600181019050613c25565b5085935050505092915050565b60006020820190508181036000830152613c798184613c01565b905092915050565b600060e0820190508181036000830152613c9b818a613935565b9050613caa6020830189613b04565b613cb760408301886137f9565b613cc460608301876137f9565b613cd160808301866137f9565b81810360a0830152613ce38185613935565b9050613cf260c08301846138b4565b98975050505050505050565b6000608082019050613d1360008301876137f9565b613d206020830186613a1b565b613d2d60408301856137f9565b613d3a60608301846138b4565b95945050505050565b600060049050919050565b600081905092915050565b6000819050919050565b6000602082019050919050565b613d7981613d43565b613d838184613d4e565b9250613d8e82613d59565b8060005b83811015613dbf578151613da68782613bdc565b9650613db183613d63565b925050600181019050613d92565b505050505050565b600061010082019050613ddd6000830185613d70565b613dea6080830184613d70565b9392505050565b60008060408385031215613e0857613e0761377f565b5b6000613e16858286016139a7565b9250506020613e27858286016139a7565b9150509250929050565b613e3a816138a8565b8114613e4557600080fd5b50565b600081359050613e5781613e31565b92915050565b60008060408385031215613e7457613e7361377f565b5b6000613e8285828601613a5c565b9250506020613e9385828601613e48565b9150509250929050565b600081519050919050565b600082825260208201905092915050565b6000819050602082019050919050565b613ed281613a09565b82525050565b613ee1816138a8565b82525050565b608082016000820151613efd6000850182613bcd565b506020820151613f106020850182613ec9565b506040820151613f236040850182613bcd565b506060820151613f366060850182613ed8565b50505050565b6000613f488383613ee7565b60808301905092915050565b6000602082019050919050565b6000613f6c82613e9d565b613f768185613ea8565b9350613f8183613eb9565b8060005b83811015613fb2578151613f998882613f3c565b9750613fa483613f54565b925050600181019050613f85565b5085935050505092915050565b60006020820190508181036000830152613fd98184613f61565b905092915050565b600080fd5b600080fd5b7f4e487b7100000000000000000000000000000000000000000000000000000000600052604160045260246000fd5b61402382613924565b810181811067ffffffffffffffff8211171561404257614041613feb565b5b80604052505050565b6000614055613775565b9050614061828261401a565b919050565b600067ffffffffffffffff82111561408157614080613feb565b5b61408a82613924565b9050602081019050919050565b82818337600083830152505050565b60006140b96140b484614066565b61404b565b9050828152602081018484840111156140d5576140d4613fe6565b5b6140e0848285614097565b509392505050565b600082601f8301126140fd576140fc613fe1565b5b813561410d8482602086016140a6565b91505092915050565b600080600080608085870312156141305761412f61377f565b5b600061413e87828801613a5c565b945050602061414f87828801613a5c565b9350506040614160878288016139a7565b925050606085013567ffffffffffffffff81111561418157614180613784565b5b61418d878288016140e8565b91505092959194509250565b600067ffffffffffffffff8211156141b4576141b3613feb565b5b6141bd82613924565b9050602081019050919050565b60006141dd6141d884614199565b61404b565b9050828152602081018484840111156141f9576141f8613fe6565b5b614204848285614097565b509392505050565b600082601f83011261422157614220613fe1565b5b81356142318482602086016141ca565b91505092915050565b60008060008060008060c087890312156142575761425661377f565b5b600061426589828a01613a5c565b965050602087013567ffffffffffffffff81111561428657614285613784565b5b61429289828a0161420c565b95505060406142a389828a016137ad565b94505060606142b489828a016139a7565b93505060806142c589828a016139a7565b92505060a087013567ffffffffffffffff8111156142e6576142e5613784565b5b6142f289828a0161420c565b9150509295509295509295565b600080604083850312156143165761431561377f565b5b600061432485828601613a5c565b925050602061433585828601613a5c565b9150509250929050565b7f4e487b7100000000000000000000000000000000000000000000000000000000600052602260045260246000fd5b6000600282049050600182168061438657607f821691505b6020821081036143995761439861433f565b5b50919050565b60006060820190506143b46000830186613a1b565b6143c160208301856137f9565b6143ce6040830184613a1b565b949350505050565b7f4e6f7420796f7572206c697374696e6700000000000000000000000000000000600082015250565b600061440c6010836138e9565b9150614417826143d6565b602082019050919050565b6000602082019050818103600083015261443b816143ff565b9050919050565b7f4c697374696e67206e6f74206163746976650000000000000000000000000000600082015250565b60006144786012836138e9565b915061448382614442565b602082019050919050565b600060208201905081810360008301526144a78161446b565b9050919050565b7f4665652063616e6e6f7420657863656564203130250000000000000000000000600082015250565b60006144e46015836138e9565b91506144ef826144ae565b602082019050919050565b60006020820190508181036000830152614513816144d7565b9050919050565b7f4e465420646f6573206e6f742065786973740000000000000000000000000000600082015250565b60006145506012836138e9565b915061455b8261451a565b602082019050919050565b6000602082019050818103600083015261457f81614543565b9050919050565b7f4e6f206665657320746f20776974686472617700000000000000000000000000600082015250565b60006145bc6013836138e9565b91506145c782614586565b602082019050919050565b600060208201905081810360008301526145eb816145af565b9050919050565b7f4e4654206e6f7420666f722073616c6500000000000000000000000000000000600082015250565b60006146286010836138e9565b9150614633826145f2565b602082019050919050565b600060208201905081810360008301526146578161461b565b9050919050565b7f496e73756666696369656e74207061796d656e74000000000000000000000000600082015250565b60006146946014836138e9565b915061469f8261465e565b602082019050919050565b600060208201905081810360008301526146c381614687565b9050919050565b7f4e487b7100000000000000000000000000000000000000000000000000000000600052601160045260246000fd5b6000614704826137ef565b915061470f836137ef565b925082820261471d816137ef565b91508282048414831517614734576147336146ca565b5b5092915050565b7f4e487b7100000000000000000000000000000000000000000000000000000000600052601260045260246000fd5b6000614775826137ef565b9150614780836137ef565b9250826147905761478f61473b565b5b828204905092915050565b60006147a6826137ef565b91506147b1836137ef565b92508282039050818111156147c9576147c86146ca565b5b92915050565b7f4e487b7100000000000000000000000000000000000000000000000000000000600052603260045260246000fd5b6000614809826137ef565b91507fffffffffffffffffffffffffffffffffffffffffffffffffffffffffffffffff820361483b5761483a6146ca565b5b600182019050919050565b7f4f6e6c79204265745a696c6c6120636f6e74726163742063616e2063616c6c2060008201527f7468697300000000000000000000000000000000000000000000000000000000602082015250565b60006148a26024836138e9565b91506148ad82614846565b604082019050919050565b600060208201905081810360008301526148d181614895565b9050919050565b7f4e6f20757365732072656d61696e696e67000000000000000000000000000000600082015250565b600061490e6011836138e9565b9150614919826148d8565b602082019050919050565b6000602082019050818103600083015261493d81614901565b9050919050565b600061494f826137ef565b915060008203614962576149616146ca565b5b600182039050919050565b600061497882613789565b915061498383613789565b9250828203905060ff81111561499c5761499b6146ca565b5b92915050565b60006149ad82613789565b915060ff82036149c0576149bf6146ca565b5b600182019050919050565b7f4e6f7420746f6b656e206f776e65720000000000000000000000000000000000600082015250565b6000614a01600f836138e9565b9150614a0c826149cb565b602082019050919050565b60006020820190508181036000830152614a30816149f4565b9050919050565b7f5072696365206d7573742062652067726561746572207468616e203000000000600082015250565b6000614a6d601c836138e9565b9150614a7882614a37565b602082019050919050565b60006020820190508181036000830152614a9c81614a60565b9050919050565b7f4e465420616c7265616479206c69737465640000000000000000000000000000600082015250565b6000614ad96012836138e9565b9150614ae482614aa3565b602082019050919050565b60006020820190508181036000830152614b0881614acc565b9050919050565b600081905092915050565b7f7b226e616d65223a220000000000000000000000000000000000000000000000600082015250565b6000614b50600983614b0f565b9150614b5b82614b1a565b600982019050919050565b6000614b71826138de565b614b7b8185614b0f565b9350614b8b8185602086016138fa565b80840191505092915050565b7f222c000000000000000000000000000000000000000000000000000000000000600082015250565b6000614bcd600283614b0f565b9150614bd882614b97565b600282019050919050565b7f226465736372697074696f6e223a224265745a696c6c6120506c61796572204e60008201527f4654222c00000000000000000000000000000000000000000000000000000000602082015250565b6000614c3f602483614b0f565b9150614c4a82614be3565b602482019050919050565b7f22696d616765223a220000000000000000000000000000000000000000000000600082015250565b6000614c8b600983614b0f565b9150614c9682614c55565b600982019050919050565b7f2261747472696275746573223a5b000000000000000000000000000000000000600082015250565b6000614cd7600e83614b0f565b9150614ce282614ca1565b600e82019050919050565b7f7b2274726169745f74797065223a22526172697479222c2276616c7565223a00600082015250565b6000614d23601f83614b0f565b9150614d2e82614ced565b601f82019050919050565b7f7d2c000000000000000000000000000000000000000000000000000000000000600082015250565b6000614d6f600283614b0f565b9150614d7a82614d39565b600282019050919050565b7f7b2274726169745f74797065223a224d756c7469706c696572222c2276616c7560008201527f65223a2200000000000000000000000000000000000000000000000000000000602082015250565b6000614de1602483614b0f565b9150614dec82614d85565b602482019050919050565b7f78227d2c00000000000000000000000000000000000000000000000000000000600082015250565b6000614e2d600483614b0f565b9150614e3882614df7565b600482019050919050565b7f7b2274726169745f74797065223a22557365732052656d61696e696e67222c2260008201527f76616c7565223a22000000000000000000000000000000000000000000000000602082015250565b6000614e9f602883614b0f565b9150614eaa82614e43565b602882019050919050565b7f227d000000000000000000000000000000000000000000000000000000000000600082015250565b6000614eeb600283614b0f565b9150614ef682614eb5565b600282019050919050565b7f5d7d000000000000000000000000000000000000000000000000000000000000600082015250565b6000614f37600283614b0f565b9150614f4282614f01565b600282019050919050565b6000614f5882614b43565b9150614f648288614b66565b9150614f6f82614bc0565b9150614f7a82614c32565b9150614f8582614c7e565b9150614f918287614b66565b9150614f9c82614bc0565b9150614fa782614cca565b9150614fb282614d16565b9150614fbe8286614b66565b9150614fc982614d62565b9150614fd482614dd4565b9150614fe08285614b66565b9150614feb82614e20565b9150614ff682614e92565b91506150028284614b66565b915061500d82614ede565b915061501882614f2a565b91508190509695505050505050565b7f646174613a6170706c69636174696f6e2f6a736f6e3b6261736536342c000000600082015250565b600061505d601d83614b0f565b915061506882615027565b601d82019050919050565b600061507e82615050565b915061508a8284614b66565b915081905092915050565b7f496e76616c696420726172697479000000000000000000000000000000000000600082015250565b60006150cb600e836138e9565b91506150d682615095565b602082019050919050565b600060208201905081810360008301526150fa816150be565b9050919050565b7f4d617820737570706c79207265616368656420666f722074686973207261726960008201527f7479000000000000000000000000000000000000000000000000000000000000602082015250565b600061515d6022836138e9565b915061516882615101565b604082019050919050565b6000602082019050818103600083015261518c81615150565b9050919050565b60008190508160005260206000209050919050565b60006020601f8301049050919050565b600082821b905092915050565b6000600883026151f57fffffffffffffffffffffffffffffffffffffffffffffffffffffffffffffffff826151b8565b6151ff86836151b8565b95508019841693508086168417925050509392505050565b6000819050919050565b600061523c615237615232846137ef565b615217565b6137ef565b9050919050565b6000819050919050565b61525683615221565b61526a61526282615243565b8484546151c5565b825550505050565b600090565b61527f615272565b61528a81848461524d565b505050565b5b818110156152ae576152a3600082615277565b600181019050615290565b5050565b601f8211156152f3576152c481615193565b6152cd846151a8565b810160208510156152dc578190505b6152f06152e8856151a8565b83018261528f565b50505b505050565b600082821c905092915050565b6000615316600019846008026152f8565b1980831691505092915050565b600061532f8383615305565b9150826002028217905092915050565b615348826138de565b67ffffffffffffffff81111561536157615360613feb565b5b61536b825461436e565b6153768282856152b2565b600060209050601f8311600181146153a95760008415615397578287015190505b6153a18582615323565b865550615409565b601f1984166153b786615193565b60005b828110156153df578489015182556001820191506020850194506020810190506153ba565b868310156153fc57848901516153f8601f891682615305565b8355505b6001600288020188555050505b505050505050565b6000604082019050818103600083015261542b8185613935565b905061543a6020830184613b04565b9392505050565b600081519050919050565b600082825260208201905092915050565b600061546882615441565b615472818561544c565b93506154828185602086016138fa565b61548b81613924565b840191505092915050565b60006080820190506154ab6000830187613a1b565b6154b86020830186613a1b565b6154c560408301856137f9565b81810360608301526154d7818461545d565b905095945050505050565b6000815190506154f18161384f565b92915050565b60006020828403121561550d5761550c61377f565b5b600061551b848285016154e2565b91505092915050565b600061552f826137ef565b915061553a836137ef565b92508261554a5761554961473b565b5b828206905092915050565b6000615560826137ef565b915061556b836137ef565b9250828201905080821115615583576155826146ca565b5b92915050565b600060408201905061559e6000830185613a1b565b6155ab60208301846137f9565b939250505056fea2646970667358221220701800c2d7c65bb6fff3ebc7f95f20ccfa4ae0fe328f4616e8113798c198f54e64736f6c63430008140033",
  "linkReferences": {},
  "deployedLinkReferences": {}
}